{
	"contracts/e3/donation_tracker.sol": {
		"DonationTracker": {
			"abi": [
				{
					"anonymous": false,
					"inputs": [
						{
							"indexed": true,
							"internalType": "address",
							"name": "donor",
							"type": "address"
						},
						{
							"indexed": true,
							"internalType": "address",
							"name": "recipient",
							"type": "address"
						},
						{
							"indexed": false,
							"internalType": "uint256",
							"name": "amount",
							"type": "uint256"
						},
						{
							"indexed": false,
							"internalType": "string",
							"name": "name",
							"type": "string"
						},
						{
							"indexed": false,
							"internalType": "string",
							"name": "message",
							"type": "string"
						}
					],
					"name": "DonationMade",
					"type": "event"
				},
				{
					"anonymous": false,
					"inputs": [
						{
							"indexed": true,
							"internalType": "address",
							"name": "recipient",
							"type": "address"
						},
						{
							"indexed": false,
							"internalType": "uint256",
							"name": "amount",
							"type": "uint256"
						}
					],
					"name": "Withdrawal",
					"type": "event"
				},
				{
					"inputs": [
						{
							"internalType": "address",
							"name": "recipient",
							"type": "address"
						},
						{
							"internalType": "string",
							"name": "donorName",
							"type": "string"
						},
						{
							"internalType": "string",
							"name": "donorMessage",
							"type": "string"
						}
					],
					"name": "donate",
					"outputs": [],
					"stateMutability": "payable",
					"type": "function"
				},
				{
					"inputs": [
						{
							"internalType": "address",
							"name": "recipient",
							"type": "address"
						}
					],
					"name": "getBalance",
					"outputs": [
						{
							"internalType": "uint256",
							"name": "",
							"type": "uint256"
						}
					],
					"stateMutability": "view",
					"type": "function"
				},
				{
					"inputs": [
						{
							"internalType": "address",
							"name": "recipient",
							"type": "address"
						}
					],
					"name": "getDonationHistory",
					"outputs": [
						{
							"components": [
								{
									"internalType": "address",
									"name": "donor",
									"type": "address"
								},
								{
									"internalType": "uint256",
									"name": "amount",
									"type": "uint256"
								},
								{
									"internalType": "string",
									"name": "name",
									"type": "string"
								},
								{
									"internalType": "string",
									"name": "message",
									"type": "string"
								},
								{
									"internalType": "uint256",
									"name": "timestamp",
									"type": "uint256"
								}
							],
							"internalType": "struct DonationTracker.Donation[]",
							"name": "",
							"type": "tuple[]"
						}
					],
					"stateMutability": "view",
					"type": "function"
				},
				{
					"inputs": [],
					"name": "withdraw",
					"outputs": [],
					"stateMutability": "nonpayable",
					"type": "function"
				}
			],
			"devdoc": {
				"kind": "dev",
				"methods": {},
				"version": 1
			},
			"evm": {
				"assembly": "    /* \"contracts/e3/donation_tracker.sol\":61:1855  contract DonationTracker {... */\n  mstore(0x40, 0x80)\n  callvalue\n  dup1\n  iszero\n  tag_1\n  jumpi\n  revert(0x00, 0x00)\ntag_1:\n  pop\n  dataSize(sub_0)\n  dup1\n  dataOffset(sub_0)\n  0x00\n  codecopy\n  0x00\n  return\nstop\n\nsub_0: assembly {\n        /* \"contracts/e3/donation_tracker.sol\":61:1855  contract DonationTracker {... */\n      mstore(0x40, 0x80)\n      jumpi(tag_1, lt(calldatasize, 0x04))\n      shr(0xe0, calldataload(0x00))\n      dup1\n      0x1280db73\n      eq\n      tag_2\n      jumpi\n      dup1\n      0x3ccfd60b\n      eq\n      tag_3\n      jumpi\n      dup1\n      0xa59fe388\n      eq\n      tag_4\n      jumpi\n      dup1\n      0xf8b2cb4f\n      eq\n      tag_5\n      jumpi\n    tag_1:\n      revert(0x00, 0x00)\n        /* \"contracts/e3/donation_tracker.sol\":605:1239  function donate(... */\n    tag_2:\n      tag_6\n      0x04\n      dup1\n      calldatasize\n      sub\n      dup2\n      add\n      swap1\n      tag_7\n      swap2\n      swap1\n      tag_8\n      jump\t// in\n    tag_7:\n      tag_9\n      jump\t// in\n    tag_6:\n      stop\n        /* \"contracts/e3/donation_tracker.sol\":1247:1577  function withdraw() external {... */\n    tag_3:\n      callvalue\n      dup1\n      iszero\n      tag_10\n      jumpi\n      revert(0x00, 0x00)\n    tag_10:\n      pop\n      tag_11\n      tag_12\n      jump\t// in\n    tag_11:\n      stop\n        /* \"contracts/e3/donation_tracker.sol\":1585:1728  function getDonationHistory(address recipient) external view returns (Donation[] memory) {... */\n    tag_4:\n      callvalue\n      dup1\n      iszero\n      tag_13\n      jumpi\n      revert(0x00, 0x00)\n    tag_13:\n      pop\n      tag_14\n      0x04\n      dup1\n      calldatasize\n      sub\n      dup2\n      add\n      swap1\n      tag_15\n      swap2\n      swap1\n      tag_16\n      jump\t// in\n    tag_15:\n      tag_17\n      jump\t// in\n    tag_14:\n      mload(0x40)\n      tag_18\n      swap2\n      swap1\n      tag_19\n      jump\t// in\n    tag_18:\n      mload(0x40)\n      dup1\n      swap2\n      sub\n      swap1\n      return\n        /* \"contracts/e3/donation_tracker.sol\":1736:1852  function getBalance(address recipient) external view returns (uint256) {... */\n    tag_5:\n      callvalue\n      dup1\n      iszero\n      tag_20\n      jumpi\n      revert(0x00, 0x00)\n    tag_20:\n      pop\n      tag_21\n      0x04\n      dup1\n      calldatasize\n      sub\n      dup2\n      add\n      swap1\n      tag_22\n      swap2\n      swap1\n      tag_16\n      jump\t// in\n    tag_22:\n      tag_23\n      jump\t// in\n    tag_21:\n      mload(0x40)\n      tag_24\n      swap2\n      swap1\n      tag_25\n      jump\t// in\n    tag_24:\n      mload(0x40)\n      dup1\n      swap2\n      sub\n      swap1\n      return\n        /* \"contracts/e3/donation_tracker.sol\":605:1239  function donate(... */\n    tag_9:\n        /* \"contracts/e3/donation_tracker.sol\":775:776  0 */\n      0x00\n        /* \"contracts/e3/donation_tracker.sol\":763:772  msg.value */\n      callvalue\n        /* \"contracts/e3/donation_tracker.sol\":763:776  msg.value > 0 */\n      gt\n        /* \"contracts/e3/donation_tracker.sol\":755:815  require(msg.value > 0, \"Donation must be greater than zero\") */\n      tag_27\n      jumpi\n      mload(0x40)\n      0x08c379a000000000000000000000000000000000000000000000000000000000\n      dup2\n      mstore\n      0x04\n      add\n      tag_28\n      swap1\n      tag_29\n      jump\t// in\n    tag_28:\n      mload(0x40)\n      dup1\n      swap2\n      sub\n      swap1\n      revert\n    tag_27:\n        /* \"contracts/e3/donation_tracker.sol\":826:843  donationsReceived */\n      0x00\n        /* \"contracts/e3/donation_tracker.sol\":826:854  donationsReceived[recipient] */\n      0x00\n        /* \"contracts/e3/donation_tracker.sol\":844:853  recipient */\n      dup5\n        /* \"contracts/e3/donation_tracker.sol\":826:854  donationsReceived[recipient] */\n      0xffffffffffffffffffffffffffffffffffffffff\n      and\n      0xffffffffffffffffffffffffffffffffffffffff\n      and\n      dup2\n      mstore\n      0x20\n      add\n      swap1\n      dup2\n      mstore\n      0x20\n      add\n      0x00\n      keccak256\n        /* \"contracts/e3/donation_tracker.sol\":874:1090  Donation({... */\n      mload(0x40)\n      dup1\n      0xa0\n      add\n      0x40\n      mstore\n      dup1\n        /* \"contracts/e3/donation_tracker.sol\":909:919  msg.sender */\n      caller\n        /* \"contracts/e3/donation_tracker.sol\":874:1090  Donation({... */\n      0xffffffffffffffffffffffffffffffffffffffff\n      and\n      dup2\n      mstore\n      0x20\n      add\n        /* \"contracts/e3/donation_tracker.sol\":946:955  msg.value */\n      callvalue\n        /* \"contracts/e3/donation_tracker.sol\":874:1090  Donation({... */\n      dup2\n      mstore\n      0x20\n      add\n        /* \"contracts/e3/donation_tracker.sol\":980:989  donorName */\n      dup5\n        /* \"contracts/e3/donation_tracker.sol\":874:1090  Donation({... */\n      dup2\n      mstore\n      0x20\n      add\n        /* \"contracts/e3/donation_tracker.sol\":1017:1029  donorMessage */\n      dup4\n        /* \"contracts/e3/donation_tracker.sol\":874:1090  Donation({... */\n      dup2\n      mstore\n      0x20\n      add\n        /* \"contracts/e3/donation_tracker.sol\":1059:1074  block.timestamp */\n      timestamp\n        /* \"contracts/e3/donation_tracker.sol\":874:1090  Donation({... */\n      dup2\n      mstore\n      pop\n        /* \"contracts/e3/donation_tracker.sol\":826:1101  donationsReceived[recipient].push(... */\n      swap1\n      dup1\n      0x01\n      dup2\n      sload\n      add\n      dup1\n      dup3\n      sstore\n      dup1\n      swap2\n      pop\n      pop\n      0x01\n      swap1\n      sub\n      swap1\n      0x00\n      mstore\n      keccak256(0x00, 0x20)\n      swap1\n      0x05\n      mul\n      add\n      0x00\n      swap1\n      swap2\n      swap1\n      swap2\n      swap1\n      swap2\n      pop\n      0x00\n      dup3\n      add\n      mload\n      dup2\n      0x00\n      add\n      exp(0x0100, 0x00)\n      dup2\n      sload\n      dup2\n      0xffffffffffffffffffffffffffffffffffffffff\n      mul\n      not\n      and\n      swap1\n      dup4\n      0xffffffffffffffffffffffffffffffffffffffff\n      and\n      mul\n      or\n      swap1\n      sstore\n      pop\n      0x20\n      dup3\n      add\n      mload\n      dup2\n      0x01\n      add\n      sstore\n      0x40\n      dup3\n      add\n      mload\n      dup2\n      0x02\n      add\n      swap1\n      dup2\n      tag_31\n      swap2\n      swap1\n      tag_32\n      jump\t// in\n    tag_31:\n      pop\n      0x60\n      dup3\n      add\n      mload\n      dup2\n      0x03\n      add\n      swap1\n      dup2\n      tag_33\n      swap2\n      swap1\n      tag_32\n      jump\t// in\n    tag_33:\n      pop\n      0x80\n      dup3\n      add\n      mload\n      dup2\n      0x04\n      add\n      sstore\n      pop\n      pop\n        /* \"contracts/e3/donation_tracker.sol\":1135:1144  msg.value */\n      callvalue\n        /* \"contracts/e3/donation_tracker.sol\":1112:1120  balances */\n      0x01\n        /* \"contracts/e3/donation_tracker.sol\":1112:1131  balances[recipient] */\n      0x00\n        /* \"contracts/e3/donation_tracker.sol\":1121:1130  recipient */\n      dup6\n        /* \"contracts/e3/donation_tracker.sol\":1112:1131  balances[recipient] */\n      0xffffffffffffffffffffffffffffffffffffffff\n      and\n      0xffffffffffffffffffffffffffffffffffffffff\n      and\n      dup2\n      mstore\n      0x20\n      add\n      swap1\n      dup2\n      mstore\n      0x20\n      add\n      0x00\n      keccak256\n      0x00\n        /* \"contracts/e3/donation_tracker.sol\":1112:1144  balances[recipient] += msg.value */\n      dup3\n      dup3\n      sload\n      tag_34\n      swap2\n      swap1\n      tag_35\n      jump\t// in\n    tag_34:\n      swap3\n      pop\n      pop\n      dup2\n      swap1\n      sstore\n      pop\n        /* \"contracts/e3/donation_tracker.sol\":1185:1194  recipient */\n      dup3\n        /* \"contracts/e3/donation_tracker.sol\":1160:1231  DonationMade(msg.sender, recipient, msg.value, donorName, donorMessage) */\n      0xffffffffffffffffffffffffffffffffffffffff\n      and\n        /* \"contracts/e3/donation_tracker.sol\":1173:1183  msg.sender */\n      caller\n        /* \"contracts/e3/donation_tracker.sol\":1160:1231  DonationMade(msg.sender, recipient, msg.value, donorName, donorMessage) */\n      0xffffffffffffffffffffffffffffffffffffffff\n      and\n      0xfd4b9aab24884296f0230bb5d0d1170f3bf0be63ad8e4a51f4e3b75935b2c788\n        /* \"contracts/e3/donation_tracker.sol\":1196:1205  msg.value */\n      callvalue\n        /* \"contracts/e3/donation_tracker.sol\":1207:1216  donorName */\n      dup6\n        /* \"contracts/e3/donation_tracker.sol\":1218:1230  donorMessage */\n      dup6\n        /* \"contracts/e3/donation_tracker.sol\":1160:1231  DonationMade(msg.sender, recipient, msg.value, donorName, donorMessage) */\n      mload(0x40)\n      tag_36\n      swap4\n      swap3\n      swap2\n      swap1\n      tag_37\n      jump\t// in\n    tag_36:\n      mload(0x40)\n      dup1\n      swap2\n      sub\n      swap1\n      log3\n        /* \"contracts/e3/donation_tracker.sol\":605:1239  function donate(... */\n      pop\n      pop\n      pop\n      jump\t// out\n        /* \"contracts/e3/donation_tracker.sol\":1247:1577  function withdraw() external {... */\n    tag_12:\n        /* \"contracts/e3/donation_tracker.sol\":1287:1301  uint256 amount */\n      0x00\n        /* \"contracts/e3/donation_tracker.sol\":1304:1312  balances */\n      0x01\n        /* \"contracts/e3/donation_tracker.sol\":1304:1324  balances[msg.sender] */\n      0x00\n        /* \"contracts/e3/donation_tracker.sol\":1313:1323  msg.sender */\n      caller\n        /* \"contracts/e3/donation_tracker.sol\":1304:1324  balances[msg.sender] */\n      0xffffffffffffffffffffffffffffffffffffffff\n      and\n      0xffffffffffffffffffffffffffffffffffffffff\n      and\n      dup2\n      mstore\n      0x20\n      add\n      swap1\n      dup2\n      mstore\n      0x20\n      add\n      0x00\n      keccak256\n      sload\n        /* \"contracts/e3/donation_tracker.sol\":1287:1324  uint256 amount = balances[msg.sender] */\n      swap1\n      pop\n        /* \"contracts/e3/donation_tracker.sol\":1352:1353  0 */\n      0x00\n        /* \"contracts/e3/donation_tracker.sol\":1343:1349  amount */\n      dup2\n        /* \"contracts/e3/donation_tracker.sol\":1343:1353  amount > 0 */\n      gt\n        /* \"contracts/e3/donation_tracker.sol\":1335:1378  require(amount > 0, \"No funds to withdraw\") */\n      tag_39\n      jumpi\n      mload(0x40)\n      0x08c379a000000000000000000000000000000000000000000000000000000000\n      dup2\n      mstore\n      0x04\n      add\n      tag_40\n      swap1\n      tag_41\n      jump\t// in\n    tag_40:\n      mload(0x40)\n      dup1\n      swap2\n      sub\n      swap1\n      revert\n    tag_39:\n        /* \"contracts/e3/donation_tracker.sol\":1412:1413  0 */\n      0x00\n        /* \"contracts/e3/donation_tracker.sol\":1389:1397  balances */\n      0x01\n        /* \"contracts/e3/donation_tracker.sol\":1389:1409  balances[msg.sender] */\n      0x00\n        /* \"contracts/e3/donation_tracker.sol\":1398:1408  msg.sender */\n      caller\n        /* \"contracts/e3/donation_tracker.sol\":1389:1409  balances[msg.sender] */\n      0xffffffffffffffffffffffffffffffffffffffff\n      and\n      0xffffffffffffffffffffffffffffffffffffffff\n      and\n      dup2\n      mstore\n      0x20\n      add\n      swap1\n      dup2\n      mstore\n      0x20\n      add\n      0x00\n      keccak256\n        /* \"contracts/e3/donation_tracker.sol\":1389:1413  balances[msg.sender] = 0 */\n      dup2\n      swap1\n      sstore\n      pop\n        /* \"contracts/e3/donation_tracker.sol\":1425:1437  bool success */\n      0x00\n        /* \"contracts/e3/donation_tracker.sol\":1443:1453  msg.sender */\n      caller\n        /* \"contracts/e3/donation_tracker.sol\":1443:1458  msg.sender.call */\n      0xffffffffffffffffffffffffffffffffffffffff\n      and\n        /* \"contracts/e3/donation_tracker.sol\":1466:1472  amount */\n      dup3\n        /* \"contracts/e3/donation_tracker.sol\":1443:1477  msg.sender.call{value: amount}(\"\") */\n      mload(0x40)\n      tag_42\n      swap1\n      tag_43\n      jump\t// in\n    tag_42:\n      0x00\n      mload(0x40)\n      dup1\n      dup4\n      sub\n      dup2\n      dup6\n      dup8\n      gas\n      call\n      swap3\n      pop\n      pop\n      pop\n      returndatasize\n      dup1\n      0x00\n      dup2\n      eq\n      tag_46\n      jumpi\n      mload(0x40)\n      swap2\n      pop\n      and(add(returndatasize, 0x3f), not(0x1f))\n      dup3\n      add\n      0x40\n      mstore\n      returndatasize\n      dup3\n      mstore\n      returndatasize\n      0x00\n      0x20\n      dup5\n      add\n      returndatacopy\n      jump(tag_45)\n    tag_46:\n      0x60\n      swap2\n      pop\n    tag_45:\n      pop\n        /* \"contracts/e3/donation_tracker.sol\":1424:1477  (bool success, ) = msg.sender.call{value: amount}(\"\") */\n      pop\n      swap1\n      pop\n        /* \"contracts/e3/donation_tracker.sol\":1496:1503  success */\n      dup1\n        /* \"contracts/e3/donation_tracker.sol\":1488:1523  require(success, \"Withdraw failed\") */\n      tag_47\n      jumpi\n      mload(0x40)\n      0x08c379a000000000000000000000000000000000000000000000000000000000\n      dup2\n      mstore\n      0x04\n      add\n      tag_48\n      swap1\n      tag_49\n      jump\t// in\n    tag_48:\n      mload(0x40)\n      dup1\n      swap2\n      sub\n      swap1\n      revert\n    tag_47:\n        /* \"contracts/e3/donation_tracker.sol\":1550:1560  msg.sender */\n      caller\n        /* \"contracts/e3/donation_tracker.sol\":1539:1569  Withdrawal(msg.sender, amount) */\n      0xffffffffffffffffffffffffffffffffffffffff\n      and\n      0x7fcf532c15f0a6db0bd6d0e038bea71d30d808c7d98cb3bf7268a95bf5081b65\n        /* \"contracts/e3/donation_tracker.sol\":1562:1568  amount */\n      dup4\n        /* \"contracts/e3/donation_tracker.sol\":1539:1569  Withdrawal(msg.sender, amount) */\n      mload(0x40)\n      tag_50\n      swap2\n      swap1\n      tag_25\n      jump\t// in\n    tag_50:\n      mload(0x40)\n      dup1\n      swap2\n      sub\n      swap1\n      log2\n        /* \"contracts/e3/donation_tracker.sol\":1276:1577  {... */\n      pop\n      pop\n        /* \"contracts/e3/donation_tracker.sol\":1247:1577  function withdraw() external {... */\n      jump\t// out\n        /* \"contracts/e3/donation_tracker.sol\":1585:1728  function getDonationHistory(address recipient) external view returns (Donation[] memory) {... */\n    tag_17:\n        /* \"contracts/e3/donation_tracker.sol\":1655:1672  Donation[] memory */\n      0x60\n        /* \"contracts/e3/donation_tracker.sol\":1692:1709  donationsReceived */\n      0x00\n        /* \"contracts/e3/donation_tracker.sol\":1692:1720  donationsReceived[recipient] */\n      0x00\n        /* \"contracts/e3/donation_tracker.sol\":1710:1719  recipient */\n      dup4\n        /* \"contracts/e3/donation_tracker.sol\":1692:1720  donationsReceived[recipient] */\n      0xffffffffffffffffffffffffffffffffffffffff\n      and\n      0xffffffffffffffffffffffffffffffffffffffff\n      and\n      dup2\n      mstore\n      0x20\n      add\n      swap1\n      dup2\n      mstore\n      0x20\n      add\n      0x00\n      keccak256\n        /* \"contracts/e3/donation_tracker.sol\":1685:1720  return donationsReceived[recipient] */\n      dup1\n      sload\n      dup1\n      0x20\n      mul\n      0x20\n      add\n      mload(0x40)\n      swap1\n      dup2\n      add\n      0x40\n      mstore\n      dup1\n      swap3\n      swap2\n      swap1\n      dup2\n      dup2\n      mstore\n      0x20\n      add\n      0x00\n      swap1\n    tag_52:\n      dup3\n      dup3\n      lt\n      iszero\n      tag_53\n      jumpi\n      dup4\n      dup3\n      swap1\n      0x00\n      mstore\n      keccak256(0x00, 0x20)\n      swap1\n      0x05\n      mul\n      add\n      mload(0x40)\n      dup1\n      0xa0\n      add\n      0x40\n      mstore\n      swap1\n      dup2\n      0x00\n      dup3\n      add\n      0x00\n      swap1\n      sload\n      swap1\n      0x0100\n      exp\n      swap1\n      div\n      0xffffffffffffffffffffffffffffffffffffffff\n      and\n      0xffffffffffffffffffffffffffffffffffffffff\n      and\n      0xffffffffffffffffffffffffffffffffffffffff\n      and\n      dup2\n      mstore\n      0x20\n      add\n      0x01\n      dup3\n      add\n      sload\n      dup2\n      mstore\n      0x20\n      add\n      0x02\n      dup3\n      add\n      dup1\n      sload\n      tag_55\n      swap1\n      tag_56\n      jump\t// in\n    tag_55:\n      dup1\n      0x1f\n      add\n      0x20\n      dup1\n      swap2\n      div\n      mul\n      0x20\n      add\n      mload(0x40)\n      swap1\n      dup2\n      add\n      0x40\n      mstore\n      dup1\n      swap3\n      swap2\n      swap1\n      dup2\n      dup2\n      mstore\n      0x20\n      add\n      dup3\n      dup1\n      sload\n      tag_57\n      swap1\n      tag_56\n      jump\t// in\n    tag_57:\n      dup1\n      iszero\n      tag_58\n      jumpi\n      dup1\n      0x1f\n      lt\n      tag_59\n      jumpi\n      0x0100\n      dup1\n      dup4\n      sload\n      div\n      mul\n      dup4\n      mstore\n      swap2\n      0x20\n      add\n      swap2\n      jump(tag_58)\n    tag_59:\n      dup3\n      add\n      swap2\n      swap1\n      0x00\n      mstore\n      keccak256(0x00, 0x20)\n      swap1\n    tag_60:\n      dup2\n      sload\n      dup2\n      mstore\n      swap1\n      0x01\n      add\n      swap1\n      0x20\n      add\n      dup1\n      dup4\n      gt\n      tag_60\n      jumpi\n      dup3\n      swap1\n      sub\n      0x1f\n      and\n      dup3\n      add\n      swap2\n    tag_58:\n      pop\n      pop\n      pop\n      pop\n      pop\n      dup2\n      mstore\n      0x20\n      add\n      0x03\n      dup3\n      add\n      dup1\n      sload\n      tag_61\n      swap1\n      tag_56\n      jump\t// in\n    tag_61:\n      dup1\n      0x1f\n      add\n      0x20\n      dup1\n      swap2\n      div\n      mul\n      0x20\n      add\n      mload(0x40)\n      swap1\n      dup2\n      add\n      0x40\n      mstore\n      dup1\n      swap3\n      swap2\n      swap1\n      dup2\n      dup2\n      mstore\n      0x20\n      add\n      dup3\n      dup1\n      sload\n      tag_62\n      swap1\n      tag_56\n      jump\t// in\n    tag_62:\n      dup1\n      iszero\n      tag_63\n      jumpi\n      dup1\n      0x1f\n      lt\n      tag_64\n      jumpi\n      0x0100\n      dup1\n      dup4\n      sload\n      div\n      mul\n      dup4\n      mstore\n      swap2\n      0x20\n      add\n      swap2\n      jump(tag_63)\n    tag_64:\n      dup3\n      add\n      swap2\n      swap1\n      0x00\n      mstore\n      keccak256(0x00, 0x20)\n      swap1\n    tag_65:\n      dup2\n      sload\n      dup2\n      mstore\n      swap1\n      0x01\n      add\n      swap1\n      0x20\n      add\n      dup1\n      dup4\n      gt\n      tag_65\n      jumpi\n      dup3\n      swap1\n      sub\n      0x1f\n      and\n      dup3\n      add\n      swap2\n    tag_63:\n      pop\n      pop\n      pop\n      pop\n      pop\n      dup2\n      mstore\n      0x20\n      add\n      0x04\n      dup3\n      add\n      sload\n      dup2\n      mstore\n      pop\n      pop\n      dup2\n      mstore\n      0x20\n      add\n      swap1\n      0x01\n      add\n      swap1\n      jump(tag_52)\n    tag_53:\n      pop\n      pop\n      pop\n      pop\n      swap1\n      pop\n        /* \"contracts/e3/donation_tracker.sol\":1585:1728  function getDonationHistory(address recipient) external view returns (Donation[] memory) {... */\n      swap2\n      swap1\n      pop\n      jump\t// out\n        /* \"contracts/e3/donation_tracker.sol\":1736:1852  function getBalance(address recipient) external view returns (uint256) {... */\n    tag_23:\n        /* \"contracts/e3/donation_tracker.sol\":1798:1805  uint256 */\n      0x00\n        /* \"contracts/e3/donation_tracker.sol\":1825:1833  balances */\n      0x01\n        /* \"contracts/e3/donation_tracker.sol\":1825:1844  balances[recipient] */\n      0x00\n        /* \"contracts/e3/donation_tracker.sol\":1834:1843  recipient */\n      dup4\n        /* \"contracts/e3/donation_tracker.sol\":1825:1844  balances[recipient] */\n      0xffffffffffffffffffffffffffffffffffffffff\n      and\n      0xffffffffffffffffffffffffffffffffffffffff\n      and\n      dup2\n      mstore\n      0x20\n      add\n      swap1\n      dup2\n      mstore\n      0x20\n      add\n      0x00\n      keccak256\n      sload\n        /* \"contracts/e3/donation_tracker.sol\":1818:1844  return balances[recipient] */\n      swap1\n      pop\n        /* \"contracts/e3/donation_tracker.sol\":1736:1852  function getBalance(address recipient) external view returns (uint256) {... */\n      swap2\n      swap1\n      pop\n      jump\t// out\n        /* \"#utility.yul\":7:82   */\n    tag_67:\n        /* \"#utility.yul\":40:46   */\n      0x00\n        /* \"#utility.yul\":73:75   */\n      0x40\n        /* \"#utility.yul\":67:76   */\n      mload\n        /* \"#utility.yul\":57:76   */\n      swap1\n      pop\n        /* \"#utility.yul\":7:82   */\n      swap1\n      jump\t// out\n        /* \"#utility.yul\":88:205   */\n    tag_68:\n        /* \"#utility.yul\":197:198   */\n      0x00\n        /* \"#utility.yul\":194:195   */\n      0x00\n        /* \"#utility.yul\":187:199   */\n      revert\n        /* \"#utility.yul\":211:328   */\n    tag_69:\n        /* \"#utility.yul\":320:321   */\n      0x00\n        /* \"#utility.yul\":317:318   */\n      0x00\n        /* \"#utility.yul\":310:322   */\n      revert\n        /* \"#utility.yul\":334:460   */\n    tag_70:\n        /* \"#utility.yul\":371:378   */\n      0x00\n        /* \"#utility.yul\":411:453   */\n      0xffffffffffffffffffffffffffffffffffffffff\n        /* \"#utility.yul\":404:409   */\n      dup3\n        /* \"#utility.yul\":400:454   */\n      and\n        /* \"#utility.yul\":389:454   */\n      swap1\n      pop\n        /* \"#utility.yul\":334:460   */\n      swap2\n      swap1\n      pop\n      jump\t// out\n        /* \"#utility.yul\":466:562   */\n    tag_71:\n        /* \"#utility.yul\":503:510   */\n      0x00\n        /* \"#utility.yul\":532:556   */\n      tag_133\n        /* \"#utility.yul\":550:555   */\n      dup3\n        /* \"#utility.yul\":532:556   */\n      tag_70\n      jump\t// in\n    tag_133:\n        /* \"#utility.yul\":521:556   */\n      swap1\n      pop\n        /* \"#utility.yul\":466:562   */\n      swap2\n      swap1\n      pop\n      jump\t// out\n        /* \"#utility.yul\":568:690   */\n    tag_72:\n        /* \"#utility.yul\":641:665   */\n      tag_135\n        /* \"#utility.yul\":659:664   */\n      dup2\n        /* \"#utility.yul\":641:665   */\n      tag_71\n      jump\t// in\n    tag_135:\n        /* \"#utility.yul\":634:639   */\n      dup2\n        /* \"#utility.yul\":631:666   */\n      eq\n        /* \"#utility.yul\":621:684   */\n      tag_136\n      jumpi\n        /* \"#utility.yul\":680:681   */\n      0x00\n        /* \"#utility.yul\":677:678   */\n      0x00\n        /* \"#utility.yul\":670:682   */\n      revert\n        /* \"#utility.yul\":621:684   */\n    tag_136:\n        /* \"#utility.yul\":568:690   */\n      pop\n      jump\t// out\n        /* \"#utility.yul\":696:835   */\n    tag_73:\n        /* \"#utility.yul\":742:747   */\n      0x00\n        /* \"#utility.yul\":780:786   */\n      dup2\n        /* \"#utility.yul\":767:787   */\n      calldataload\n        /* \"#utility.yul\":758:787   */\n      swap1\n      pop\n        /* \"#utility.yul\":796:829   */\n      tag_138\n        /* \"#utility.yul\":823:828   */\n      dup2\n        /* \"#utility.yul\":796:829   */\n      tag_72\n      jump\t// in\n    tag_138:\n        /* \"#utility.yul\":696:835   */\n      swap3\n      swap2\n      pop\n      pop\n      jump\t// out\n        /* \"#utility.yul\":841:958   */\n    tag_74:\n        /* \"#utility.yul\":950:951   */\n      0x00\n        /* \"#utility.yul\":947:948   */\n      0x00\n        /* \"#utility.yul\":940:952   */\n      revert\n        /* \"#utility.yul\":964:1081   */\n    tag_75:\n        /* \"#utility.yul\":1073:1074   */\n      0x00\n        /* \"#utility.yul\":1070:1071   */\n      0x00\n        /* \"#utility.yul\":1063:1075   */\n      revert\n        /* \"#utility.yul\":1087:1189   */\n    tag_76:\n        /* \"#utility.yul\":1128:1134   */\n      0x00\n        /* \"#utility.yul\":1179:1181   */\n      0x1f\n        /* \"#utility.yul\":1175:1182   */\n      not\n        /* \"#utility.yul\":1170:1172   */\n      0x1f\n        /* \"#utility.yul\":1163:1168   */\n      dup4\n        /* \"#utility.yul\":1159:1173   */\n      add\n        /* \"#utility.yul\":1155:1183   */\n      and\n        /* \"#utility.yul\":1145:1183   */\n      swap1\n      pop\n        /* \"#utility.yul\":1087:1189   */\n      swap2\n      swap1\n      pop\n      jump\t// out\n        /* \"#utility.yul\":1195:1375   */\n    tag_77:\n        /* \"#utility.yul\":1243:1320   */\n      0x4e487b7100000000000000000000000000000000000000000000000000000000\n        /* \"#utility.yul\":1240:1241   */\n      0x00\n        /* \"#utility.yul\":1233:1321   */\n      mstore\n        /* \"#utility.yul\":1340:1344   */\n      0x41\n        /* \"#utility.yul\":1337:1338   */\n      0x04\n        /* \"#utility.yul\":1330:1345   */\n      mstore\n        /* \"#utility.yul\":1364:1368   */\n      0x24\n        /* \"#utility.yul\":1361:1362   */\n      0x00\n        /* \"#utility.yul\":1354:1369   */\n      revert\n        /* \"#utility.yul\":1381:1662   */\n    tag_78:\n        /* \"#utility.yul\":1464:1491   */\n      tag_144\n        /* \"#utility.yul\":1486:1490   */\n      dup3\n        /* \"#utility.yul\":1464:1491   */\n      tag_76\n      jump\t// in\n    tag_144:\n        /* \"#utility.yul\":1456:1462   */\n      dup2\n        /* \"#utility.yul\":1452:1492   */\n      add\n        /* \"#utility.yul\":1594:1600   */\n      dup2\n        /* \"#utility.yul\":1582:1592   */\n      dup2\n        /* \"#utility.yul\":1579:1601   */\n      lt\n        /* \"#utility.yul\":1558:1576   */\n      0xffffffffffffffff\n        /* \"#utility.yul\":1546:1556   */\n      dup3\n        /* \"#utility.yul\":1543:1577   */\n      gt\n        /* \"#utility.yul\":1540:1602   */\n      or\n        /* \"#utility.yul\":1537:1625   */\n      iszero\n      tag_145\n      jumpi\n        /* \"#utility.yul\":1605:1623   */\n      tag_146\n      tag_77\n      jump\t// in\n    tag_146:\n        /* \"#utility.yul\":1537:1625   */\n    tag_145:\n        /* \"#utility.yul\":1645:1655   */\n      dup1\n        /* \"#utility.yul\":1641:1643   */\n      0x40\n        /* \"#utility.yul\":1634:1656   */\n      mstore\n        /* \"#utility.yul\":1424:1662   */\n      pop\n        /* \"#utility.yul\":1381:1662   */\n      pop\n      pop\n      jump\t// out\n        /* \"#utility.yul\":1668:1797   */\n    tag_79:\n        /* \"#utility.yul\":1702:1708   */\n      0x00\n        /* \"#utility.yul\":1729:1749   */\n      tag_148\n      tag_67\n      jump\t// in\n    tag_148:\n        /* \"#utility.yul\":1719:1749   */\n      swap1\n      pop\n        /* \"#utility.yul\":1758:1791   */\n      tag_149\n        /* \"#utility.yul\":1786:1790   */\n      dup3\n        /* \"#utility.yul\":1778:1784   */\n      dup3\n        /* \"#utility.yul\":1758:1791   */\n      tag_78\n      jump\t// in\n    tag_149:\n        /* \"#utility.yul\":1668:1797   */\n      swap2\n      swap1\n      pop\n      jump\t// out\n        /* \"#utility.yul\":1803:2111   */\n    tag_80:\n        /* \"#utility.yul\":1865:1869   */\n      0x00\n        /* \"#utility.yul\":1955:1973   */\n      0xffffffffffffffff\n        /* \"#utility.yul\":1947:1953   */\n      dup3\n        /* \"#utility.yul\":1944:1974   */\n      gt\n        /* \"#utility.yul\":1941:1997   */\n      iszero\n      tag_151\n      jumpi\n        /* \"#utility.yul\":1977:1995   */\n      tag_152\n      tag_77\n      jump\t// in\n    tag_152:\n        /* \"#utility.yul\":1941:1997   */\n    tag_151:\n        /* \"#utility.yul\":2015:2044   */\n      tag_153\n        /* \"#utility.yul\":2037:2043   */\n      dup3\n        /* \"#utility.yul\":2015:2044   */\n      tag_76\n      jump\t// in\n    tag_153:\n        /* \"#utility.yul\":2007:2044   */\n      swap1\n      pop\n        /* \"#utility.yul\":2099:2103   */\n      0x20\n        /* \"#utility.yul\":2093:2097   */\n      dup2\n        /* \"#utility.yul\":2089:2104   */\n      add\n        /* \"#utility.yul\":2081:2104   */\n      swap1\n      pop\n        /* \"#utility.yul\":1803:2111   */\n      swap2\n      swap1\n      pop\n      jump\t// out\n        /* \"#utility.yul\":2117:2265   */\n    tag_81:\n        /* \"#utility.yul\":2215:2221   */\n      dup3\n        /* \"#utility.yul\":2210:2213   */\n      dup2\n        /* \"#utility.yul\":2205:2208   */\n      dup4\n        /* \"#utility.yul\":2192:2222   */\n      calldatacopy\n        /* \"#utility.yul\":2256:2257   */\n      0x00\n        /* \"#utility.yul\":2247:2253   */\n      dup4\n        /* \"#utility.yul\":2242:2245   */\n      dup4\n        /* \"#utility.yul\":2238:2254   */\n      add\n        /* \"#utility.yul\":2231:2258   */\n      mstore\n        /* \"#utility.yul\":2117:2265   */\n      pop\n      pop\n      pop\n      jump\t// out\n        /* \"#utility.yul\":2271:2696   */\n    tag_82:\n        /* \"#utility.yul\":2349:2354   */\n      0x00\n        /* \"#utility.yul\":2374:2440   */\n      tag_156\n        /* \"#utility.yul\":2390:2439   */\n      tag_157\n        /* \"#utility.yul\":2432:2438   */\n      dup5\n        /* \"#utility.yul\":2390:2439   */\n      tag_80\n      jump\t// in\n    tag_157:\n        /* \"#utility.yul\":2374:2440   */\n      tag_79\n      jump\t// in\n    tag_156:\n        /* \"#utility.yul\":2365:2440   */\n      swap1\n      pop\n        /* \"#utility.yul\":2463:2469   */\n      dup3\n        /* \"#utility.yul\":2456:2461   */\n      dup2\n        /* \"#utility.yul\":2449:2470   */\n      mstore\n        /* \"#utility.yul\":2501:2505   */\n      0x20\n        /* \"#utility.yul\":2494:2499   */\n      dup2\n        /* \"#utility.yul\":2490:2506   */\n      add\n        /* \"#utility.yul\":2539:2542   */\n      dup5\n        /* \"#utility.yul\":2530:2536   */\n      dup5\n        /* \"#utility.yul\":2525:2528   */\n      dup5\n        /* \"#utility.yul\":2521:2537   */\n      add\n        /* \"#utility.yul\":2518:2543   */\n      gt\n        /* \"#utility.yul\":2515:2627   */\n      iszero\n      tag_158\n      jumpi\n        /* \"#utility.yul\":2546:2625   */\n      tag_159\n      tag_75\n      jump\t// in\n    tag_159:\n        /* \"#utility.yul\":2515:2627   */\n    tag_158:\n        /* \"#utility.yul\":2636:2690   */\n      tag_160\n        /* \"#utility.yul\":2683:2689   */\n      dup5\n        /* \"#utility.yul\":2678:2681   */\n      dup3\n        /* \"#utility.yul\":2673:2676   */\n      dup6\n        /* \"#utility.yul\":2636:2690   */\n      tag_81\n      jump\t// in\n    tag_160:\n        /* \"#utility.yul\":2355:2696   */\n      pop\n        /* \"#utility.yul\":2271:2696   */\n      swap4\n      swap3\n      pop\n      pop\n      pop\n      jump\t// out\n        /* \"#utility.yul\":2716:3056   */\n    tag_83:\n        /* \"#utility.yul\":2772:2777   */\n      0x00\n        /* \"#utility.yul\":2821:2824   */\n      dup3\n        /* \"#utility.yul\":2814:2818   */\n      0x1f\n        /* \"#utility.yul\":2806:2812   */\n      dup4\n        /* \"#utility.yul\":2802:2819   */\n      add\n        /* \"#utility.yul\":2798:2825   */\n      slt\n        /* \"#utility.yul\":2788:2910   */\n      tag_162\n      jumpi\n        /* \"#utility.yul\":2829:2908   */\n      tag_163\n      tag_74\n      jump\t// in\n    tag_163:\n        /* \"#utility.yul\":2788:2910   */\n    tag_162:\n        /* \"#utility.yul\":2946:2952   */\n      dup2\n        /* \"#utility.yul\":2933:2953   */\n      calldataload\n        /* \"#utility.yul\":2971:3050   */\n      tag_164\n        /* \"#utility.yul\":3046:3049   */\n      dup5\n        /* \"#utility.yul\":3038:3044   */\n      dup3\n        /* \"#utility.yul\":3031:3035   */\n      0x20\n        /* \"#utility.yul\":3023:3029   */\n      dup7\n        /* \"#utility.yul\":3019:3036   */\n      add\n        /* \"#utility.yul\":2971:3050   */\n      tag_82\n      jump\t// in\n    tag_164:\n        /* \"#utility.yul\":2962:3050   */\n      swap2\n      pop\n        /* \"#utility.yul\":2778:3056   */\n      pop\n        /* \"#utility.yul\":2716:3056   */\n      swap3\n      swap2\n      pop\n      pop\n      jump\t// out\n        /* \"#utility.yul\":3062:4041   */\n    tag_8:\n        /* \"#utility.yul\":3159:3165   */\n      0x00\n        /* \"#utility.yul\":3167:3173   */\n      0x00\n        /* \"#utility.yul\":3175:3181   */\n      0x00\n        /* \"#utility.yul\":3224:3226   */\n      0x60\n        /* \"#utility.yul\":3212:3221   */\n      dup5\n        /* \"#utility.yul\":3203:3210   */\n      dup7\n        /* \"#utility.yul\":3199:3222   */\n      sub\n        /* \"#utility.yul\":3195:3227   */\n      slt\n        /* \"#utility.yul\":3192:3311   */\n      iszero\n      tag_166\n      jumpi\n        /* \"#utility.yul\":3230:3309   */\n      tag_167\n      tag_68\n      jump\t// in\n    tag_167:\n        /* \"#utility.yul\":3192:3311   */\n    tag_166:\n        /* \"#utility.yul\":3350:3351   */\n      0x00\n        /* \"#utility.yul\":3375:3428   */\n      tag_168\n        /* \"#utility.yul\":3420:3427   */\n      dup7\n        /* \"#utility.yul\":3411:3417   */\n      dup3\n        /* \"#utility.yul\":3400:3409   */\n      dup8\n        /* \"#utility.yul\":3396:3418   */\n      add\n        /* \"#utility.yul\":3375:3428   */\n      tag_73\n      jump\t// in\n    tag_168:\n        /* \"#utility.yul\":3365:3428   */\n      swap4\n      pop\n        /* \"#utility.yul\":3321:3438   */\n      pop\n        /* \"#utility.yul\":3505:3507   */\n      0x20\n        /* \"#utility.yul\":3494:3503   */\n      dup5\n        /* \"#utility.yul\":3490:3508   */\n      add\n        /* \"#utility.yul\":3477:3509   */\n      calldataload\n        /* \"#utility.yul\":3536:3554   */\n      0xffffffffffffffff\n        /* \"#utility.yul\":3528:3534   */\n      dup2\n        /* \"#utility.yul\":3525:3555   */\n      gt\n        /* \"#utility.yul\":3522:3639   */\n      iszero\n      tag_169\n      jumpi\n        /* \"#utility.yul\":3558:3637   */\n      tag_170\n      tag_69\n      jump\t// in\n    tag_170:\n        /* \"#utility.yul\":3522:3639   */\n    tag_169:\n        /* \"#utility.yul\":3663:3726   */\n      tag_171\n        /* \"#utility.yul\":3718:3725   */\n      dup7\n        /* \"#utility.yul\":3709:3715   */\n      dup3\n        /* \"#utility.yul\":3698:3707   */\n      dup8\n        /* \"#utility.yul\":3694:3716   */\n      add\n        /* \"#utility.yul\":3663:3726   */\n      tag_83\n      jump\t// in\n    tag_171:\n        /* \"#utility.yul\":3653:3726   */\n      swap3\n      pop\n        /* \"#utility.yul\":3448:3736   */\n      pop\n        /* \"#utility.yul\":3803:3805   */\n      0x40\n        /* \"#utility.yul\":3792:3801   */\n      dup5\n        /* \"#utility.yul\":3788:3806   */\n      add\n        /* \"#utility.yul\":3775:3807   */\n      calldataload\n        /* \"#utility.yul\":3834:3852   */\n      0xffffffffffffffff\n        /* \"#utility.yul\":3826:3832   */\n      dup2\n        /* \"#utility.yul\":3823:3853   */\n      gt\n        /* \"#utility.yul\":3820:3937   */\n      iszero\n      tag_172\n      jumpi\n        /* \"#utility.yul\":3856:3935   */\n      tag_173\n      tag_69\n      jump\t// in\n    tag_173:\n        /* \"#utility.yul\":3820:3937   */\n    tag_172:\n        /* \"#utility.yul\":3961:4024   */\n      tag_174\n        /* \"#utility.yul\":4016:4023   */\n      dup7\n        /* \"#utility.yul\":4007:4013   */\n      dup3\n        /* \"#utility.yul\":3996:4005   */\n      dup8\n        /* \"#utility.yul\":3992:4014   */\n      add\n        /* \"#utility.yul\":3961:4024   */\n      tag_83\n      jump\t// in\n    tag_174:\n        /* \"#utility.yul\":3951:4024   */\n      swap2\n      pop\n        /* \"#utility.yul\":3746:4034   */\n      pop\n        /* \"#utility.yul\":3062:4041   */\n      swap3\n      pop\n      swap3\n      pop\n      swap3\n      jump\t// out\n        /* \"#utility.yul\":4047:4376   */\n    tag_16:\n        /* \"#utility.yul\":4106:4112   */\n      0x00\n        /* \"#utility.yul\":4155:4157   */\n      0x20\n        /* \"#utility.yul\":4143:4152   */\n      dup3\n        /* \"#utility.yul\":4134:4141   */\n      dup5\n        /* \"#utility.yul\":4130:4153   */\n      sub\n        /* \"#utility.yul\":4126:4158   */\n      slt\n        /* \"#utility.yul\":4123:4242   */\n      iszero\n      tag_176\n      jumpi\n        /* \"#utility.yul\":4161:4240   */\n      tag_177\n      tag_68\n      jump\t// in\n    tag_177:\n        /* \"#utility.yul\":4123:4242   */\n    tag_176:\n        /* \"#utility.yul\":4281:4282   */\n      0x00\n        /* \"#utility.yul\":4306:4359   */\n      tag_178\n        /* \"#utility.yul\":4351:4358   */\n      dup5\n        /* \"#utility.yul\":4342:4348   */\n      dup3\n        /* \"#utility.yul\":4331:4340   */\n      dup6\n        /* \"#utility.yul\":4327:4349   */\n      add\n        /* \"#utility.yul\":4306:4359   */\n      tag_73\n      jump\t// in\n    tag_178:\n        /* \"#utility.yul\":4296:4359   */\n      swap2\n      pop\n        /* \"#utility.yul\":4252:4369   */\n      pop\n        /* \"#utility.yul\":4047:4376   */\n      swap3\n      swap2\n      pop\n      pop\n      jump\t// out\n        /* \"#utility.yul\":4382:4520   */\n    tag_84:\n        /* \"#utility.yul\":4473:4479   */\n      0x00\n        /* \"#utility.yul\":4507:4512   */\n      dup2\n        /* \"#utility.yul\":4501:4513   */\n      mload\n        /* \"#utility.yul\":4491:4513   */\n      swap1\n      pop\n        /* \"#utility.yul\":4382:4520   */\n      swap2\n      swap1\n      pop\n      jump\t// out\n        /* \"#utility.yul\":4526:4734   */\n    tag_85:\n        /* \"#utility.yul\":4649:4660   */\n      0x00\n        /* \"#utility.yul\":4683:4689   */\n      dup3\n        /* \"#utility.yul\":4678:4681   */\n      dup3\n        /* \"#utility.yul\":4671:4690   */\n      mstore\n        /* \"#utility.yul\":4723:4727   */\n      0x20\n        /* \"#utility.yul\":4718:4721   */\n      dup3\n        /* \"#utility.yul\":4714:4728   */\n      add\n        /* \"#utility.yul\":4699:4728   */\n      swap1\n      pop\n        /* \"#utility.yul\":4526:4734   */\n      swap3\n      swap2\n      pop\n      pop\n      jump\t// out\n        /* \"#utility.yul\":4740:4896   */\n    tag_86:\n        /* \"#utility.yul\":4831:4835   */\n      0x00\n        /* \"#utility.yul\":4854:4857   */\n      dup2\n        /* \"#utility.yul\":4846:4857   */\n      swap1\n      pop\n        /* \"#utility.yul\":4884:4888   */\n      0x20\n        /* \"#utility.yul\":4879:4882   */\n      dup3\n        /* \"#utility.yul\":4875:4889   */\n      add\n        /* \"#utility.yul\":4867:4889   */\n      swap1\n      pop\n        /* \"#utility.yul\":4740:4896   */\n      swap2\n      swap1\n      pop\n      jump\t// out\n        /* \"#utility.yul\":4902:5010   */\n    tag_87:\n        /* \"#utility.yul\":4979:5003   */\n      tag_183\n        /* \"#utility.yul\":4997:5002   */\n      dup2\n        /* \"#utility.yul\":4979:5003   */\n      tag_71\n      jump\t// in\n    tag_183:\n        /* \"#utility.yul\":4974:4977   */\n      dup3\n        /* \"#utility.yul\":4967:5004   */\n      mstore\n        /* \"#utility.yul\":4902:5010   */\n      pop\n      pop\n      jump\t// out\n        /* \"#utility.yul\":5016:5093   */\n    tag_88:\n        /* \"#utility.yul\":5053:5060   */\n      0x00\n        /* \"#utility.yul\":5082:5087   */\n      dup2\n        /* \"#utility.yul\":5071:5087   */\n      swap1\n      pop\n        /* \"#utility.yul\":5016:5093   */\n      swap2\n      swap1\n      pop\n      jump\t// out\n        /* \"#utility.yul\":5099:5207   */\n    tag_89:\n        /* \"#utility.yul\":5176:5200   */\n      tag_186\n        /* \"#utility.yul\":5194:5199   */\n      dup2\n        /* \"#utility.yul\":5176:5200   */\n      tag_88\n      jump\t// in\n    tag_186:\n        /* \"#utility.yul\":5171:5174   */\n      dup3\n        /* \"#utility.yul\":5164:5201   */\n      mstore\n        /* \"#utility.yul\":5099:5207   */\n      pop\n      pop\n      jump\t// out\n        /* \"#utility.yul\":5213:5312   */\n    tag_90:\n        /* \"#utility.yul\":5265:5271   */\n      0x00\n        /* \"#utility.yul\":5299:5304   */\n      dup2\n        /* \"#utility.yul\":5293:5305   */\n      mload\n        /* \"#utility.yul\":5283:5305   */\n      swap1\n      pop\n        /* \"#utility.yul\":5213:5312   */\n      swap2\n      swap1\n      pop\n      jump\t// out\n        /* \"#utility.yul\":5318:5477   */\n    tag_91:\n        /* \"#utility.yul\":5392:5403   */\n      0x00\n        /* \"#utility.yul\":5426:5432   */\n      dup3\n        /* \"#utility.yul\":5421:5424   */\n      dup3\n        /* \"#utility.yul\":5414:5433   */\n      mstore\n        /* \"#utility.yul\":5466:5470   */\n      0x20\n        /* \"#utility.yul\":5461:5464   */\n      dup3\n        /* \"#utility.yul\":5457:5471   */\n      add\n        /* \"#utility.yul\":5442:5471   */\n      swap1\n      pop\n        /* \"#utility.yul\":5318:5477   */\n      swap3\n      swap2\n      pop\n      pop\n      jump\t// out\n        /* \"#utility.yul\":5483:5622   */\n    tag_92:\n        /* \"#utility.yul\":5572:5578   */\n      dup3\n        /* \"#utility.yul\":5567:5570   */\n      dup2\n        /* \"#utility.yul\":5562:5565   */\n      dup4\n        /* \"#utility.yul\":5556:5579   */\n      mcopy\n        /* \"#utility.yul\":5613:5614   */\n      0x00\n        /* \"#utility.yul\":5604:5610   */\n      dup4\n        /* \"#utility.yul\":5599:5602   */\n      dup4\n        /* \"#utility.yul\":5595:5611   */\n      add\n        /* \"#utility.yul\":5588:5615   */\n      mstore\n        /* \"#utility.yul\":5483:5622   */\n      pop\n      pop\n      pop\n      jump\t// out\n        /* \"#utility.yul\":5628:5985   */\n    tag_93:\n        /* \"#utility.yul\":5706:5709   */\n      0x00\n        /* \"#utility.yul\":5734:5773   */\n      tag_191\n        /* \"#utility.yul\":5767:5772   */\n      dup3\n        /* \"#utility.yul\":5734:5773   */\n      tag_90\n      jump\t// in\n    tag_191:\n        /* \"#utility.yul\":5789:5850   */\n      tag_192\n        /* \"#utility.yul\":5843:5849   */\n      dup2\n        /* \"#utility.yul\":5838:5841   */\n      dup6\n        /* \"#utility.yul\":5789:5850   */\n      tag_91\n      jump\t// in\n    tag_192:\n        /* \"#utility.yul\":5782:5850   */\n      swap4\n      pop\n        /* \"#utility.yul\":5859:5924   */\n      tag_193\n        /* \"#utility.yul\":5917:5923   */\n      dup2\n        /* \"#utility.yul\":5912:5915   */\n      dup6\n        /* \"#utility.yul\":5905:5909   */\n      0x20\n        /* \"#utility.yul\":5898:5903   */\n      dup7\n        /* \"#utility.yul\":5894:5910   */\n      add\n        /* \"#utility.yul\":5859:5924   */\n      tag_92\n      jump\t// in\n    tag_193:\n        /* \"#utility.yul\":5949:5978   */\n      tag_194\n        /* \"#utility.yul\":5971:5977   */\n      dup2\n        /* \"#utility.yul\":5949:5978   */\n      tag_76\n      jump\t// in\n    tag_194:\n        /* \"#utility.yul\":5944:5947   */\n      dup5\n        /* \"#utility.yul\":5940:5979   */\n      add\n        /* \"#utility.yul\":5933:5979   */\n      swap2\n      pop\n        /* \"#utility.yul\":5710:5985   */\n      pop\n        /* \"#utility.yul\":5628:5985   */\n      swap3\n      swap2\n      pop\n      pop\n      jump\t// out\n        /* \"#utility.yul\":6065:7263   */\n    tag_94:\n        /* \"#utility.yul\":6172:6175   */\n      0x00\n        /* \"#utility.yul\":6208:6212   */\n      0xa0\n        /* \"#utility.yul\":6203:6206   */\n      dup4\n        /* \"#utility.yul\":6199:6213   */\n      add\n        /* \"#utility.yul\":6296:6300   */\n      0x00\n        /* \"#utility.yul\":6289:6294   */\n      dup4\n        /* \"#utility.yul\":6285:6301   */\n      add\n        /* \"#utility.yul\":6279:6302   */\n      mload\n        /* \"#utility.yul\":6315:6378   */\n      tag_196\n        /* \"#utility.yul\":6372:6376   */\n      0x00\n        /* \"#utility.yul\":6367:6370   */\n      dup7\n        /* \"#utility.yul\":6363:6377   */\n      add\n        /* \"#utility.yul\":6349:6361   */\n      dup3\n        /* \"#utility.yul\":6315:6378   */\n      tag_87\n      jump\t// in\n    tag_196:\n        /* \"#utility.yul\":6223:6388   */\n      pop\n        /* \"#utility.yul\":6472:6476   */\n      0x20\n        /* \"#utility.yul\":6465:6470   */\n      dup4\n        /* \"#utility.yul\":6461:6477   */\n      add\n        /* \"#utility.yul\":6455:6478   */\n      mload\n        /* \"#utility.yul\":6491:6554   */\n      tag_197\n        /* \"#utility.yul\":6548:6552   */\n      0x20\n        /* \"#utility.yul\":6543:6546   */\n      dup7\n        /* \"#utility.yul\":6539:6553   */\n      add\n        /* \"#utility.yul\":6525:6537   */\n      dup3\n        /* \"#utility.yul\":6491:6554   */\n      tag_89\n      jump\t// in\n    tag_197:\n        /* \"#utility.yul\":6398:6564   */\n      pop\n        /* \"#utility.yul\":6646:6650   */\n      0x40\n        /* \"#utility.yul\":6639:6644   */\n      dup4\n        /* \"#utility.yul\":6635:6651   */\n      add\n        /* \"#utility.yul\":6629:6652   */\n      mload\n        /* \"#utility.yul\":6699:6702   */\n      dup5\n        /* \"#utility.yul\":6693:6697   */\n      dup3\n        /* \"#utility.yul\":6689:6703   */\n      sub\n        /* \"#utility.yul\":6682:6686   */\n      0x40\n        /* \"#utility.yul\":6677:6680   */\n      dup7\n        /* \"#utility.yul\":6673:6687   */\n      add\n        /* \"#utility.yul\":6666:6704   */\n      mstore\n        /* \"#utility.yul\":6725:6798   */\n      tag_198\n        /* \"#utility.yul\":6793:6797   */\n      dup3\n        /* \"#utility.yul\":6779:6791   */\n      dup3\n        /* \"#utility.yul\":6725:6798   */\n      tag_93\n      jump\t// in\n    tag_198:\n        /* \"#utility.yul\":6717:6798   */\n      swap2\n      pop\n        /* \"#utility.yul\":6574:6809   */\n      pop\n        /* \"#utility.yul\":6894:6898   */\n      0x60\n        /* \"#utility.yul\":6887:6892   */\n      dup4\n        /* \"#utility.yul\":6883:6899   */\n      add\n        /* \"#utility.yul\":6877:6900   */\n      mload\n        /* \"#utility.yul\":6947:6950   */\n      dup5\n        /* \"#utility.yul\":6941:6945   */\n      dup3\n        /* \"#utility.yul\":6937:6951   */\n      sub\n        /* \"#utility.yul\":6930:6934   */\n      0x60\n        /* \"#utility.yul\":6925:6928   */\n      dup7\n        /* \"#utility.yul\":6921:6935   */\n      add\n        /* \"#utility.yul\":6914:6952   */\n      mstore\n        /* \"#utility.yul\":6973:7046   */\n      tag_199\n        /* \"#utility.yul\":7041:7045   */\n      dup3\n        /* \"#utility.yul\":7027:7039   */\n      dup3\n        /* \"#utility.yul\":6973:7046   */\n      tag_93\n      jump\t// in\n    tag_199:\n        /* \"#utility.yul\":6965:7046   */\n      swap2\n      pop\n        /* \"#utility.yul\":6819:7057   */\n      pop\n        /* \"#utility.yul\":7144:7148   */\n      0x80\n        /* \"#utility.yul\":7137:7142   */\n      dup4\n        /* \"#utility.yul\":7133:7149   */\n      add\n        /* \"#utility.yul\":7127:7150   */\n      mload\n        /* \"#utility.yul\":7163:7226   */\n      tag_200\n        /* \"#utility.yul\":7220:7224   */\n      0x80\n        /* \"#utility.yul\":7215:7218   */\n      dup7\n        /* \"#utility.yul\":7211:7225   */\n      add\n        /* \"#utility.yul\":7197:7209   */\n      dup3\n        /* \"#utility.yul\":7163:7226   */\n      tag_89\n      jump\t// in\n    tag_200:\n        /* \"#utility.yul\":7067:7236   */\n      pop\n        /* \"#utility.yul\":7253:7257   */\n      dup1\n        /* \"#utility.yul\":7246:7257   */\n      swap2\n      pop\n        /* \"#utility.yul\":6177:7263   */\n      pop\n        /* \"#utility.yul\":6065:7263   */\n      swap3\n      swap2\n      pop\n      pop\n      jump\t// out\n        /* \"#utility.yul\":7269:7521   */\n    tag_95:\n        /* \"#utility.yul\":7386:7396   */\n      0x00\n        /* \"#utility.yul\":7421:7515   */\n      tag_202\n        /* \"#utility.yul\":7511:7514   */\n      dup4\n        /* \"#utility.yul\":7503:7509   */\n      dup4\n        /* \"#utility.yul\":7421:7515   */\n      tag_94\n      jump\t// in\n    tag_202:\n        /* \"#utility.yul\":7407:7515   */\n      swap1\n      pop\n        /* \"#utility.yul\":7269:7521   */\n      swap3\n      swap2\n      pop\n      pop\n      jump\t// out\n        /* \"#utility.yul\":7527:7664   */\n    tag_96:\n        /* \"#utility.yul\":7621:7625   */\n      0x00\n        /* \"#utility.yul\":7653:7657   */\n      0x20\n        /* \"#utility.yul\":7648:7651   */\n      dup3\n        /* \"#utility.yul\":7644:7658   */\n      add\n        /* \"#utility.yul\":7636:7658   */\n      swap1\n      pop\n        /* \"#utility.yul\":7527:7664   */\n      swap2\n      swap1\n      pop\n      jump\t// out\n        /* \"#utility.yul\":7748:8851   */\n    tag_97:\n        /* \"#utility.yul\":7915:7918   */\n      0x00\n        /* \"#utility.yul\":7944:8022   */\n      tag_205\n        /* \"#utility.yul\":8016:8021   */\n      dup3\n        /* \"#utility.yul\":7944:8022   */\n      tag_84\n      jump\t// in\n    tag_205:\n        /* \"#utility.yul\":8038:8148   */\n      tag_206\n        /* \"#utility.yul\":8141:8147   */\n      dup2\n        /* \"#utility.yul\":8136:8139   */\n      dup6\n        /* \"#utility.yul\":8038:8148   */\n      tag_85\n      jump\t// in\n    tag_206:\n        /* \"#utility.yul\":8031:8148   */\n      swap4\n      pop\n        /* \"#utility.yul\":8174:8177   */\n      dup4\n        /* \"#utility.yul\":8219:8223   */\n      0x20\n        /* \"#utility.yul\":8211:8217   */\n      dup3\n        /* \"#utility.yul\":8207:8224   */\n      mul\n        /* \"#utility.yul\":8202:8205   */\n      dup6\n        /* \"#utility.yul\":8198:8225   */\n      add\n        /* \"#utility.yul\":8249:8329   */\n      tag_207\n        /* \"#utility.yul\":8323:8328   */\n      dup6\n        /* \"#utility.yul\":8249:8329   */\n      tag_86\n      jump\t// in\n    tag_207:\n        /* \"#utility.yul\":8352:8359   */\n      dup1\n        /* \"#utility.yul\":8383:8384   */\n      0x00\n        /* \"#utility.yul\":8368:8806   */\n    tag_208:\n        /* \"#utility.yul\":8393:8399   */\n      dup6\n        /* \"#utility.yul\":8390:8391   */\n      dup2\n        /* \"#utility.yul\":8387:8400   */\n      lt\n        /* \"#utility.yul\":8368:8806   */\n      iszero\n      tag_210\n      jumpi\n        /* \"#utility.yul\":8464:8473   */\n      dup5\n        /* \"#utility.yul\":8458:8462   */\n      dup5\n        /* \"#utility.yul\":8454:8474   */\n      sub\n        /* \"#utility.yul\":8449:8452   */\n      dup10\n        /* \"#utility.yul\":8442:8475   */\n      mstore\n        /* \"#utility.yul\":8515:8521   */\n      dup2\n        /* \"#utility.yul\":8509:8522   */\n      mload\n        /* \"#utility.yul\":8543:8655   */\n      tag_211\n        /* \"#utility.yul\":8650:8654   */\n      dup6\n        /* \"#utility.yul\":8635:8648   */\n      dup3\n        /* \"#utility.yul\":8543:8655   */\n      tag_95\n      jump\t// in\n    tag_211:\n        /* \"#utility.yul\":8535:8655   */\n      swap5\n      pop\n        /* \"#utility.yul\":8678:8762   */\n      tag_212\n        /* \"#utility.yul\":8755:8761   */\n      dup4\n        /* \"#utility.yul\":8678:8762   */\n      tag_96\n      jump\t// in\n    tag_212:\n        /* \"#utility.yul\":8668:8762   */\n      swap3\n      pop\n        /* \"#utility.yul\":8791:8795   */\n      0x20\n        /* \"#utility.yul\":8786:8789   */\n      dup11\n        /* \"#utility.yul\":8782:8796   */\n      add\n        /* \"#utility.yul\":8775:8796   */\n      swap10\n      pop\n        /* \"#utility.yul\":8428:8806   */\n      pop\n        /* \"#utility.yul\":8415:8416   */\n      0x01\n        /* \"#utility.yul\":8412:8413   */\n      dup2\n        /* \"#utility.yul\":8408:8417   */\n      add\n        /* \"#utility.yul\":8403:8417   */\n      swap1\n      pop\n        /* \"#utility.yul\":8368:8806   */\n      jump(tag_208)\n    tag_210:\n        /* \"#utility.yul\":8372:8386   */\n      pop\n        /* \"#utility.yul\":8822:8826   */\n      dup3\n        /* \"#utility.yul\":8815:8826   */\n      swap8\n      pop\n        /* \"#utility.yul\":8842:8845   */\n      dup8\n        /* \"#utility.yul\":8835:8845   */\n      swap6\n      pop\n        /* \"#utility.yul\":7920:8851   */\n      pop\n      pop\n      pop\n      pop\n      pop\n        /* \"#utility.yul\":7748:8851   */\n      swap3\n      swap2\n      pop\n      pop\n      jump\t// out\n        /* \"#utility.yul\":8857:9326   */\n    tag_19:\n        /* \"#utility.yul\":9048:9052   */\n      0x00\n        /* \"#utility.yul\":9086:9088   */\n      0x20\n        /* \"#utility.yul\":9075:9084   */\n      dup3\n        /* \"#utility.yul\":9071:9089   */\n      add\n        /* \"#utility.yul\":9063:9089   */\n      swap1\n      pop\n        /* \"#utility.yul\":9135:9144   */\n      dup2\n        /* \"#utility.yul\":9129:9133   */\n      dup2\n        /* \"#utility.yul\":9125:9145   */\n      sub\n        /* \"#utility.yul\":9121:9122   */\n      0x00\n        /* \"#utility.yul\":9110:9119   */\n      dup4\n        /* \"#utility.yul\":9106:9123   */\n      add\n        /* \"#utility.yul\":9099:9146   */\n      mstore\n        /* \"#utility.yul\":9163:9319   */\n      tag_214\n        /* \"#utility.yul\":9314:9318   */\n      dup2\n        /* \"#utility.yul\":9305:9311   */\n      dup5\n        /* \"#utility.yul\":9163:9319   */\n      tag_97\n      jump\t// in\n    tag_214:\n        /* \"#utility.yul\":9155:9319   */\n      swap1\n      pop\n        /* \"#utility.yul\":8857:9326   */\n      swap3\n      swap2\n      pop\n      pop\n      jump\t// out\n        /* \"#utility.yul\":9332:9450   */\n    tag_98:\n        /* \"#utility.yul\":9419:9443   */\n      tag_216\n        /* \"#utility.yul\":9437:9442   */\n      dup2\n        /* \"#utility.yul\":9419:9443   */\n      tag_88\n      jump\t// in\n    tag_216:\n        /* \"#utility.yul\":9414:9417   */\n      dup3\n        /* \"#utility.yul\":9407:9444   */\n      mstore\n        /* \"#utility.yul\":9332:9450   */\n      pop\n      pop\n      jump\t// out\n        /* \"#utility.yul\":9456:9678   */\n    tag_25:\n        /* \"#utility.yul\":9549:9553   */\n      0x00\n        /* \"#utility.yul\":9587:9589   */\n      0x20\n        /* \"#utility.yul\":9576:9585   */\n      dup3\n        /* \"#utility.yul\":9572:9590   */\n      add\n        /* \"#utility.yul\":9564:9590   */\n      swap1\n      pop\n        /* \"#utility.yul\":9600:9671   */\n      tag_218\n        /* \"#utility.yul\":9668:9669   */\n      0x00\n        /* \"#utility.yul\":9657:9666   */\n      dup4\n        /* \"#utility.yul\":9653:9670   */\n      add\n        /* \"#utility.yul\":9644:9650   */\n      dup5\n        /* \"#utility.yul\":9600:9671   */\n      tag_98\n      jump\t// in\n    tag_218:\n        /* \"#utility.yul\":9456:9678   */\n      swap3\n      swap2\n      pop\n      pop\n      jump\t// out\n        /* \"#utility.yul\":9684:9853   */\n    tag_99:\n        /* \"#utility.yul\":9768:9779   */\n      0x00\n        /* \"#utility.yul\":9802:9808   */\n      dup3\n        /* \"#utility.yul\":9797:9800   */\n      dup3\n        /* \"#utility.yul\":9790:9809   */\n      mstore\n        /* \"#utility.yul\":9842:9846   */\n      0x20\n        /* \"#utility.yul\":9837:9840   */\n      dup3\n        /* \"#utility.yul\":9833:9847   */\n      add\n        /* \"#utility.yul\":9818:9847   */\n      swap1\n      pop\n        /* \"#utility.yul\":9684:9853   */\n      swap3\n      swap2\n      pop\n      pop\n      jump\t// out\n        /* \"#utility.yul\":9859:10080   */\n    tag_100:\n        /* \"#utility.yul\":9999:10033   */\n      0x446f6e6174696f6e206d7573742062652067726561746572207468616e207a65\n        /* \"#utility.yul\":9995:9996   */\n      0x00\n        /* \"#utility.yul\":9987:9993   */\n      dup3\n        /* \"#utility.yul\":9983:9997   */\n      add\n        /* \"#utility.yul\":9976:10034   */\n      mstore\n        /* \"#utility.yul\":10068:10072   */\n      0x726f000000000000000000000000000000000000000000000000000000000000\n        /* \"#utility.yul\":10063:10065   */\n      0x20\n        /* \"#utility.yul\":10055:10061   */\n      dup3\n        /* \"#utility.yul\":10051:10066   */\n      add\n        /* \"#utility.yul\":10044:10073   */\n      mstore\n        /* \"#utility.yul\":9859:10080   */\n      pop\n      jump\t// out\n        /* \"#utility.yul\":10086:10452   */\n    tag_101:\n        /* \"#utility.yul\":10228:10231   */\n      0x00\n        /* \"#utility.yul\":10249:10316   */\n      tag_222\n        /* \"#utility.yul\":10313:10315   */\n      0x22\n        /* \"#utility.yul\":10308:10311   */\n      dup4\n        /* \"#utility.yul\":10249:10316   */\n      tag_99\n      jump\t// in\n    tag_222:\n        /* \"#utility.yul\":10242:10316   */\n      swap2\n      pop\n        /* \"#utility.yul\":10325:10418   */\n      tag_223\n        /* \"#utility.yul\":10414:10417   */\n      dup3\n        /* \"#utility.yul\":10325:10418   */\n      tag_100\n      jump\t// in\n    tag_223:\n        /* \"#utility.yul\":10443:10445   */\n      0x40\n        /* \"#utility.yul\":10438:10441   */\n      dup3\n        /* \"#utility.yul\":10434:10446   */\n      add\n        /* \"#utility.yul\":10427:10446   */\n      swap1\n      pop\n        /* \"#utility.yul\":10086:10452   */\n      swap2\n      swap1\n      pop\n      jump\t// out\n        /* \"#utility.yul\":10458:10877   */\n    tag_29:\n        /* \"#utility.yul\":10624:10628   */\n      0x00\n        /* \"#utility.yul\":10662:10664   */\n      0x20\n        /* \"#utility.yul\":10651:10660   */\n      dup3\n        /* \"#utility.yul\":10647:10665   */\n      add\n        /* \"#utility.yul\":10639:10665   */\n      swap1\n      pop\n        /* \"#utility.yul\":10711:10720   */\n      dup2\n        /* \"#utility.yul\":10705:10709   */\n      dup2\n        /* \"#utility.yul\":10701:10721   */\n      sub\n        /* \"#utility.yul\":10697:10698   */\n      0x00\n        /* \"#utility.yul\":10686:10695   */\n      dup4\n        /* \"#utility.yul\":10682:10699   */\n      add\n        /* \"#utility.yul\":10675:10722   */\n      mstore\n        /* \"#utility.yul\":10739:10870   */\n      tag_225\n        /* \"#utility.yul\":10865:10869   */\n      dup2\n        /* \"#utility.yul\":10739:10870   */\n      tag_101\n      jump\t// in\n    tag_225:\n        /* \"#utility.yul\":10731:10870   */\n      swap1\n      pop\n        /* \"#utility.yul\":10458:10877   */\n      swap2\n      swap1\n      pop\n      jump\t// out\n        /* \"#utility.yul\":10883:11063   */\n    tag_102:\n        /* \"#utility.yul\":10931:11008   */\n      0x4e487b7100000000000000000000000000000000000000000000000000000000\n        /* \"#utility.yul\":10928:10929   */\n      0x00\n        /* \"#utility.yul\":10921:11009   */\n      mstore\n        /* \"#utility.yul\":11028:11032   */\n      0x22\n        /* \"#utility.yul\":11025:11026   */\n      0x04\n        /* \"#utility.yul\":11018:11033   */\n      mstore\n        /* \"#utility.yul\":11052:11056   */\n      0x24\n        /* \"#utility.yul\":11049:11050   */\n      0x00\n        /* \"#utility.yul\":11042:11057   */\n      revert\n        /* \"#utility.yul\":11069:11389   */\n    tag_56:\n        /* \"#utility.yul\":11113:11119   */\n      0x00\n        /* \"#utility.yul\":11150:11151   */\n      0x02\n        /* \"#utility.yul\":11144:11148   */\n      dup3\n        /* \"#utility.yul\":11140:11152   */\n      div\n        /* \"#utility.yul\":11130:11152   */\n      swap1\n      pop\n        /* \"#utility.yul\":11197:11198   */\n      0x01\n        /* \"#utility.yul\":11191:11195   */\n      dup3\n        /* \"#utility.yul\":11187:11199   */\n      and\n        /* \"#utility.yul\":11218:11236   */\n      dup1\n        /* \"#utility.yul\":11208:11289   */\n      tag_228\n      jumpi\n        /* \"#utility.yul\":11274:11278   */\n      0x7f\n        /* \"#utility.yul\":11266:11272   */\n      dup3\n        /* \"#utility.yul\":11262:11279   */\n      and\n        /* \"#utility.yul\":11252:11279   */\n      swap2\n      pop\n        /* \"#utility.yul\":11208:11289   */\n    tag_228:\n        /* \"#utility.yul\":11336:11338   */\n      0x20\n        /* \"#utility.yul\":11328:11334   */\n      dup3\n        /* \"#utility.yul\":11325:11339   */\n      lt\n        /* \"#utility.yul\":11305:11323   */\n      dup2\n        /* \"#utility.yul\":11302:11340   */\n      sub\n        /* \"#utility.yul\":11299:11383   */\n      tag_229\n      jumpi\n        /* \"#utility.yul\":11355:11373   */\n      tag_230\n      tag_102\n      jump\t// in\n    tag_230:\n        /* \"#utility.yul\":11299:11383   */\n    tag_229:\n        /* \"#utility.yul\":11120:11389   */\n      pop\n        /* \"#utility.yul\":11069:11389   */\n      swap2\n      swap1\n      pop\n      jump\t// out\n        /* \"#utility.yul\":11395:11536   */\n    tag_103:\n        /* \"#utility.yul\":11444:11448   */\n      0x00\n        /* \"#utility.yul\":11467:11470   */\n      dup2\n        /* \"#utility.yul\":11459:11470   */\n      swap1\n      pop\n        /* \"#utility.yul\":11490:11493   */\n      dup2\n        /* \"#utility.yul\":11487:11488   */\n      0x00\n        /* \"#utility.yul\":11480:11494   */\n      mstore\n        /* \"#utility.yul\":11524:11528   */\n      0x20\n        /* \"#utility.yul\":11521:11522   */\n      0x00\n        /* \"#utility.yul\":11511:11529   */\n      keccak256\n        /* \"#utility.yul\":11503:11529   */\n      swap1\n      pop\n        /* \"#utility.yul\":11395:11536   */\n      swap2\n      swap1\n      pop\n      jump\t// out\n        /* \"#utility.yul\":11542:11635   */\n    tag_104:\n        /* \"#utility.yul\":11579:11585   */\n      0x00\n        /* \"#utility.yul\":11626:11628   */\n      0x20\n        /* \"#utility.yul\":11621:11623   */\n      0x1f\n        /* \"#utility.yul\":11614:11619   */\n      dup4\n        /* \"#utility.yul\":11610:11624   */\n      add\n        /* \"#utility.yul\":11606:11629   */\n      div\n        /* \"#utility.yul\":11596:11629   */\n      swap1\n      pop\n        /* \"#utility.yul\":11542:11635   */\n      swap2\n      swap1\n      pop\n      jump\t// out\n        /* \"#utility.yul\":11641:11748   */\n    tag_105:\n        /* \"#utility.yul\":11685:11693   */\n      0x00\n        /* \"#utility.yul\":11735:11740   */\n      dup3\n        /* \"#utility.yul\":11729:11733   */\n      dup3\n        /* \"#utility.yul\":11725:11741   */\n      shl\n        /* \"#utility.yul\":11704:11741   */\n      swap1\n      pop\n        /* \"#utility.yul\":11641:11748   */\n      swap3\n      swap2\n      pop\n      pop\n      jump\t// out\n        /* \"#utility.yul\":11754:12147   */\n    tag_106:\n        /* \"#utility.yul\":11823:11829   */\n      0x00\n        /* \"#utility.yul\":11873:11874   */\n      0x08\n        /* \"#utility.yul\":11861:11871   */\n      dup4\n        /* \"#utility.yul\":11857:11875   */\n      mul\n        /* \"#utility.yul\":11896:11993   */\n      tag_235\n        /* \"#utility.yul\":11926:11992   */\n      0xffffffffffffffffffffffffffffffffffffffffffffffffffffffffffffffff\n        /* \"#utility.yul\":11915:11924   */\n      dup3\n        /* \"#utility.yul\":11896:11993   */\n      tag_105\n      jump\t// in\n    tag_235:\n        /* \"#utility.yul\":12014:12053   */\n      tag_236\n        /* \"#utility.yul\":12044:12052   */\n      dup7\n        /* \"#utility.yul\":12033:12042   */\n      dup4\n        /* \"#utility.yul\":12014:12053   */\n      tag_105\n      jump\t// in\n    tag_236:\n        /* \"#utility.yul\":12002:12053   */\n      swap6\n      pop\n        /* \"#utility.yul\":12086:12090   */\n      dup1\n        /* \"#utility.yul\":12082:12091   */\n      not\n        /* \"#utility.yul\":12075:12080   */\n      dup5\n        /* \"#utility.yul\":12071:12092   */\n      and\n        /* \"#utility.yul\":12062:12092   */\n      swap4\n      pop\n        /* \"#utility.yul\":12135:12139   */\n      dup1\n        /* \"#utility.yul\":12125:12133   */\n      dup7\n        /* \"#utility.yul\":12121:12140   */\n      and\n        /* \"#utility.yul\":12114:12119   */\n      dup5\n        /* \"#utility.yul\":12111:12141   */\n      or\n        /* \"#utility.yul\":12101:12141   */\n      swap3\n      pop\n        /* \"#utility.yul\":11830:12147   */\n      pop\n      pop\n        /* \"#utility.yul\":11754:12147   */\n      swap4\n      swap3\n      pop\n      pop\n      pop\n      jump\t// out\n        /* \"#utility.yul\":12153:12213   */\n    tag_107:\n        /* \"#utility.yul\":12181:12184   */\n      0x00\n        /* \"#utility.yul\":12202:12207   */\n      dup2\n        /* \"#utility.yul\":12195:12207   */\n      swap1\n      pop\n        /* \"#utility.yul\":12153:12213   */\n      swap2\n      swap1\n      pop\n      jump\t// out\n        /* \"#utility.yul\":12219:12361   */\n    tag_108:\n        /* \"#utility.yul\":12269:12278   */\n      0x00\n        /* \"#utility.yul\":12302:12355   */\n      tag_239\n        /* \"#utility.yul\":12320:12354   */\n      tag_240\n        /* \"#utility.yul\":12329:12353   */\n      tag_241\n        /* \"#utility.yul\":12347:12352   */\n      dup5\n        /* \"#utility.yul\":12329:12353   */\n      tag_88\n      jump\t// in\n    tag_241:\n        /* \"#utility.yul\":12320:12354   */\n      tag_107\n      jump\t// in\n    tag_240:\n        /* \"#utility.yul\":12302:12355   */\n      tag_88\n      jump\t// in\n    tag_239:\n        /* \"#utility.yul\":12289:12355   */\n      swap1\n      pop\n        /* \"#utility.yul\":12219:12361   */\n      swap2\n      swap1\n      pop\n      jump\t// out\n        /* \"#utility.yul\":12367:12442   */\n    tag_109:\n        /* \"#utility.yul\":12410:12413   */\n      0x00\n        /* \"#utility.yul\":12431:12436   */\n      dup2\n        /* \"#utility.yul\":12424:12436   */\n      swap1\n      pop\n        /* \"#utility.yul\":12367:12442   */\n      swap2\n      swap1\n      pop\n      jump\t// out\n        /* \"#utility.yul\":12448:12717   */\n    tag_110:\n        /* \"#utility.yul\":12558:12597   */\n      tag_244\n        /* \"#utility.yul\":12589:12596   */\n      dup4\n        /* \"#utility.yul\":12558:12597   */\n      tag_108\n      jump\t// in\n    tag_244:\n        /* \"#utility.yul\":12619:12710   */\n      tag_245\n        /* \"#utility.yul\":12668:12709   */\n      tag_246\n        /* \"#utility.yul\":12692:12708   */\n      dup3\n        /* \"#utility.yul\":12668:12709   */\n      tag_109\n      jump\t// in\n    tag_246:\n        /* \"#utility.yul\":12660:12666   */\n      dup5\n        /* \"#utility.yul\":12653:12657   */\n      dup5\n        /* \"#utility.yul\":12647:12658   */\n      sload\n        /* \"#utility.yul\":12619:12710   */\n      tag_106\n      jump\t// in\n    tag_245:\n        /* \"#utility.yul\":12613:12617   */\n      dup3\n        /* \"#utility.yul\":12606:12711   */\n      sstore\n        /* \"#utility.yul\":12524:12717   */\n      pop\n        /* \"#utility.yul\":12448:12717   */\n      pop\n      pop\n      pop\n      jump\t// out\n        /* \"#utility.yul\":12723:12796   */\n    tag_111:\n        /* \"#utility.yul\":12768:12771   */\n      0x00\n        /* \"#utility.yul\":12789:12790   */\n      0x00\n        /* \"#utility.yul\":12782:12790   */\n      swap1\n      pop\n        /* \"#utility.yul\":12723:12796   */\n      swap1\n      jump\t// out\n        /* \"#utility.yul\":12802:12991   */\n    tag_112:\n        /* \"#utility.yul\":12879:12911   */\n      tag_249\n      tag_111\n      jump\t// in\n    tag_249:\n        /* \"#utility.yul\":12920:12985   */\n      tag_250\n        /* \"#utility.yul\":12978:12984   */\n      dup2\n        /* \"#utility.yul\":12970:12976   */\n      dup5\n        /* \"#utility.yul\":12964:12968   */\n      dup5\n        /* \"#utility.yul\":12920:12985   */\n      tag_110\n      jump\t// in\n    tag_250:\n        /* \"#utility.yul\":12855:12991   */\n      pop\n        /* \"#utility.yul\":12802:12991   */\n      pop\n      pop\n      jump\t// out\n        /* \"#utility.yul\":12997:13183   */\n    tag_113:\n        /* \"#utility.yul\":13057:13177   */\n    tag_252:\n        /* \"#utility.yul\":13074:13077   */\n      dup2\n        /* \"#utility.yul\":13067:13072   */\n      dup2\n        /* \"#utility.yul\":13064:13078   */\n      lt\n        /* \"#utility.yul\":13057:13177   */\n      iszero\n      tag_254\n      jumpi\n        /* \"#utility.yul\":13128:13167   */\n      tag_255\n        /* \"#utility.yul\":13165:13166   */\n      0x00\n        /* \"#utility.yul\":13158:13163   */\n      dup3\n        /* \"#utility.yul\":13128:13167   */\n      tag_112\n      jump\t// in\n    tag_255:\n        /* \"#utility.yul\":13101:13102   */\n      0x01\n        /* \"#utility.yul\":13094:13099   */\n      dup2\n        /* \"#utility.yul\":13090:13103   */\n      add\n        /* \"#utility.yul\":13081:13103   */\n      swap1\n      pop\n        /* \"#utility.yul\":13057:13177   */\n      jump(tag_252)\n    tag_254:\n        /* \"#utility.yul\":12997:13183   */\n      pop\n      pop\n      jump\t// out\n        /* \"#utility.yul\":13189:13732   */\n    tag_114:\n        /* \"#utility.yul\":13290:13292   */\n      0x1f\n        /* \"#utility.yul\":13285:13288   */\n      dup3\n        /* \"#utility.yul\":13282:13293   */\n      gt\n        /* \"#utility.yul\":13279:13725   */\n      iszero\n      tag_257\n      jumpi\n        /* \"#utility.yul\":13324:13362   */\n      tag_258\n        /* \"#utility.yul\":13356:13361   */\n      dup2\n        /* \"#utility.yul\":13324:13362   */\n      tag_103\n      jump\t// in\n    tag_258:\n        /* \"#utility.yul\":13408:13437   */\n      tag_259\n        /* \"#utility.yul\":13426:13436   */\n      dup5\n        /* \"#utility.yul\":13408:13437   */\n      tag_104\n      jump\t// in\n    tag_259:\n        /* \"#utility.yul\":13398:13406   */\n      dup2\n        /* \"#utility.yul\":13394:13438   */\n      add\n        /* \"#utility.yul\":13591:13593   */\n      0x20\n        /* \"#utility.yul\":13579:13589   */\n      dup6\n        /* \"#utility.yul\":13576:13594   */\n      lt\n        /* \"#utility.yul\":13573:13622   */\n      iszero\n      tag_260\n      jumpi\n        /* \"#utility.yul\":13612:13620   */\n      dup2\n        /* \"#utility.yul\":13597:13620   */\n      swap1\n      pop\n        /* \"#utility.yul\":13573:13622   */\n    tag_260:\n        /* \"#utility.yul\":13635:13715   */\n      tag_261\n        /* \"#utility.yul\":13691:13713   */\n      tag_262\n        /* \"#utility.yul\":13709:13712   */\n      dup6\n        /* \"#utility.yul\":13691:13713   */\n      tag_104\n      jump\t// in\n    tag_262:\n        /* \"#utility.yul\":13681:13689   */\n      dup4\n        /* \"#utility.yul\":13677:13714   */\n      add\n        /* \"#utility.yul\":13664:13675   */\n      dup3\n        /* \"#utility.yul\":13635:13715   */\n      tag_113\n      jump\t// in\n    tag_261:\n        /* \"#utility.yul\":13294:13725   */\n      pop\n      pop\n        /* \"#utility.yul\":13279:13725   */\n    tag_257:\n        /* \"#utility.yul\":13189:13732   */\n      pop\n      pop\n      pop\n      jump\t// out\n        /* \"#utility.yul\":13738:13855   */\n    tag_115:\n        /* \"#utility.yul\":13792:13800   */\n      0x00\n        /* \"#utility.yul\":13842:13847   */\n      dup3\n        /* \"#utility.yul\":13836:13840   */\n      dup3\n        /* \"#utility.yul\":13832:13848   */\n      shr\n        /* \"#utility.yul\":13811:13848   */\n      swap1\n      pop\n        /* \"#utility.yul\":13738:13855   */\n      swap3\n      swap2\n      pop\n      pop\n      jump\t// out\n        /* \"#utility.yul\":13861:14030   */\n    tag_116:\n        /* \"#utility.yul\":13905:13911   */\n      0x00\n        /* \"#utility.yul\":13938:13989   */\n      tag_265\n        /* \"#utility.yul\":13986:13987   */\n      0x00\n        /* \"#utility.yul\":13982:13988   */\n      not\n        /* \"#utility.yul\":13974:13979   */\n      dup5\n        /* \"#utility.yul\":13971:13972   */\n      0x08\n        /* \"#utility.yul\":13967:13980   */\n      mul\n        /* \"#utility.yul\":13938:13989   */\n      tag_115\n      jump\t// in\n    tag_265:\n        /* \"#utility.yul\":13934:13990   */\n      not\n        /* \"#utility.yul\":14019:14023   */\n      dup1\n        /* \"#utility.yul\":14013:14017   */\n      dup4\n        /* \"#utility.yul\":14009:14024   */\n      and\n        /* \"#utility.yul\":13999:14024   */\n      swap2\n      pop\n        /* \"#utility.yul\":13912:14030   */\n      pop\n        /* \"#utility.yul\":13861:14030   */\n      swap3\n      swap2\n      pop\n      pop\n      jump\t// out\n        /* \"#utility.yul\":14035:14330   */\n    tag_117:\n        /* \"#utility.yul\":14111:14115   */\n      0x00\n        /* \"#utility.yul\":14257:14286   */\n      tag_267\n        /* \"#utility.yul\":14282:14285   */\n      dup4\n        /* \"#utility.yul\":14276:14280   */\n      dup4\n        /* \"#utility.yul\":14257:14286   */\n      tag_116\n      jump\t// in\n    tag_267:\n        /* \"#utility.yul\":14249:14286   */\n      swap2\n      pop\n        /* \"#utility.yul\":14319:14322   */\n      dup3\n        /* \"#utility.yul\":14316:14317   */\n      0x02\n        /* \"#utility.yul\":14312:14323   */\n      mul\n        /* \"#utility.yul\":14306:14310   */\n      dup3\n        /* \"#utility.yul\":14303:14324   */\n      or\n        /* \"#utility.yul\":14295:14324   */\n      swap1\n      pop\n        /* \"#utility.yul\":14035:14330   */\n      swap3\n      swap2\n      pop\n      pop\n      jump\t// out\n        /* \"#utility.yul\":14335:15730   */\n    tag_32:\n        /* \"#utility.yul\":14452:14489   */\n      tag_269\n        /* \"#utility.yul\":14485:14488   */\n      dup3\n        /* \"#utility.yul\":14452:14489   */\n      tag_90\n      jump\t// in\n    tag_269:\n        /* \"#utility.yul\":14554:14572   */\n      0xffffffffffffffff\n        /* \"#utility.yul\":14546:14552   */\n      dup2\n        /* \"#utility.yul\":14543:14573   */\n      gt\n        /* \"#utility.yul\":14540:14596   */\n      iszero\n      tag_270\n      jumpi\n        /* \"#utility.yul\":14576:14594   */\n      tag_271\n      tag_77\n      jump\t// in\n    tag_271:\n        /* \"#utility.yul\":14540:14596   */\n    tag_270:\n        /* \"#utility.yul\":14620:14658   */\n      tag_272\n        /* \"#utility.yul\":14652:14656   */\n      dup3\n        /* \"#utility.yul\":14646:14657   */\n      sload\n        /* \"#utility.yul\":14620:14658   */\n      tag_56\n      jump\t// in\n    tag_272:\n        /* \"#utility.yul\":14705:14772   */\n      tag_273\n        /* \"#utility.yul\":14765:14771   */\n      dup3\n        /* \"#utility.yul\":14757:14763   */\n      dup3\n        /* \"#utility.yul\":14751:14755   */\n      dup6\n        /* \"#utility.yul\":14705:14772   */\n      tag_114\n      jump\t// in\n    tag_273:\n        /* \"#utility.yul\":14799:14800   */\n      0x00\n        /* \"#utility.yul\":14823:14827   */\n      0x20\n        /* \"#utility.yul\":14810:14827   */\n      swap1\n      pop\n        /* \"#utility.yul\":14855:14857   */\n      0x1f\n        /* \"#utility.yul\":14847:14853   */\n      dup4\n        /* \"#utility.yul\":14844:14858   */\n      gt\n        /* \"#utility.yul\":14872:14873   */\n      0x01\n        /* \"#utility.yul\":14867:15485   */\n      dup2\n      eq\n      tag_275\n      jumpi\n        /* \"#utility.yul\":15529:15530   */\n      0x00\n        /* \"#utility.yul\":15546:15552   */\n      dup5\n        /* \"#utility.yul\":15543:15620   */\n      iszero\n      tag_276\n      jumpi\n        /* \"#utility.yul\":15595:15604   */\n      dup3\n        /* \"#utility.yul\":15590:15593   */\n      dup8\n        /* \"#utility.yul\":15586:15605   */\n      add\n        /* \"#utility.yul\":15580:15606   */\n      mload\n        /* \"#utility.yul\":15571:15606   */\n      swap1\n      pop\n        /* \"#utility.yul\":15543:15620   */\n    tag_276:\n        /* \"#utility.yul\":15646:15713   */\n      tag_277\n        /* \"#utility.yul\":15706:15712   */\n      dup6\n        /* \"#utility.yul\":15699:15704   */\n      dup3\n        /* \"#utility.yul\":15646:15713   */\n      tag_117\n      jump\t// in\n    tag_277:\n        /* \"#utility.yul\":15640:15644   */\n      dup7\n        /* \"#utility.yul\":15633:15714   */\n      sstore\n        /* \"#utility.yul\":15502:15724   */\n      pop\n        /* \"#utility.yul\":14837:15724   */\n      jump(tag_274)\n        /* \"#utility.yul\":14867:15485   */\n    tag_275:\n        /* \"#utility.yul\":14919:14923   */\n      0x1f\n        /* \"#utility.yul\":14915:14924   */\n      not\n        /* \"#utility.yul\":14907:14913   */\n      dup5\n        /* \"#utility.yul\":14903:14925   */\n      and\n        /* \"#utility.yul\":14953:14990   */\n      tag_278\n        /* \"#utility.yul\":14985:14989   */\n      dup7\n        /* \"#utility.yul\":14953:14990   */\n      tag_103\n      jump\t// in\n    tag_278:\n        /* \"#utility.yul\":15012:15013   */\n      0x00\n        /* \"#utility.yul\":15026:15234   */\n    tag_279:\n        /* \"#utility.yul\":15040:15047   */\n      dup3\n        /* \"#utility.yul\":15037:15038   */\n      dup2\n        /* \"#utility.yul\":15034:15048   */\n      lt\n        /* \"#utility.yul\":15026:15234   */\n      iszero\n      tag_281\n      jumpi\n        /* \"#utility.yul\":15119:15128   */\n      dup5\n        /* \"#utility.yul\":15114:15117   */\n      dup10\n        /* \"#utility.yul\":15110:15129   */\n      add\n        /* \"#utility.yul\":15104:15130   */\n      mload\n        /* \"#utility.yul\":15096:15102   */\n      dup3\n        /* \"#utility.yul\":15089:15131   */\n      sstore\n        /* \"#utility.yul\":15170:15171   */\n      0x01\n        /* \"#utility.yul\":15162:15168   */\n      dup3\n        /* \"#utility.yul\":15158:15172   */\n      add\n        /* \"#utility.yul\":15148:15172   */\n      swap2\n      pop\n        /* \"#utility.yul\":15217:15219   */\n      0x20\n        /* \"#utility.yul\":15206:15215   */\n      dup6\n        /* \"#utility.yul\":15202:15220   */\n      add\n        /* \"#utility.yul\":15189:15220   */\n      swap5\n      pop\n        /* \"#utility.yul\":15063:15067   */\n      0x20\n        /* \"#utility.yul\":15060:15061   */\n      dup2\n        /* \"#utility.yul\":15056:15068   */\n      add\n        /* \"#utility.yul\":15051:15068   */\n      swap1\n      pop\n        /* \"#utility.yul\":15026:15234   */\n      jump(tag_279)\n    tag_281:\n        /* \"#utility.yul\":15262:15268   */\n      dup7\n        /* \"#utility.yul\":15253:15260   */\n      dup4\n        /* \"#utility.yul\":15250:15269   */\n      lt\n        /* \"#utility.yul\":15247:15426   */\n      iszero\n      tag_282\n      jumpi\n        /* \"#utility.yul\":15320:15329   */\n      dup5\n        /* \"#utility.yul\":15315:15318   */\n      dup10\n        /* \"#utility.yul\":15311:15330   */\n      add\n        /* \"#utility.yul\":15305:15331   */\n      mload\n        /* \"#utility.yul\":15363:15411   */\n      tag_283\n        /* \"#utility.yul\":15405:15409   */\n      0x1f\n        /* \"#utility.yul\":15397:15403   */\n      dup10\n        /* \"#utility.yul\":15393:15410   */\n      and\n        /* \"#utility.yul\":15382:15391   */\n      dup3\n        /* \"#utility.yul\":15363:15411   */\n      tag_116\n      jump\t// in\n    tag_283:\n        /* \"#utility.yul\":15355:15361   */\n      dup4\n        /* \"#utility.yul\":15348:15412   */\n      sstore\n        /* \"#utility.yul\":15270:15426   */\n      pop\n        /* \"#utility.yul\":15247:15426   */\n    tag_282:\n        /* \"#utility.yul\":15472:15473   */\n      0x01\n        /* \"#utility.yul\":15468:15469   */\n      0x02\n        /* \"#utility.yul\":15460:15466   */\n      dup9\n        /* \"#utility.yul\":15456:15470   */\n      mul\n        /* \"#utility.yul\":15452:15474   */\n      add\n        /* \"#utility.yul\":15446:15450   */\n      dup9\n        /* \"#utility.yul\":15439:15475   */\n      sstore\n        /* \"#utility.yul\":14874:15485   */\n      pop\n      pop\n      pop\n        /* \"#utility.yul\":14837:15724   */\n    tag_274:\n      pop\n        /* \"#utility.yul\":14427:15730   */\n      pop\n      pop\n      pop\n        /* \"#utility.yul\":14335:15730   */\n      pop\n      pop\n      jump\t// out\n        /* \"#utility.yul\":15736:15916   */\n    tag_118:\n        /* \"#utility.yul\":15784:15861   */\n      0x4e487b7100000000000000000000000000000000000000000000000000000000\n        /* \"#utility.yul\":15781:15782   */\n      0x00\n        /* \"#utility.yul\":15774:15862   */\n      mstore\n        /* \"#utility.yul\":15881:15885   */\n      0x11\n        /* \"#utility.yul\":15878:15879   */\n      0x04\n        /* \"#utility.yul\":15871:15886   */\n      mstore\n        /* \"#utility.yul\":15905:15909   */\n      0x24\n        /* \"#utility.yul\":15902:15903   */\n      0x00\n        /* \"#utility.yul\":15895:15910   */\n      revert\n        /* \"#utility.yul\":15922:16113   */\n    tag_35:\n        /* \"#utility.yul\":15962:15965   */\n      0x00\n        /* \"#utility.yul\":15981:16001   */\n      tag_286\n        /* \"#utility.yul\":15999:16000   */\n      dup3\n        /* \"#utility.yul\":15981:16001   */\n      tag_88\n      jump\t// in\n    tag_286:\n        /* \"#utility.yul\":15976:16001   */\n      swap2\n      pop\n        /* \"#utility.yul\":16015:16035   */\n      tag_287\n        /* \"#utility.yul\":16033:16034   */\n      dup4\n        /* \"#utility.yul\":16015:16035   */\n      tag_88\n      jump\t// in\n    tag_287:\n        /* \"#utility.yul\":16010:16035   */\n      swap3\n      pop\n        /* \"#utility.yul\":16058:16059   */\n      dup3\n        /* \"#utility.yul\":16055:16056   */\n      dup3\n        /* \"#utility.yul\":16051:16060   */\n      add\n        /* \"#utility.yul\":16044:16060   */\n      swap1\n      pop\n        /* \"#utility.yul\":16079:16082   */\n      dup1\n        /* \"#utility.yul\":16076:16077   */\n      dup3\n        /* \"#utility.yul\":16073:16083   */\n      gt\n        /* \"#utility.yul\":16070:16106   */\n      iszero\n      tag_288\n      jumpi\n        /* \"#utility.yul\":16086:16104   */\n      tag_289\n      tag_118\n      jump\t// in\n    tag_289:\n        /* \"#utility.yul\":16070:16106   */\n    tag_288:\n        /* \"#utility.yul\":15922:16113   */\n      swap3\n      swap2\n      pop\n      pop\n      jump\t// out\n        /* \"#utility.yul\":16119:16496   */\n    tag_119:\n        /* \"#utility.yul\":16207:16210   */\n      0x00\n        /* \"#utility.yul\":16235:16274   */\n      tag_291\n        /* \"#utility.yul\":16268:16273   */\n      dup3\n        /* \"#utility.yul\":16235:16274   */\n      tag_90\n      jump\t// in\n    tag_291:\n        /* \"#utility.yul\":16290:16361   */\n      tag_292\n        /* \"#utility.yul\":16354:16360   */\n      dup2\n        /* \"#utility.yul\":16349:16352   */\n      dup6\n        /* \"#utility.yul\":16290:16361   */\n      tag_99\n      jump\t// in\n    tag_292:\n        /* \"#utility.yul\":16283:16361   */\n      swap4\n      pop\n        /* \"#utility.yul\":16370:16435   */\n      tag_293\n        /* \"#utility.yul\":16428:16434   */\n      dup2\n        /* \"#utility.yul\":16423:16426   */\n      dup6\n        /* \"#utility.yul\":16416:16420   */\n      0x20\n        /* \"#utility.yul\":16409:16414   */\n      dup7\n        /* \"#utility.yul\":16405:16421   */\n      add\n        /* \"#utility.yul\":16370:16435   */\n      tag_92\n      jump\t// in\n    tag_293:\n        /* \"#utility.yul\":16460:16489   */\n      tag_294\n        /* \"#utility.yul\":16482:16488   */\n      dup2\n        /* \"#utility.yul\":16460:16489   */\n      tag_76\n      jump\t// in\n    tag_294:\n        /* \"#utility.yul\":16455:16458   */\n      dup5\n        /* \"#utility.yul\":16451:16490   */\n      add\n        /* \"#utility.yul\":16444:16490   */\n      swap2\n      pop\n        /* \"#utility.yul\":16211:16496   */\n      pop\n        /* \"#utility.yul\":16119:16496   */\n      swap3\n      swap2\n      pop\n      pop\n      jump\t// out\n        /* \"#utility.yul\":16502:17126   */\n    tag_37:\n        /* \"#utility.yul\":16691:16695   */\n      0x00\n        /* \"#utility.yul\":16729:16731   */\n      0x60\n        /* \"#utility.yul\":16718:16727   */\n      dup3\n        /* \"#utility.yul\":16714:16732   */\n      add\n        /* \"#utility.yul\":16706:16732   */\n      swap1\n      pop\n        /* \"#utility.yul\":16742:16813   */\n      tag_296\n        /* \"#utility.yul\":16810:16811   */\n      0x00\n        /* \"#utility.yul\":16799:16808   */\n      dup4\n        /* \"#utility.yul\":16795:16812   */\n      add\n        /* \"#utility.yul\":16786:16792   */\n      dup7\n        /* \"#utility.yul\":16742:16813   */\n      tag_98\n      jump\t// in\n    tag_296:\n        /* \"#utility.yul\":16860:16869   */\n      dup2\n        /* \"#utility.yul\":16854:16858   */\n      dup2\n        /* \"#utility.yul\":16850:16870   */\n      sub\n        /* \"#utility.yul\":16845:16847   */\n      0x20\n        /* \"#utility.yul\":16834:16843   */\n      dup4\n        /* \"#utility.yul\":16830:16848   */\n      add\n        /* \"#utility.yul\":16823:16871   */\n      mstore\n        /* \"#utility.yul\":16888:16966   */\n      tag_297\n        /* \"#utility.yul\":16961:16965   */\n      dup2\n        /* \"#utility.yul\":16952:16958   */\n      dup6\n        /* \"#utility.yul\":16888:16966   */\n      tag_119\n      jump\t// in\n    tag_297:\n        /* \"#utility.yul\":16880:16966   */\n      swap1\n      pop\n        /* \"#utility.yul\":17013:17022   */\n      dup2\n        /* \"#utility.yul\":17007:17011   */\n      dup2\n        /* \"#utility.yul\":17003:17023   */\n      sub\n        /* \"#utility.yul\":16998:17000   */\n      0x40\n        /* \"#utility.yul\":16987:16996   */\n      dup4\n        /* \"#utility.yul\":16983:17001   */\n      add\n        /* \"#utility.yul\":16976:17024   */\n      mstore\n        /* \"#utility.yul\":17041:17119   */\n      tag_298\n        /* \"#utility.yul\":17114:17118   */\n      dup2\n        /* \"#utility.yul\":17105:17111   */\n      dup5\n        /* \"#utility.yul\":17041:17119   */\n      tag_119\n      jump\t// in\n    tag_298:\n        /* \"#utility.yul\":17033:17119   */\n      swap1\n      pop\n        /* \"#utility.yul\":16502:17126   */\n      swap5\n      swap4\n      pop\n      pop\n      pop\n      pop\n      jump\t// out\n        /* \"#utility.yul\":17132:17302   */\n    tag_120:\n        /* \"#utility.yul\":17272:17294   */\n      0x4e6f2066756e647320746f207769746864726177000000000000000000000000\n        /* \"#utility.yul\":17268:17269   */\n      0x00\n        /* \"#utility.yul\":17260:17266   */\n      dup3\n        /* \"#utility.yul\":17256:17270   */\n      add\n        /* \"#utility.yul\":17249:17295   */\n      mstore\n        /* \"#utility.yul\":17132:17302   */\n      pop\n      jump\t// out\n        /* \"#utility.yul\":17308:17674   */\n    tag_121:\n        /* \"#utility.yul\":17450:17453   */\n      0x00\n        /* \"#utility.yul\":17471:17538   */\n      tag_301\n        /* \"#utility.yul\":17535:17537   */\n      0x14\n        /* \"#utility.yul\":17530:17533   */\n      dup4\n        /* \"#utility.yul\":17471:17538   */\n      tag_99\n      jump\t// in\n    tag_301:\n        /* \"#utility.yul\":17464:17538   */\n      swap2\n      pop\n        /* \"#utility.yul\":17547:17640   */\n      tag_302\n        /* \"#utility.yul\":17636:17639   */\n      dup3\n        /* \"#utility.yul\":17547:17640   */\n      tag_120\n      jump\t// in\n    tag_302:\n        /* \"#utility.yul\":17665:17667   */\n      0x20\n        /* \"#utility.yul\":17660:17663   */\n      dup3\n        /* \"#utility.yul\":17656:17668   */\n      add\n        /* \"#utility.yul\":17649:17668   */\n      swap1\n      pop\n        /* \"#utility.yul\":17308:17674   */\n      swap2\n      swap1\n      pop\n      jump\t// out\n        /* \"#utility.yul\":17680:18099   */\n    tag_41:\n        /* \"#utility.yul\":17846:17850   */\n      0x00\n        /* \"#utility.yul\":17884:17886   */\n      0x20\n        /* \"#utility.yul\":17873:17882   */\n      dup3\n        /* \"#utility.yul\":17869:17887   */\n      add\n        /* \"#utility.yul\":17861:17887   */\n      swap1\n      pop\n        /* \"#utility.yul\":17933:17942   */\n      dup2\n        /* \"#utility.yul\":17927:17931   */\n      dup2\n        /* \"#utility.yul\":17923:17943   */\n      sub\n        /* \"#utility.yul\":17919:17920   */\n      0x00\n        /* \"#utility.yul\":17908:17917   */\n      dup4\n        /* \"#utility.yul\":17904:17921   */\n      add\n        /* \"#utility.yul\":17897:17944   */\n      mstore\n        /* \"#utility.yul\":17961:18092   */\n      tag_304\n        /* \"#utility.yul\":18087:18091   */\n      dup2\n        /* \"#utility.yul\":17961:18092   */\n      tag_121\n      jump\t// in\n    tag_304:\n        /* \"#utility.yul\":17953:18092   */\n      swap1\n      pop\n        /* \"#utility.yul\":17680:18099   */\n      swap2\n      swap1\n      pop\n      jump\t// out\n        /* \"#utility.yul\":18105:18252   */\n    tag_122:\n        /* \"#utility.yul\":18206:18217   */\n      0x00\n        /* \"#utility.yul\":18243:18246   */\n      dup2\n        /* \"#utility.yul\":18228:18246   */\n      swap1\n      pop\n        /* \"#utility.yul\":18105:18252   */\n      swap3\n      swap2\n      pop\n      pop\n      jump\t// out\n        /* \"#utility.yul\":18258:18372   */\n    tag_123:\n      pop\n      jump\t// out\n        /* \"#utility.yul\":18378:18776   */\n    tag_124:\n        /* \"#utility.yul\":18537:18540   */\n      0x00\n        /* \"#utility.yul\":18558:18641   */\n      tag_308\n        /* \"#utility.yul\":18639:18640   */\n      0x00\n        /* \"#utility.yul\":18634:18637   */\n      dup4\n        /* \"#utility.yul\":18558:18641   */\n      tag_122\n      jump\t// in\n    tag_308:\n        /* \"#utility.yul\":18551:18641   */\n      swap2\n      pop\n        /* \"#utility.yul\":18650:18743   */\n      tag_309\n        /* \"#utility.yul\":18739:18742   */\n      dup3\n        /* \"#utility.yul\":18650:18743   */\n      tag_123\n      jump\t// in\n    tag_309:\n        /* \"#utility.yul\":18768:18769   */\n      0x00\n        /* \"#utility.yul\":18763:18766   */\n      dup3\n        /* \"#utility.yul\":18759:18770   */\n      add\n        /* \"#utility.yul\":18752:18770   */\n      swap1\n      pop\n        /* \"#utility.yul\":18378:18776   */\n      swap2\n      swap1\n      pop\n      jump\t// out\n        /* \"#utility.yul\":18782:19161   */\n    tag_43:\n        /* \"#utility.yul\":18966:18969   */\n      0x00\n        /* \"#utility.yul\":18988:19135   */\n      tag_311\n        /* \"#utility.yul\":19131:19134   */\n      dup3\n        /* \"#utility.yul\":18988:19135   */\n      tag_124\n      jump\t// in\n    tag_311:\n        /* \"#utility.yul\":18981:19135   */\n      swap2\n      pop\n        /* \"#utility.yul\":19152:19155   */\n      dup2\n        /* \"#utility.yul\":19145:19155   */\n      swap1\n      pop\n        /* \"#utility.yul\":18782:19161   */\n      swap2\n      swap1\n      pop\n      jump\t// out\n        /* \"#utility.yul\":19167:19332   */\n    tag_125:\n        /* \"#utility.yul\":19307:19324   */\n      0x5769746864726177206661696c65640000000000000000000000000000000000\n        /* \"#utility.yul\":19303:19304   */\n      0x00\n        /* \"#utility.yul\":19295:19301   */\n      dup3\n        /* \"#utility.yul\":19291:19305   */\n      add\n        /* \"#utility.yul\":19284:19325   */\n      mstore\n        /* \"#utility.yul\":19167:19332   */\n      pop\n      jump\t// out\n        /* \"#utility.yul\":19338:19704   */\n    tag_126:\n        /* \"#utility.yul\":19480:19483   */\n      0x00\n        /* \"#utility.yul\":19501:19568   */\n      tag_314\n        /* \"#utility.yul\":19565:19567   */\n      0x0f\n        /* \"#utility.yul\":19560:19563   */\n      dup4\n        /* \"#utility.yul\":19501:19568   */\n      tag_99\n      jump\t// in\n    tag_314:\n        /* \"#utility.yul\":19494:19568   */\n      swap2\n      pop\n        /* \"#utility.yul\":19577:19670   */\n      tag_315\n        /* \"#utility.yul\":19666:19669   */\n      dup3\n        /* \"#utility.yul\":19577:19670   */\n      tag_125\n      jump\t// in\n    tag_315:\n        /* \"#utility.yul\":19695:19697   */\n      0x20\n        /* \"#utility.yul\":19690:19693   */\n      dup3\n        /* \"#utility.yul\":19686:19698   */\n      add\n        /* \"#utility.yul\":19679:19698   */\n      swap1\n      pop\n        /* \"#utility.yul\":19338:19704   */\n      swap2\n      swap1\n      pop\n      jump\t// out\n        /* \"#utility.yul\":19710:20129   */\n    tag_49:\n        /* \"#utility.yul\":19876:19880   */\n      0x00\n        /* \"#utility.yul\":19914:19916   */\n      0x20\n        /* \"#utility.yul\":19903:19912   */\n      dup3\n        /* \"#utility.yul\":19899:19917   */\n      add\n        /* \"#utility.yul\":19891:19917   */\n      swap1\n      pop\n        /* \"#utility.yul\":19963:19972   */\n      dup2\n        /* \"#utility.yul\":19957:19961   */\n      dup2\n        /* \"#utility.yul\":19953:19973   */\n      sub\n        /* \"#utility.yul\":19949:19950   */\n      0x00\n        /* \"#utility.yul\":19938:19947   */\n      dup4\n        /* \"#utility.yul\":19934:19951   */\n      add\n        /* \"#utility.yul\":19927:19974   */\n      mstore\n        /* \"#utility.yul\":19991:20122   */\n      tag_317\n        /* \"#utility.yul\":20117:20121   */\n      dup2\n        /* \"#utility.yul\":19991:20122   */\n      tag_126\n      jump\t// in\n    tag_317:\n        /* \"#utility.yul\":19983:20122   */\n      swap1\n      pop\n        /* \"#utility.yul\":19710:20129   */\n      swap2\n      swap1\n      pop\n      jump\t// out\n\n    auxdata: 0xa26469706673582212207027d92daae63948b5d2043b2715828b7e4088dc06772c1c50509328c3a789ae64736f6c634300081e0033\n}\n",
				"bytecode": {
					"linkReferences": {},
					"object": "6080604052348015600e575f5ffd5b506111238061001c5f395ff3fe60806040526004361061003e575f3560e01c80631280db73146100425780633ccfd60b1461005e578063a59fe38814610074578063f8b2cb4f146100b0575b5f5ffd5b61005c600480360381019061005791906108e0565b6100ec565b005b348015610069575f5ffd5b50610072610314565b005b34801561007f575f5ffd5b5061009a60048036038101906100959190610968565b6104d3565b6040516100a79190610b4f565b60405180910390f35b3480156100bb575f5ffd5b506100d660048036038101906100d19190610968565b6106f3565b6040516100e39190610b7e565b60405180910390f35b5f341161012e576040517f08c379a000000000000000000000000000000000000000000000000000000000815260040161012590610c17565b60405180910390fd5b5f5f8473ffffffffffffffffffffffffffffffffffffffff1673ffffffffffffffffffffffffffffffffffffffff1681526020019081526020015f206040518060a001604052803373ffffffffffffffffffffffffffffffffffffffff16815260200134815260200184815260200183815260200142815250908060018154018082558091505060019003905f5260205f2090600502015f909190919091505f820151815f015f6101000a81548173ffffffffffffffffffffffffffffffffffffffff021916908373ffffffffffffffffffffffffffffffffffffffff1602179055506020820151816001015560408201518160020190816102309190610e32565b5060608201518160030190816102469190610e32565b506080820151816004015550503460015f8573ffffffffffffffffffffffffffffffffffffffff1673ffffffffffffffffffffffffffffffffffffffff1681526020019081526020015f205f82825461029f9190610f2e565b925050819055508273ffffffffffffffffffffffffffffffffffffffff163373ffffffffffffffffffffffffffffffffffffffff167ffd4b9aab24884296f0230bb5d0d1170f3bf0be63ad8e4a51f4e3b75935b2c78834858560405161030793929190610f99565b60405180910390a3505050565b5f60015f3373ffffffffffffffffffffffffffffffffffffffff1673ffffffffffffffffffffffffffffffffffffffff1681526020019081526020015f205490505f8111610397576040517f08c379a000000000000000000000000000000000000000000000000000000000815260040161038e90611026565b60405180910390fd5b5f60015f3373ffffffffffffffffffffffffffffffffffffffff1673ffffffffffffffffffffffffffffffffffffffff1681526020019081526020015f20819055505f3373ffffffffffffffffffffffffffffffffffffffff16826040516103fe90611071565b5f6040518083038185875af1925050503d805f8114610438576040519150601f19603f3d011682016040523d82523d5f602084013e61043d565b606091505b5050905080610481576040517f08c379a0000000000000000000000000000000000000000000000000000000008152600401610478906110cf565b60405180910390fd5b3373ffffffffffffffffffffffffffffffffffffffff167f7fcf532c15f0a6db0bd6d0e038bea71d30d808c7d98cb3bf7268a95bf5081b65836040516104c79190610b7e565b60405180910390a25050565b60605f5f8373ffffffffffffffffffffffffffffffffffffffff1673ffffffffffffffffffffffffffffffffffffffff1681526020019081526020015f20805480602002602001604051908101604052809291908181526020015f905b828210156106e8578382905f5260205f2090600502016040518060a00160405290815f82015f9054906101000a900473ffffffffffffffffffffffffffffffffffffffff1673ffffffffffffffffffffffffffffffffffffffff1673ffffffffffffffffffffffffffffffffffffffff168152602001600182015481526020016002820180546105bf90610c62565b80601f01602080910402602001604051908101604052809291908181526020018280546105eb90610c62565b80156106365780601f1061060d57610100808354040283529160200191610636565b820191905f5260205f20905b81548152906001019060200180831161061957829003601f168201915b5050505050815260200160038201805461064f90610c62565b80601f016020809104026020016040519081016040528092919081815260200182805461067b90610c62565b80156106c65780601f1061069d576101008083540402835291602001916106c6565b820191905f5260205f20905b8154815290600101906020018083116106a957829003601f168201915b5050505050815260200160048201548152505081526020019060010190610530565b505050509050919050565b5f60015f8373ffffffffffffffffffffffffffffffffffffffff1673ffffffffffffffffffffffffffffffffffffffff1681526020019081526020015f20549050919050565b5f604051905090565b5f5ffd5b5f5ffd5b5f73ffffffffffffffffffffffffffffffffffffffff82169050919050565b5f6107738261074a565b9050919050565b61078381610769565b811461078d575f5ffd5b50565b5f8135905061079e8161077a565b92915050565b5f5ffd5b5f5ffd5b5f601f19601f8301169050919050565b7f4e487b71000000000000000000000000000000000000000000000000000000005f52604160045260245ffd5b6107f2826107ac565b810181811067ffffffffffffffff82111715610811576108106107bc565b5b80604052505050565b5f610823610739565b905061082f82826107e9565b919050565b5f67ffffffffffffffff82111561084e5761084d6107bc565b5b610857826107ac565b9050602081019050919050565b828183375f83830152505050565b5f61088461087f84610834565b61081a565b9050828152602081018484840111156108a05761089f6107a8565b5b6108ab848285610864565b509392505050565b5f82601f8301126108c7576108c66107a4565b5b81356108d7848260208601610872565b91505092915050565b5f5f5f606084860312156108f7576108f6610742565b5b5f61090486828701610790565b935050602084013567ffffffffffffffff81111561092557610924610746565b5b610931868287016108b3565b925050604084013567ffffffffffffffff81111561095257610951610746565b5b61095e868287016108b3565b9150509250925092565b5f6020828403121561097d5761097c610742565b5b5f61098a84828501610790565b91505092915050565b5f81519050919050565b5f82825260208201905092915050565b5f819050602082019050919050565b6109c581610769565b82525050565b5f819050919050565b6109dd816109cb565b82525050565b5f81519050919050565b5f82825260208201905092915050565b8281835e5f83830152505050565b5f610a15826109e3565b610a1f81856109ed565b9350610a2f8185602086016109fd565b610a38816107ac565b840191505092915050565b5f60a083015f830151610a585f8601826109bc565b506020830151610a6b60208601826109d4565b5060408301518482036040860152610a838282610a0b565b91505060608301518482036060860152610a9d8282610a0b565b9150506080830151610ab260808601826109d4565b508091505092915050565b5f610ac88383610a43565b905092915050565b5f602082019050919050565b5f610ae682610993565b610af0818561099d565b935083602082028501610b02856109ad565b805f5b85811015610b3d5784840389528151610b1e8582610abd565b9450610b2983610ad0565b925060208a01995050600181019050610b05565b50829750879550505050505092915050565b5f6020820190508181035f830152610b678184610adc565b905092915050565b610b78816109cb565b82525050565b5f602082019050610b915f830184610b6f565b92915050565b5f82825260208201905092915050565b7f446f6e6174696f6e206d7573742062652067726561746572207468616e207a655f8201527f726f000000000000000000000000000000000000000000000000000000000000602082015250565b5f610c01602283610b97565b9150610c0c82610ba7565b604082019050919050565b5f6020820190508181035f830152610c2e81610bf5565b9050919050565b7f4e487b71000000000000000000000000000000000000000000000000000000005f52602260045260245ffd5b5f6002820490506001821680610c7957607f821691505b602082108103610c8c57610c8b610c35565b5b50919050565b5f819050815f5260205f209050919050565b5f6020601f8301049050919050565b5f82821b905092915050565b5f60088302610cee7fffffffffffffffffffffffffffffffffffffffffffffffffffffffffffffffff82610cb3565b610cf88683610cb3565b95508019841693508086168417925050509392505050565b5f819050919050565b5f610d33610d2e610d29846109cb565b610d10565b6109cb565b9050919050565b5f819050919050565b610d4c83610d19565b610d60610d5882610d3a565b848454610cbf565b825550505050565b5f5f905090565b610d77610d68565b610d82818484610d43565b505050565b5b81811015610da557610d9a5f82610d6f565b600181019050610d88565b5050565b601f821115610dea57610dbb81610c92565b610dc484610ca4565b81016020851015610dd3578190505b610de7610ddf85610ca4565b830182610d87565b50505b505050565b5f82821c905092915050565b5f610e0a5f1984600802610def565b1980831691505092915050565b5f610e228383610dfb565b9150826002028217905092915050565b610e3b826109e3565b67ffffffffffffffff811115610e5457610e536107bc565b5b610e5e8254610c62565b610e69828285610da9565b5f60209050601f831160018114610e9a575f8415610e88578287015190505b610e928582610e17565b865550610ef9565b601f198416610ea886610c92565b5f5b82811015610ecf57848901518255600182019150602085019450602081019050610eaa565b86831015610eec5784890151610ee8601f891682610dfb565b8355505b6001600288020188555050505b505050505050565b7f4e487b71000000000000000000000000000000000000000000000000000000005f52601160045260245ffd5b5f610f38826109cb565b9150610f43836109cb565b9250828201905080821115610f5b57610f5a610f01565b5b92915050565b5f610f6b826109e3565b610f758185610b97565b9350610f858185602086016109fd565b610f8e816107ac565b840191505092915050565b5f606082019050610fac5f830186610b6f565b8181036020830152610fbe8185610f61565b90508181036040830152610fd28184610f61565b9050949350505050565b7f4e6f2066756e647320746f2077697468647261770000000000000000000000005f82015250565b5f611010601483610b97565b915061101b82610fdc565b602082019050919050565b5f6020820190508181035f83015261103d81611004565b9050919050565b5f81905092915050565b50565b5f61105c5f83611044565b91506110678261104e565b5f82019050919050565b5f61107b82611051565b9150819050919050565b7f5769746864726177206661696c656400000000000000000000000000000000005f82015250565b5f6110b9600f83610b97565b91506110c482611085565b602082019050919050565b5f6020820190508181035f8301526110e6816110ad565b905091905056fea26469706673582212207027d92daae63948b5d2043b2715828b7e4088dc06772c1c50509328c3a789ae64736f6c634300081e0033",
					"opcodes": "PUSH1 0x80 PUSH1 0x40 MSTORE CALLVALUE DUP1 ISZERO PUSH1 0xE JUMPI PUSH0 PUSH0 REVERT JUMPDEST POP PUSH2 0x1123 DUP1 PUSH2 0x1C PUSH0 CODECOPY PUSH0 RETURN INVALID PUSH1 0x80 PUSH1 0x40 MSTORE PUSH1 0x4 CALLDATASIZE LT PUSH2 0x3E JUMPI PUSH0 CALLDATALOAD PUSH1 0xE0 SHR DUP1 PUSH4 0x1280DB73 EQ PUSH2 0x42 JUMPI DUP1 PUSH4 0x3CCFD60B EQ PUSH2 0x5E JUMPI DUP1 PUSH4 0xA59FE388 EQ PUSH2 0x74 JUMPI DUP1 PUSH4 0xF8B2CB4F EQ PUSH2 0xB0 JUMPI JUMPDEST PUSH0 PUSH0 REVERT JUMPDEST PUSH2 0x5C PUSH1 0x4 DUP1 CALLDATASIZE SUB DUP2 ADD SWAP1 PUSH2 0x57 SWAP2 SWAP1 PUSH2 0x8E0 JUMP JUMPDEST PUSH2 0xEC JUMP JUMPDEST STOP JUMPDEST CALLVALUE DUP1 ISZERO PUSH2 0x69 JUMPI PUSH0 PUSH0 REVERT JUMPDEST POP PUSH2 0x72 PUSH2 0x314 JUMP JUMPDEST STOP JUMPDEST CALLVALUE DUP1 ISZERO PUSH2 0x7F JUMPI PUSH0 PUSH0 REVERT JUMPDEST POP PUSH2 0x9A PUSH1 0x4 DUP1 CALLDATASIZE SUB DUP2 ADD SWAP1 PUSH2 0x95 SWAP2 SWAP1 PUSH2 0x968 JUMP JUMPDEST PUSH2 0x4D3 JUMP JUMPDEST PUSH1 0x40 MLOAD PUSH2 0xA7 SWAP2 SWAP1 PUSH2 0xB4F JUMP JUMPDEST PUSH1 0x40 MLOAD DUP1 SWAP2 SUB SWAP1 RETURN JUMPDEST CALLVALUE DUP1 ISZERO PUSH2 0xBB JUMPI PUSH0 PUSH0 REVERT JUMPDEST POP PUSH2 0xD6 PUSH1 0x4 DUP1 CALLDATASIZE SUB DUP2 ADD SWAP1 PUSH2 0xD1 SWAP2 SWAP1 PUSH2 0x968 JUMP JUMPDEST PUSH2 0x6F3 JUMP JUMPDEST PUSH1 0x40 MLOAD PUSH2 0xE3 SWAP2 SWAP1 PUSH2 0xB7E JUMP JUMPDEST PUSH1 0x40 MLOAD DUP1 SWAP2 SUB SWAP1 RETURN JUMPDEST PUSH0 CALLVALUE GT PUSH2 0x12E JUMPI PUSH1 0x40 MLOAD PUSH32 0x8C379A000000000000000000000000000000000000000000000000000000000 DUP2 MSTORE PUSH1 0x4 ADD PUSH2 0x125 SWAP1 PUSH2 0xC17 JUMP JUMPDEST PUSH1 0x40 MLOAD DUP1 SWAP2 SUB SWAP1 REVERT JUMPDEST PUSH0 PUSH0 DUP5 PUSH20 0xFFFFFFFFFFFFFFFFFFFFFFFFFFFFFFFFFFFFFFFF AND PUSH20 0xFFFFFFFFFFFFFFFFFFFFFFFFFFFFFFFFFFFFFFFF AND DUP2 MSTORE PUSH1 0x20 ADD SWAP1 DUP2 MSTORE PUSH1 0x20 ADD PUSH0 KECCAK256 PUSH1 0x40 MLOAD DUP1 PUSH1 0xA0 ADD PUSH1 0x40 MSTORE DUP1 CALLER PUSH20 0xFFFFFFFFFFFFFFFFFFFFFFFFFFFFFFFFFFFFFFFF AND DUP2 MSTORE PUSH1 0x20 ADD CALLVALUE DUP2 MSTORE PUSH1 0x20 ADD DUP5 DUP2 MSTORE PUSH1 0x20 ADD DUP4 DUP2 MSTORE PUSH1 0x20 ADD TIMESTAMP DUP2 MSTORE POP SWAP1 DUP1 PUSH1 0x1 DUP2 SLOAD ADD DUP1 DUP3 SSTORE DUP1 SWAP2 POP POP PUSH1 0x1 SWAP1 SUB SWAP1 PUSH0 MSTORE PUSH1 0x20 PUSH0 KECCAK256 SWAP1 PUSH1 0x5 MUL ADD PUSH0 SWAP1 SWAP2 SWAP1 SWAP2 SWAP1 SWAP2 POP PUSH0 DUP3 ADD MLOAD DUP2 PUSH0 ADD PUSH0 PUSH2 0x100 EXP DUP2 SLOAD DUP2 PUSH20 0xFFFFFFFFFFFFFFFFFFFFFFFFFFFFFFFFFFFFFFFF MUL NOT AND SWAP1 DUP4 PUSH20 0xFFFFFFFFFFFFFFFFFFFFFFFFFFFFFFFFFFFFFFFF AND MUL OR SWAP1 SSTORE POP PUSH1 0x20 DUP3 ADD MLOAD DUP2 PUSH1 0x1 ADD SSTORE PUSH1 0x40 DUP3 ADD MLOAD DUP2 PUSH1 0x2 ADD SWAP1 DUP2 PUSH2 0x230 SWAP2 SWAP1 PUSH2 0xE32 JUMP JUMPDEST POP PUSH1 0x60 DUP3 ADD MLOAD DUP2 PUSH1 0x3 ADD SWAP1 DUP2 PUSH2 0x246 SWAP2 SWAP1 PUSH2 0xE32 JUMP JUMPDEST POP PUSH1 0x80 DUP3 ADD MLOAD DUP2 PUSH1 0x4 ADD SSTORE POP POP CALLVALUE PUSH1 0x1 PUSH0 DUP6 PUSH20 0xFFFFFFFFFFFFFFFFFFFFFFFFFFFFFFFFFFFFFFFF AND PUSH20 0xFFFFFFFFFFFFFFFFFFFFFFFFFFFFFFFFFFFFFFFF AND DUP2 MSTORE PUSH1 0x20 ADD SWAP1 DUP2 MSTORE PUSH1 0x20 ADD PUSH0 KECCAK256 PUSH0 DUP3 DUP3 SLOAD PUSH2 0x29F SWAP2 SWAP1 PUSH2 0xF2E JUMP JUMPDEST SWAP3 POP POP DUP2 SWAP1 SSTORE POP DUP3 PUSH20 0xFFFFFFFFFFFFFFFFFFFFFFFFFFFFFFFFFFFFFFFF AND CALLER PUSH20 0xFFFFFFFFFFFFFFFFFFFFFFFFFFFFFFFFFFFFFFFF AND PUSH32 0xFD4B9AAB24884296F0230BB5D0D1170F3BF0BE63AD8E4A51F4E3B75935B2C788 CALLVALUE DUP6 DUP6 PUSH1 0x40 MLOAD PUSH2 0x307 SWAP4 SWAP3 SWAP2 SWAP1 PUSH2 0xF99 JUMP JUMPDEST PUSH1 0x40 MLOAD DUP1 SWAP2 SUB SWAP1 LOG3 POP POP POP JUMP JUMPDEST PUSH0 PUSH1 0x1 PUSH0 CALLER PUSH20 0xFFFFFFFFFFFFFFFFFFFFFFFFFFFFFFFFFFFFFFFF AND PUSH20 0xFFFFFFFFFFFFFFFFFFFFFFFFFFFFFFFFFFFFFFFF AND DUP2 MSTORE PUSH1 0x20 ADD SWAP1 DUP2 MSTORE PUSH1 0x20 ADD PUSH0 KECCAK256 SLOAD SWAP1 POP PUSH0 DUP2 GT PUSH2 0x397 JUMPI PUSH1 0x40 MLOAD PUSH32 0x8C379A000000000000000000000000000000000000000000000000000000000 DUP2 MSTORE PUSH1 0x4 ADD PUSH2 0x38E SWAP1 PUSH2 0x1026 JUMP JUMPDEST PUSH1 0x40 MLOAD DUP1 SWAP2 SUB SWAP1 REVERT JUMPDEST PUSH0 PUSH1 0x1 PUSH0 CALLER PUSH20 0xFFFFFFFFFFFFFFFFFFFFFFFFFFFFFFFFFFFFFFFF AND PUSH20 0xFFFFFFFFFFFFFFFFFFFFFFFFFFFFFFFFFFFFFFFF AND DUP2 MSTORE PUSH1 0x20 ADD SWAP1 DUP2 MSTORE PUSH1 0x20 ADD PUSH0 KECCAK256 DUP2 SWAP1 SSTORE POP PUSH0 CALLER PUSH20 0xFFFFFFFFFFFFFFFFFFFFFFFFFFFFFFFFFFFFFFFF AND DUP3 PUSH1 0x40 MLOAD PUSH2 0x3FE SWAP1 PUSH2 0x1071 JUMP JUMPDEST PUSH0 PUSH1 0x40 MLOAD DUP1 DUP4 SUB DUP2 DUP6 DUP8 GAS CALL SWAP3 POP POP POP RETURNDATASIZE DUP1 PUSH0 DUP2 EQ PUSH2 0x438 JUMPI PUSH1 0x40 MLOAD SWAP2 POP PUSH1 0x1F NOT PUSH1 0x3F RETURNDATASIZE ADD AND DUP3 ADD PUSH1 0x40 MSTORE RETURNDATASIZE DUP3 MSTORE RETURNDATASIZE PUSH0 PUSH1 0x20 DUP5 ADD RETURNDATACOPY PUSH2 0x43D JUMP JUMPDEST PUSH1 0x60 SWAP2 POP JUMPDEST POP POP SWAP1 POP DUP1 PUSH2 0x481 JUMPI PUSH1 0x40 MLOAD PUSH32 0x8C379A000000000000000000000000000000000000000000000000000000000 DUP2 MSTORE PUSH1 0x4 ADD PUSH2 0x478 SWAP1 PUSH2 0x10CF JUMP JUMPDEST PUSH1 0x40 MLOAD DUP1 SWAP2 SUB SWAP1 REVERT JUMPDEST CALLER PUSH20 0xFFFFFFFFFFFFFFFFFFFFFFFFFFFFFFFFFFFFFFFF AND PUSH32 0x7FCF532C15F0A6DB0BD6D0E038BEA71D30D808C7D98CB3BF7268A95BF5081B65 DUP4 PUSH1 0x40 MLOAD PUSH2 0x4C7 SWAP2 SWAP1 PUSH2 0xB7E JUMP JUMPDEST PUSH1 0x40 MLOAD DUP1 SWAP2 SUB SWAP1 LOG2 POP POP JUMP JUMPDEST PUSH1 0x60 PUSH0 PUSH0 DUP4 PUSH20 0xFFFFFFFFFFFFFFFFFFFFFFFFFFFFFFFFFFFFFFFF AND PUSH20 0xFFFFFFFFFFFFFFFFFFFFFFFFFFFFFFFFFFFFFFFF AND DUP2 MSTORE PUSH1 0x20 ADD SWAP1 DUP2 MSTORE PUSH1 0x20 ADD PUSH0 KECCAK256 DUP1 SLOAD DUP1 PUSH1 0x20 MUL PUSH1 0x20 ADD PUSH1 0x40 MLOAD SWAP1 DUP2 ADD PUSH1 0x40 MSTORE DUP1 SWAP3 SWAP2 SWAP1 DUP2 DUP2 MSTORE PUSH1 0x20 ADD PUSH0 SWAP1 JUMPDEST DUP3 DUP3 LT ISZERO PUSH2 0x6E8 JUMPI DUP4 DUP3 SWAP1 PUSH0 MSTORE PUSH1 0x20 PUSH0 KECCAK256 SWAP1 PUSH1 0x5 MUL ADD PUSH1 0x40 MLOAD DUP1 PUSH1 0xA0 ADD PUSH1 0x40 MSTORE SWAP1 DUP2 PUSH0 DUP3 ADD PUSH0 SWAP1 SLOAD SWAP1 PUSH2 0x100 EXP SWAP1 DIV PUSH20 0xFFFFFFFFFFFFFFFFFFFFFFFFFFFFFFFFFFFFFFFF AND PUSH20 0xFFFFFFFFFFFFFFFFFFFFFFFFFFFFFFFFFFFFFFFF AND PUSH20 0xFFFFFFFFFFFFFFFFFFFFFFFFFFFFFFFFFFFFFFFF AND DUP2 MSTORE PUSH1 0x20 ADD PUSH1 0x1 DUP3 ADD SLOAD DUP2 MSTORE PUSH1 0x20 ADD PUSH1 0x2 DUP3 ADD DUP1 SLOAD PUSH2 0x5BF SWAP1 PUSH2 0xC62 JUMP JUMPDEST DUP1 PUSH1 0x1F ADD PUSH1 0x20 DUP1 SWAP2 DIV MUL PUSH1 0x20 ADD PUSH1 0x40 MLOAD SWAP1 DUP2 ADD PUSH1 0x40 MSTORE DUP1 SWAP3 SWAP2 SWAP1 DUP2 DUP2 MSTORE PUSH1 0x20 ADD DUP3 DUP1 SLOAD PUSH2 0x5EB SWAP1 PUSH2 0xC62 JUMP JUMPDEST DUP1 ISZERO PUSH2 0x636 JUMPI DUP1 PUSH1 0x1F LT PUSH2 0x60D JUMPI PUSH2 0x100 DUP1 DUP4 SLOAD DIV MUL DUP4 MSTORE SWAP2 PUSH1 0x20 ADD SWAP2 PUSH2 0x636 JUMP JUMPDEST DUP3 ADD SWAP2 SWAP1 PUSH0 MSTORE PUSH1 0x20 PUSH0 KECCAK256 SWAP1 JUMPDEST DUP2 SLOAD DUP2 MSTORE SWAP1 PUSH1 0x1 ADD SWAP1 PUSH1 0x20 ADD DUP1 DUP4 GT PUSH2 0x619 JUMPI DUP3 SWAP1 SUB PUSH1 0x1F AND DUP3 ADD SWAP2 JUMPDEST POP POP POP POP POP DUP2 MSTORE PUSH1 0x20 ADD PUSH1 0x3 DUP3 ADD DUP1 SLOAD PUSH2 0x64F SWAP1 PUSH2 0xC62 JUMP JUMPDEST DUP1 PUSH1 0x1F ADD PUSH1 0x20 DUP1 SWAP2 DIV MUL PUSH1 0x20 ADD PUSH1 0x40 MLOAD SWAP1 DUP2 ADD PUSH1 0x40 MSTORE DUP1 SWAP3 SWAP2 SWAP1 DUP2 DUP2 MSTORE PUSH1 0x20 ADD DUP3 DUP1 SLOAD PUSH2 0x67B SWAP1 PUSH2 0xC62 JUMP JUMPDEST DUP1 ISZERO PUSH2 0x6C6 JUMPI DUP1 PUSH1 0x1F LT PUSH2 0x69D JUMPI PUSH2 0x100 DUP1 DUP4 SLOAD DIV MUL DUP4 MSTORE SWAP2 PUSH1 0x20 ADD SWAP2 PUSH2 0x6C6 JUMP JUMPDEST DUP3 ADD SWAP2 SWAP1 PUSH0 MSTORE PUSH1 0x20 PUSH0 KECCAK256 SWAP1 JUMPDEST DUP2 SLOAD DUP2 MSTORE SWAP1 PUSH1 0x1 ADD SWAP1 PUSH1 0x20 ADD DUP1 DUP4 GT PUSH2 0x6A9 JUMPI DUP3 SWAP1 SUB PUSH1 0x1F AND DUP3 ADD SWAP2 JUMPDEST POP POP POP POP POP DUP2 MSTORE PUSH1 0x20 ADD PUSH1 0x4 DUP3 ADD SLOAD DUP2 MSTORE POP POP DUP2 MSTORE PUSH1 0x20 ADD SWAP1 PUSH1 0x1 ADD SWAP1 PUSH2 0x530 JUMP JUMPDEST POP POP POP POP SWAP1 POP SWAP2 SWAP1 POP JUMP JUMPDEST PUSH0 PUSH1 0x1 PUSH0 DUP4 PUSH20 0xFFFFFFFFFFFFFFFFFFFFFFFFFFFFFFFFFFFFFFFF AND PUSH20 0xFFFFFFFFFFFFFFFFFFFFFFFFFFFFFFFFFFFFFFFF AND DUP2 MSTORE PUSH1 0x20 ADD SWAP1 DUP2 MSTORE PUSH1 0x20 ADD PUSH0 KECCAK256 SLOAD SWAP1 POP SWAP2 SWAP1 POP JUMP JUMPDEST PUSH0 PUSH1 0x40 MLOAD SWAP1 POP SWAP1 JUMP JUMPDEST PUSH0 PUSH0 REVERT JUMPDEST PUSH0 PUSH0 REVERT JUMPDEST PUSH0 PUSH20 0xFFFFFFFFFFFFFFFFFFFFFFFFFFFFFFFFFFFFFFFF DUP3 AND SWAP1 POP SWAP2 SWAP1 POP JUMP JUMPDEST PUSH0 PUSH2 0x773 DUP3 PUSH2 0x74A JUMP JUMPDEST SWAP1 POP SWAP2 SWAP1 POP JUMP JUMPDEST PUSH2 0x783 DUP2 PUSH2 0x769 JUMP JUMPDEST DUP2 EQ PUSH2 0x78D JUMPI PUSH0 PUSH0 REVERT JUMPDEST POP JUMP JUMPDEST PUSH0 DUP2 CALLDATALOAD SWAP1 POP PUSH2 0x79E DUP2 PUSH2 0x77A JUMP JUMPDEST SWAP3 SWAP2 POP POP JUMP JUMPDEST PUSH0 PUSH0 REVERT JUMPDEST PUSH0 PUSH0 REVERT JUMPDEST PUSH0 PUSH1 0x1F NOT PUSH1 0x1F DUP4 ADD AND SWAP1 POP SWAP2 SWAP1 POP JUMP JUMPDEST PUSH32 0x4E487B7100000000000000000000000000000000000000000000000000000000 PUSH0 MSTORE PUSH1 0x41 PUSH1 0x4 MSTORE PUSH1 0x24 PUSH0 REVERT JUMPDEST PUSH2 0x7F2 DUP3 PUSH2 0x7AC JUMP JUMPDEST DUP2 ADD DUP2 DUP2 LT PUSH8 0xFFFFFFFFFFFFFFFF DUP3 GT OR ISZERO PUSH2 0x811 JUMPI PUSH2 0x810 PUSH2 0x7BC JUMP JUMPDEST JUMPDEST DUP1 PUSH1 0x40 MSTORE POP POP POP JUMP JUMPDEST PUSH0 PUSH2 0x823 PUSH2 0x739 JUMP JUMPDEST SWAP1 POP PUSH2 0x82F DUP3 DUP3 PUSH2 0x7E9 JUMP JUMPDEST SWAP2 SWAP1 POP JUMP JUMPDEST PUSH0 PUSH8 0xFFFFFFFFFFFFFFFF DUP3 GT ISZERO PUSH2 0x84E JUMPI PUSH2 0x84D PUSH2 0x7BC JUMP JUMPDEST JUMPDEST PUSH2 0x857 DUP3 PUSH2 0x7AC JUMP JUMPDEST SWAP1 POP PUSH1 0x20 DUP2 ADD SWAP1 POP SWAP2 SWAP1 POP JUMP JUMPDEST DUP3 DUP2 DUP4 CALLDATACOPY PUSH0 DUP4 DUP4 ADD MSTORE POP POP POP JUMP JUMPDEST PUSH0 PUSH2 0x884 PUSH2 0x87F DUP5 PUSH2 0x834 JUMP JUMPDEST PUSH2 0x81A JUMP JUMPDEST SWAP1 POP DUP3 DUP2 MSTORE PUSH1 0x20 DUP2 ADD DUP5 DUP5 DUP5 ADD GT ISZERO PUSH2 0x8A0 JUMPI PUSH2 0x89F PUSH2 0x7A8 JUMP JUMPDEST JUMPDEST PUSH2 0x8AB DUP5 DUP3 DUP6 PUSH2 0x864 JUMP JUMPDEST POP SWAP4 SWAP3 POP POP POP JUMP JUMPDEST PUSH0 DUP3 PUSH1 0x1F DUP4 ADD SLT PUSH2 0x8C7 JUMPI PUSH2 0x8C6 PUSH2 0x7A4 JUMP JUMPDEST JUMPDEST DUP2 CALLDATALOAD PUSH2 0x8D7 DUP5 DUP3 PUSH1 0x20 DUP7 ADD PUSH2 0x872 JUMP JUMPDEST SWAP2 POP POP SWAP3 SWAP2 POP POP JUMP JUMPDEST PUSH0 PUSH0 PUSH0 PUSH1 0x60 DUP5 DUP7 SUB SLT ISZERO PUSH2 0x8F7 JUMPI PUSH2 0x8F6 PUSH2 0x742 JUMP JUMPDEST JUMPDEST PUSH0 PUSH2 0x904 DUP7 DUP3 DUP8 ADD PUSH2 0x790 JUMP JUMPDEST SWAP4 POP POP PUSH1 0x20 DUP5 ADD CALLDATALOAD PUSH8 0xFFFFFFFFFFFFFFFF DUP2 GT ISZERO PUSH2 0x925 JUMPI PUSH2 0x924 PUSH2 0x746 JUMP JUMPDEST JUMPDEST PUSH2 0x931 DUP7 DUP3 DUP8 ADD PUSH2 0x8B3 JUMP JUMPDEST SWAP3 POP POP PUSH1 0x40 DUP5 ADD CALLDATALOAD PUSH8 0xFFFFFFFFFFFFFFFF DUP2 GT ISZERO PUSH2 0x952 JUMPI PUSH2 0x951 PUSH2 0x746 JUMP JUMPDEST JUMPDEST PUSH2 0x95E DUP7 DUP3 DUP8 ADD PUSH2 0x8B3 JUMP JUMPDEST SWAP2 POP POP SWAP3 POP SWAP3 POP SWAP3 JUMP JUMPDEST PUSH0 PUSH1 0x20 DUP3 DUP5 SUB SLT ISZERO PUSH2 0x97D JUMPI PUSH2 0x97C PUSH2 0x742 JUMP JUMPDEST JUMPDEST PUSH0 PUSH2 0x98A DUP5 DUP3 DUP6 ADD PUSH2 0x790 JUMP JUMPDEST SWAP2 POP POP SWAP3 SWAP2 POP POP JUMP JUMPDEST PUSH0 DUP2 MLOAD SWAP1 POP SWAP2 SWAP1 POP JUMP JUMPDEST PUSH0 DUP3 DUP3 MSTORE PUSH1 0x20 DUP3 ADD SWAP1 POP SWAP3 SWAP2 POP POP JUMP JUMPDEST PUSH0 DUP2 SWAP1 POP PUSH1 0x20 DUP3 ADD SWAP1 POP SWAP2 SWAP1 POP JUMP JUMPDEST PUSH2 0x9C5 DUP2 PUSH2 0x769 JUMP JUMPDEST DUP3 MSTORE POP POP JUMP JUMPDEST PUSH0 DUP2 SWAP1 POP SWAP2 SWAP1 POP JUMP JUMPDEST PUSH2 0x9DD DUP2 PUSH2 0x9CB JUMP JUMPDEST DUP3 MSTORE POP POP JUMP JUMPDEST PUSH0 DUP2 MLOAD SWAP1 POP SWAP2 SWAP1 POP JUMP JUMPDEST PUSH0 DUP3 DUP3 MSTORE PUSH1 0x20 DUP3 ADD SWAP1 POP SWAP3 SWAP2 POP POP JUMP JUMPDEST DUP3 DUP2 DUP4 MCOPY PUSH0 DUP4 DUP4 ADD MSTORE POP POP POP JUMP JUMPDEST PUSH0 PUSH2 0xA15 DUP3 PUSH2 0x9E3 JUMP JUMPDEST PUSH2 0xA1F DUP2 DUP6 PUSH2 0x9ED JUMP JUMPDEST SWAP4 POP PUSH2 0xA2F DUP2 DUP6 PUSH1 0x20 DUP7 ADD PUSH2 0x9FD JUMP JUMPDEST PUSH2 0xA38 DUP2 PUSH2 0x7AC JUMP JUMPDEST DUP5 ADD SWAP2 POP POP SWAP3 SWAP2 POP POP JUMP JUMPDEST PUSH0 PUSH1 0xA0 DUP4 ADD PUSH0 DUP4 ADD MLOAD PUSH2 0xA58 PUSH0 DUP7 ADD DUP3 PUSH2 0x9BC JUMP JUMPDEST POP PUSH1 0x20 DUP4 ADD MLOAD PUSH2 0xA6B PUSH1 0x20 DUP7 ADD DUP3 PUSH2 0x9D4 JUMP JUMPDEST POP PUSH1 0x40 DUP4 ADD MLOAD DUP5 DUP3 SUB PUSH1 0x40 DUP7 ADD MSTORE PUSH2 0xA83 DUP3 DUP3 PUSH2 0xA0B JUMP JUMPDEST SWAP2 POP POP PUSH1 0x60 DUP4 ADD MLOAD DUP5 DUP3 SUB PUSH1 0x60 DUP7 ADD MSTORE PUSH2 0xA9D DUP3 DUP3 PUSH2 0xA0B JUMP JUMPDEST SWAP2 POP POP PUSH1 0x80 DUP4 ADD MLOAD PUSH2 0xAB2 PUSH1 0x80 DUP7 ADD DUP3 PUSH2 0x9D4 JUMP JUMPDEST POP DUP1 SWAP2 POP POP SWAP3 SWAP2 POP POP JUMP JUMPDEST PUSH0 PUSH2 0xAC8 DUP4 DUP4 PUSH2 0xA43 JUMP JUMPDEST SWAP1 POP SWAP3 SWAP2 POP POP JUMP JUMPDEST PUSH0 PUSH1 0x20 DUP3 ADD SWAP1 POP SWAP2 SWAP1 POP JUMP JUMPDEST PUSH0 PUSH2 0xAE6 DUP3 PUSH2 0x993 JUMP JUMPDEST PUSH2 0xAF0 DUP2 DUP6 PUSH2 0x99D JUMP JUMPDEST SWAP4 POP DUP4 PUSH1 0x20 DUP3 MUL DUP6 ADD PUSH2 0xB02 DUP6 PUSH2 0x9AD JUMP JUMPDEST DUP1 PUSH0 JUMPDEST DUP6 DUP2 LT ISZERO PUSH2 0xB3D JUMPI DUP5 DUP5 SUB DUP10 MSTORE DUP2 MLOAD PUSH2 0xB1E DUP6 DUP3 PUSH2 0xABD JUMP JUMPDEST SWAP5 POP PUSH2 0xB29 DUP4 PUSH2 0xAD0 JUMP JUMPDEST SWAP3 POP PUSH1 0x20 DUP11 ADD SWAP10 POP POP PUSH1 0x1 DUP2 ADD SWAP1 POP PUSH2 0xB05 JUMP JUMPDEST POP DUP3 SWAP8 POP DUP8 SWAP6 POP POP POP POP POP POP SWAP3 SWAP2 POP POP JUMP JUMPDEST PUSH0 PUSH1 0x20 DUP3 ADD SWAP1 POP DUP2 DUP2 SUB PUSH0 DUP4 ADD MSTORE PUSH2 0xB67 DUP2 DUP5 PUSH2 0xADC JUMP JUMPDEST SWAP1 POP SWAP3 SWAP2 POP POP JUMP JUMPDEST PUSH2 0xB78 DUP2 PUSH2 0x9CB JUMP JUMPDEST DUP3 MSTORE POP POP JUMP JUMPDEST PUSH0 PUSH1 0x20 DUP3 ADD SWAP1 POP PUSH2 0xB91 PUSH0 DUP4 ADD DUP5 PUSH2 0xB6F JUMP JUMPDEST SWAP3 SWAP2 POP POP JUMP JUMPDEST PUSH0 DUP3 DUP3 MSTORE PUSH1 0x20 DUP3 ADD SWAP1 POP SWAP3 SWAP2 POP POP JUMP JUMPDEST PUSH32 0x446F6E6174696F6E206D7573742062652067726561746572207468616E207A65 PUSH0 DUP3 ADD MSTORE PUSH32 0x726F000000000000000000000000000000000000000000000000000000000000 PUSH1 0x20 DUP3 ADD MSTORE POP JUMP JUMPDEST PUSH0 PUSH2 0xC01 PUSH1 0x22 DUP4 PUSH2 0xB97 JUMP JUMPDEST SWAP2 POP PUSH2 0xC0C DUP3 PUSH2 0xBA7 JUMP JUMPDEST PUSH1 0x40 DUP3 ADD SWAP1 POP SWAP2 SWAP1 POP JUMP JUMPDEST PUSH0 PUSH1 0x20 DUP3 ADD SWAP1 POP DUP2 DUP2 SUB PUSH0 DUP4 ADD MSTORE PUSH2 0xC2E DUP2 PUSH2 0xBF5 JUMP JUMPDEST SWAP1 POP SWAP2 SWAP1 POP JUMP JUMPDEST PUSH32 0x4E487B7100000000000000000000000000000000000000000000000000000000 PUSH0 MSTORE PUSH1 0x22 PUSH1 0x4 MSTORE PUSH1 0x24 PUSH0 REVERT JUMPDEST PUSH0 PUSH1 0x2 DUP3 DIV SWAP1 POP PUSH1 0x1 DUP3 AND DUP1 PUSH2 0xC79 JUMPI PUSH1 0x7F DUP3 AND SWAP2 POP JUMPDEST PUSH1 0x20 DUP3 LT DUP2 SUB PUSH2 0xC8C JUMPI PUSH2 0xC8B PUSH2 0xC35 JUMP JUMPDEST JUMPDEST POP SWAP2 SWAP1 POP JUMP JUMPDEST PUSH0 DUP2 SWAP1 POP DUP2 PUSH0 MSTORE PUSH1 0x20 PUSH0 KECCAK256 SWAP1 POP SWAP2 SWAP1 POP JUMP JUMPDEST PUSH0 PUSH1 0x20 PUSH1 0x1F DUP4 ADD DIV SWAP1 POP SWAP2 SWAP1 POP JUMP JUMPDEST PUSH0 DUP3 DUP3 SHL SWAP1 POP SWAP3 SWAP2 POP POP JUMP JUMPDEST PUSH0 PUSH1 0x8 DUP4 MUL PUSH2 0xCEE PUSH32 0xFFFFFFFFFFFFFFFFFFFFFFFFFFFFFFFFFFFFFFFFFFFFFFFFFFFFFFFFFFFFFFFF DUP3 PUSH2 0xCB3 JUMP JUMPDEST PUSH2 0xCF8 DUP7 DUP4 PUSH2 0xCB3 JUMP JUMPDEST SWAP6 POP DUP1 NOT DUP5 AND SWAP4 POP DUP1 DUP7 AND DUP5 OR SWAP3 POP POP POP SWAP4 SWAP3 POP POP POP JUMP JUMPDEST PUSH0 DUP2 SWAP1 POP SWAP2 SWAP1 POP JUMP JUMPDEST PUSH0 PUSH2 0xD33 PUSH2 0xD2E PUSH2 0xD29 DUP5 PUSH2 0x9CB JUMP JUMPDEST PUSH2 0xD10 JUMP JUMPDEST PUSH2 0x9CB JUMP JUMPDEST SWAP1 POP SWAP2 SWAP1 POP JUMP JUMPDEST PUSH0 DUP2 SWAP1 POP SWAP2 SWAP1 POP JUMP JUMPDEST PUSH2 0xD4C DUP4 PUSH2 0xD19 JUMP JUMPDEST PUSH2 0xD60 PUSH2 0xD58 DUP3 PUSH2 0xD3A JUMP JUMPDEST DUP5 DUP5 SLOAD PUSH2 0xCBF JUMP JUMPDEST DUP3 SSTORE POP POP POP POP JUMP JUMPDEST PUSH0 PUSH0 SWAP1 POP SWAP1 JUMP JUMPDEST PUSH2 0xD77 PUSH2 0xD68 JUMP JUMPDEST PUSH2 0xD82 DUP2 DUP5 DUP5 PUSH2 0xD43 JUMP JUMPDEST POP POP POP JUMP JUMPDEST JUMPDEST DUP2 DUP2 LT ISZERO PUSH2 0xDA5 JUMPI PUSH2 0xD9A PUSH0 DUP3 PUSH2 0xD6F JUMP JUMPDEST PUSH1 0x1 DUP2 ADD SWAP1 POP PUSH2 0xD88 JUMP JUMPDEST POP POP JUMP JUMPDEST PUSH1 0x1F DUP3 GT ISZERO PUSH2 0xDEA JUMPI PUSH2 0xDBB DUP2 PUSH2 0xC92 JUMP JUMPDEST PUSH2 0xDC4 DUP5 PUSH2 0xCA4 JUMP JUMPDEST DUP2 ADD PUSH1 0x20 DUP6 LT ISZERO PUSH2 0xDD3 JUMPI DUP2 SWAP1 POP JUMPDEST PUSH2 0xDE7 PUSH2 0xDDF DUP6 PUSH2 0xCA4 JUMP JUMPDEST DUP4 ADD DUP3 PUSH2 0xD87 JUMP JUMPDEST POP POP JUMPDEST POP POP POP JUMP JUMPDEST PUSH0 DUP3 DUP3 SHR SWAP1 POP SWAP3 SWAP2 POP POP JUMP JUMPDEST PUSH0 PUSH2 0xE0A PUSH0 NOT DUP5 PUSH1 0x8 MUL PUSH2 0xDEF JUMP JUMPDEST NOT DUP1 DUP4 AND SWAP2 POP POP SWAP3 SWAP2 POP POP JUMP JUMPDEST PUSH0 PUSH2 0xE22 DUP4 DUP4 PUSH2 0xDFB JUMP JUMPDEST SWAP2 POP DUP3 PUSH1 0x2 MUL DUP3 OR SWAP1 POP SWAP3 SWAP2 POP POP JUMP JUMPDEST PUSH2 0xE3B DUP3 PUSH2 0x9E3 JUMP JUMPDEST PUSH8 0xFFFFFFFFFFFFFFFF DUP2 GT ISZERO PUSH2 0xE54 JUMPI PUSH2 0xE53 PUSH2 0x7BC JUMP JUMPDEST JUMPDEST PUSH2 0xE5E DUP3 SLOAD PUSH2 0xC62 JUMP JUMPDEST PUSH2 0xE69 DUP3 DUP3 DUP6 PUSH2 0xDA9 JUMP JUMPDEST PUSH0 PUSH1 0x20 SWAP1 POP PUSH1 0x1F DUP4 GT PUSH1 0x1 DUP2 EQ PUSH2 0xE9A JUMPI PUSH0 DUP5 ISZERO PUSH2 0xE88 JUMPI DUP3 DUP8 ADD MLOAD SWAP1 POP JUMPDEST PUSH2 0xE92 DUP6 DUP3 PUSH2 0xE17 JUMP JUMPDEST DUP7 SSTORE POP PUSH2 0xEF9 JUMP JUMPDEST PUSH1 0x1F NOT DUP5 AND PUSH2 0xEA8 DUP7 PUSH2 0xC92 JUMP JUMPDEST PUSH0 JUMPDEST DUP3 DUP2 LT ISZERO PUSH2 0xECF JUMPI DUP5 DUP10 ADD MLOAD DUP3 SSTORE PUSH1 0x1 DUP3 ADD SWAP2 POP PUSH1 0x20 DUP6 ADD SWAP5 POP PUSH1 0x20 DUP2 ADD SWAP1 POP PUSH2 0xEAA JUMP JUMPDEST DUP7 DUP4 LT ISZERO PUSH2 0xEEC JUMPI DUP5 DUP10 ADD MLOAD PUSH2 0xEE8 PUSH1 0x1F DUP10 AND DUP3 PUSH2 0xDFB JUMP JUMPDEST DUP4 SSTORE POP JUMPDEST PUSH1 0x1 PUSH1 0x2 DUP9 MUL ADD DUP9 SSTORE POP POP POP JUMPDEST POP POP POP POP POP POP JUMP JUMPDEST PUSH32 0x4E487B7100000000000000000000000000000000000000000000000000000000 PUSH0 MSTORE PUSH1 0x11 PUSH1 0x4 MSTORE PUSH1 0x24 PUSH0 REVERT JUMPDEST PUSH0 PUSH2 0xF38 DUP3 PUSH2 0x9CB JUMP JUMPDEST SWAP2 POP PUSH2 0xF43 DUP4 PUSH2 0x9CB JUMP JUMPDEST SWAP3 POP DUP3 DUP3 ADD SWAP1 POP DUP1 DUP3 GT ISZERO PUSH2 0xF5B JUMPI PUSH2 0xF5A PUSH2 0xF01 JUMP JUMPDEST JUMPDEST SWAP3 SWAP2 POP POP JUMP JUMPDEST PUSH0 PUSH2 0xF6B DUP3 PUSH2 0x9E3 JUMP JUMPDEST PUSH2 0xF75 DUP2 DUP6 PUSH2 0xB97 JUMP JUMPDEST SWAP4 POP PUSH2 0xF85 DUP2 DUP6 PUSH1 0x20 DUP7 ADD PUSH2 0x9FD JUMP JUMPDEST PUSH2 0xF8E DUP2 PUSH2 0x7AC JUMP JUMPDEST DUP5 ADD SWAP2 POP POP SWAP3 SWAP2 POP POP JUMP JUMPDEST PUSH0 PUSH1 0x60 DUP3 ADD SWAP1 POP PUSH2 0xFAC PUSH0 DUP4 ADD DUP7 PUSH2 0xB6F JUMP JUMPDEST DUP2 DUP2 SUB PUSH1 0x20 DUP4 ADD MSTORE PUSH2 0xFBE DUP2 DUP6 PUSH2 0xF61 JUMP JUMPDEST SWAP1 POP DUP2 DUP2 SUB PUSH1 0x40 DUP4 ADD MSTORE PUSH2 0xFD2 DUP2 DUP5 PUSH2 0xF61 JUMP JUMPDEST SWAP1 POP SWAP5 SWAP4 POP POP POP POP JUMP JUMPDEST PUSH32 0x4E6F2066756E647320746F207769746864726177000000000000000000000000 PUSH0 DUP3 ADD MSTORE POP JUMP JUMPDEST PUSH0 PUSH2 0x1010 PUSH1 0x14 DUP4 PUSH2 0xB97 JUMP JUMPDEST SWAP2 POP PUSH2 0x101B DUP3 PUSH2 0xFDC JUMP JUMPDEST PUSH1 0x20 DUP3 ADD SWAP1 POP SWAP2 SWAP1 POP JUMP JUMPDEST PUSH0 PUSH1 0x20 DUP3 ADD SWAP1 POP DUP2 DUP2 SUB PUSH0 DUP4 ADD MSTORE PUSH2 0x103D DUP2 PUSH2 0x1004 JUMP JUMPDEST SWAP1 POP SWAP2 SWAP1 POP JUMP JUMPDEST PUSH0 DUP2 SWAP1 POP SWAP3 SWAP2 POP POP JUMP JUMPDEST POP JUMP JUMPDEST PUSH0 PUSH2 0x105C PUSH0 DUP4 PUSH2 0x1044 JUMP JUMPDEST SWAP2 POP PUSH2 0x1067 DUP3 PUSH2 0x104E JUMP JUMPDEST PUSH0 DUP3 ADD SWAP1 POP SWAP2 SWAP1 POP JUMP JUMPDEST PUSH0 PUSH2 0x107B DUP3 PUSH2 0x1051 JUMP JUMPDEST SWAP2 POP DUP2 SWAP1 POP SWAP2 SWAP1 POP JUMP JUMPDEST PUSH32 0x5769746864726177206661696C65640000000000000000000000000000000000 PUSH0 DUP3 ADD MSTORE POP JUMP JUMPDEST PUSH0 PUSH2 0x10B9 PUSH1 0xF DUP4 PUSH2 0xB97 JUMP JUMPDEST SWAP2 POP PUSH2 0x10C4 DUP3 PUSH2 0x1085 JUMP JUMPDEST PUSH1 0x20 DUP3 ADD SWAP1 POP SWAP2 SWAP1 POP JUMP JUMPDEST PUSH0 PUSH1 0x20 DUP3 ADD SWAP1 POP DUP2 DUP2 SUB PUSH0 DUP4 ADD MSTORE PUSH2 0x10E6 DUP2 PUSH2 0x10AD JUMP JUMPDEST SWAP1 POP SWAP2 SWAP1 POP JUMP INVALID LOG2 PUSH5 0x6970667358 0x22 SLT KECCAK256 PUSH17 0x27D92DAAE63948B5D2043B2715828B7E40 DUP9 0xDC MOD PUSH24 0x2C1C50509328C3A789AE64736F6C634300081E0033000000 "
				},
				"gasEstimates": {
					"creation": {
						"codeDepositCost": "877400",
						"executionCost": "914",
						"totalCost": "878314"
					},
					"external": {
						"donate(address,string,string)": "infinite",
						"getBalance(address)": "2873",
						"getDonationHistory(address)": "infinite",
						"withdraw()": "infinite"
					}
				},
				"methodIdentifiers": {
					"donate(address,string,string)": "1280db73",
					"getBalance(address)": "f8b2cb4f",
					"getDonationHistory(address)": "a59fe388",
					"withdraw()": "3ccfd60b"
				}
			},
			"storageLayout": {
				"storage": [
					{
						"astId": 18,
						"contract": "contracts/e3/donation_tracker.sol:DonationTracker",
						"label": "donationsReceived",
						"offset": 0,
						"slot": "0",
						"type": "t_mapping(t_address,t_array(t_struct(Donation)12_storage)dyn_storage)"
					},
					{
						"astId": 22,
						"contract": "contracts/e3/donation_tracker.sol:DonationTracker",
						"label": "balances",
						"offset": 0,
						"slot": "1",
						"type": "t_mapping(t_address,t_uint256)"
					}
				],
				"types": {
					"t_address": {
						"encoding": "inplace",
						"label": "address",
						"numberOfBytes": "20"
					},
					"t_array(t_struct(Donation)12_storage)dyn_storage": {
						"base": "t_struct(Donation)12_storage",
						"encoding": "dynamic_array",
						"label": "struct DonationTracker.Donation[]",
						"numberOfBytes": "32"
					},
					"t_mapping(t_address,t_array(t_struct(Donation)12_storage)dyn_storage)": {
						"encoding": "mapping",
						"key": "t_address",
						"label": "mapping(address => struct DonationTracker.Donation[])",
						"numberOfBytes": "32",
						"value": "t_array(t_struct(Donation)12_storage)dyn_storage"
					},
					"t_mapping(t_address,t_uint256)": {
						"encoding": "mapping",
						"key": "t_address",
						"label": "mapping(address => uint256)",
						"numberOfBytes": "32",
						"value": "t_uint256"
					},
					"t_string_storage": {
						"encoding": "bytes",
						"label": "string",
						"numberOfBytes": "32"
					},
					"t_struct(Donation)12_storage": {
						"encoding": "inplace",
						"label": "struct DonationTracker.Donation",
						"members": [
							{
								"astId": 3,
								"contract": "contracts/e3/donation_tracker.sol:DonationTracker",
								"label": "donor",
								"offset": 0,
								"slot": "0",
								"type": "t_address"
							},
							{
								"astId": 5,
								"contract": "contracts/e3/donation_tracker.sol:DonationTracker",
								"label": "amount",
								"offset": 0,
								"slot": "1",
								"type": "t_uint256"
							},
							{
								"astId": 7,
								"contract": "contracts/e3/donation_tracker.sol:DonationTracker",
								"label": "name",
								"offset": 0,
								"slot": "2",
								"type": "t_string_storage"
							},
							{
								"astId": 9,
								"contract": "contracts/e3/donation_tracker.sol:DonationTracker",
								"label": "message",
								"offset": 0,
								"slot": "3",
								"type": "t_string_storage"
							},
							{
								"astId": 11,
								"contract": "contracts/e3/donation_tracker.sol:DonationTracker",
								"label": "timestamp",
								"offset": 0,
								"slot": "4",
								"type": "t_uint256"
							}
						],
						"numberOfBytes": "160"
					},
					"t_uint256": {
						"encoding": "inplace",
						"label": "uint256",
						"numberOfBytes": "32"
					}
				}
			},
			"userdoc": {
				"kind": "user",
				"methods": {},
				"version": 1
			}
		}
	}
}