{
	"contracts/project/election.sol": {
		"Election": {
			"abi": [
				{
					"inputs": [
						{
							"internalType": "uint256",
							"name": "_startTime",
							"type": "uint256"
						},
						{
							"internalType": "uint256",
							"name": "_endTime",
							"type": "uint256"
						}
					],
					"stateMutability": "nonpayable",
					"type": "constructor"
				},
				{
					"anonymous": false,
					"inputs": [
						{
							"indexed": false,
							"internalType": "uint256",
							"name": "startTime",
							"type": "uint256"
						},
						{
							"indexed": false,
							"internalType": "uint256",
							"name": "endTime",
							"type": "uint256"
						},
						{
							"indexed": false,
							"internalType": "uint256",
							"name": "candidatesCount",
							"type": "uint256"
						}
					],
					"name": "ElectionCreated",
					"type": "event"
				},
				{
					"anonymous": false,
					"inputs": [
						{
							"indexed": true,
							"internalType": "uint256",
							"name": "winnerId",
							"type": "uint256"
						},
						{
							"indexed": false,
							"internalType": "string",
							"name": "winnerName",
							"type": "string"
						},
						{
							"indexed": false,
							"internalType": "uint256",
							"name": "voteCount",
							"type": "uint256"
						}
					],
					"name": "ElectionEnded",
					"type": "event"
				},
				{
					"anonymous": false,
					"inputs": [
						{
							"indexed": true,
							"internalType": "address",
							"name": "voter",
							"type": "address"
						},
						{
							"indexed": true,
							"internalType": "uint256",
							"name": "candidateId",
							"type": "uint256"
						},
						{
							"indexed": false,
							"internalType": "uint256",
							"name": "timestamp",
							"type": "uint256"
						}
					],
					"name": "VoteCast",
					"type": "event"
				},
				{
					"inputs": [
						{
							"internalType": "uint256",
							"name": "",
							"type": "uint256"
						}
					],
					"name": "candidates",
					"outputs": [
						{
							"internalType": "uint256",
							"name": "id",
							"type": "uint256"
						},
						{
							"internalType": "string",
							"name": "name",
							"type": "string"
						},
						{
							"internalType": "string",
							"name": "description",
							"type": "string"
						},
						{
							"internalType": "uint256",
							"name": "voteCount",
							"type": "uint256"
						}
					],
					"stateMutability": "view",
					"type": "function"
				},
				{
					"inputs": [],
					"name": "candidatesCount",
					"outputs": [
						{
							"internalType": "uint256",
							"name": "",
							"type": "uint256"
						}
					],
					"stateMutability": "view",
					"type": "function"
				},
				{
					"inputs": [],
					"name": "electionCommissioner",
					"outputs": [
						{
							"internalType": "address",
							"name": "",
							"type": "address"
						}
					],
					"stateMutability": "view",
					"type": "function"
				},
				{
					"inputs": [],
					"name": "electionEndTime",
					"outputs": [
						{
							"internalType": "uint256",
							"name": "",
							"type": "uint256"
						}
					],
					"stateMutability": "view",
					"type": "function"
				},
				{
					"inputs": [],
					"name": "electionStartTime",
					"outputs": [
						{
							"internalType": "uint256",
							"name": "",
							"type": "uint256"
						}
					],
					"stateMutability": "view",
					"type": "function"
				},
				{
					"inputs": [],
					"name": "getAllCandidates",
					"outputs": [
						{
							"components": [
								{
									"internalType": "uint256",
									"name": "id",
									"type": "uint256"
								},
								{
									"internalType": "string",
									"name": "name",
									"type": "string"
								},
								{
									"internalType": "string",
									"name": "description",
									"type": "string"
								},
								{
									"internalType": "uint256",
									"name": "voteCount",
									"type": "uint256"
								}
							],
							"internalType": "struct Election.Candidate[]",
							"name": "",
							"type": "tuple[]"
						}
					],
					"stateMutability": "view",
					"type": "function"
				},
				{
					"inputs": [
						{
							"internalType": "uint256",
							"name": "_candidateId",
							"type": "uint256"
						}
					],
					"name": "getCandidate",
					"outputs": [
						{
							"components": [
								{
									"internalType": "uint256",
									"name": "id",
									"type": "uint256"
								},
								{
									"internalType": "string",
									"name": "name",
									"type": "string"
								},
								{
									"internalType": "string",
									"name": "description",
									"type": "string"
								},
								{
									"internalType": "uint256",
									"name": "voteCount",
									"type": "uint256"
								}
							],
							"internalType": "struct Election.Candidate",
							"name": "",
							"type": "tuple"
						}
					],
					"stateMutability": "view",
					"type": "function"
				},
				{
					"inputs": [],
					"name": "getElectionInfo",
					"outputs": [
						{
							"internalType": "uint256",
							"name": "",
							"type": "uint256"
						},
						{
							"internalType": "uint256",
							"name": "",
							"type": "uint256"
						},
						{
							"internalType": "uint256",
							"name": "",
							"type": "uint256"
						},
						{
							"internalType": "uint256",
							"name": "",
							"type": "uint256"
						}
					],
					"stateMutability": "view",
					"type": "function"
				},
				{
					"inputs": [],
					"name": "getElectionStatus",
					"outputs": [
						{
							"internalType": "string",
							"name": "status",
							"type": "string"
						}
					],
					"stateMutability": "view",
					"type": "function"
				},
				{
					"inputs": [],
					"name": "getResults",
					"outputs": [
						{
							"internalType": "uint256[]",
							"name": "",
							"type": "uint256[]"
						}
					],
					"stateMutability": "view",
					"type": "function"
				},
				{
					"inputs": [],
					"name": "getTimeRemaining",
					"outputs": [
						{
							"internalType": "uint256",
							"name": "",
							"type": "uint256"
						}
					],
					"stateMutability": "view",
					"type": "function"
				},
				{
					"inputs": [],
					"name": "getWinner",
					"outputs": [
						{
							"internalType": "uint256",
							"name": "winnerId",
							"type": "uint256"
						},
						{
							"internalType": "string",
							"name": "winnerName",
							"type": "string"
						},
						{
							"internalType": "uint256",
							"name": "winnerVoteCount",
							"type": "uint256"
						}
					],
					"stateMutability": "view",
					"type": "function"
				},
				{
					"inputs": [
						{
							"internalType": "address",
							"name": "_voter",
							"type": "address"
						}
					],
					"name": "hasAddressVoted",
					"outputs": [
						{
							"internalType": "bool",
							"name": "",
							"type": "bool"
						}
					],
					"stateMutability": "view",
					"type": "function"
				},
				{
					"inputs": [
						{
							"internalType": "address",
							"name": "",
							"type": "address"
						}
					],
					"name": "hasVoted",
					"outputs": [
						{
							"internalType": "bool",
							"name": "",
							"type": "bool"
						}
					],
					"stateMutability": "view",
					"type": "function"
				},
				{
					"inputs": [],
					"name": "totalVotes",
					"outputs": [
						{
							"internalType": "uint256",
							"name": "",
							"type": "uint256"
						}
					],
					"stateMutability": "view",
					"type": "function"
				},
				{
					"inputs": [
						{
							"internalType": "uint256",
							"name": "_candidateId",
							"type": "uint256"
						}
					],
					"name": "vote",
					"outputs": [],
					"stateMutability": "nonpayable",
					"type": "function"
				},
				{
					"inputs": [
						{
							"internalType": "address",
							"name": "",
							"type": "address"
						}
					],
					"name": "voterChoice",
					"outputs": [
						{
							"internalType": "uint256",
							"name": "",
							"type": "uint256"
						}
					],
					"stateMutability": "view",
					"type": "function"
				}
			],
			"devdoc": {
				"details": "A secure decentralized voting system with time-based controls",
				"kind": "dev",
				"methods": {
					"constructor": {
						"details": "Initialize election with 5 candidates and time window",
						"params": {
							"_endTime": "Unix timestamp for election end",
							"_startTime": "Unix timestamp for election start"
						}
					},
					"getAllCandidates()": {
						"details": "Get all candidates with their vote counts",
						"returns": {
							"_0": "Array of all candidates"
						}
					},
					"getCandidate(uint256)": {
						"details": "Get candidate details by ID",
						"params": {
							"_candidateId": "ID of the candidate"
						},
						"returns": {
							"_0": "Candidate struct"
						}
					},
					"getElectionInfo()": {
						"details": "Get election information",
						"returns": {
							"_0": "start time, end time, total votes, candidates count"
						}
					},
					"getElectionStatus()": {
						"details": "Get current election status",
						"returns": {
							"status": "String indicating election status"
						}
					},
					"getResults()": {
						"details": "Get vote counts for all candidates",
						"returns": {
							"_0": "Array of vote counts indexed by candidate ID - 1"
						}
					},
					"getTimeRemaining()": {
						"details": "Get time remaining in the election",
						"returns": {
							"_0": "seconds remaining (0 if ended or not started)"
						}
					},
					"getWinner()": {
						"details": "Get the winning candidate",
						"returns": {
							"winnerId": "ID of the winning candidate",
							"winnerName": "Name of the winning candidate",
							"winnerVoteCount": "Vote count of the winner"
						}
					},
					"hasAddressVoted(address)": {
						"details": "Check if an address has voted",
						"params": {
							"_voter": "Address to check"
						},
						"returns": {
							"_0": "bool indicating if the address has voted"
						}
					},
					"vote(uint256)": {
						"details": "Cast a vote for a candidate",
						"params": {
							"_candidateId": "ID of the candidate to vote for (1-5)"
						}
					}
				},
				"title": "Election",
				"version": 1
			},
			"evm": {
				"assembly": "    /* \"contracts/project/election.sol\":313:7993  contract Election is ReentrancyGuard {... */\n  mstore(0x40, 0x80)\n    /* \"contracts/project/election.sol\":2206:3292  constructor(uint _startTime, uint _endTime) {... */\n  callvalue\n  dup1\n  iszero\n  tag_1\n  jumpi\n  revert(0x00, 0x00)\ntag_1:\n  pop\n  mload(0x40)\n  sub(codesize, bytecodeSize)\n  dup1\n  bytecodeSize\n  dup4\n  codecopy\n  dup2\n  dup2\n  add\n  0x40\n  mstore\n  dup2\n  add\n  swap1\n  tag_2\n  swap2\n  swap1\n  tag_3\n  jump\t// in\ntag_2:\n    /* \"@openzeppelin/contracts/security/ReentrancyGuard.sol\":1716:1717  1 */\n  0x01\n    /* \"@openzeppelin/contracts/security/ReentrancyGuard.sol\":1821:1828  _status */\n  0x00\n    /* \"@openzeppelin/contracts/security/ReentrancyGuard.sol\":1821:1843  _status = _NOT_ENTERED */\n  dup2\n  swap1\n  sstore\n  pop\n    /* \"contracts/project/election.sol\":2282:2290  _endTime */\n  dup1\n    /* \"contracts/project/election.sol\":2269:2279  _startTime */\n  dup3\n    /* \"contracts/project/election.sol\":2269:2290  _startTime < _endTime */\n  lt\n    /* \"contracts/project/election.sol\":2261:2329  require(_startTime < _endTime, \"Start time must be before end time\") */\n  tag_8\n  jumpi\n  mload(0x40)\n  0x08c379a000000000000000000000000000000000000000000000000000000000\n  dup2\n  mstore\n  0x04\n  add\n  tag_9\n  swap1\n  tag_10\n  jump\t// in\ntag_9:\n  mload(0x40)\n  dup1\n  swap2\n  sub\n  swap1\n  revert\ntag_8:\n    /* \"contracts/project/election.sol\":2359:2374  block.timestamp */\n  timestamp\n    /* \"contracts/project/election.sol\":2348:2356  _endTime */\n  dup2\n    /* \"contracts/project/election.sol\":2348:2374  _endTime > block.timestamp */\n  gt\n    /* \"contracts/project/election.sol\":2340:2409  require(_endTime > block.timestamp, \"End time must be in the future\") */\n  tag_11\n  jumpi\n  mload(0x40)\n  0x08c379a000000000000000000000000000000000000000000000000000000000\n  dup2\n  mstore\n  0x04\n  add\n  tag_12\n  swap1\n  tag_13\n  jump\t// in\ntag_12:\n  mload(0x40)\n  dup1\n  swap2\n  sub\n  swap1\n  revert\ntag_11:\n    /* \"contracts/project/election.sol\":2453:2463  msg.sender */\n  caller\n    /* \"contracts/project/election.sol\":2430:2450  electionCommissioner */\n  0x08\n  0x00\n    /* \"contracts/project/election.sol\":2430:2463  electionCommissioner = msg.sender */\n  0x0100\n  exp\n  dup2\n  sload\n  dup2\n  0xffffffffffffffffffffffffffffffffffffffff\n  mul\n  not\n  and\n  swap1\n  dup4\n  0xffffffffffffffffffffffffffffffffffffffff\n  and\n  mul\n  or\n  swap1\n  sstore\n  pop\n    /* \"contracts/project/election.sol\":2494:2504  _startTime */\n  dup2\n    /* \"contracts/project/election.sol\":2474:2491  electionStartTime */\n  0x06\n    /* \"contracts/project/election.sol\":2474:2504  electionStartTime = _startTime */\n  dup2\n  swap1\n  sstore\n  pop\n    /* \"contracts/project/election.sol\":2533:2541  _endTime */\n  dup1\n    /* \"contracts/project/election.sol\":2515:2530  electionEndTime */\n  0x07\n    /* \"contracts/project/election.sol\":2515:2541  electionEndTime = _endTime */\n  dup2\n  swap1\n  sstore\n  pop\n    /* \"contracts/project/election.sol\":2598:2725  _addCandidate(\"Alice Johnson\", \"Experienced leader with 15 years in public service. Focus on education and healthcare reform.\") */\n  tag_14\n  mload(0x40)\n  dup1\n  0x40\n  add\n  0x40\n  mstore\n  dup1\n  0x0d\n  dup2\n  mstore\n  0x20\n  add\n  0x416c696365204a6f686e736f6e00000000000000000000000000000000000000\n  dup2\n  mstore\n  pop\n  mload(0x40)\n  dup1\n  0x80\n  add\n  0x40\n  mstore\n  dup1\n  0x5d\n  dup2\n  mstore\n  0x20\n  add\n  data_1b2a0714294a6af50f7a54b1f497fddc322c62523dd3e6071720e909831a9d7a\n  0x5d\n  swap2\n  codecopy\n    /* \"contracts/project/election.sol\":2598:2611  _addCandidate */\n  shl(0x20, tag_15)\n    /* \"contracts/project/election.sol\":2598:2725  _addCandidate(\"Alice Johnson\", \"Experienced leader with 15 years in public service. Focus on education and healthcare reform.\") */\n  0x20\n  shr\n  jump\t// in\ntag_14:\n    /* \"contracts/project/election.sol\":2736:2843  _addCandidate(\"Bob Smith\", \"Technology entrepreneur advocating for digital infrastructure and innovation.\") */\n  tag_16\n  mload(0x40)\n  dup1\n  0x40\n  add\n  0x40\n  mstore\n  dup1\n  0x09\n  dup2\n  mstore\n  0x20\n  add\n  0x426f6220536d6974680000000000000000000000000000000000000000000000\n  dup2\n  mstore\n  pop\n  mload(0x40)\n  dup1\n  0x80\n  add\n  0x40\n  mstore\n  dup1\n  0x4d\n  dup2\n  mstore\n  0x20\n  add\n  data_43f596d683d4bd36359a54dafc56b2144c3d3f282f7f9ab5cd55bd193da50f15\n  0x4d\n  swap2\n  codecopy\n    /* \"contracts/project/election.sol\":2736:2749  _addCandidate */\n  shl(0x20, tag_15)\n    /* \"contracts/project/election.sol\":2736:2843  _addCandidate(\"Bob Smith\", \"Technology entrepreneur advocating for digital infrastructure and innovation.\") */\n  0x20\n  shr\n  jump\t// in\ntag_16:\n    /* \"contracts/project/election.sol\":2854:2965  _addCandidate(\"Carol Davis\", \"Environmental activist committed to sustainable development and climate action.\") */\n  tag_17\n  mload(0x40)\n  dup1\n  0x40\n  add\n  0x40\n  mstore\n  dup1\n  0x0b\n  dup2\n  mstore\n  0x20\n  add\n  0x4361726f6c204461766973000000000000000000000000000000000000000000\n  dup2\n  mstore\n  pop\n  mload(0x40)\n  dup1\n  0x80\n  add\n  0x40\n  mstore\n  dup1\n  0x4f\n  dup2\n  mstore\n  0x20\n  add\n  data_eb4d31692a7f5b3f0868a507ebb1c139bc8e1d6a7d3d65de71a6948647ddfd72\n  0x4f\n  swap2\n  codecopy\n    /* \"contracts/project/election.sol\":2854:2867  _addCandidate */\n  shl(0x20, tag_15)\n    /* \"contracts/project/election.sol\":2854:2965  _addCandidate(\"Carol Davis\", \"Environmental activist committed to sustainable development and climate action.\") */\n  0x20\n  shr\n  jump\t// in\ntag_17:\n    /* \"contracts/project/election.sol\":2976:3086  _addCandidate(\"David Wilson\", \"Former military officer prioritizing national security and veterans' affairs.\") */\n  tag_18\n  mload(0x40)\n  dup1\n  0x40\n  add\n  0x40\n  mstore\n  dup1\n  0x0c\n  dup2\n  mstore\n  0x20\n  add\n  0x44617669642057696c736f6e0000000000000000000000000000000000000000\n  dup2\n  mstore\n  pop\n  mload(0x40)\n  dup1\n  0x80\n  add\n  0x40\n  mstore\n  dup1\n  0x4d\n  dup2\n  mstore\n  0x20\n  add\n  data_c16175729e6a28d1c3679ac7ba26a156c00ab2949644b0bd2f90887d1d4283c3\n  0x4d\n  swap2\n  codecopy\n    /* \"contracts/project/election.sol\":2976:2989  _addCandidate */\n  shl(0x20, tag_15)\n    /* \"contracts/project/election.sol\":2976:3086  _addCandidate(\"David Wilson\", \"Former military officer prioritizing national security and veterans' affairs.\") */\n  0x20\n  shr\n  jump\t// in\ntag_18:\n    /* \"contracts/project/election.sol\":3097:3204  _addCandidate(\"Eva Brown\", \"Social worker dedicated to community development and social welfare programs.\") */\n  tag_19\n  mload(0x40)\n  dup1\n  0x40\n  add\n  0x40\n  mstore\n  dup1\n  0x09\n  dup2\n  mstore\n  0x20\n  add\n  0x4576612042726f776e0000000000000000000000000000000000000000000000\n  dup2\n  mstore\n  pop\n  mload(0x40)\n  dup1\n  0x80\n  add\n  0x40\n  mstore\n  dup1\n  0x4d\n  dup2\n  mstore\n  0x20\n  add\n  data_60695b4b7fd359325e10aba5e172dd958f023576016f4d341151be0a9dbd248a\n  0x4d\n  swap2\n  codecopy\n    /* \"contracts/project/election.sol\":3097:3110  _addCandidate */\n  shl(0x20, tag_15)\n    /* \"contracts/project/election.sol\":3097:3204  _addCandidate(\"Eva Brown\", \"Social worker dedicated to community development and social welfare programs.\") */\n  0x20\n  shr\n  jump\t// in\ntag_19:\n    /* \"contracts/project/election.sol\":3230:3284  ElectionCreated(_startTime, _endTime, candidatesCount) */\n  0xe9aa078f1077eb24a3eae58315307861a78b377ee76beb0d0944c496800ae700\n    /* \"contracts/project/election.sol\":3246:3256  _startTime */\n  dup3\n    /* \"contracts/project/election.sol\":3258:3266  _endTime */\n  dup3\n    /* \"contracts/project/election.sol\":3268:3283  candidatesCount */\n  sload(0x04)\n    /* \"contracts/project/election.sol\":3230:3284  ElectionCreated(_startTime, _endTime, candidatesCount) */\n  mload(0x40)\n  tag_20\n  swap4\n  swap3\n  swap2\n  swap1\n  tag_21\n  jump\t// in\ntag_20:\n  mload(0x40)\n  dup1\n  swap2\n  sub\n  swap1\n  log1\n    /* \"contracts/project/election.sol\":2206:3292  constructor(uint _startTime, uint _endTime) {... */\n  pop\n  pop\n    /* \"contracts/project/election.sol\":313:7993  contract Election is ReentrancyGuard {... */\n  jump(tag_22)\n    /* \"contracts/project/election.sol\":3521:3728  function _addCandidate(string memory _name, string memory _description) private {... */\ntag_15:\n    /* \"contracts/project/election.sol\":3612:3627  candidatesCount */\n  0x04\n  0x00\n    /* \"contracts/project/election.sol\":3612:3629  candidatesCount++ */\n  dup2\n  sload\n  dup1\n  swap3\n  swap2\n  swap1\n  tag_24\n  swap1\n  tag_25\n  jump\t// in\ntag_24:\n  swap2\n  swap1\n  pop\n  sstore\n  pop\n    /* \"contracts/project/election.sol\":3670:3720  Candidate(candidatesCount, _name, _description, 0) */\n  mload(0x40)\n  dup1\n  0x80\n  add\n  0x40\n  mstore\n  dup1\n    /* \"contracts/project/election.sol\":3680:3695  candidatesCount */\n  sload(0x04)\n    /* \"contracts/project/election.sol\":3670:3720  Candidate(candidatesCount, _name, _description, 0) */\n  dup2\n  mstore\n  0x20\n  add\n    /* \"contracts/project/election.sol\":3697:3702  _name */\n  dup4\n    /* \"contracts/project/election.sol\":3670:3720  Candidate(candidatesCount, _name, _description, 0) */\n  dup2\n  mstore\n  0x20\n  add\n    /* \"contracts/project/election.sol\":3704:3716  _description */\n  dup3\n    /* \"contracts/project/election.sol\":3670:3720  Candidate(candidatesCount, _name, _description, 0) */\n  dup2\n  mstore\n  0x20\n  add\n    /* \"contracts/project/election.sol\":3718:3719  0 */\n  0x00\n    /* \"contracts/project/election.sol\":3670:3720  Candidate(candidatesCount, _name, _description, 0) */\n  dup2\n  mstore\n  pop\n    /* \"contracts/project/election.sol\":3640:3650  candidates */\n  0x01\n    /* \"contracts/project/election.sol\":3640:3667  candidates[candidatesCount] */\n  0x00\n    /* \"contracts/project/election.sol\":3651:3666  candidatesCount */\n  sload(0x04)\n    /* \"contracts/project/election.sol\":3640:3667  candidates[candidatesCount] */\n  dup2\n  mstore\n  0x20\n  add\n  swap1\n  dup2\n  mstore\n  0x20\n  add\n  0x00\n  keccak256\n    /* \"contracts/project/election.sol\":3640:3720  candidates[candidatesCount] = Candidate(candidatesCount, _name, _description, 0) */\n  0x00\n  dup3\n  add\n  mload\n  dup2\n  0x00\n  add\n  sstore\n  0x20\n  dup3\n  add\n  mload\n  dup2\n  0x01\n  add\n  swap1\n  dup2\n  tag_26\n  swap2\n  swap1\n  tag_27\n  jump\t// in\ntag_26:\n  pop\n  0x40\n  dup3\n  add\n  mload\n  dup2\n  0x02\n  add\n  swap1\n  dup2\n  tag_28\n  swap2\n  swap1\n  tag_27\n  jump\t// in\ntag_28:\n  pop\n  0x60\n  dup3\n  add\n  mload\n  dup2\n  0x03\n  add\n  sstore\n  swap1\n  pop\n  pop\n    /* \"contracts/project/election.sol\":3521:3728  function _addCandidate(string memory _name, string memory _description) private {... */\n  pop\n  pop\n  jump\t// out\n    /* \"#utility.yul\":88:205   */\ntag_30:\n    /* \"#utility.yul\":197:198   */\n  0x00\n    /* \"#utility.yul\":194:195   */\n  0x00\n    /* \"#utility.yul\":187:199   */\n  revert\n    /* \"#utility.yul\":334:411   */\ntag_32:\n    /* \"#utility.yul\":371:378   */\n  0x00\n    /* \"#utility.yul\":400:405   */\n  dup2\n    /* \"#utility.yul\":389:405   */\n  swap1\n  pop\n    /* \"#utility.yul\":334:411   */\n  swap2\n  swap1\n  pop\n  jump\t// out\n    /* \"#utility.yul\":417:539   */\ntag_33:\n    /* \"#utility.yul\":490:514   */\n  tag_67\n    /* \"#utility.yul\":508:513   */\n  dup2\n    /* \"#utility.yul\":490:514   */\n  tag_32\n  jump\t// in\ntag_67:\n    /* \"#utility.yul\":483:488   */\n  dup2\n    /* \"#utility.yul\":480:515   */\n  eq\n    /* \"#utility.yul\":470:533   */\n  tag_68\n  jumpi\n    /* \"#utility.yul\":529:530   */\n  0x00\n    /* \"#utility.yul\":526:527   */\n  0x00\n    /* \"#utility.yul\":519:531   */\n  revert\n    /* \"#utility.yul\":470:533   */\ntag_68:\n    /* \"#utility.yul\":417:539   */\n  pop\n  jump\t// out\n    /* \"#utility.yul\":545:688   */\ntag_34:\n    /* \"#utility.yul\":602:607   */\n  0x00\n    /* \"#utility.yul\":633:639   */\n  dup2\n    /* \"#utility.yul\":627:640   */\n  mload\n    /* \"#utility.yul\":618:640   */\n  swap1\n  pop\n    /* \"#utility.yul\":649:682   */\n  tag_70\n    /* \"#utility.yul\":676:681   */\n  dup2\n    /* \"#utility.yul\":649:682   */\n  tag_33\n  jump\t// in\ntag_70:\n    /* \"#utility.yul\":545:688   */\n  swap3\n  swap2\n  pop\n  pop\n  jump\t// out\n    /* \"#utility.yul\":694:1201   */\ntag_3:\n    /* \"#utility.yul\":773:779   */\n  0x00\n    /* \"#utility.yul\":781:787   */\n  0x00\n    /* \"#utility.yul\":830:832   */\n  0x40\n    /* \"#utility.yul\":818:827   */\n  dup4\n    /* \"#utility.yul\":809:816   */\n  dup6\n    /* \"#utility.yul\":805:828   */\n  sub\n    /* \"#utility.yul\":801:833   */\n  slt\n    /* \"#utility.yul\":798:917   */\n  iszero\n  tag_72\n  jumpi\n    /* \"#utility.yul\":836:915   */\n  tag_73\n  tag_30\n  jump\t// in\ntag_73:\n    /* \"#utility.yul\":798:917   */\ntag_72:\n    /* \"#utility.yul\":956:957   */\n  0x00\n    /* \"#utility.yul\":981:1045   */\n  tag_74\n    /* \"#utility.yul\":1037:1044   */\n  dup6\n    /* \"#utility.yul\":1028:1034   */\n  dup3\n    /* \"#utility.yul\":1017:1026   */\n  dup7\n    /* \"#utility.yul\":1013:1035   */\n  add\n    /* \"#utility.yul\":981:1045   */\n  tag_34\n  jump\t// in\ntag_74:\n    /* \"#utility.yul\":971:1045   */\n  swap3\n  pop\n    /* \"#utility.yul\":927:1055   */\n  pop\n    /* \"#utility.yul\":1094:1096   */\n  0x20\n    /* \"#utility.yul\":1120:1184   */\n  tag_75\n    /* \"#utility.yul\":1176:1183   */\n  dup6\n    /* \"#utility.yul\":1167:1173   */\n  dup3\n    /* \"#utility.yul\":1156:1165   */\n  dup7\n    /* \"#utility.yul\":1152:1174   */\n  add\n    /* \"#utility.yul\":1120:1184   */\n  tag_34\n  jump\t// in\ntag_75:\n    /* \"#utility.yul\":1110:1184   */\n  swap2\n  pop\n    /* \"#utility.yul\":1065:1194   */\n  pop\n    /* \"#utility.yul\":694:1201   */\n  swap3\n  pop\n  swap3\n  swap1\n  pop\n  jump\t// out\n    /* \"#utility.yul\":1207:1376   */\ntag_35:\n    /* \"#utility.yul\":1291:1302   */\n  0x00\n    /* \"#utility.yul\":1325:1331   */\n  dup3\n    /* \"#utility.yul\":1320:1323   */\n  dup3\n    /* \"#utility.yul\":1313:1332   */\n  mstore\n    /* \"#utility.yul\":1365:1369   */\n  0x20\n    /* \"#utility.yul\":1360:1363   */\n  dup3\n    /* \"#utility.yul\":1356:1370   */\n  add\n    /* \"#utility.yul\":1341:1370   */\n  swap1\n  pop\n    /* \"#utility.yul\":1207:1376   */\n  swap3\n  swap2\n  pop\n  pop\n  jump\t// out\n    /* \"#utility.yul\":1382:1603   */\ntag_36:\n    /* \"#utility.yul\":1522:1556   */\n  0x53746172742074696d65206d757374206265206265666f726520656e64207469\n    /* \"#utility.yul\":1518:1519   */\n  0x00\n    /* \"#utility.yul\":1510:1516   */\n  dup3\n    /* \"#utility.yul\":1506:1520   */\n  add\n    /* \"#utility.yul\":1499:1557   */\n  mstore\n    /* \"#utility.yul\":1591:1595   */\n  0x6d65000000000000000000000000000000000000000000000000000000000000\n    /* \"#utility.yul\":1586:1588   */\n  0x20\n    /* \"#utility.yul\":1578:1584   */\n  dup3\n    /* \"#utility.yul\":1574:1589   */\n  add\n    /* \"#utility.yul\":1567:1596   */\n  mstore\n    /* \"#utility.yul\":1382:1603   */\n  pop\n  jump\t// out\n    /* \"#utility.yul\":1609:1975   */\ntag_37:\n    /* \"#utility.yul\":1751:1754   */\n  0x00\n    /* \"#utility.yul\":1772:1839   */\n  tag_79\n    /* \"#utility.yul\":1836:1838   */\n  0x22\n    /* \"#utility.yul\":1831:1834   */\n  dup4\n    /* \"#utility.yul\":1772:1839   */\n  tag_35\n  jump\t// in\ntag_79:\n    /* \"#utility.yul\":1765:1839   */\n  swap2\n  pop\n    /* \"#utility.yul\":1848:1941   */\n  tag_80\n    /* \"#utility.yul\":1937:1940   */\n  dup3\n    /* \"#utility.yul\":1848:1941   */\n  tag_36\n  jump\t// in\ntag_80:\n    /* \"#utility.yul\":1966:1968   */\n  0x40\n    /* \"#utility.yul\":1961:1964   */\n  dup3\n    /* \"#utility.yul\":1957:1969   */\n  add\n    /* \"#utility.yul\":1950:1969   */\n  swap1\n  pop\n    /* \"#utility.yul\":1609:1975   */\n  swap2\n  swap1\n  pop\n  jump\t// out\n    /* \"#utility.yul\":1981:2400   */\ntag_10:\n    /* \"#utility.yul\":2147:2151   */\n  0x00\n    /* \"#utility.yul\":2185:2187   */\n  0x20\n    /* \"#utility.yul\":2174:2183   */\n  dup3\n    /* \"#utility.yul\":2170:2188   */\n  add\n    /* \"#utility.yul\":2162:2188   */\n  swap1\n  pop\n    /* \"#utility.yul\":2234:2243   */\n  dup2\n    /* \"#utility.yul\":2228:2232   */\n  dup2\n    /* \"#utility.yul\":2224:2244   */\n  sub\n    /* \"#utility.yul\":2220:2221   */\n  0x00\n    /* \"#utility.yul\":2209:2218   */\n  dup4\n    /* \"#utility.yul\":2205:2222   */\n  add\n    /* \"#utility.yul\":2198:2245   */\n  mstore\n    /* \"#utility.yul\":2262:2393   */\n  tag_82\n    /* \"#utility.yul\":2388:2392   */\n  dup2\n    /* \"#utility.yul\":2262:2393   */\n  tag_37\n  jump\t// in\ntag_82:\n    /* \"#utility.yul\":2254:2393   */\n  swap1\n  pop\n    /* \"#utility.yul\":1981:2400   */\n  swap2\n  swap1\n  pop\n  jump\t// out\n    /* \"#utility.yul\":2406:2586   */\ntag_38:\n    /* \"#utility.yul\":2546:2578   */\n  0x456e642074696d65206d75737420626520696e20746865206675747572650000\n    /* \"#utility.yul\":2542:2543   */\n  0x00\n    /* \"#utility.yul\":2534:2540   */\n  dup3\n    /* \"#utility.yul\":2530:2544   */\n  add\n    /* \"#utility.yul\":2523:2579   */\n  mstore\n    /* \"#utility.yul\":2406:2586   */\n  pop\n  jump\t// out\n    /* \"#utility.yul\":2592:2958   */\ntag_39:\n    /* \"#utility.yul\":2734:2737   */\n  0x00\n    /* \"#utility.yul\":2755:2822   */\n  tag_85\n    /* \"#utility.yul\":2819:2821   */\n  0x1e\n    /* \"#utility.yul\":2814:2817   */\n  dup4\n    /* \"#utility.yul\":2755:2822   */\n  tag_35\n  jump\t// in\ntag_85:\n    /* \"#utility.yul\":2748:2822   */\n  swap2\n  pop\n    /* \"#utility.yul\":2831:2924   */\n  tag_86\n    /* \"#utility.yul\":2920:2923   */\n  dup3\n    /* \"#utility.yul\":2831:2924   */\n  tag_38\n  jump\t// in\ntag_86:\n    /* \"#utility.yul\":2949:2951   */\n  0x20\n    /* \"#utility.yul\":2944:2947   */\n  dup3\n    /* \"#utility.yul\":2940:2952   */\n  add\n    /* \"#utility.yul\":2933:2952   */\n  swap1\n  pop\n    /* \"#utility.yul\":2592:2958   */\n  swap2\n  swap1\n  pop\n  jump\t// out\n    /* \"#utility.yul\":2964:3383   */\ntag_13:\n    /* \"#utility.yul\":3130:3134   */\n  0x00\n    /* \"#utility.yul\":3168:3170   */\n  0x20\n    /* \"#utility.yul\":3157:3166   */\n  dup3\n    /* \"#utility.yul\":3153:3171   */\n  add\n    /* \"#utility.yul\":3145:3171   */\n  swap1\n  pop\n    /* \"#utility.yul\":3217:3226   */\n  dup2\n    /* \"#utility.yul\":3211:3215   */\n  dup2\n    /* \"#utility.yul\":3207:3227   */\n  sub\n    /* \"#utility.yul\":3203:3204   */\n  0x00\n    /* \"#utility.yul\":3192:3201   */\n  dup4\n    /* \"#utility.yul\":3188:3205   */\n  add\n    /* \"#utility.yul\":3181:3228   */\n  mstore\n    /* \"#utility.yul\":3245:3376   */\n  tag_88\n    /* \"#utility.yul\":3371:3375   */\n  dup2\n    /* \"#utility.yul\":3245:3376   */\n  tag_39\n  jump\t// in\ntag_88:\n    /* \"#utility.yul\":3237:3376   */\n  swap1\n  pop\n    /* \"#utility.yul\":2964:3383   */\n  swap2\n  swap1\n  pop\n  jump\t// out\n    /* \"#utility.yul\":3389:3507   */\ntag_40:\n    /* \"#utility.yul\":3476:3500   */\n  tag_90\n    /* \"#utility.yul\":3494:3499   */\n  dup2\n    /* \"#utility.yul\":3476:3500   */\n  tag_32\n  jump\t// in\ntag_90:\n    /* \"#utility.yul\":3471:3474   */\n  dup3\n    /* \"#utility.yul\":3464:3501   */\n  mstore\n    /* \"#utility.yul\":3389:3507   */\n  pop\n  pop\n  jump\t// out\n    /* \"#utility.yul\":3513:3955   */\ntag_21:\n    /* \"#utility.yul\":3662:3666   */\n  0x00\n    /* \"#utility.yul\":3700:3702   */\n  0x60\n    /* \"#utility.yul\":3689:3698   */\n  dup3\n    /* \"#utility.yul\":3685:3703   */\n  add\n    /* \"#utility.yul\":3677:3703   */\n  swap1\n  pop\n    /* \"#utility.yul\":3713:3784   */\n  tag_92\n    /* \"#utility.yul\":3781:3782   */\n  0x00\n    /* \"#utility.yul\":3770:3779   */\n  dup4\n    /* \"#utility.yul\":3766:3783   */\n  add\n    /* \"#utility.yul\":3757:3763   */\n  dup7\n    /* \"#utility.yul\":3713:3784   */\n  tag_40\n  jump\t// in\ntag_92:\n    /* \"#utility.yul\":3794:3866   */\n  tag_93\n    /* \"#utility.yul\":3862:3864   */\n  0x20\n    /* \"#utility.yul\":3851:3860   */\n  dup4\n    /* \"#utility.yul\":3847:3865   */\n  add\n    /* \"#utility.yul\":3838:3844   */\n  dup6\n    /* \"#utility.yul\":3794:3866   */\n  tag_40\n  jump\t// in\ntag_93:\n    /* \"#utility.yul\":3876:3948   */\n  tag_94\n    /* \"#utility.yul\":3944:3946   */\n  0x40\n    /* \"#utility.yul\":3933:3942   */\n  dup4\n    /* \"#utility.yul\":3929:3947   */\n  add\n    /* \"#utility.yul\":3920:3926   */\n  dup5\n    /* \"#utility.yul\":3876:3948   */\n  tag_40\n  jump\t// in\ntag_94:\n    /* \"#utility.yul\":3513:3955   */\n  swap5\n  swap4\n  pop\n  pop\n  pop\n  pop\n  jump\t// out\n    /* \"#utility.yul\":3961:4141   */\ntag_41:\n    /* \"#utility.yul\":4009:4086   */\n  0x4e487b7100000000000000000000000000000000000000000000000000000000\n    /* \"#utility.yul\":4006:4007   */\n  0x00\n    /* \"#utility.yul\":3999:4087   */\n  mstore\n    /* \"#utility.yul\":4106:4110   */\n  0x11\n    /* \"#utility.yul\":4103:4104   */\n  0x04\n    /* \"#utility.yul\":4096:4111   */\n  mstore\n    /* \"#utility.yul\":4130:4134   */\n  0x24\n    /* \"#utility.yul\":4127:4128   */\n  0x00\n    /* \"#utility.yul\":4120:4135   */\n  revert\n    /* \"#utility.yul\":4147:4380   */\ntag_25:\n    /* \"#utility.yul\":4186:4189   */\n  0x00\n    /* \"#utility.yul\":4209:4233   */\n  tag_97\n    /* \"#utility.yul\":4227:4232   */\n  dup3\n    /* \"#utility.yul\":4209:4233   */\n  tag_32\n  jump\t// in\ntag_97:\n    /* \"#utility.yul\":4200:4233   */\n  swap2\n  pop\n    /* \"#utility.yul\":4255:4321   */\n  0xffffffffffffffffffffffffffffffffffffffffffffffffffffffffffffffff\n    /* \"#utility.yul\":4248:4253   */\n  dup3\n    /* \"#utility.yul\":4245:4322   */\n  sub\n    /* \"#utility.yul\":4242:4345   */\n  tag_98\n  jumpi\n    /* \"#utility.yul\":4325:4343   */\n  tag_99\n  tag_41\n  jump\t// in\ntag_99:\n    /* \"#utility.yul\":4242:4345   */\ntag_98:\n    /* \"#utility.yul\":4372:4373   */\n  0x01\n    /* \"#utility.yul\":4365:4370   */\n  dup3\n    /* \"#utility.yul\":4361:4374   */\n  add\n    /* \"#utility.yul\":4354:4374   */\n  swap1\n  pop\n    /* \"#utility.yul\":4147:4380   */\n  swap2\n  swap1\n  pop\n  jump\t// out\n    /* \"#utility.yul\":4386:4485   */\ntag_42:\n    /* \"#utility.yul\":4438:4444   */\n  0x00\n    /* \"#utility.yul\":4472:4477   */\n  dup2\n    /* \"#utility.yul\":4466:4478   */\n  mload\n    /* \"#utility.yul\":4456:4478   */\n  swap1\n  pop\n    /* \"#utility.yul\":4386:4485   */\n  swap2\n  swap1\n  pop\n  jump\t// out\n    /* \"#utility.yul\":4491:4671   */\ntag_43:\n    /* \"#utility.yul\":4539:4616   */\n  0x4e487b7100000000000000000000000000000000000000000000000000000000\n    /* \"#utility.yul\":4536:4537   */\n  0x00\n    /* \"#utility.yul\":4529:4617   */\n  mstore\n    /* \"#utility.yul\":4636:4640   */\n  0x41\n    /* \"#utility.yul\":4633:4634   */\n  0x04\n    /* \"#utility.yul\":4626:4641   */\n  mstore\n    /* \"#utility.yul\":4660:4664   */\n  0x24\n    /* \"#utility.yul\":4657:4658   */\n  0x00\n    /* \"#utility.yul\":4650:4665   */\n  revert\n    /* \"#utility.yul\":4677:4857   */\ntag_44:\n    /* \"#utility.yul\":4725:4802   */\n  0x4e487b7100000000000000000000000000000000000000000000000000000000\n    /* \"#utility.yul\":4722:4723   */\n  0x00\n    /* \"#utility.yul\":4715:4803   */\n  mstore\n    /* \"#utility.yul\":4822:4826   */\n  0x22\n    /* \"#utility.yul\":4819:4820   */\n  0x04\n    /* \"#utility.yul\":4812:4827   */\n  mstore\n    /* \"#utility.yul\":4846:4850   */\n  0x24\n    /* \"#utility.yul\":4843:4844   */\n  0x00\n    /* \"#utility.yul\":4836:4851   */\n  revert\n    /* \"#utility.yul\":4863:5183   */\ntag_45:\n    /* \"#utility.yul\":4907:4913   */\n  0x00\n    /* \"#utility.yul\":4944:4945   */\n  0x02\n    /* \"#utility.yul\":4938:4942   */\n  dup3\n    /* \"#utility.yul\":4934:4946   */\n  div\n    /* \"#utility.yul\":4924:4946   */\n  swap1\n  pop\n    /* \"#utility.yul\":4991:4992   */\n  0x01\n    /* \"#utility.yul\":4985:4989   */\n  dup3\n    /* \"#utility.yul\":4981:4993   */\n  and\n    /* \"#utility.yul\":5012:5030   */\n  dup1\n    /* \"#utility.yul\":5002:5083   */\n  tag_104\n  jumpi\n    /* \"#utility.yul\":5068:5072   */\n  0x7f\n    /* \"#utility.yul\":5060:5066   */\n  dup3\n    /* \"#utility.yul\":5056:5073   */\n  and\n    /* \"#utility.yul\":5046:5073   */\n  swap2\n  pop\n    /* \"#utility.yul\":5002:5083   */\ntag_104:\n    /* \"#utility.yul\":5130:5132   */\n  0x20\n    /* \"#utility.yul\":5122:5128   */\n  dup3\n    /* \"#utility.yul\":5119:5133   */\n  lt\n    /* \"#utility.yul\":5099:5117   */\n  dup2\n    /* \"#utility.yul\":5096:5134   */\n  sub\n    /* \"#utility.yul\":5093:5177   */\n  tag_105\n  jumpi\n    /* \"#utility.yul\":5149:5167   */\n  tag_106\n  tag_44\n  jump\t// in\ntag_106:\n    /* \"#utility.yul\":5093:5177   */\ntag_105:\n    /* \"#utility.yul\":4914:5183   */\n  pop\n    /* \"#utility.yul\":4863:5183   */\n  swap2\n  swap1\n  pop\n  jump\t// out\n    /* \"#utility.yul\":5189:5330   */\ntag_46:\n    /* \"#utility.yul\":5238:5242   */\n  0x00\n    /* \"#utility.yul\":5261:5264   */\n  dup2\n    /* \"#utility.yul\":5253:5264   */\n  swap1\n  pop\n    /* \"#utility.yul\":5284:5287   */\n  dup2\n    /* \"#utility.yul\":5281:5282   */\n  0x00\n    /* \"#utility.yul\":5274:5288   */\n  mstore\n    /* \"#utility.yul\":5318:5322   */\n  0x20\n    /* \"#utility.yul\":5315:5316   */\n  0x00\n    /* \"#utility.yul\":5305:5323   */\n  keccak256\n    /* \"#utility.yul\":5297:5323   */\n  swap1\n  pop\n    /* \"#utility.yul\":5189:5330   */\n  swap2\n  swap1\n  pop\n  jump\t// out\n    /* \"#utility.yul\":5336:5429   */\ntag_47:\n    /* \"#utility.yul\":5373:5379   */\n  0x00\n    /* \"#utility.yul\":5420:5422   */\n  0x20\n    /* \"#utility.yul\":5415:5417   */\n  0x1f\n    /* \"#utility.yul\":5408:5413   */\n  dup4\n    /* \"#utility.yul\":5404:5418   */\n  add\n    /* \"#utility.yul\":5400:5423   */\n  div\n    /* \"#utility.yul\":5390:5423   */\n  swap1\n  pop\n    /* \"#utility.yul\":5336:5429   */\n  swap2\n  swap1\n  pop\n  jump\t// out\n    /* \"#utility.yul\":5435:5542   */\ntag_48:\n    /* \"#utility.yul\":5479:5487   */\n  0x00\n    /* \"#utility.yul\":5529:5534   */\n  dup3\n    /* \"#utility.yul\":5523:5527   */\n  dup3\n    /* \"#utility.yul\":5519:5535   */\n  shl\n    /* \"#utility.yul\":5498:5535   */\n  swap1\n  pop\n    /* \"#utility.yul\":5435:5542   */\n  swap3\n  swap2\n  pop\n  pop\n  jump\t// out\n    /* \"#utility.yul\":5548:5941   */\ntag_49:\n    /* \"#utility.yul\":5617:5623   */\n  0x00\n    /* \"#utility.yul\":5667:5668   */\n  0x08\n    /* \"#utility.yul\":5655:5665   */\n  dup4\n    /* \"#utility.yul\":5651:5669   */\n  mul\n    /* \"#utility.yul\":5690:5787   */\n  tag_111\n    /* \"#utility.yul\":5720:5786   */\n  0xffffffffffffffffffffffffffffffffffffffffffffffffffffffffffffffff\n    /* \"#utility.yul\":5709:5718   */\n  dup3\n    /* \"#utility.yul\":5690:5787   */\n  tag_48\n  jump\t// in\ntag_111:\n    /* \"#utility.yul\":5808:5847   */\n  tag_112\n    /* \"#utility.yul\":5838:5846   */\n  dup7\n    /* \"#utility.yul\":5827:5836   */\n  dup4\n    /* \"#utility.yul\":5808:5847   */\n  tag_48\n  jump\t// in\ntag_112:\n    /* \"#utility.yul\":5796:5847   */\n  swap6\n  pop\n    /* \"#utility.yul\":5880:5884   */\n  dup1\n    /* \"#utility.yul\":5876:5885   */\n  not\n    /* \"#utility.yul\":5869:5874   */\n  dup5\n    /* \"#utility.yul\":5865:5886   */\n  and\n    /* \"#utility.yul\":5856:5886   */\n  swap4\n  pop\n    /* \"#utility.yul\":5929:5933   */\n  dup1\n    /* \"#utility.yul\":5919:5927   */\n  dup7\n    /* \"#utility.yul\":5915:5934   */\n  and\n    /* \"#utility.yul\":5908:5913   */\n  dup5\n    /* \"#utility.yul\":5905:5935   */\n  or\n    /* \"#utility.yul\":5895:5935   */\n  swap3\n  pop\n    /* \"#utility.yul\":5624:5941   */\n  pop\n  pop\n    /* \"#utility.yul\":5548:5941   */\n  swap4\n  swap3\n  pop\n  pop\n  pop\n  jump\t// out\n    /* \"#utility.yul\":5947:6007   */\ntag_50:\n    /* \"#utility.yul\":5975:5978   */\n  0x00\n    /* \"#utility.yul\":5996:6001   */\n  dup2\n    /* \"#utility.yul\":5989:6001   */\n  swap1\n  pop\n    /* \"#utility.yul\":5947:6007   */\n  swap2\n  swap1\n  pop\n  jump\t// out\n    /* \"#utility.yul\":6013:6155   */\ntag_51:\n    /* \"#utility.yul\":6063:6072   */\n  0x00\n    /* \"#utility.yul\":6096:6149   */\n  tag_115\n    /* \"#utility.yul\":6114:6148   */\n  tag_116\n    /* \"#utility.yul\":6123:6147   */\n  tag_117\n    /* \"#utility.yul\":6141:6146   */\n  dup5\n    /* \"#utility.yul\":6123:6147   */\n  tag_32\n  jump\t// in\ntag_117:\n    /* \"#utility.yul\":6114:6148   */\n  tag_50\n  jump\t// in\ntag_116:\n    /* \"#utility.yul\":6096:6149   */\n  tag_32\n  jump\t// in\ntag_115:\n    /* \"#utility.yul\":6083:6149   */\n  swap1\n  pop\n    /* \"#utility.yul\":6013:6155   */\n  swap2\n  swap1\n  pop\n  jump\t// out\n    /* \"#utility.yul\":6161:6236   */\ntag_52:\n    /* \"#utility.yul\":6204:6207   */\n  0x00\n    /* \"#utility.yul\":6225:6230   */\n  dup2\n    /* \"#utility.yul\":6218:6230   */\n  swap1\n  pop\n    /* \"#utility.yul\":6161:6236   */\n  swap2\n  swap1\n  pop\n  jump\t// out\n    /* \"#utility.yul\":6242:6511   */\ntag_53:\n    /* \"#utility.yul\":6352:6391   */\n  tag_120\n    /* \"#utility.yul\":6383:6390   */\n  dup4\n    /* \"#utility.yul\":6352:6391   */\n  tag_51\n  jump\t// in\ntag_120:\n    /* \"#utility.yul\":6413:6504   */\n  tag_121\n    /* \"#utility.yul\":6462:6503   */\n  tag_122\n    /* \"#utility.yul\":6486:6502   */\n  dup3\n    /* \"#utility.yul\":6462:6503   */\n  tag_52\n  jump\t// in\ntag_122:\n    /* \"#utility.yul\":6454:6460   */\n  dup5\n    /* \"#utility.yul\":6447:6451   */\n  dup5\n    /* \"#utility.yul\":6441:6452   */\n  sload\n    /* \"#utility.yul\":6413:6504   */\n  tag_49\n  jump\t// in\ntag_121:\n    /* \"#utility.yul\":6407:6411   */\n  dup3\n    /* \"#utility.yul\":6400:6505   */\n  sstore\n    /* \"#utility.yul\":6318:6511   */\n  pop\n    /* \"#utility.yul\":6242:6511   */\n  pop\n  pop\n  pop\n  jump\t// out\n    /* \"#utility.yul\":6517:6590   */\ntag_54:\n    /* \"#utility.yul\":6562:6565   */\n  0x00\n    /* \"#utility.yul\":6583:6584   */\n  0x00\n    /* \"#utility.yul\":6576:6584   */\n  swap1\n  pop\n    /* \"#utility.yul\":6517:6590   */\n  swap1\n  jump\t// out\n    /* \"#utility.yul\":6596:6785   */\ntag_55:\n    /* \"#utility.yul\":6673:6705   */\n  tag_125\n  tag_54\n  jump\t// in\ntag_125:\n    /* \"#utility.yul\":6714:6779   */\n  tag_126\n    /* \"#utility.yul\":6772:6778   */\n  dup2\n    /* \"#utility.yul\":6764:6770   */\n  dup5\n    /* \"#utility.yul\":6758:6762   */\n  dup5\n    /* \"#utility.yul\":6714:6779   */\n  tag_53\n  jump\t// in\ntag_126:\n    /* \"#utility.yul\":6649:6785   */\n  pop\n    /* \"#utility.yul\":6596:6785   */\n  pop\n  pop\n  jump\t// out\n    /* \"#utility.yul\":6791:6977   */\ntag_56:\n    /* \"#utility.yul\":6851:6971   */\ntag_128:\n    /* \"#utility.yul\":6868:6871   */\n  dup2\n    /* \"#utility.yul\":6861:6866   */\n  dup2\n    /* \"#utility.yul\":6858:6872   */\n  lt\n    /* \"#utility.yul\":6851:6971   */\n  iszero\n  tag_130\n  jumpi\n    /* \"#utility.yul\":6922:6961   */\n  tag_131\n    /* \"#utility.yul\":6959:6960   */\n  0x00\n    /* \"#utility.yul\":6952:6957   */\n  dup3\n    /* \"#utility.yul\":6922:6961   */\n  tag_55\n  jump\t// in\ntag_131:\n    /* \"#utility.yul\":6895:6896   */\n  0x01\n    /* \"#utility.yul\":6888:6893   */\n  dup2\n    /* \"#utility.yul\":6884:6897   */\n  add\n    /* \"#utility.yul\":6875:6897   */\n  swap1\n  pop\n    /* \"#utility.yul\":6851:6971   */\n  jump(tag_128)\ntag_130:\n    /* \"#utility.yul\":6791:6977   */\n  pop\n  pop\n  jump\t// out\n    /* \"#utility.yul\":6983:7526   */\ntag_57:\n    /* \"#utility.yul\":7084:7086   */\n  0x1f\n    /* \"#utility.yul\":7079:7082   */\n  dup3\n    /* \"#utility.yul\":7076:7087   */\n  gt\n    /* \"#utility.yul\":7073:7519   */\n  iszero\n  tag_133\n  jumpi\n    /* \"#utility.yul\":7118:7156   */\n  tag_134\n    /* \"#utility.yul\":7150:7155   */\n  dup2\n    /* \"#utility.yul\":7118:7156   */\n  tag_46\n  jump\t// in\ntag_134:\n    /* \"#utility.yul\":7202:7231   */\n  tag_135\n    /* \"#utility.yul\":7220:7230   */\n  dup5\n    /* \"#utility.yul\":7202:7231   */\n  tag_47\n  jump\t// in\ntag_135:\n    /* \"#utility.yul\":7192:7200   */\n  dup2\n    /* \"#utility.yul\":7188:7232   */\n  add\n    /* \"#utility.yul\":7385:7387   */\n  0x20\n    /* \"#utility.yul\":7373:7383   */\n  dup6\n    /* \"#utility.yul\":7370:7388   */\n  lt\n    /* \"#utility.yul\":7367:7416   */\n  iszero\n  tag_136\n  jumpi\n    /* \"#utility.yul\":7406:7414   */\n  dup2\n    /* \"#utility.yul\":7391:7414   */\n  swap1\n  pop\n    /* \"#utility.yul\":7367:7416   */\ntag_136:\n    /* \"#utility.yul\":7429:7509   */\n  tag_137\n    /* \"#utility.yul\":7485:7507   */\n  tag_138\n    /* \"#utility.yul\":7503:7506   */\n  dup6\n    /* \"#utility.yul\":7485:7507   */\n  tag_47\n  jump\t// in\ntag_138:\n    /* \"#utility.yul\":7475:7483   */\n  dup4\n    /* \"#utility.yul\":7471:7508   */\n  add\n    /* \"#utility.yul\":7458:7469   */\n  dup3\n    /* \"#utility.yul\":7429:7509   */\n  tag_56\n  jump\t// in\ntag_137:\n    /* \"#utility.yul\":7088:7519   */\n  pop\n  pop\n    /* \"#utility.yul\":7073:7519   */\ntag_133:\n    /* \"#utility.yul\":6983:7526   */\n  pop\n  pop\n  pop\n  jump\t// out\n    /* \"#utility.yul\":7532:7649   */\ntag_58:\n    /* \"#utility.yul\":7586:7594   */\n  0x00\n    /* \"#utility.yul\":7636:7641   */\n  dup3\n    /* \"#utility.yul\":7630:7634   */\n  dup3\n    /* \"#utility.yul\":7626:7642   */\n  shr\n    /* \"#utility.yul\":7605:7642   */\n  swap1\n  pop\n    /* \"#utility.yul\":7532:7649   */\n  swap3\n  swap2\n  pop\n  pop\n  jump\t// out\n    /* \"#utility.yul\":7655:7824   */\ntag_59:\n    /* \"#utility.yul\":7699:7705   */\n  0x00\n    /* \"#utility.yul\":7732:7783   */\n  tag_141\n    /* \"#utility.yul\":7780:7781   */\n  0x00\n    /* \"#utility.yul\":7776:7782   */\n  not\n    /* \"#utility.yul\":7768:7773   */\n  dup5\n    /* \"#utility.yul\":7765:7766   */\n  0x08\n    /* \"#utility.yul\":7761:7774   */\n  mul\n    /* \"#utility.yul\":7732:7783   */\n  tag_58\n  jump\t// in\ntag_141:\n    /* \"#utility.yul\":7728:7784   */\n  not\n    /* \"#utility.yul\":7813:7817   */\n  dup1\n    /* \"#utility.yul\":7807:7811   */\n  dup4\n    /* \"#utility.yul\":7803:7818   */\n  and\n    /* \"#utility.yul\":7793:7818   */\n  swap2\n  pop\n    /* \"#utility.yul\":7706:7824   */\n  pop\n    /* \"#utility.yul\":7655:7824   */\n  swap3\n  swap2\n  pop\n  pop\n  jump\t// out\n    /* \"#utility.yul\":7829:8124   */\ntag_60:\n    /* \"#utility.yul\":7905:7909   */\n  0x00\n    /* \"#utility.yul\":8051:8080   */\n  tag_143\n    /* \"#utility.yul\":8076:8079   */\n  dup4\n    /* \"#utility.yul\":8070:8074   */\n  dup4\n    /* \"#utility.yul\":8051:8080   */\n  tag_59\n  jump\t// in\ntag_143:\n    /* \"#utility.yul\":8043:8080   */\n  swap2\n  pop\n    /* \"#utility.yul\":8113:8116   */\n  dup3\n    /* \"#utility.yul\":8110:8111   */\n  0x02\n    /* \"#utility.yul\":8106:8117   */\n  mul\n    /* \"#utility.yul\":8100:8104   */\n  dup3\n    /* \"#utility.yul\":8097:8118   */\n  or\n    /* \"#utility.yul\":8089:8118   */\n  swap1\n  pop\n    /* \"#utility.yul\":7829:8124   */\n  swap3\n  swap2\n  pop\n  pop\n  jump\t// out\n    /* \"#utility.yul\":8129:9524   */\ntag_27:\n    /* \"#utility.yul\":8246:8283   */\n  tag_145\n    /* \"#utility.yul\":8279:8282   */\n  dup3\n    /* \"#utility.yul\":8246:8283   */\n  tag_42\n  jump\t// in\ntag_145:\n    /* \"#utility.yul\":8348:8366   */\n  0xffffffffffffffff\n    /* \"#utility.yul\":8340:8346   */\n  dup2\n    /* \"#utility.yul\":8337:8367   */\n  gt\n    /* \"#utility.yul\":8334:8390   */\n  iszero\n  tag_146\n  jumpi\n    /* \"#utility.yul\":8370:8388   */\n  tag_147\n  tag_43\n  jump\t// in\ntag_147:\n    /* \"#utility.yul\":8334:8390   */\ntag_146:\n    /* \"#utility.yul\":8414:8452   */\n  tag_148\n    /* \"#utility.yul\":8446:8450   */\n  dup3\n    /* \"#utility.yul\":8440:8451   */\n  sload\n    /* \"#utility.yul\":8414:8452   */\n  tag_45\n  jump\t// in\ntag_148:\n    /* \"#utility.yul\":8499:8566   */\n  tag_149\n    /* \"#utility.yul\":8559:8565   */\n  dup3\n    /* \"#utility.yul\":8551:8557   */\n  dup3\n    /* \"#utility.yul\":8545:8549   */\n  dup6\n    /* \"#utility.yul\":8499:8566   */\n  tag_57\n  jump\t// in\ntag_149:\n    /* \"#utility.yul\":8593:8594   */\n  0x00\n    /* \"#utility.yul\":8617:8621   */\n  0x20\n    /* \"#utility.yul\":8604:8621   */\n  swap1\n  pop\n    /* \"#utility.yul\":8649:8651   */\n  0x1f\n    /* \"#utility.yul\":8641:8647   */\n  dup4\n    /* \"#utility.yul\":8638:8652   */\n  gt\n    /* \"#utility.yul\":8666:8667   */\n  0x01\n    /* \"#utility.yul\":8661:9279   */\n  dup2\n  eq\n  tag_151\n  jumpi\n    /* \"#utility.yul\":9323:9324   */\n  0x00\n    /* \"#utility.yul\":9340:9346   */\n  dup5\n    /* \"#utility.yul\":9337:9414   */\n  iszero\n  tag_152\n  jumpi\n    /* \"#utility.yul\":9389:9398   */\n  dup3\n    /* \"#utility.yul\":9384:9387   */\n  dup8\n    /* \"#utility.yul\":9380:9399   */\n  add\n    /* \"#utility.yul\":9374:9400   */\n  mload\n    /* \"#utility.yul\":9365:9400   */\n  swap1\n  pop\n    /* \"#utility.yul\":9337:9414   */\ntag_152:\n    /* \"#utility.yul\":9440:9507   */\n  tag_153\n    /* \"#utility.yul\":9500:9506   */\n  dup6\n    /* \"#utility.yul\":9493:9498   */\n  dup3\n    /* \"#utility.yul\":9440:9507   */\n  tag_60\n  jump\t// in\ntag_153:\n    /* \"#utility.yul\":9434:9438   */\n  dup7\n    /* \"#utility.yul\":9427:9508   */\n  sstore\n    /* \"#utility.yul\":9296:9518   */\n  pop\n    /* \"#utility.yul\":8631:9518   */\n  jump(tag_150)\n    /* \"#utility.yul\":8661:9279   */\ntag_151:\n    /* \"#utility.yul\":8713:8717   */\n  0x1f\n    /* \"#utility.yul\":8709:8718   */\n  not\n    /* \"#utility.yul\":8701:8707   */\n  dup5\n    /* \"#utility.yul\":8697:8719   */\n  and\n    /* \"#utility.yul\":8747:8784   */\n  tag_154\n    /* \"#utility.yul\":8779:8783   */\n  dup7\n    /* \"#utility.yul\":8747:8784   */\n  tag_46\n  jump\t// in\ntag_154:\n    /* \"#utility.yul\":8806:8807   */\n  0x00\n    /* \"#utility.yul\":8820:9028   */\ntag_155:\n    /* \"#utility.yul\":8834:8841   */\n  dup3\n    /* \"#utility.yul\":8831:8832   */\n  dup2\n    /* \"#utility.yul\":8828:8842   */\n  lt\n    /* \"#utility.yul\":8820:9028   */\n  iszero\n  tag_157\n  jumpi\n    /* \"#utility.yul\":8913:8922   */\n  dup5\n    /* \"#utility.yul\":8908:8911   */\n  dup10\n    /* \"#utility.yul\":8904:8923   */\n  add\n    /* \"#utility.yul\":8898:8924   */\n  mload\n    /* \"#utility.yul\":8890:8896   */\n  dup3\n    /* \"#utility.yul\":8883:8925   */\n  sstore\n    /* \"#utility.yul\":8964:8965   */\n  0x01\n    /* \"#utility.yul\":8956:8962   */\n  dup3\n    /* \"#utility.yul\":8952:8966   */\n  add\n    /* \"#utility.yul\":8942:8966   */\n  swap2\n  pop\n    /* \"#utility.yul\":9011:9013   */\n  0x20\n    /* \"#utility.yul\":9000:9009   */\n  dup6\n    /* \"#utility.yul\":8996:9014   */\n  add\n    /* \"#utility.yul\":8983:9014   */\n  swap5\n  pop\n    /* \"#utility.yul\":8857:8861   */\n  0x20\n    /* \"#utility.yul\":8854:8855   */\n  dup2\n    /* \"#utility.yul\":8850:8862   */\n  add\n    /* \"#utility.yul\":8845:8862   */\n  swap1\n  pop\n    /* \"#utility.yul\":8820:9028   */\n  jump(tag_155)\ntag_157:\n    /* \"#utility.yul\":9056:9062   */\n  dup7\n    /* \"#utility.yul\":9047:9054   */\n  dup4\n    /* \"#utility.yul\":9044:9063   */\n  lt\n    /* \"#utility.yul\":9041:9220   */\n  iszero\n  tag_158\n  jumpi\n    /* \"#utility.yul\":9114:9123   */\n  dup5\n    /* \"#utility.yul\":9109:9112   */\n  dup10\n    /* \"#utility.yul\":9105:9124   */\n  add\n    /* \"#utility.yul\":9099:9125   */\n  mload\n    /* \"#utility.yul\":9157:9205   */\n  tag_159\n    /* \"#utility.yul\":9199:9203   */\n  0x1f\n    /* \"#utility.yul\":9191:9197   */\n  dup10\n    /* \"#utility.yul\":9187:9204   */\n  and\n    /* \"#utility.yul\":9176:9185   */\n  dup3\n    /* \"#utility.yul\":9157:9205   */\n  tag_59\n  jump\t// in\ntag_159:\n    /* \"#utility.yul\":9149:9155   */\n  dup4\n    /* \"#utility.yul\":9142:9206   */\n  sstore\n    /* \"#utility.yul\":9064:9220   */\n  pop\n    /* \"#utility.yul\":9041:9220   */\ntag_158:\n    /* \"#utility.yul\":9266:9267   */\n  0x01\n    /* \"#utility.yul\":9262:9263   */\n  0x02\n    /* \"#utility.yul\":9254:9260   */\n  dup9\n    /* \"#utility.yul\":9250:9264   */\n  mul\n    /* \"#utility.yul\":9246:9268   */\n  add\n    /* \"#utility.yul\":9240:9244   */\n  dup9\n    /* \"#utility.yul\":9233:9269   */\n  sstore\n    /* \"#utility.yul\":8668:9279   */\n  pop\n  pop\n  pop\n    /* \"#utility.yul\":8631:9518   */\ntag_150:\n  pop\n    /* \"#utility.yul\":8221:9524   */\n  pop\n  pop\n  pop\n    /* \"#utility.yul\":8129:9524   */\n  pop\n  pop\n  jump\t// out\n    /* \"contracts/project/election.sol\":313:7993  contract Election is ReentrancyGuard {... */\ntag_22:\n  dataSize(sub_0)\n  dup1\n  dataOffset(sub_0)\n  0x00\n  codecopy\n  0x00\n  return\nstop\ndata_1b2a0714294a6af50f7a54b1f497fddc322c62523dd3e6071720e909831a9d7a 457870657269656e636564206c6561646572207769746820313520796561727320696e207075626c696320736572766963652e20466f637573206f6e20656475636174696f6e20616e64206865616c746863617265207265666f726d2e\ndata_43f596d683d4bd36359a54dafc56b2144c3d3f282f7f9ab5cd55bd193da50f15 546563686e6f6c6f677920656e7472657072656e657572206164766f636174696e6720666f72206469676974616c20696e66726173747275637475726520616e6420696e6e6f766174696f6e2e\ndata_60695b4b7fd359325e10aba5e172dd958f023576016f4d341151be0a9dbd248a 536f6369616c20776f726b65722064656469636174656420746f20636f6d6d756e69747920646576656c6f706d656e7420616e6420736f6369616c2077656c666172652070726f6772616d732e\ndata_c16175729e6a28d1c3679ac7ba26a156c00ab2949644b0bd2f90887d1d4283c3 466f726d6572206d696c6974617279206f666669636572207072696f726974697a696e67206e6174696f6e616c20736563757269747920616e64207665746572616e732720616666616972732e\ndata_eb4d31692a7f5b3f0868a507ebb1c139bc8e1d6a7d3d65de71a6948647ddfd72 456e7669726f6e6d656e74616c20616374697669737420636f6d6d697474656420746f207375737461696e61626c6520646576656c6f706d656e7420616e6420636c696d61746520616374696f6e2e\n\nsub_0: assembly {\n        /* \"contracts/project/election.sol\":313:7993  contract Election is ReentrancyGuard {... */\n      mstore(0x40, 0x80)\n      callvalue\n      dup1\n      iszero\n      tag_1\n      jumpi\n      revert(0x00, 0x00)\n    tag_1:\n      pop\n      jumpi(tag_2, lt(calldatasize, 0x04))\n      shr(0xe0, calldataload(0x00))\n      dup1\n      0x35b8e820\n      gt\n      tag_20\n      jumpi\n      dup1\n      0x9e136e64\n      gt\n      tag_21\n      jumpi\n      dup1\n      0x9e136e64\n      eq\n      tag_15\n      jumpi\n      dup1\n      0xad84c2da\n      eq\n      tag_16\n      jumpi\n      dup1\n      0xc5980c94\n      eq\n      tag_17\n      jumpi\n      dup1\n      0xdac6270d\n      eq\n      tag_18\n      jumpi\n      dup1\n      0xe3e6ca7d\n      eq\n      tag_19\n      jumpi\n      jump(tag_2)\n    tag_21:\n      dup1\n      0x35b8e820\n      eq\n      tag_11\n      jumpi\n      dup1\n      0x4717f97c\n      eq\n      tag_12\n      jumpi\n      dup1\n      0x86852dca\n      eq\n      tag_13\n      jumpi\n      dup1\n      0x8e7ea5b2\n      eq\n      tag_14\n      jumpi\n      jump(tag_2)\n    tag_20:\n      dup1\n      0x1bdbb2ab\n      gt\n      tag_22\n      jumpi\n      dup1\n      0x1bdbb2ab\n      eq\n      tag_7\n      jumpi\n      dup1\n      0x2d35a8a2\n      eq\n      tag_8\n      jumpi\n      dup1\n      0x2e6997fe\n      eq\n      tag_9\n      jumpi\n      dup1\n      0x3477ee2e\n      eq\n      tag_10\n      jumpi\n      jump(tag_2)\n    tag_22:\n      dup1\n      0x0121b93f\n      eq\n      tag_3\n      jumpi\n      dup1\n      0x09eef43e\n      eq\n      tag_4\n      jumpi\n      dup1\n      0x0d15fd77\n      eq\n      tag_5\n      jumpi\n      dup1\n      0x122902a6\n      eq\n      tag_6\n      jumpi\n    tag_2:\n      revert(0x00, 0x00)\n        /* \"contracts/project/election.sol\":3922:4426  function vote(uint _candidateId) ... */\n    tag_3:\n      tag_23\n      0x04\n      dup1\n      calldatasize\n      sub\n      dup2\n      add\n      swap1\n      tag_24\n      swap2\n      swap1\n      tag_25\n      jump\t// in\n    tag_24:\n      tag_26\n      jump\t// in\n    tag_23:\n      stop\n        /* \"contracts/project/election.sol\":649:689  mapping(address => bool) public hasVoted */\n    tag_4:\n      tag_27\n      0x04\n      dup1\n      calldatasize\n      sub\n      dup2\n      add\n      swap1\n      tag_28\n      swap2\n      swap1\n      tag_29\n      jump\t// in\n    tag_28:\n      tag_30\n      jump\t// in\n    tag_27:\n      mload(0x40)\n      tag_31\n      swap2\n      swap1\n      tag_32\n      jump\t// in\n    tag_31:\n      mload(0x40)\n      dup1\n      swap2\n      sub\n      swap1\n      return\n        /* \"contracts/project/election.sol\":786:808  uint public totalVotes */\n    tag_5:\n      tag_33\n      tag_34\n      jump\t// in\n    tag_33:\n      mload(0x40)\n      tag_35\n      swap2\n      swap1\n      tag_36\n      jump\t// in\n    tag_35:\n      mload(0x40)\n      dup1\n      swap2\n      sub\n      swap1\n      return\n        /* \"contracts/project/election.sol\":6346:6659  function getElectionStatus() public view returns (string memory status) {... */\n    tag_6:\n      tag_37\n      tag_38\n      jump\t// in\n    tag_37:\n      mload(0x40)\n      tag_39\n      swap2\n      swap1\n      tag_40\n      jump\t// in\n    tag_39:\n      mload(0x40)\n      dup1\n      swap2\n      sub\n      swap1\n      return\n        /* \"contracts/project/election.sol\":891:926  address public electionCommissioner */\n    tag_7:\n      tag_41\n      tag_42\n      jump\t// in\n    tag_41:\n      mload(0x40)\n      tag_43\n      swap2\n      swap1\n      tag_44\n      jump\t// in\n    tag_43:\n      mload(0x40)\n      dup1\n      swap2\n      sub\n      swap1\n      return\n        /* \"contracts/project/election.sol\":752:779  uint public candidatesCount */\n    tag_8:\n      tag_45\n      tag_46\n      jump\t// in\n    tag_45:\n      mload(0x40)\n      tag_47\n      swap2\n      swap1\n      tag_36\n      jump\t// in\n    tag_47:\n      mload(0x40)\n      dup1\n      swap2\n      sub\n      swap1\n      return\n        /* \"contracts/project/election.sol\":4551:4874  function getAllCandidates() public view returns (Candidate[] memory) {... */\n    tag_9:\n      tag_48\n      tag_49\n      jump\t// in\n    tag_48:\n      mload(0x40)\n      tag_50\n      swap2\n      swap1\n      tag_51\n      jump\t// in\n    tag_50:\n      mload(0x40)\n      dup1\n      swap2\n      sub\n      swap1\n      return\n        /* \"contracts/project/election.sol\":598:642  mapping(uint => Candidate) public candidates */\n    tag_10:\n      tag_52\n      0x04\n      dup1\n      calldatasize\n      sub\n      dup2\n      add\n      swap1\n      tag_53\n      swap2\n      swap1\n      tag_25\n      jump\t// in\n    tag_53:\n      tag_54\n      jump\t// in\n    tag_52:\n      mload(0x40)\n      tag_55\n      swap5\n      swap4\n      swap3\n      swap2\n      swap1\n      tag_56\n      jump\t// in\n    tag_55:\n      mload(0x40)\n      dup1\n      swap2\n      sub\n      swap1\n      return\n        /* \"contracts/project/election.sol\":7532:7691  function getCandidate(uint _candidateId) public view validCandidate(_candidateId) returns (Candidate memory) {... */\n    tag_11:\n      tag_57\n      0x04\n      dup1\n      calldatasize\n      sub\n      dup2\n      add\n      swap1\n      tag_58\n      swap2\n      swap1\n      tag_25\n      jump\t// in\n    tag_58:\n      tag_59\n      jump\t// in\n    tag_57:\n      mload(0x40)\n      tag_60\n      swap2\n      swap1\n      tag_61\n      jump\t// in\n    tag_60:\n      mload(0x40)\n      dup1\n      swap2\n      sub\n      swap1\n      return\n        /* \"contracts/project/election.sol\":5017:5311  function getResults() public view returns (uint[] memory) {... */\n    tag_12:\n      tag_62\n      tag_63\n      jump\t// in\n    tag_62:\n      mload(0x40)\n      tag_64\n      swap2\n      swap1\n      tag_65\n      jump\t// in\n    tag_64:\n      mload(0x40)\n      dup1\n      swap2\n      sub\n      swap1\n      return\n        /* \"contracts/project/election.sol\":7827:7990  function getElectionInfo() public view returns (uint, uint, uint, uint) {... */\n    tag_13:\n      tag_66\n      tag_67\n      jump\t// in\n    tag_66:\n      mload(0x40)\n      tag_68\n      swap5\n      swap4\n      swap3\n      swap2\n      swap1\n      tag_69\n      jump\t// in\n    tag_68:\n      mload(0x40)\n      dup1\n      swap2\n      sub\n      swap1\n      return\n        /* \"contracts/project/election.sol\":5547:6218  function getWinner() public view returns (uint winnerId, string memory winnerName, uint winnerVoteCount) {... */\n    tag_14:\n      tag_70\n      tag_71\n      jump\t// in\n    tag_70:\n      mload(0x40)\n      tag_72\n      swap4\n      swap3\n      swap2\n      swap1\n      tag_73\n      jump\t// in\n    tag_72:\n      mload(0x40)\n      dup1\n      swap2\n      sub\n      swap1\n      return\n        /* \"contracts/project/election.sol\":851:878  uint public electionEndTime */\n    tag_15:\n      tag_74\n      tag_75\n      jump\t// in\n    tag_74:\n      mload(0x40)\n      tag_76\n      swap2\n      swap1\n      tag_36\n      jump\t// in\n    tag_76:\n      mload(0x40)\n      dup1\n      swap2\n      sub\n      swap1\n      return\n        /* \"contracts/project/election.sol\":696:739  mapping(address => uint) public voterChoice */\n    tag_16:\n      tag_77\n      0x04\n      dup1\n      calldatasize\n      sub\n      dup2\n      add\n      swap1\n      tag_78\n      swap2\n      swap1\n      tag_29\n      jump\t// in\n    tag_78:\n      tag_79\n      jump\t// in\n    tag_77:\n      mload(0x40)\n      tag_80\n      swap2\n      swap1\n      tag_36\n      jump\t// in\n    tag_80:\n      mload(0x40)\n      dup1\n      swap2\n      sub\n      swap1\n      return\n        /* \"contracts/project/election.sol\":815:844  uint public electionStartTime */\n    tag_17:\n      tag_81\n      tag_82\n      jump\t// in\n    tag_81:\n      mload(0x40)\n      tag_83\n      swap2\n      swap1\n      tag_36\n      jump\t// in\n    tag_83:\n      mload(0x40)\n      dup1\n      swap2\n      sub\n      swap1\n      return\n        /* \"contracts/project/election.sol\":6799:7101  function getTimeRemaining() public view returns (uint) {... */\n    tag_18:\n      tag_84\n      tag_85\n      jump\t// in\n    tag_84:\n      mload(0x40)\n      tag_86\n      swap2\n      swap1\n      tag_36\n      jump\t// in\n    tag_86:\n      mload(0x40)\n      dup1\n      swap2\n      sub\n      swap1\n      return\n        /* \"contracts/project/election.sol\":7270:7380  function hasAddressVoted(address _voter) public view returns (bool) {... */\n    tag_19:\n      tag_87\n      0x04\n      dup1\n      calldatasize\n      sub\n      dup2\n      add\n      swap1\n      tag_88\n      swap2\n      swap1\n      tag_29\n      jump\t// in\n    tag_88:\n      tag_89\n      jump\t// in\n    tag_87:\n      mload(0x40)\n      tag_90\n      swap2\n      swap1\n      tag_32\n      jump\t// in\n    tag_90:\n      mload(0x40)\n      dup1\n      swap2\n      sub\n      swap1\n      return\n        /* \"contracts/project/election.sol\":3922:4426  function vote(uint _candidateId) ... */\n    tag_26:\n        /* \"@openzeppelin/contracts/security/ReentrancyGuard.sol\":2261:2282  _nonReentrantBefore() */\n      tag_92\n        /* \"@openzeppelin/contracts/security/ReentrancyGuard.sol\":2261:2280  _nonReentrantBefore */\n      tag_93\n        /* \"@openzeppelin/contracts/security/ReentrancyGuard.sol\":2261:2282  _nonReentrantBefore() */\n      jump\t// in\n    tag_92:\n        /* \"contracts/project/election.sol\":1360:1377  electionStartTime */\n      sload(0x06)\n        /* \"contracts/project/election.sol\":1341:1356  block.timestamp */\n      timestamp\n        /* \"contracts/project/election.sol\":1341:1377  block.timestamp >= electionStartTime */\n      lt\n      iszero\n        /* \"contracts/project/election.sol\":1333:1410  require(block.timestamp >= electionStartTime, \"Election has not started yet\") */\n      tag_95\n      jumpi\n      mload(0x40)\n      0x08c379a000000000000000000000000000000000000000000000000000000000\n      dup2\n      mstore\n      0x04\n      add\n      tag_96\n      swap1\n      tag_97\n      jump\t// in\n    tag_96:\n      mload(0x40)\n      dup1\n      swap2\n      sub\n      swap1\n      revert\n    tag_95:\n        /* \"contracts/project/election.sol\":1448:1463  electionEndTime */\n      sload(0x07)\n        /* \"contracts/project/election.sol\":1429:1444  block.timestamp */\n      timestamp\n        /* \"contracts/project/election.sol\":1429:1463  block.timestamp <= electionEndTime */\n      gt\n      iszero\n        /* \"contracts/project/election.sol\":1421:1486  require(block.timestamp <= electionEndTime, \"Election has ended\") */\n      tag_98\n      jumpi\n      mload(0x40)\n      0x08c379a000000000000000000000000000000000000000000000000000000000\n      dup2\n      mstore\n      0x04\n      add\n      tag_99\n      swap1\n      tag_100\n      jump\t// in\n    tag_99:\n      mload(0x40)\n      dup1\n      swap2\n      sub\n      swap1\n      revert\n    tag_98:\n        /* \"contracts/project/election.sol\":1704:1712  hasVoted */\n      0x02\n        /* \"contracts/project/election.sol\":1704:1724  hasVoted[msg.sender] */\n      0x00\n        /* \"contracts/project/election.sol\":1713:1723  msg.sender */\n      caller\n        /* \"contracts/project/election.sol\":1704:1724  hasVoted[msg.sender] */\n      0xffffffffffffffffffffffffffffffffffffffff\n      and\n      0xffffffffffffffffffffffffffffffffffffffff\n      and\n      dup2\n      mstore\n      0x20\n      add\n      swap1\n      dup2\n      mstore\n      0x20\n      add\n      0x00\n      keccak256\n      0x00\n      swap1\n      sload\n      swap1\n      0x0100\n      exp\n      swap1\n      div\n      0xff\n      and\n        /* \"contracts/project/election.sol\":1703:1724  !hasVoted[msg.sender] */\n      iszero\n        /* \"contracts/project/election.sol\":1695:1751  require(!hasVoted[msg.sender], \"You have already voted\") */\n      tag_102\n      jumpi\n      mload(0x40)\n      0x08c379a000000000000000000000000000000000000000000000000000000000\n      dup2\n      mstore\n      0x04\n      add\n      tag_103\n      swap1\n      tag_104\n      jump\t// in\n    tag_103:\n      mload(0x40)\n      dup1\n      swap2\n      sub\n      swap1\n      revert\n    tag_102:\n        /* \"contracts/project/election.sol\":4070:4082  _candidateId */\n      dup1\n        /* \"contracts/project/election.sol\":1860:1861  0 */\n      0x00\n        /* \"contracts/project/election.sol\":1845:1857  _candidateId */\n      dup2\n        /* \"contracts/project/election.sol\":1845:1861  _candidateId > 0 */\n      gt\n        /* \"contracts/project/election.sol\":1845:1896  _candidateId > 0 && _candidateId <= candidatesCount */\n      dup1\n      iszero\n      tag_106\n      jumpi\n      pop\n        /* \"contracts/project/election.sol\":1881:1896  candidatesCount */\n      sload(0x04)\n        /* \"contracts/project/election.sol\":1865:1877  _candidateId */\n      dup2\n        /* \"contracts/project/election.sol\":1865:1896  _candidateId <= candidatesCount */\n      gt\n      iszero\n        /* \"contracts/project/election.sol\":1845:1896  _candidateId > 0 && _candidateId <= candidatesCount */\n    tag_106:\n        /* \"contracts/project/election.sol\":1837:1921  require(_candidateId > 0 && _candidateId <= candidatesCount, \"Invalid candidate ID\") */\n      tag_107\n      jumpi\n      mload(0x40)\n      0x08c379a000000000000000000000000000000000000000000000000000000000\n      dup2\n      mstore\n      0x04\n      add\n      tag_108\n      swap1\n      tag_109\n      jump\t// in\n    tag_108:\n      mload(0x40)\n      dup1\n      swap2\n      sub\n      swap1\n      revert\n    tag_107:\n        /* \"contracts/project/election.sol\":4163:4167  true */\n      0x01\n        /* \"contracts/project/election.sol\":4140:4148  hasVoted */\n      0x02\n        /* \"contracts/project/election.sol\":4140:4160  hasVoted[msg.sender] */\n      0x00\n        /* \"contracts/project/election.sol\":4149:4159  msg.sender */\n      caller\n        /* \"contracts/project/election.sol\":4140:4160  hasVoted[msg.sender] */\n      0xffffffffffffffffffffffffffffffffffffffff\n      and\n      0xffffffffffffffffffffffffffffffffffffffff\n      and\n      dup2\n      mstore\n      0x20\n      add\n      swap1\n      dup2\n      mstore\n      0x20\n      add\n      0x00\n      keccak256\n      0x00\n        /* \"contracts/project/election.sol\":4140:4167  hasVoted[msg.sender] = true */\n      0x0100\n      exp\n      dup2\n      sload\n      dup2\n      0xff\n      mul\n      not\n      and\n      swap1\n      dup4\n      iszero\n      iszero\n      mul\n      or\n      swap1\n      sstore\n      pop\n        /* \"contracts/project/election.sol\":4204:4216  _candidateId */\n      dup2\n        /* \"contracts/project/election.sol\":4178:4189  voterChoice */\n      0x03\n        /* \"contracts/project/election.sol\":4178:4201  voterChoice[msg.sender] */\n      0x00\n        /* \"contracts/project/election.sol\":4190:4200  msg.sender */\n      caller\n        /* \"contracts/project/election.sol\":4178:4201  voterChoice[msg.sender] */\n      0xffffffffffffffffffffffffffffffffffffffff\n      and\n      0xffffffffffffffffffffffffffffffffffffffff\n      and\n      dup2\n      mstore\n      0x20\n      add\n      swap1\n      dup2\n      mstore\n      0x20\n      add\n      0x00\n      keccak256\n        /* \"contracts/project/election.sol\":4178:4216  voterChoice[msg.sender] = _candidateId */\n      dup2\n      swap1\n      sstore\n      pop\n        /* \"contracts/project/election.sol\":4282:4292  candidates */\n      0x01\n        /* \"contracts/project/election.sol\":4282:4306  candidates[_candidateId] */\n      0x00\n        /* \"contracts/project/election.sol\":4293:4305  _candidateId */\n      dup4\n        /* \"contracts/project/election.sol\":4282:4306  candidates[_candidateId] */\n      dup2\n      mstore\n      0x20\n      add\n      swap1\n      dup2\n      mstore\n      0x20\n      add\n      0x00\n      keccak256\n        /* \"contracts/project/election.sol\":4282:4316  candidates[_candidateId].voteCount */\n      0x03\n      add\n      0x00\n        /* \"contracts/project/election.sol\":4282:4318  candidates[_candidateId].voteCount++ */\n      dup2\n      sload\n      dup1\n      swap3\n      swap2\n      swap1\n      tag_111\n      swap1\n      tag_112\n      jump\t// in\n    tag_111:\n      swap2\n      swap1\n      pop\n      sstore\n      pop\n        /* \"contracts/project/election.sol\":4329:4339  totalVotes */\n      0x05\n      0x00\n        /* \"contracts/project/election.sol\":4329:4341  totalVotes++ */\n      dup2\n      sload\n      dup1\n      swap3\n      swap2\n      swap1\n      tag_113\n      swap1\n      tag_112\n      jump\t// in\n    tag_113:\n      swap2\n      swap1\n      pop\n      sstore\n      pop\n        /* \"contracts/project/election.sol\":4388:4400  _candidateId */\n      dup2\n        /* \"contracts/project/election.sol\":4376:4386  msg.sender */\n      caller\n        /* \"contracts/project/election.sol\":4367:4418  VoteCast(msg.sender, _candidateId, block.timestamp) */\n      0xffffffffffffffffffffffffffffffffffffffff\n      and\n      0xb4cfecf70861b7b150d8337780d34fb4cbc2114b5fb1fe51a5c5fca1849f7274\n        /* \"contracts/project/election.sol\":4402:4417  block.timestamp */\n      timestamp\n        /* \"contracts/project/election.sol\":4367:4418  VoteCast(msg.sender, _candidateId, block.timestamp) */\n      mload(0x40)\n      tag_114\n      swap2\n      swap1\n      tag_36\n      jump\t// in\n    tag_114:\n      mload(0x40)\n      dup1\n      swap2\n      sub\n      swap1\n      log3\n        /* \"contracts/project/election.sol\":1762:1763  _ */\n      pop\n        /* \"@openzeppelin/contracts/security/ReentrancyGuard.sol\":2303:2323  _nonReentrantAfter() */\n      tag_115\n        /* \"@openzeppelin/contracts/security/ReentrancyGuard.sol\":2303:2321  _nonReentrantAfter */\n      tag_116\n        /* \"@openzeppelin/contracts/security/ReentrancyGuard.sol\":2303:2323  _nonReentrantAfter() */\n      jump\t// in\n    tag_115:\n        /* \"contracts/project/election.sol\":3922:4426  function vote(uint _candidateId) ... */\n      pop\n      jump\t// out\n        /* \"contracts/project/election.sol\":649:689  mapping(address => bool) public hasVoted */\n    tag_30:\n      mstore(0x20, 0x02)\n      dup1\n      0x00\n      mstore\n      keccak256(0x00, 0x40)\n      0x00\n      swap2\n      pop\n      sload\n      swap1\n      0x0100\n      exp\n      swap1\n      div\n      0xff\n      and\n      dup2\n      jump\t// out\n        /* \"contracts/project/election.sol\":786:808  uint public totalVotes */\n    tag_34:\n      sload(0x05)\n      dup2\n      jump\t// out\n        /* \"contracts/project/election.sol\":6346:6659  function getElectionStatus() public view returns (string memory status) {... */\n    tag_38:\n        /* \"contracts/project/election.sol\":6396:6416  string memory status */\n      0x60\n        /* \"contracts/project/election.sol\":6451:6468  electionStartTime */\n      sload(0x06)\n        /* \"contracts/project/election.sol\":6433:6448  block.timestamp */\n      timestamp\n        /* \"contracts/project/election.sol\":6433:6468  block.timestamp < electionStartTime */\n      lt\n        /* \"contracts/project/election.sol\":6429:6652  if (block.timestamp < electionStartTime) {... */\n      iszero\n      tag_118\n      jumpi\n        /* \"contracts/project/election.sol\":6485:6505  return \"Not Started\" */\n      mload(0x40)\n      dup1\n      0x40\n      add\n      0x40\n      mstore\n      dup1\n      0x0b\n      dup2\n      mstore\n      0x20\n      add\n      0x4e6f742053746172746564000000000000000000000000000000000000000000\n      dup2\n      mstore\n      pop\n      swap1\n      pop\n      jump(tag_117)\n        /* \"contracts/project/election.sol\":6429:6652  if (block.timestamp < electionStartTime) {... */\n    tag_118:\n        /* \"contracts/project/election.sol\":6546:6561  electionEndTime */\n      sload(0x07)\n        /* \"contracts/project/election.sol\":6527:6542  block.timestamp */\n      timestamp\n        /* \"contracts/project/election.sol\":6527:6561  block.timestamp <= electionEndTime */\n      gt\n        /* \"contracts/project/election.sol\":6523:6652  if (block.timestamp <= electionEndTime) {... */\n      tag_120\n      jumpi\n        /* \"contracts/project/election.sol\":6578:6593  return \"Active\" */\n      mload(0x40)\n      dup1\n      0x40\n      add\n      0x40\n      mstore\n      dup1\n      0x06\n      dup2\n      mstore\n      0x20\n      add\n      0x4163746976650000000000000000000000000000000000000000000000000000\n      dup2\n      mstore\n      pop\n      swap1\n      pop\n      jump(tag_117)\n        /* \"contracts/project/election.sol\":6523:6652  if (block.timestamp <= electionEndTime) {... */\n    tag_120:\n        /* \"contracts/project/election.sol\":6626:6640  return \"Ended\" */\n      mload(0x40)\n      dup1\n      0x40\n      add\n      0x40\n      mstore\n      dup1\n      0x05\n      dup2\n      mstore\n      0x20\n      add\n      0x456e646564000000000000000000000000000000000000000000000000000000\n      dup2\n      mstore\n      pop\n      swap1\n      pop\n        /* \"contracts/project/election.sol\":6346:6659  function getElectionStatus() public view returns (string memory status) {... */\n    tag_117:\n      swap1\n      jump\t// out\n        /* \"contracts/project/election.sol\":891:926  address public electionCommissioner */\n    tag_42:\n      0x08\n      0x00\n      swap1\n      sload\n      swap1\n      0x0100\n      exp\n      swap1\n      div\n      0xffffffffffffffffffffffffffffffffffffffff\n      and\n      dup2\n      jump\t// out\n        /* \"contracts/project/election.sol\":752:779  uint public candidatesCount */\n    tag_46:\n      sload(0x04)\n      dup2\n      jump\t// out\n        /* \"contracts/project/election.sol\":4551:4874  function getAllCandidates() public view returns (Candidate[] memory) {... */\n    tag_49:\n        /* \"contracts/project/election.sol\":4600:4618  Candidate[] memory */\n      0x60\n        /* \"contracts/project/election.sol\":4631:4663  Candidate[] memory allCandidates */\n      0x00\n        /* \"contracts/project/election.sol\":4682:4697  candidatesCount */\n      sload(0x04)\n        /* \"contracts/project/election.sol\":4666:4698  new Candidate[](candidatesCount) */\n      0xffffffffffffffff\n      dup2\n      gt\n      iszero\n      tag_123\n      jumpi\n      tag_124\n      tag_125\n      jump\t// in\n    tag_124:\n    tag_123:\n      mload(0x40)\n      swap1\n      dup1\n      dup3\n      mstore\n      dup1\n      0x20\n      mul\n      0x20\n      add\n      dup3\n      add\n      0x40\n      mstore\n      dup1\n      iszero\n      tag_126\n      jumpi\n      dup2\n      0x20\n      add\n    tag_127:\n      tag_128\n      tag_129\n      jump\t// in\n    tag_128:\n      dup2\n      mstore\n      0x20\n      add\n      swap1\n      0x01\n      swap1\n      sub\n      swap1\n      dup2\n      tag_127\n      jumpi\n      swap1\n      pop\n    tag_126:\n      pop\n        /* \"contracts/project/election.sol\":4631:4698  Candidate[] memory allCandidates = new Candidate[](candidatesCount) */\n      swap1\n      pop\n        /* \"contracts/project/election.sol\":4724:4730  uint i */\n      0x00\n        /* \"contracts/project/election.sol\":4733:4734  1 */\n      0x01\n        /* \"contracts/project/election.sol\":4724:4734  uint i = 1 */\n      swap1\n      pop\n        /* \"contracts/project/election.sol\":4719:4826  for (uint i = 1; i <= candidatesCount; i++) {... */\n    tag_130:\n        /* \"contracts/project/election.sol\":4741:4756  candidatesCount */\n      sload(0x04)\n        /* \"contracts/project/election.sol\":4736:4737  i */\n      dup2\n        /* \"contracts/project/election.sol\":4736:4756  i <= candidatesCount */\n      gt\n        /* \"contracts/project/election.sol\":4719:4826  for (uint i = 1; i <= candidatesCount; i++) {... */\n      tag_131\n      jumpi\n        /* \"contracts/project/election.sol\":4801:4811  candidates */\n      0x01\n        /* \"contracts/project/election.sol\":4801:4814  candidates[i] */\n      0x00\n        /* \"contracts/project/election.sol\":4812:4813  i */\n      dup3\n        /* \"contracts/project/election.sol\":4801:4814  candidates[i] */\n      dup2\n      mstore\n      0x20\n      add\n      swap1\n      dup2\n      mstore\n      0x20\n      add\n      0x00\n      keccak256\n        /* \"contracts/project/election.sol\":4778:4814  allCandidates[i - 1] = candidates[i] */\n      mload(0x40)\n      dup1\n      0x80\n      add\n      0x40\n      mstore\n      swap1\n      dup2\n      0x00\n      dup3\n      add\n      sload\n      dup2\n      mstore\n      0x20\n      add\n      0x01\n      dup3\n      add\n      dup1\n      sload\n      tag_133\n      swap1\n      tag_134\n      jump\t// in\n    tag_133:\n      dup1\n      0x1f\n      add\n      0x20\n      dup1\n      swap2\n      div\n      mul\n      0x20\n      add\n      mload(0x40)\n      swap1\n      dup2\n      add\n      0x40\n      mstore\n      dup1\n      swap3\n      swap2\n      swap1\n      dup2\n      dup2\n      mstore\n      0x20\n      add\n      dup3\n      dup1\n      sload\n      tag_135\n      swap1\n      tag_134\n      jump\t// in\n    tag_135:\n      dup1\n      iszero\n      tag_136\n      jumpi\n      dup1\n      0x1f\n      lt\n      tag_137\n      jumpi\n      0x0100\n      dup1\n      dup4\n      sload\n      div\n      mul\n      dup4\n      mstore\n      swap2\n      0x20\n      add\n      swap2\n      jump(tag_136)\n    tag_137:\n      dup3\n      add\n      swap2\n      swap1\n      0x00\n      mstore\n      keccak256(0x00, 0x20)\n      swap1\n    tag_138:\n      dup2\n      sload\n      dup2\n      mstore\n      swap1\n      0x01\n      add\n      swap1\n      0x20\n      add\n      dup1\n      dup4\n      gt\n      tag_138\n      jumpi\n      dup3\n      swap1\n      sub\n      0x1f\n      and\n      dup3\n      add\n      swap2\n    tag_136:\n      pop\n      pop\n      pop\n      pop\n      pop\n      dup2\n      mstore\n      0x20\n      add\n      0x02\n      dup3\n      add\n      dup1\n      sload\n      tag_139\n      swap1\n      tag_134\n      jump\t// in\n    tag_139:\n      dup1\n      0x1f\n      add\n      0x20\n      dup1\n      swap2\n      div\n      mul\n      0x20\n      add\n      mload(0x40)\n      swap1\n      dup2\n      add\n      0x40\n      mstore\n      dup1\n      swap3\n      swap2\n      swap1\n      dup2\n      dup2\n      mstore\n      0x20\n      add\n      dup3\n      dup1\n      sload\n      tag_140\n      swap1\n      tag_134\n      jump\t// in\n    tag_140:\n      dup1\n      iszero\n      tag_141\n      jumpi\n      dup1\n      0x1f\n      lt\n      tag_142\n      jumpi\n      0x0100\n      dup1\n      dup4\n      sload\n      div\n      mul\n      dup4\n      mstore\n      swap2\n      0x20\n      add\n      swap2\n      jump(tag_141)\n    tag_142:\n      dup3\n      add\n      swap2\n      swap1\n      0x00\n      mstore\n      keccak256(0x00, 0x20)\n      swap1\n    tag_143:\n      dup2\n      sload\n      dup2\n      mstore\n      swap1\n      0x01\n      add\n      swap1\n      0x20\n      add\n      dup1\n      dup4\n      gt\n      tag_143\n      jumpi\n      dup3\n      swap1\n      sub\n      0x1f\n      and\n      dup3\n      add\n      swap2\n    tag_141:\n      pop\n      pop\n      pop\n      pop\n      pop\n      dup2\n      mstore\n      0x20\n      add\n      0x03\n      dup3\n      add\n      sload\n      dup2\n      mstore\n      pop\n      pop\n        /* \"contracts/project/election.sol\":4778:4791  allCandidates */\n      dup3\n        /* \"contracts/project/election.sol\":4796:4797  1 */\n      0x01\n        /* \"contracts/project/election.sol\":4792:4793  i */\n      dup4\n        /* \"contracts/project/election.sol\":4792:4797  i - 1 */\n      tag_144\n      swap2\n      swap1\n      tag_145\n      jump\t// in\n    tag_144:\n        /* \"contracts/project/election.sol\":4778:4798  allCandidates[i - 1] */\n      dup2\n      mload\n      dup2\n      lt\n      tag_146\n      jumpi\n      tag_147\n      tag_148\n      jump\t// in\n    tag_147:\n    tag_146:\n      0x20\n      mul\n      0x20\n      add\n      add\n        /* \"contracts/project/election.sol\":4778:4814  allCandidates[i - 1] = candidates[i] */\n      dup2\n      swap1\n      mstore\n      pop\n        /* \"contracts/project/election.sol\":4758:4761  i++ */\n      dup1\n      dup1\n      tag_149\n      swap1\n      tag_112\n      jump\t// in\n    tag_149:\n      swap2\n      pop\n      pop\n        /* \"contracts/project/election.sol\":4719:4826  for (uint i = 1; i <= candidatesCount; i++) {... */\n      jump(tag_130)\n    tag_131:\n      pop\n        /* \"contracts/project/election.sol\":4853:4866  allCandidates */\n      dup1\n        /* \"contracts/project/election.sol\":4846:4866  return allCandidates */\n      swap2\n      pop\n      pop\n        /* \"contracts/project/election.sol\":4551:4874  function getAllCandidates() public view returns (Candidate[] memory) {... */\n      swap1\n      jump\t// out\n        /* \"contracts/project/election.sol\":598:642  mapping(uint => Candidate) public candidates */\n    tag_54:\n      mstore(0x20, 0x01)\n      dup1\n      0x00\n      mstore\n      keccak256(0x00, 0x40)\n      0x00\n      swap2\n      pop\n      swap1\n      pop\n      dup1\n      0x00\n      add\n      sload\n      swap1\n      dup1\n      0x01\n      add\n      dup1\n      sload\n      tag_150\n      swap1\n      tag_134\n      jump\t// in\n    tag_150:\n      dup1\n      0x1f\n      add\n      0x20\n      dup1\n      swap2\n      div\n      mul\n      0x20\n      add\n      mload(0x40)\n      swap1\n      dup2\n      add\n      0x40\n      mstore\n      dup1\n      swap3\n      swap2\n      swap1\n      dup2\n      dup2\n      mstore\n      0x20\n      add\n      dup3\n      dup1\n      sload\n      tag_151\n      swap1\n      tag_134\n      jump\t// in\n    tag_151:\n      dup1\n      iszero\n      tag_152\n      jumpi\n      dup1\n      0x1f\n      lt\n      tag_153\n      jumpi\n      0x0100\n      dup1\n      dup4\n      sload\n      div\n      mul\n      dup4\n      mstore\n      swap2\n      0x20\n      add\n      swap2\n      jump(tag_152)\n    tag_153:\n      dup3\n      add\n      swap2\n      swap1\n      0x00\n      mstore\n      keccak256(0x00, 0x20)\n      swap1\n    tag_154:\n      dup2\n      sload\n      dup2\n      mstore\n      swap1\n      0x01\n      add\n      swap1\n      0x20\n      add\n      dup1\n      dup4\n      gt\n      tag_154\n      jumpi\n      dup3\n      swap1\n      sub\n      0x1f\n      and\n      dup3\n      add\n      swap2\n    tag_152:\n      pop\n      pop\n      pop\n      pop\n      pop\n      swap1\n      dup1\n      0x02\n      add\n      dup1\n      sload\n      tag_155\n      swap1\n      tag_134\n      jump\t// in\n    tag_155:\n      dup1\n      0x1f\n      add\n      0x20\n      dup1\n      swap2\n      div\n      mul\n      0x20\n      add\n      mload(0x40)\n      swap1\n      dup2\n      add\n      0x40\n      mstore\n      dup1\n      swap3\n      swap2\n      swap1\n      dup2\n      dup2\n      mstore\n      0x20\n      add\n      dup3\n      dup1\n      sload\n      tag_156\n      swap1\n      tag_134\n      jump\t// in\n    tag_156:\n      dup1\n      iszero\n      tag_157\n      jumpi\n      dup1\n      0x1f\n      lt\n      tag_158\n      jumpi\n      0x0100\n      dup1\n      dup4\n      sload\n      div\n      mul\n      dup4\n      mstore\n      swap2\n      0x20\n      add\n      swap2\n      jump(tag_157)\n    tag_158:\n      dup3\n      add\n      swap2\n      swap1\n      0x00\n      mstore\n      keccak256(0x00, 0x20)\n      swap1\n    tag_159:\n      dup2\n      sload\n      dup2\n      mstore\n      swap1\n      0x01\n      add\n      swap1\n      0x20\n      add\n      dup1\n      dup4\n      gt\n      tag_159\n      jumpi\n      dup3\n      swap1\n      sub\n      0x1f\n      and\n      dup3\n      add\n      swap2\n    tag_157:\n      pop\n      pop\n      pop\n      pop\n      pop\n      swap1\n      dup1\n      0x03\n      add\n      sload\n      swap1\n      pop\n      dup5\n      jump\t// out\n        /* \"contracts/project/election.sol\":7532:7691  function getCandidate(uint _candidateId) public view validCandidate(_candidateId) returns (Candidate memory) {... */\n    tag_59:\n        /* \"contracts/project/election.sol\":7623:7639  Candidate memory */\n      tag_160\n      tag_129\n      jump\t// in\n    tag_160:\n        /* \"contracts/project/election.sol\":7600:7612  _candidateId */\n      dup2\n        /* \"contracts/project/election.sol\":1860:1861  0 */\n      0x00\n        /* \"contracts/project/election.sol\":1845:1857  _candidateId */\n      dup2\n        /* \"contracts/project/election.sol\":1845:1861  _candidateId > 0 */\n      gt\n        /* \"contracts/project/election.sol\":1845:1896  _candidateId > 0 && _candidateId <= candidatesCount */\n      dup1\n      iszero\n      tag_162\n      jumpi\n      pop\n        /* \"contracts/project/election.sol\":1881:1896  candidatesCount */\n      sload(0x04)\n        /* \"contracts/project/election.sol\":1865:1877  _candidateId */\n      dup2\n        /* \"contracts/project/election.sol\":1865:1896  _candidateId <= candidatesCount */\n      gt\n      iszero\n        /* \"contracts/project/election.sol\":1845:1896  _candidateId > 0 && _candidateId <= candidatesCount */\n    tag_162:\n        /* \"contracts/project/election.sol\":1837:1921  require(_candidateId > 0 && _candidateId <= candidatesCount, \"Invalid candidate ID\") */\n      tag_163\n      jumpi\n      mload(0x40)\n      0x08c379a000000000000000000000000000000000000000000000000000000000\n      dup2\n      mstore\n      0x04\n      add\n      tag_164\n      swap1\n      tag_109\n      jump\t// in\n    tag_164:\n      mload(0x40)\n      dup1\n      swap2\n      sub\n      swap1\n      revert\n    tag_163:\n        /* \"contracts/project/election.sol\":7659:7669  candidates */\n      0x01\n        /* \"contracts/project/election.sol\":7659:7683  candidates[_candidateId] */\n      0x00\n        /* \"contracts/project/election.sol\":7670:7682  _candidateId */\n      dup5\n        /* \"contracts/project/election.sol\":7659:7683  candidates[_candidateId] */\n      dup2\n      mstore\n      0x20\n      add\n      swap1\n      dup2\n      mstore\n      0x20\n      add\n      0x00\n      keccak256\n        /* \"contracts/project/election.sol\":7652:7683  return candidates[_candidateId] */\n      mload(0x40)\n      dup1\n      0x80\n      add\n      0x40\n      mstore\n      swap1\n      dup2\n      0x00\n      dup3\n      add\n      sload\n      dup2\n      mstore\n      0x20\n      add\n      0x01\n      dup3\n      add\n      dup1\n      sload\n      tag_166\n      swap1\n      tag_134\n      jump\t// in\n    tag_166:\n      dup1\n      0x1f\n      add\n      0x20\n      dup1\n      swap2\n      div\n      mul\n      0x20\n      add\n      mload(0x40)\n      swap1\n      dup2\n      add\n      0x40\n      mstore\n      dup1\n      swap3\n      swap2\n      swap1\n      dup2\n      dup2\n      mstore\n      0x20\n      add\n      dup3\n      dup1\n      sload\n      tag_167\n      swap1\n      tag_134\n      jump\t// in\n    tag_167:\n      dup1\n      iszero\n      tag_168\n      jumpi\n      dup1\n      0x1f\n      lt\n      tag_169\n      jumpi\n      0x0100\n      dup1\n      dup4\n      sload\n      div\n      mul\n      dup4\n      mstore\n      swap2\n      0x20\n      add\n      swap2\n      jump(tag_168)\n    tag_169:\n      dup3\n      add\n      swap2\n      swap1\n      0x00\n      mstore\n      keccak256(0x00, 0x20)\n      swap1\n    tag_170:\n      dup2\n      sload\n      dup2\n      mstore\n      swap1\n      0x01\n      add\n      swap1\n      0x20\n      add\n      dup1\n      dup4\n      gt\n      tag_170\n      jumpi\n      dup3\n      swap1\n      sub\n      0x1f\n      and\n      dup3\n      add\n      swap2\n    tag_168:\n      pop\n      pop\n      pop\n      pop\n      pop\n      dup2\n      mstore\n      0x20\n      add\n      0x02\n      dup3\n      add\n      dup1\n      sload\n      tag_171\n      swap1\n      tag_134\n      jump\t// in\n    tag_171:\n      dup1\n      0x1f\n      add\n      0x20\n      dup1\n      swap2\n      div\n      mul\n      0x20\n      add\n      mload(0x40)\n      swap1\n      dup2\n      add\n      0x40\n      mstore\n      dup1\n      swap3\n      swap2\n      swap1\n      dup2\n      dup2\n      mstore\n      0x20\n      add\n      dup3\n      dup1\n      sload\n      tag_172\n      swap1\n      tag_134\n      jump\t// in\n    tag_172:\n      dup1\n      iszero\n      tag_173\n      jumpi\n      dup1\n      0x1f\n      lt\n      tag_174\n      jumpi\n      0x0100\n      dup1\n      dup4\n      sload\n      div\n      mul\n      dup4\n      mstore\n      swap2\n      0x20\n      add\n      swap2\n      jump(tag_173)\n    tag_174:\n      dup3\n      add\n      swap2\n      swap1\n      0x00\n      mstore\n      keccak256(0x00, 0x20)\n      swap1\n    tag_175:\n      dup2\n      sload\n      dup2\n      mstore\n      swap1\n      0x01\n      add\n      swap1\n      0x20\n      add\n      dup1\n      dup4\n      gt\n      tag_175\n      jumpi\n      dup3\n      swap1\n      sub\n      0x1f\n      and\n      dup3\n      add\n      swap2\n    tag_173:\n      pop\n      pop\n      pop\n      pop\n      pop\n      dup2\n      mstore\n      0x20\n      add\n      0x03\n      dup3\n      add\n      sload\n      dup2\n      mstore\n      pop\n      pop\n      swap2\n      pop\n        /* \"contracts/project/election.sol\":7532:7691  function getCandidate(uint _candidateId) public view validCandidate(_candidateId) returns (Candidate memory) {... */\n      pop\n      swap2\n      swap1\n      pop\n      jump\t// out\n        /* \"contracts/project/election.sol\":5017:5311  function getResults() public view returns (uint[] memory) {... */\n    tag_63:\n        /* \"contracts/project/election.sol\":5060:5073  uint[] memory */\n      0x60\n        /* \"contracts/project/election.sol\":5086:5107  uint[] memory results */\n      0x00\n        /* \"contracts/project/election.sol\":5121:5136  candidatesCount */\n      sload(0x04)\n        /* \"contracts/project/election.sol\":5110:5137  new uint[](candidatesCount) */\n      0xffffffffffffffff\n      dup2\n      gt\n      iszero\n      tag_177\n      jumpi\n      tag_178\n      tag_125\n      jump\t// in\n    tag_178:\n    tag_177:\n      mload(0x40)\n      swap1\n      dup1\n      dup3\n      mstore\n      dup1\n      0x20\n      mul\n      0x20\n      add\n      dup3\n      add\n      0x40\n      mstore\n      dup1\n      iszero\n      tag_179\n      jumpi\n      dup2\n      0x20\n      add\n      0x20\n      dup3\n      mul\n      dup1\n      calldatasize\n      dup4\n      calldatacopy\n      dup1\n      dup3\n      add\n      swap2\n      pop\n      pop\n      swap1\n      pop\n    tag_179:\n      pop\n        /* \"contracts/project/election.sol\":5086:5137  uint[] memory results = new uint[](candidatesCount) */\n      swap1\n      pop\n        /* \"contracts/project/election.sol\":5163:5169  uint i */\n      0x00\n        /* \"contracts/project/election.sol\":5172:5173  1 */\n      0x01\n        /* \"contracts/project/election.sol\":5163:5173  uint i = 1 */\n      swap1\n      pop\n        /* \"contracts/project/election.sol\":5158:5269  for (uint i = 1; i <= candidatesCount; i++) {... */\n    tag_180:\n        /* \"contracts/project/election.sol\":5180:5195  candidatesCount */\n      sload(0x04)\n        /* \"contracts/project/election.sol\":5175:5176  i */\n      dup2\n        /* \"contracts/project/election.sol\":5175:5195  i <= candidatesCount */\n      gt\n        /* \"contracts/project/election.sol\":5158:5269  for (uint i = 1; i <= candidatesCount; i++) {... */\n      tag_181\n      jumpi\n        /* \"contracts/project/election.sol\":5234:5244  candidates */\n      0x01\n        /* \"contracts/project/election.sol\":5234:5247  candidates[i] */\n      0x00\n        /* \"contracts/project/election.sol\":5245:5246  i */\n      dup3\n        /* \"contracts/project/election.sol\":5234:5247  candidates[i] */\n      dup2\n      mstore\n      0x20\n      add\n      swap1\n      dup2\n      mstore\n      0x20\n      add\n      0x00\n      keccak256\n        /* \"contracts/project/election.sol\":5234:5257  candidates[i].voteCount */\n      0x03\n      add\n      sload\n        /* \"contracts/project/election.sol\":5217:5224  results */\n      dup3\n        /* \"contracts/project/election.sol\":5229:5230  1 */\n      0x01\n        /* \"contracts/project/election.sol\":5225:5226  i */\n      dup4\n        /* \"contracts/project/election.sol\":5225:5230  i - 1 */\n      tag_183\n      swap2\n      swap1\n      tag_145\n      jump\t// in\n    tag_183:\n        /* \"contracts/project/election.sol\":5217:5231  results[i - 1] */\n      dup2\n      mload\n      dup2\n      lt\n      tag_184\n      jumpi\n      tag_185\n      tag_148\n      jump\t// in\n    tag_185:\n    tag_184:\n      0x20\n      mul\n      0x20\n      add\n      add\n        /* \"contracts/project/election.sol\":5217:5257  results[i - 1] = candidates[i].voteCount */\n      dup2\n      dup2\n      mstore\n      pop\n      pop\n        /* \"contracts/project/election.sol\":5197:5200  i++ */\n      dup1\n      dup1\n      tag_186\n      swap1\n      tag_112\n      jump\t// in\n    tag_186:\n      swap2\n      pop\n      pop\n        /* \"contracts/project/election.sol\":5158:5269  for (uint i = 1; i <= candidatesCount; i++) {... */\n      jump(tag_180)\n    tag_181:\n      pop\n        /* \"contracts/project/election.sol\":5296:5303  results */\n      dup1\n        /* \"contracts/project/election.sol\":5289:5303  return results */\n      swap2\n      pop\n      pop\n        /* \"contracts/project/election.sol\":5017:5311  function getResults() public view returns (uint[] memory) {... */\n      swap1\n      jump\t// out\n        /* \"contracts/project/election.sol\":7827:7990  function getElectionInfo() public view returns (uint, uint, uint, uint) {... */\n    tag_67:\n        /* \"contracts/project/election.sol\":7875:7879  uint */\n      0x00\n        /* \"contracts/project/election.sol\":7881:7885  uint */\n      0x00\n        /* \"contracts/project/election.sol\":7887:7891  uint */\n      0x00\n        /* \"contracts/project/election.sol\":7893:7897  uint */\n      0x00\n        /* \"contracts/project/election.sol\":7918:7935  electionStartTime */\n      sload(0x06)\n        /* \"contracts/project/election.sol\":7937:7952  electionEndTime */\n      sload(0x07)\n        /* \"contracts/project/election.sol\":7954:7964  totalVotes */\n      sload(0x05)\n        /* \"contracts/project/election.sol\":7966:7981  candidatesCount */\n      sload(0x04)\n        /* \"contracts/project/election.sol\":7910:7982  return (electionStartTime, electionEndTime, totalVotes, candidatesCount) */\n      swap4\n      pop\n      swap4\n      pop\n      swap4\n      pop\n      swap4\n      pop\n        /* \"contracts/project/election.sol\":7827:7990  function getElectionInfo() public view returns (uint, uint, uint, uint) {... */\n      swap1\n      swap2\n      swap3\n      swap4\n      jump\t// out\n        /* \"contracts/project/election.sol\":5547:6218  function getWinner() public view returns (uint winnerId, string memory winnerName, uint winnerVoteCount) {... */\n    tag_71:\n        /* \"contracts/project/election.sol\":5589:5602  uint winnerId */\n      0x00\n        /* \"contracts/project/election.sol\":5604:5628  string memory winnerName */\n      0x60\n        /* \"contracts/project/election.sol\":5630:5650  uint winnerVoteCount */\n      0x00\n        /* \"contracts/project/election.sol\":5684:5685  0 */\n      0x00\n        /* \"contracts/project/election.sol\":5671:5681  totalVotes */\n      sload(0x05)\n        /* \"contracts/project/election.sol\":5671:5685  totalVotes > 0 */\n      gt\n        /* \"contracts/project/election.sol\":5663:5717  require(totalVotes > 0, \"No votes have been cast yet\") */\n      tag_189\n      jumpi\n      mload(0x40)\n      0x08c379a000000000000000000000000000000000000000000000000000000000\n      dup2\n      mstore\n      0x04\n      add\n      tag_190\n      swap1\n      tag_191\n      jump\t// in\n    tag_190:\n      mload(0x40)\n      dup1\n      swap2\n      sub\n      swap1\n      revert\n    tag_189:\n        /* \"contracts/project/election.sol\":5738:5759  uint highestVoteCount */\n      0x00\n        /* \"contracts/project/election.sol\":5762:5763  0 */\n      0x00\n        /* \"contracts/project/election.sol\":5738:5763  uint highestVoteCount = 0 */\n      swap1\n      pop\n        /* \"contracts/project/election.sol\":5774:5797  uint winningCandidateId */\n      0x00\n        /* \"contracts/project/election.sol\":5800:5801  0 */\n      0x00\n        /* \"contracts/project/election.sol\":5774:5801  uint winningCandidateId = 0 */\n      swap1\n      pop\n        /* \"contracts/project/election.sol\":5827:5833  uint i */\n      0x00\n        /* \"contracts/project/election.sol\":5836:5837  1 */\n      0x01\n        /* \"contracts/project/election.sol\":5827:5837  uint i = 1 */\n      swap1\n      pop\n        /* \"contracts/project/election.sol\":5822:6058  for (uint i = 1; i <= candidatesCount; i++) {... */\n    tag_192:\n        /* \"contracts/project/election.sol\":5844:5859  candidatesCount */\n      sload(0x04)\n        /* \"contracts/project/election.sol\":5839:5840  i */\n      dup2\n        /* \"contracts/project/election.sol\":5839:5859  i <= candidatesCount */\n      gt\n        /* \"contracts/project/election.sol\":5822:6058  for (uint i = 1; i <= candidatesCount; i++) {... */\n      tag_193\n      jumpi\n        /* \"contracts/project/election.sol\":5911:5927  highestVoteCount */\n      dup3\n        /* \"contracts/project/election.sol\":5885:5895  candidates */\n      0x01\n        /* \"contracts/project/election.sol\":5885:5898  candidates[i] */\n      0x00\n        /* \"contracts/project/election.sol\":5896:5897  i */\n      dup4\n        /* \"contracts/project/election.sol\":5885:5898  candidates[i] */\n      dup2\n      mstore\n      0x20\n      add\n      swap1\n      dup2\n      mstore\n      0x20\n      add\n      0x00\n      keccak256\n        /* \"contracts/project/election.sol\":5885:5908  candidates[i].voteCount */\n      0x03\n      add\n      sload\n        /* \"contracts/project/election.sol\":5885:5927  candidates[i].voteCount > highestVoteCount */\n      gt\n        /* \"contracts/project/election.sol\":5881:6047  if (candidates[i].voteCount > highestVoteCount) {... */\n      iszero\n      tag_195\n      jumpi\n        /* \"contracts/project/election.sol\":5967:5977  candidates */\n      0x01\n        /* \"contracts/project/election.sol\":5967:5980  candidates[i] */\n      0x00\n        /* \"contracts/project/election.sol\":5978:5979  i */\n      dup3\n        /* \"contracts/project/election.sol\":5967:5980  candidates[i] */\n      dup2\n      mstore\n      0x20\n      add\n      swap1\n      dup2\n      mstore\n      0x20\n      add\n      0x00\n      keccak256\n        /* \"contracts/project/election.sol\":5967:5990  candidates[i].voteCount */\n      0x03\n      add\n      sload\n        /* \"contracts/project/election.sol\":5948:5990  highestVoteCount = candidates[i].voteCount */\n      swap3\n      pop\n        /* \"contracts/project/election.sol\":6030:6031  i */\n      dup1\n        /* \"contracts/project/election.sol\":6009:6031  winningCandidateId = i */\n      swap2\n      pop\n        /* \"contracts/project/election.sol\":5881:6047  if (candidates[i].voteCount > highestVoteCount) {... */\n    tag_195:\n        /* \"contracts/project/election.sol\":5861:5864  i++ */\n      dup1\n      dup1\n      tag_196\n      swap1\n      tag_112\n      jump\t// in\n    tag_196:\n      swap2\n      pop\n      pop\n        /* \"contracts/project/election.sol\":5822:6058  for (uint i = 1; i <= candidatesCount; i++) {... */\n      jump(tag_192)\n    tag_193:\n      pop\n        /* \"contracts/project/election.sol\":6100:6118  winningCandidateId */\n      dup1\n        /* \"contracts/project/election.sol\":6133:6143  candidates */\n      0x01\n        /* \"contracts/project/election.sol\":6133:6163  candidates[winningCandidateId] */\n      0x00\n        /* \"contracts/project/election.sol\":6144:6162  winningCandidateId */\n      dup4\n        /* \"contracts/project/election.sol\":6133:6163  candidates[winningCandidateId] */\n      dup2\n      mstore\n      0x20\n      add\n      swap1\n      dup2\n      mstore\n      0x20\n      add\n      0x00\n      keccak256\n        /* \"contracts/project/election.sol\":6133:6168  candidates[winningCandidateId].name */\n      0x01\n      add\n        /* \"contracts/project/election.sol\":6183:6199  highestVoteCount */\n      dup4\n        /* \"contracts/project/election.sol\":6078:6210  return (... */\n      dup2\n      dup1\n      sload\n      tag_197\n      swap1\n      tag_134\n      jump\t// in\n    tag_197:\n      dup1\n      0x1f\n      add\n      0x20\n      dup1\n      swap2\n      div\n      mul\n      0x20\n      add\n      mload(0x40)\n      swap1\n      dup2\n      add\n      0x40\n      mstore\n      dup1\n      swap3\n      swap2\n      swap1\n      dup2\n      dup2\n      mstore\n      0x20\n      add\n      dup3\n      dup1\n      sload\n      tag_198\n      swap1\n      tag_134\n      jump\t// in\n    tag_198:\n      dup1\n      iszero\n      tag_199\n      jumpi\n      dup1\n      0x1f\n      lt\n      tag_200\n      jumpi\n      0x0100\n      dup1\n      dup4\n      sload\n      div\n      mul\n      dup4\n      mstore\n      swap2\n      0x20\n      add\n      swap2\n      jump(tag_199)\n    tag_200:\n      dup3\n      add\n      swap2\n      swap1\n      0x00\n      mstore\n      keccak256(0x00, 0x20)\n      swap1\n    tag_201:\n      dup2\n      sload\n      dup2\n      mstore\n      swap1\n      0x01\n      add\n      swap1\n      0x20\n      add\n      dup1\n      dup4\n      gt\n      tag_201\n      jumpi\n      dup3\n      swap1\n      sub\n      0x1f\n      and\n      dup3\n      add\n      swap2\n    tag_199:\n      pop\n      pop\n      pop\n      pop\n      pop\n      swap2\n      pop\n      swap5\n      pop\n      swap5\n      pop\n      swap5\n      pop\n      pop\n      pop\n        /* \"contracts/project/election.sol\":5547:6218  function getWinner() public view returns (uint winnerId, string memory winnerName, uint winnerVoteCount) {... */\n      swap1\n      swap2\n      swap3\n      jump\t// out\n        /* \"contracts/project/election.sol\":851:878  uint public electionEndTime */\n    tag_75:\n      sload(0x07)\n      dup2\n      jump\t// out\n        /* \"contracts/project/election.sol\":696:739  mapping(address => uint) public voterChoice */\n    tag_79:\n      mstore(0x20, 0x03)\n      dup1\n      0x00\n      mstore\n      keccak256(0x00, 0x40)\n      0x00\n      swap2\n      pop\n      swap1\n      pop\n      sload\n      dup2\n      jump\t// out\n        /* \"contracts/project/election.sol\":815:844  uint public electionStartTime */\n    tag_82:\n      sload(0x06)\n      dup2\n      jump\t// out\n        /* \"contracts/project/election.sol\":6799:7101  function getTimeRemaining() public view returns (uint) {... */\n    tag_85:\n        /* \"contracts/project/election.sol\":6848:6852  uint */\n      0x00\n        /* \"contracts/project/election.sol\":6887:6904  electionStartTime */\n      sload(0x06)\n        /* \"contracts/project/election.sol\":6869:6884  block.timestamp */\n      timestamp\n        /* \"contracts/project/election.sol\":6869:6904  block.timestamp < electionStartTime */\n      lt\n        /* \"contracts/project/election.sol\":6865:7094  if (block.timestamp < electionStartTime) {... */\n      iszero\n      tag_203\n      jumpi\n        /* \"contracts/project/election.sol\":6928:6929  0 */\n      0x00\n        /* \"contracts/project/election.sol\":6921:6929  return 0 */\n      swap1\n      pop\n      jump(tag_202)\n        /* \"contracts/project/election.sol\":6865:7094  if (block.timestamp < electionStartTime) {... */\n    tag_203:\n        /* \"contracts/project/election.sol\":6969:6984  electionEndTime */\n      sload(0x07)\n        /* \"contracts/project/election.sol\":6951:6966  block.timestamp */\n      timestamp\n        /* \"contracts/project/election.sol\":6951:6984  block.timestamp > electionEndTime */\n      gt\n        /* \"contracts/project/election.sol\":6947:7094  if (block.timestamp > electionEndTime) {... */\n      iszero\n      tag_205\n      jumpi\n        /* \"contracts/project/election.sol\":7008:7009  0 */\n      0x00\n        /* \"contracts/project/election.sol\":7001:7009  return 0 */\n      swap1\n      pop\n      jump(tag_202)\n        /* \"contracts/project/election.sol\":6947:7094  if (block.timestamp > electionEndTime) {... */\n    tag_205:\n        /* \"contracts/project/election.sol\":7067:7082  block.timestamp */\n      timestamp\n        /* \"contracts/project/election.sol\":7049:7064  electionEndTime */\n      sload(0x07)\n        /* \"contracts/project/election.sol\":7049:7082  electionEndTime - block.timestamp */\n      tag_207\n      swap2\n      swap1\n      tag_145\n      jump\t// in\n    tag_207:\n        /* \"contracts/project/election.sol\":7042:7082  return electionEndTime - block.timestamp */\n      swap1\n      pop\n        /* \"contracts/project/election.sol\":6799:7101  function getTimeRemaining() public view returns (uint) {... */\n    tag_202:\n      swap1\n      jump\t// out\n        /* \"contracts/project/election.sol\":7270:7380  function hasAddressVoted(address _voter) public view returns (bool) {... */\n    tag_89:\n        /* \"contracts/project/election.sol\":7332:7336  bool */\n      0x00\n        /* \"contracts/project/election.sol\":7356:7364  hasVoted */\n      0x02\n        /* \"contracts/project/election.sol\":7356:7372  hasVoted[_voter] */\n      0x00\n        /* \"contracts/project/election.sol\":7365:7371  _voter */\n      dup4\n        /* \"contracts/project/election.sol\":7356:7372  hasVoted[_voter] */\n      0xffffffffffffffffffffffffffffffffffffffff\n      and\n      0xffffffffffffffffffffffffffffffffffffffff\n      and\n      dup2\n      mstore\n      0x20\n      add\n      swap1\n      dup2\n      mstore\n      0x20\n      add\n      0x00\n      keccak256\n      0x00\n      swap1\n      sload\n      swap1\n      0x0100\n      exp\n      swap1\n      div\n      0xff\n      and\n        /* \"contracts/project/election.sol\":7349:7372  return hasVoted[_voter] */\n      swap1\n      pop\n        /* \"contracts/project/election.sol\":7270:7380  function hasAddressVoted(address _voter) public view returns (bool) {... */\n      swap2\n      swap1\n      pop\n      jump\t// out\n        /* \"@openzeppelin/contracts/security/ReentrancyGuard.sol\":2336:2623  function _nonReentrantBefore() private {... */\n    tag_93:\n        /* \"@openzeppelin/contracts/security/ReentrancyGuard.sol\":1759:1760  2 */\n      0x02\n        /* \"@openzeppelin/contracts/security/ReentrancyGuard.sol\":2468:2475  _status */\n      sload(0x00)\n        /* \"@openzeppelin/contracts/security/ReentrancyGuard.sol\":2468:2487  _status != _ENTERED */\n      sub\n        /* \"@openzeppelin/contracts/security/ReentrancyGuard.sol\":2460:2523  require(_status != _ENTERED, \"ReentrancyGuard: reentrant call\") */\n      tag_210\n      jumpi\n      mload(0x40)\n      0x08c379a000000000000000000000000000000000000000000000000000000000\n      dup2\n      mstore\n      0x04\n      add\n      tag_211\n      swap1\n      tag_212\n      jump\t// in\n    tag_211:\n      mload(0x40)\n      dup1\n      swap2\n      sub\n      swap1\n      revert\n    tag_210:\n        /* \"@openzeppelin/contracts/security/ReentrancyGuard.sol\":1759:1760  2 */\n      0x02\n        /* \"@openzeppelin/contracts/security/ReentrancyGuard.sol\":2598:2605  _status */\n      0x00\n        /* \"@openzeppelin/contracts/security/ReentrancyGuard.sol\":2598:2616  _status = _ENTERED */\n      dup2\n      swap1\n      sstore\n      pop\n        /* \"@openzeppelin/contracts/security/ReentrancyGuard.sol\":2336:2623  function _nonReentrantBefore() private {... */\n      jump\t// out\n        /* \"@openzeppelin/contracts/security/ReentrancyGuard.sol\":2629:2838  function _nonReentrantAfter() private {... */\n    tag_116:\n        /* \"@openzeppelin/contracts/security/ReentrancyGuard.sol\":1716:1717  1 */\n      0x01\n        /* \"@openzeppelin/contracts/security/ReentrancyGuard.sol\":2809:2816  _status */\n      0x00\n        /* \"@openzeppelin/contracts/security/ReentrancyGuard.sol\":2809:2831  _status = _NOT_ENTERED */\n      dup2\n      swap1\n      sstore\n      pop\n        /* \"@openzeppelin/contracts/security/ReentrancyGuard.sol\":2629:2838  function _nonReentrantAfter() private {... */\n      jump\t// out\n    tag_129:\n      mload(0x40)\n      dup1\n      0x80\n      add\n      0x40\n      mstore\n      dup1\n      0x00\n      dup2\n      mstore\n      0x20\n      add\n      0x60\n      dup2\n      mstore\n      0x20\n      add\n      0x60\n      dup2\n      mstore\n      0x20\n      add\n      0x00\n      dup2\n      mstore\n      pop\n      swap1\n      jump\t// out\n        /* \"#utility.yul\":88:205   */\n    tag_215:\n        /* \"#utility.yul\":197:198   */\n      0x00\n        /* \"#utility.yul\":194:195   */\n      0x00\n        /* \"#utility.yul\":187:199   */\n      revert\n        /* \"#utility.yul\":334:411   */\n    tag_217:\n        /* \"#utility.yul\":371:378   */\n      0x00\n        /* \"#utility.yul\":400:405   */\n      dup2\n        /* \"#utility.yul\":389:405   */\n      swap1\n      pop\n        /* \"#utility.yul\":334:411   */\n      swap2\n      swap1\n      pop\n      jump\t// out\n        /* \"#utility.yul\":417:539   */\n    tag_218:\n        /* \"#utility.yul\":490:514   */\n      tag_270\n        /* \"#utility.yul\":508:513   */\n      dup2\n        /* \"#utility.yul\":490:514   */\n      tag_217\n      jump\t// in\n    tag_270:\n        /* \"#utility.yul\":483:488   */\n      dup2\n        /* \"#utility.yul\":480:515   */\n      eq\n        /* \"#utility.yul\":470:533   */\n      tag_271\n      jumpi\n        /* \"#utility.yul\":529:530   */\n      0x00\n        /* \"#utility.yul\":526:527   */\n      0x00\n        /* \"#utility.yul\":519:531   */\n      revert\n        /* \"#utility.yul\":470:533   */\n    tag_271:\n        /* \"#utility.yul\":417:539   */\n      pop\n      jump\t// out\n        /* \"#utility.yul\":545:684   */\n    tag_219:\n        /* \"#utility.yul\":591:596   */\n      0x00\n        /* \"#utility.yul\":629:635   */\n      dup2\n        /* \"#utility.yul\":616:636   */\n      calldataload\n        /* \"#utility.yul\":607:636   */\n      swap1\n      pop\n        /* \"#utility.yul\":645:678   */\n      tag_273\n        /* \"#utility.yul\":672:677   */\n      dup2\n        /* \"#utility.yul\":645:678   */\n      tag_218\n      jump\t// in\n    tag_273:\n        /* \"#utility.yul\":545:684   */\n      swap3\n      swap2\n      pop\n      pop\n      jump\t// out\n        /* \"#utility.yul\":690:1019   */\n    tag_25:\n        /* \"#utility.yul\":749:755   */\n      0x00\n        /* \"#utility.yul\":798:800   */\n      0x20\n        /* \"#utility.yul\":786:795   */\n      dup3\n        /* \"#utility.yul\":777:784   */\n      dup5\n        /* \"#utility.yul\":773:796   */\n      sub\n        /* \"#utility.yul\":769:801   */\n      slt\n        /* \"#utility.yul\":766:885   */\n      iszero\n      tag_275\n      jumpi\n        /* \"#utility.yul\":804:883   */\n      tag_276\n      tag_215\n      jump\t// in\n    tag_276:\n        /* \"#utility.yul\":766:885   */\n    tag_275:\n        /* \"#utility.yul\":924:925   */\n      0x00\n        /* \"#utility.yul\":949:1002   */\n      tag_277\n        /* \"#utility.yul\":994:1001   */\n      dup5\n        /* \"#utility.yul\":985:991   */\n      dup3\n        /* \"#utility.yul\":974:983   */\n      dup6\n        /* \"#utility.yul\":970:992   */\n      add\n        /* \"#utility.yul\":949:1002   */\n      tag_219\n      jump\t// in\n    tag_277:\n        /* \"#utility.yul\":939:1002   */\n      swap2\n      pop\n        /* \"#utility.yul\":895:1012   */\n      pop\n        /* \"#utility.yul\":690:1019   */\n      swap3\n      swap2\n      pop\n      pop\n      jump\t// out\n        /* \"#utility.yul\":1025:1151   */\n    tag_220:\n        /* \"#utility.yul\":1062:1069   */\n      0x00\n        /* \"#utility.yul\":1102:1144   */\n      0xffffffffffffffffffffffffffffffffffffffff\n        /* \"#utility.yul\":1095:1100   */\n      dup3\n        /* \"#utility.yul\":1091:1145   */\n      and\n        /* \"#utility.yul\":1080:1145   */\n      swap1\n      pop\n        /* \"#utility.yul\":1025:1151   */\n      swap2\n      swap1\n      pop\n      jump\t// out\n        /* \"#utility.yul\":1157:1253   */\n    tag_221:\n        /* \"#utility.yul\":1194:1201   */\n      0x00\n        /* \"#utility.yul\":1223:1247   */\n      tag_280\n        /* \"#utility.yul\":1241:1246   */\n      dup3\n        /* \"#utility.yul\":1223:1247   */\n      tag_220\n      jump\t// in\n    tag_280:\n        /* \"#utility.yul\":1212:1247   */\n      swap1\n      pop\n        /* \"#utility.yul\":1157:1253   */\n      swap2\n      swap1\n      pop\n      jump\t// out\n        /* \"#utility.yul\":1259:1381   */\n    tag_222:\n        /* \"#utility.yul\":1332:1356   */\n      tag_282\n        /* \"#utility.yul\":1350:1355   */\n      dup2\n        /* \"#utility.yul\":1332:1356   */\n      tag_221\n      jump\t// in\n    tag_282:\n        /* \"#utility.yul\":1325:1330   */\n      dup2\n        /* \"#utility.yul\":1322:1357   */\n      eq\n        /* \"#utility.yul\":1312:1375   */\n      tag_283\n      jumpi\n        /* \"#utility.yul\":1371:1372   */\n      0x00\n        /* \"#utility.yul\":1368:1369   */\n      0x00\n        /* \"#utility.yul\":1361:1373   */\n      revert\n        /* \"#utility.yul\":1312:1375   */\n    tag_283:\n        /* \"#utility.yul\":1259:1381   */\n      pop\n      jump\t// out\n        /* \"#utility.yul\":1387:1526   */\n    tag_223:\n        /* \"#utility.yul\":1433:1438   */\n      0x00\n        /* \"#utility.yul\":1471:1477   */\n      dup2\n        /* \"#utility.yul\":1458:1478   */\n      calldataload\n        /* \"#utility.yul\":1449:1478   */\n      swap1\n      pop\n        /* \"#utility.yul\":1487:1520   */\n      tag_285\n        /* \"#utility.yul\":1514:1519   */\n      dup2\n        /* \"#utility.yul\":1487:1520   */\n      tag_222\n      jump\t// in\n    tag_285:\n        /* \"#utility.yul\":1387:1526   */\n      swap3\n      swap2\n      pop\n      pop\n      jump\t// out\n        /* \"#utility.yul\":1532:1861   */\n    tag_29:\n        /* \"#utility.yul\":1591:1597   */\n      0x00\n        /* \"#utility.yul\":1640:1642   */\n      0x20\n        /* \"#utility.yul\":1628:1637   */\n      dup3\n        /* \"#utility.yul\":1619:1626   */\n      dup5\n        /* \"#utility.yul\":1615:1638   */\n      sub\n        /* \"#utility.yul\":1611:1643   */\n      slt\n        /* \"#utility.yul\":1608:1727   */\n      iszero\n      tag_287\n      jumpi\n        /* \"#utility.yul\":1646:1725   */\n      tag_288\n      tag_215\n      jump\t// in\n    tag_288:\n        /* \"#utility.yul\":1608:1727   */\n    tag_287:\n        /* \"#utility.yul\":1766:1767   */\n      0x00\n        /* \"#utility.yul\":1791:1844   */\n      tag_289\n        /* \"#utility.yul\":1836:1843   */\n      dup5\n        /* \"#utility.yul\":1827:1833   */\n      dup3\n        /* \"#utility.yul\":1816:1825   */\n      dup6\n        /* \"#utility.yul\":1812:1834   */\n      add\n        /* \"#utility.yul\":1791:1844   */\n      tag_223\n      jump\t// in\n    tag_289:\n        /* \"#utility.yul\":1781:1844   */\n      swap2\n      pop\n        /* \"#utility.yul\":1737:1854   */\n      pop\n        /* \"#utility.yul\":1532:1861   */\n      swap3\n      swap2\n      pop\n      pop\n      jump\t// out\n        /* \"#utility.yul\":1867:1957   */\n    tag_224:\n        /* \"#utility.yul\":1901:1908   */\n      0x00\n        /* \"#utility.yul\":1944:1949   */\n      dup2\n        /* \"#utility.yul\":1937:1950   */\n      iszero\n        /* \"#utility.yul\":1930:1951   */\n      iszero\n        /* \"#utility.yul\":1919:1951   */\n      swap1\n      pop\n        /* \"#utility.yul\":1867:1957   */\n      swap2\n      swap1\n      pop\n      jump\t// out\n        /* \"#utility.yul\":1963:2072   */\n    tag_225:\n        /* \"#utility.yul\":2044:2065   */\n      tag_292\n        /* \"#utility.yul\":2059:2064   */\n      dup2\n        /* \"#utility.yul\":2044:2065   */\n      tag_224\n      jump\t// in\n    tag_292:\n        /* \"#utility.yul\":2039:2042   */\n      dup3\n        /* \"#utility.yul\":2032:2066   */\n      mstore\n        /* \"#utility.yul\":1963:2072   */\n      pop\n      pop\n      jump\t// out\n        /* \"#utility.yul\":2078:2288   */\n    tag_32:\n        /* \"#utility.yul\":2165:2169   */\n      0x00\n        /* \"#utility.yul\":2203:2205   */\n      0x20\n        /* \"#utility.yul\":2192:2201   */\n      dup3\n        /* \"#utility.yul\":2188:2206   */\n      add\n        /* \"#utility.yul\":2180:2206   */\n      swap1\n      pop\n        /* \"#utility.yul\":2216:2281   */\n      tag_294\n        /* \"#utility.yul\":2278:2279   */\n      0x00\n        /* \"#utility.yul\":2267:2276   */\n      dup4\n        /* \"#utility.yul\":2263:2280   */\n      add\n        /* \"#utility.yul\":2254:2260   */\n      dup5\n        /* \"#utility.yul\":2216:2281   */\n      tag_225\n      jump\t// in\n    tag_294:\n        /* \"#utility.yul\":2078:2288   */\n      swap3\n      swap2\n      pop\n      pop\n      jump\t// out\n        /* \"#utility.yul\":2294:2412   */\n    tag_226:\n        /* \"#utility.yul\":2381:2405   */\n      tag_296\n        /* \"#utility.yul\":2399:2404   */\n      dup2\n        /* \"#utility.yul\":2381:2405   */\n      tag_217\n      jump\t// in\n    tag_296:\n        /* \"#utility.yul\":2376:2379   */\n      dup3\n        /* \"#utility.yul\":2369:2406   */\n      mstore\n        /* \"#utility.yul\":2294:2412   */\n      pop\n      pop\n      jump\t// out\n        /* \"#utility.yul\":2418:2640   */\n    tag_36:\n        /* \"#utility.yul\":2511:2515   */\n      0x00\n        /* \"#utility.yul\":2549:2551   */\n      0x20\n        /* \"#utility.yul\":2538:2547   */\n      dup3\n        /* \"#utility.yul\":2534:2552   */\n      add\n        /* \"#utility.yul\":2526:2552   */\n      swap1\n      pop\n        /* \"#utility.yul\":2562:2633   */\n      tag_298\n        /* \"#utility.yul\":2630:2631   */\n      0x00\n        /* \"#utility.yul\":2619:2628   */\n      dup4\n        /* \"#utility.yul\":2615:2632   */\n      add\n        /* \"#utility.yul\":2606:2612   */\n      dup5\n        /* \"#utility.yul\":2562:2633   */\n      tag_226\n      jump\t// in\n    tag_298:\n        /* \"#utility.yul\":2418:2640   */\n      swap3\n      swap2\n      pop\n      pop\n      jump\t// out\n        /* \"#utility.yul\":2646:2745   */\n    tag_227:\n        /* \"#utility.yul\":2698:2704   */\n      0x00\n        /* \"#utility.yul\":2732:2737   */\n      dup2\n        /* \"#utility.yul\":2726:2738   */\n      mload\n        /* \"#utility.yul\":2716:2738   */\n      swap1\n      pop\n        /* \"#utility.yul\":2646:2745   */\n      swap2\n      swap1\n      pop\n      jump\t// out\n        /* \"#utility.yul\":2751:2920   */\n    tag_228:\n        /* \"#utility.yul\":2835:2846   */\n      0x00\n        /* \"#utility.yul\":2869:2875   */\n      dup3\n        /* \"#utility.yul\":2864:2867   */\n      dup3\n        /* \"#utility.yul\":2857:2876   */\n      mstore\n        /* \"#utility.yul\":2909:2913   */\n      0x20\n        /* \"#utility.yul\":2904:2907   */\n      dup3\n        /* \"#utility.yul\":2900:2914   */\n      add\n        /* \"#utility.yul\":2885:2914   */\n      swap1\n      pop\n        /* \"#utility.yul\":2751:2920   */\n      swap3\n      swap2\n      pop\n      pop\n      jump\t// out\n        /* \"#utility.yul\":2926:3065   */\n    tag_229:\n        /* \"#utility.yul\":3015:3021   */\n      dup3\n        /* \"#utility.yul\":3010:3013   */\n      dup2\n        /* \"#utility.yul\":3005:3008   */\n      dup4\n        /* \"#utility.yul\":2999:3022   */\n      mcopy\n        /* \"#utility.yul\":3056:3057   */\n      0x00\n        /* \"#utility.yul\":3047:3053   */\n      dup4\n        /* \"#utility.yul\":3042:3045   */\n      dup4\n        /* \"#utility.yul\":3038:3054   */\n      add\n        /* \"#utility.yul\":3031:3058   */\n      mstore\n        /* \"#utility.yul\":2926:3065   */\n      pop\n      pop\n      pop\n      jump\t// out\n        /* \"#utility.yul\":3071:3173   */\n    tag_230:\n        /* \"#utility.yul\":3112:3118   */\n      0x00\n        /* \"#utility.yul\":3163:3165   */\n      0x1f\n        /* \"#utility.yul\":3159:3166   */\n      not\n        /* \"#utility.yul\":3154:3156   */\n      0x1f\n        /* \"#utility.yul\":3147:3152   */\n      dup4\n        /* \"#utility.yul\":3143:3157   */\n      add\n        /* \"#utility.yul\":3139:3167   */\n      and\n        /* \"#utility.yul\":3129:3167   */\n      swap1\n      pop\n        /* \"#utility.yul\":3071:3173   */\n      swap2\n      swap1\n      pop\n      jump\t// out\n        /* \"#utility.yul\":3179:3556   */\n    tag_231:\n        /* \"#utility.yul\":3267:3270   */\n      0x00\n        /* \"#utility.yul\":3295:3334   */\n      tag_304\n        /* \"#utility.yul\":3328:3333   */\n      dup3\n        /* \"#utility.yul\":3295:3334   */\n      tag_227\n      jump\t// in\n    tag_304:\n        /* \"#utility.yul\":3350:3421   */\n      tag_305\n        /* \"#utility.yul\":3414:3420   */\n      dup2\n        /* \"#utility.yul\":3409:3412   */\n      dup6\n        /* \"#utility.yul\":3350:3421   */\n      tag_228\n      jump\t// in\n    tag_305:\n        /* \"#utility.yul\":3343:3421   */\n      swap4\n      pop\n        /* \"#utility.yul\":3430:3495   */\n      tag_306\n        /* \"#utility.yul\":3488:3494   */\n      dup2\n        /* \"#utility.yul\":3483:3486   */\n      dup6\n        /* \"#utility.yul\":3476:3480   */\n      0x20\n        /* \"#utility.yul\":3469:3474   */\n      dup7\n        /* \"#utility.yul\":3465:3481   */\n      add\n        /* \"#utility.yul\":3430:3495   */\n      tag_229\n      jump\t// in\n    tag_306:\n        /* \"#utility.yul\":3520:3549   */\n      tag_307\n        /* \"#utility.yul\":3542:3548   */\n      dup2\n        /* \"#utility.yul\":3520:3549   */\n      tag_230\n      jump\t// in\n    tag_307:\n        /* \"#utility.yul\":3515:3518   */\n      dup5\n        /* \"#utility.yul\":3511:3550   */\n      add\n        /* \"#utility.yul\":3504:3550   */\n      swap2\n      pop\n        /* \"#utility.yul\":3271:3556   */\n      pop\n        /* \"#utility.yul\":3179:3556   */\n      swap3\n      swap2\n      pop\n      pop\n      jump\t// out\n        /* \"#utility.yul\":3562:3875   */\n    tag_40:\n        /* \"#utility.yul\":3675:3679   */\n      0x00\n        /* \"#utility.yul\":3713:3715   */\n      0x20\n        /* \"#utility.yul\":3702:3711   */\n      dup3\n        /* \"#utility.yul\":3698:3716   */\n      add\n        /* \"#utility.yul\":3690:3716   */\n      swap1\n      pop\n        /* \"#utility.yul\":3762:3771   */\n      dup2\n        /* \"#utility.yul\":3756:3760   */\n      dup2\n        /* \"#utility.yul\":3752:3772   */\n      sub\n        /* \"#utility.yul\":3748:3749   */\n      0x00\n        /* \"#utility.yul\":3737:3746   */\n      dup4\n        /* \"#utility.yul\":3733:3750   */\n      add\n        /* \"#utility.yul\":3726:3773   */\n      mstore\n        /* \"#utility.yul\":3790:3868   */\n      tag_309\n        /* \"#utility.yul\":3863:3867   */\n      dup2\n        /* \"#utility.yul\":3854:3860   */\n      dup5\n        /* \"#utility.yul\":3790:3868   */\n      tag_231\n      jump\t// in\n    tag_309:\n        /* \"#utility.yul\":3782:3868   */\n      swap1\n      pop\n        /* \"#utility.yul\":3562:3875   */\n      swap3\n      swap2\n      pop\n      pop\n      jump\t// out\n        /* \"#utility.yul\":3881:3999   */\n    tag_232:\n        /* \"#utility.yul\":3968:3992   */\n      tag_311\n        /* \"#utility.yul\":3986:3991   */\n      dup2\n        /* \"#utility.yul\":3968:3992   */\n      tag_221\n      jump\t// in\n    tag_311:\n        /* \"#utility.yul\":3963:3966   */\n      dup3\n        /* \"#utility.yul\":3956:3993   */\n      mstore\n        /* \"#utility.yul\":3881:3999   */\n      pop\n      pop\n      jump\t// out\n        /* \"#utility.yul\":4005:4227   */\n    tag_44:\n        /* \"#utility.yul\":4098:4102   */\n      0x00\n        /* \"#utility.yul\":4136:4138   */\n      0x20\n        /* \"#utility.yul\":4125:4134   */\n      dup3\n        /* \"#utility.yul\":4121:4139   */\n      add\n        /* \"#utility.yul\":4113:4139   */\n      swap1\n      pop\n        /* \"#utility.yul\":4149:4220   */\n      tag_313\n        /* \"#utility.yul\":4217:4218   */\n      0x00\n        /* \"#utility.yul\":4206:4215   */\n      dup4\n        /* \"#utility.yul\":4202:4219   */\n      add\n        /* \"#utility.yul\":4193:4199   */\n      dup5\n        /* \"#utility.yul\":4149:4220   */\n      tag_232\n      jump\t// in\n    tag_313:\n        /* \"#utility.yul\":4005:4227   */\n      swap3\n      swap2\n      pop\n      pop\n      jump\t// out\n        /* \"#utility.yul\":4233:4372   */\n    tag_233:\n        /* \"#utility.yul\":4325:4331   */\n      0x00\n        /* \"#utility.yul\":4359:4364   */\n      dup2\n        /* \"#utility.yul\":4353:4365   */\n      mload\n        /* \"#utility.yul\":4343:4365   */\n      swap1\n      pop\n        /* \"#utility.yul\":4233:4372   */\n      swap2\n      swap1\n      pop\n      jump\t// out\n        /* \"#utility.yul\":4378:4587   */\n    tag_234:\n        /* \"#utility.yul\":4502:4513   */\n      0x00\n        /* \"#utility.yul\":4536:4542   */\n      dup3\n        /* \"#utility.yul\":4531:4534   */\n      dup3\n        /* \"#utility.yul\":4524:4543   */\n      mstore\n        /* \"#utility.yul\":4576:4580   */\n      0x20\n        /* \"#utility.yul\":4571:4574   */\n      dup3\n        /* \"#utility.yul\":4567:4581   */\n      add\n        /* \"#utility.yul\":4552:4581   */\n      swap1\n      pop\n        /* \"#utility.yul\":4378:4587   */\n      swap3\n      swap2\n      pop\n      pop\n      jump\t// out\n        /* \"#utility.yul\":4593:4750   */\n    tag_235:\n        /* \"#utility.yul\":4685:4689   */\n      0x00\n        /* \"#utility.yul\":4708:4711   */\n      dup2\n        /* \"#utility.yul\":4700:4711   */\n      swap1\n      pop\n        /* \"#utility.yul\":4738:4742   */\n      0x20\n        /* \"#utility.yul\":4733:4736   */\n      dup3\n        /* \"#utility.yul\":4729:4743   */\n      add\n        /* \"#utility.yul\":4721:4743   */\n      swap1\n      pop\n        /* \"#utility.yul\":4593:4750   */\n      swap2\n      swap1\n      pop\n      jump\t// out\n        /* \"#utility.yul\":4756:4864   */\n    tag_236:\n        /* \"#utility.yul\":4833:4857   */\n      tag_318\n        /* \"#utility.yul\":4851:4856   */\n      dup2\n        /* \"#utility.yul\":4833:4857   */\n      tag_217\n      jump\t// in\n    tag_318:\n        /* \"#utility.yul\":4828:4831   */\n      dup3\n        /* \"#utility.yul\":4821:4858   */\n      mstore\n        /* \"#utility.yul\":4756:4864   */\n      pop\n      pop\n      jump\t// out\n        /* \"#utility.yul\":4870:5029   */\n    tag_237:\n        /* \"#utility.yul\":4944:4955   */\n      0x00\n        /* \"#utility.yul\":4978:4984   */\n      dup3\n        /* \"#utility.yul\":4973:4976   */\n      dup3\n        /* \"#utility.yul\":4966:4985   */\n      mstore\n        /* \"#utility.yul\":5018:5022   */\n      0x20\n        /* \"#utility.yul\":5013:5016   */\n      dup3\n        /* \"#utility.yul\":5009:5023   */\n      add\n        /* \"#utility.yul\":4994:5023   */\n      swap1\n      pop\n        /* \"#utility.yul\":4870:5029   */\n      swap3\n      swap2\n      pop\n      pop\n      jump\t// out\n        /* \"#utility.yul\":5035:5392   */\n    tag_238:\n        /* \"#utility.yul\":5113:5116   */\n      0x00\n        /* \"#utility.yul\":5141:5180   */\n      tag_321\n        /* \"#utility.yul\":5174:5179   */\n      dup3\n        /* \"#utility.yul\":5141:5180   */\n      tag_227\n      jump\t// in\n    tag_321:\n        /* \"#utility.yul\":5196:5257   */\n      tag_322\n        /* \"#utility.yul\":5250:5256   */\n      dup2\n        /* \"#utility.yul\":5245:5248   */\n      dup6\n        /* \"#utility.yul\":5196:5257   */\n      tag_237\n      jump\t// in\n    tag_322:\n        /* \"#utility.yul\":5189:5257   */\n      swap4\n      pop\n        /* \"#utility.yul\":5266:5331   */\n      tag_323\n        /* \"#utility.yul\":5324:5330   */\n      dup2\n        /* \"#utility.yul\":5319:5322   */\n      dup6\n        /* \"#utility.yul\":5312:5316   */\n      0x20\n        /* \"#utility.yul\":5305:5310   */\n      dup7\n        /* \"#utility.yul\":5301:5317   */\n      add\n        /* \"#utility.yul\":5266:5331   */\n      tag_229\n      jump\t// in\n    tag_323:\n        /* \"#utility.yul\":5356:5385   */\n      tag_324\n        /* \"#utility.yul\":5378:5384   */\n      dup2\n        /* \"#utility.yul\":5356:5385   */\n      tag_230\n      jump\t// in\n    tag_324:\n        /* \"#utility.yul\":5351:5354   */\n      dup5\n        /* \"#utility.yul\":5347:5386   */\n      add\n        /* \"#utility.yul\":5340:5386   */\n      swap2\n      pop\n        /* \"#utility.yul\":5117:5392   */\n      pop\n        /* \"#utility.yul\":5035:5392   */\n      swap3\n      swap2\n      pop\n      pop\n      jump\t// out\n        /* \"#utility.yul\":5460:6485   */\n    tag_239:\n        /* \"#utility.yul\":5569:5572   */\n      0x00\n        /* \"#utility.yul\":5605:5609   */\n      0x80\n        /* \"#utility.yul\":5600:5603   */\n      dup4\n        /* \"#utility.yul\":5596:5610   */\n      add\n        /* \"#utility.yul\":5690:5694   */\n      0x00\n        /* \"#utility.yul\":5683:5688   */\n      dup4\n        /* \"#utility.yul\":5679:5695   */\n      add\n        /* \"#utility.yul\":5673:5696   */\n      mload\n        /* \"#utility.yul\":5709:5772   */\n      tag_326\n        /* \"#utility.yul\":5766:5770   */\n      0x00\n        /* \"#utility.yul\":5761:5764   */\n      dup7\n        /* \"#utility.yul\":5757:5771   */\n      add\n        /* \"#utility.yul\":5743:5755   */\n      dup3\n        /* \"#utility.yul\":5709:5772   */\n      tag_236\n      jump\t// in\n    tag_326:\n        /* \"#utility.yul\":5620:5782   */\n      pop\n        /* \"#utility.yul\":5864:5868   */\n      0x20\n        /* \"#utility.yul\":5857:5862   */\n      dup4\n        /* \"#utility.yul\":5853:5869   */\n      add\n        /* \"#utility.yul\":5847:5870   */\n      mload\n        /* \"#utility.yul\":5917:5920   */\n      dup5\n        /* \"#utility.yul\":5911:5915   */\n      dup3\n        /* \"#utility.yul\":5907:5921   */\n      sub\n        /* \"#utility.yul\":5900:5904   */\n      0x20\n        /* \"#utility.yul\":5895:5898   */\n      dup7\n        /* \"#utility.yul\":5891:5905   */\n      add\n        /* \"#utility.yul\":5884:5922   */\n      mstore\n        /* \"#utility.yul\":5943:6016   */\n      tag_327\n        /* \"#utility.yul\":6011:6015   */\n      dup3\n        /* \"#utility.yul\":5997:6009   */\n      dup3\n        /* \"#utility.yul\":5943:6016   */\n      tag_238\n      jump\t// in\n    tag_327:\n        /* \"#utility.yul\":5935:6016   */\n      swap2\n      pop\n        /* \"#utility.yul\":5792:6027   */\n      pop\n        /* \"#utility.yul\":6116:6120   */\n      0x40\n        /* \"#utility.yul\":6109:6114   */\n      dup4\n        /* \"#utility.yul\":6105:6121   */\n      add\n        /* \"#utility.yul\":6099:6122   */\n      mload\n        /* \"#utility.yul\":6169:6172   */\n      dup5\n        /* \"#utility.yul\":6163:6167   */\n      dup3\n        /* \"#utility.yul\":6159:6173   */\n      sub\n        /* \"#utility.yul\":6152:6156   */\n      0x40\n        /* \"#utility.yul\":6147:6150   */\n      dup7\n        /* \"#utility.yul\":6143:6157   */\n      add\n        /* \"#utility.yul\":6136:6174   */\n      mstore\n        /* \"#utility.yul\":6195:6268   */\n      tag_328\n        /* \"#utility.yul\":6263:6267   */\n      dup3\n        /* \"#utility.yul\":6249:6261   */\n      dup3\n        /* \"#utility.yul\":6195:6268   */\n      tag_238\n      jump\t// in\n    tag_328:\n        /* \"#utility.yul\":6187:6268   */\n      swap2\n      pop\n        /* \"#utility.yul\":6037:6279   */\n      pop\n        /* \"#utility.yul\":6366:6370   */\n      0x60\n        /* \"#utility.yul\":6359:6364   */\n      dup4\n        /* \"#utility.yul\":6355:6371   */\n      add\n        /* \"#utility.yul\":6349:6372   */\n      mload\n        /* \"#utility.yul\":6385:6448   */\n      tag_329\n        /* \"#utility.yul\":6442:6446   */\n      0x60\n        /* \"#utility.yul\":6437:6440   */\n      dup7\n        /* \"#utility.yul\":6433:6447   */\n      add\n        /* \"#utility.yul\":6419:6431   */\n      dup3\n        /* \"#utility.yul\":6385:6448   */\n      tag_236\n      jump\t// in\n    tag_329:\n        /* \"#utility.yul\":6289:6458   */\n      pop\n        /* \"#utility.yul\":6475:6479   */\n      dup1\n        /* \"#utility.yul\":6468:6479   */\n      swap2\n      pop\n        /* \"#utility.yul\":5574:6485   */\n      pop\n        /* \"#utility.yul\":5460:6485   */\n      swap3\n      swap2\n      pop\n      pop\n      jump\t// out\n        /* \"#utility.yul\":6491:6747   */\n    tag_240:\n        /* \"#utility.yul\":6610:6620   */\n      0x00\n        /* \"#utility.yul\":6645:6741   */\n      tag_331\n        /* \"#utility.yul\":6737:6740   */\n      dup4\n        /* \"#utility.yul\":6729:6735   */\n      dup4\n        /* \"#utility.yul\":6645:6741   */\n      tag_239\n      jump\t// in\n    tag_331:\n        /* \"#utility.yul\":6631:6741   */\n      swap1\n      pop\n        /* \"#utility.yul\":6491:6747   */\n      swap3\n      swap2\n      pop\n      pop\n      jump\t// out\n        /* \"#utility.yul\":6753:6891   */\n    tag_241:\n        /* \"#utility.yul\":6848:6852   */\n      0x00\n        /* \"#utility.yul\":6880:6884   */\n      0x20\n        /* \"#utility.yul\":6875:6878   */\n      dup3\n        /* \"#utility.yul\":6871:6885   */\n      add\n        /* \"#utility.yul\":6863:6885   */\n      swap1\n      pop\n        /* \"#utility.yul\":6753:6891   */\n      swap2\n      swap1\n      pop\n      jump\t// out\n        /* \"#utility.yul\":6963:8074   */\n    tag_242:\n        /* \"#utility.yul\":7132:7135   */\n      0x00\n        /* \"#utility.yul\":7161:7240   */\n      tag_334\n        /* \"#utility.yul\":7234:7239   */\n      dup3\n        /* \"#utility.yul\":7161:7240   */\n      tag_233\n      jump\t// in\n    tag_334:\n        /* \"#utility.yul\":7256:7367   */\n      tag_335\n        /* \"#utility.yul\":7360:7366   */\n      dup2\n        /* \"#utility.yul\":7355:7358   */\n      dup6\n        /* \"#utility.yul\":7256:7367   */\n      tag_234\n      jump\t// in\n    tag_335:\n        /* \"#utility.yul\":7249:7367   */\n      swap4\n      pop\n        /* \"#utility.yul\":7393:7396   */\n      dup4\n        /* \"#utility.yul\":7438:7442   */\n      0x20\n        /* \"#utility.yul\":7430:7436   */\n      dup3\n        /* \"#utility.yul\":7426:7443   */\n      mul\n        /* \"#utility.yul\":7421:7424   */\n      dup6\n        /* \"#utility.yul\":7417:7444   */\n      add\n        /* \"#utility.yul\":7468:7549   */\n      tag_336\n        /* \"#utility.yul\":7543:7548   */\n      dup6\n        /* \"#utility.yul\":7468:7549   */\n      tag_235\n      jump\t// in\n    tag_336:\n        /* \"#utility.yul\":7572:7579   */\n      dup1\n        /* \"#utility.yul\":7603:7604   */\n      0x00\n        /* \"#utility.yul\":7588:8029   */\n    tag_337:\n        /* \"#utility.yul\":7613:7619   */\n      dup6\n        /* \"#utility.yul\":7610:7611   */\n      dup2\n        /* \"#utility.yul\":7607:7620   */\n      lt\n        /* \"#utility.yul\":7588:8029   */\n      iszero\n      tag_339\n      jumpi\n        /* \"#utility.yul\":7684:7693   */\n      dup5\n        /* \"#utility.yul\":7678:7682   */\n      dup5\n        /* \"#utility.yul\":7674:7694   */\n      sub\n        /* \"#utility.yul\":7669:7672   */\n      dup10\n        /* \"#utility.yul\":7662:7695   */\n      mstore\n        /* \"#utility.yul\":7735:7741   */\n      dup2\n        /* \"#utility.yul\":7729:7742   */\n      mload\n        /* \"#utility.yul\":7763:7877   */\n      tag_340\n        /* \"#utility.yul\":7872:7876   */\n      dup6\n        /* \"#utility.yul\":7857:7870   */\n      dup3\n        /* \"#utility.yul\":7763:7877   */\n      tag_240\n      jump\t// in\n    tag_340:\n        /* \"#utility.yul\":7755:7877   */\n      swap5\n      pop\n        /* \"#utility.yul\":7900:7985   */\n      tag_341\n        /* \"#utility.yul\":7978:7984   */\n      dup4\n        /* \"#utility.yul\":7900:7985   */\n      tag_241\n      jump\t// in\n    tag_341:\n        /* \"#utility.yul\":7890:7985   */\n      swap3\n      pop\n        /* \"#utility.yul\":8014:8018   */\n      0x20\n        /* \"#utility.yul\":8009:8012   */\n      dup11\n        /* \"#utility.yul\":8005:8019   */\n      add\n        /* \"#utility.yul\":7998:8019   */\n      swap10\n      pop\n        /* \"#utility.yul\":7648:8029   */\n      pop\n        /* \"#utility.yul\":7635:7636   */\n      0x01\n        /* \"#utility.yul\":7632:7633   */\n      dup2\n        /* \"#utility.yul\":7628:7637   */\n      add\n        /* \"#utility.yul\":7623:7637   */\n      swap1\n      pop\n        /* \"#utility.yul\":7588:8029   */\n      jump(tag_337)\n    tag_339:\n        /* \"#utility.yul\":7592:7606   */\n      pop\n        /* \"#utility.yul\":8045:8049   */\n      dup3\n        /* \"#utility.yul\":8038:8049   */\n      swap8\n      pop\n        /* \"#utility.yul\":8065:8068   */\n      dup8\n        /* \"#utility.yul\":8058:8068   */\n      swap6\n      pop\n        /* \"#utility.yul\":7137:8074   */\n      pop\n      pop\n      pop\n      pop\n      pop\n        /* \"#utility.yul\":6963:8074   */\n      swap3\n      swap2\n      pop\n      pop\n      jump\t// out\n        /* \"#utility.yul\":8080:8553   */\n    tag_51:\n        /* \"#utility.yul\":8273:8277   */\n      0x00\n        /* \"#utility.yul\":8311:8313   */\n      0x20\n        /* \"#utility.yul\":8300:8309   */\n      dup3\n        /* \"#utility.yul\":8296:8314   */\n      add\n        /* \"#utility.yul\":8288:8314   */\n      swap1\n      pop\n        /* \"#utility.yul\":8360:8369   */\n      dup2\n        /* \"#utility.yul\":8354:8358   */\n      dup2\n        /* \"#utility.yul\":8350:8370   */\n      sub\n        /* \"#utility.yul\":8346:8347   */\n      0x00\n        /* \"#utility.yul\":8335:8344   */\n      dup4\n        /* \"#utility.yul\":8331:8348   */\n      add\n        /* \"#utility.yul\":8324:8371   */\n      mstore\n        /* \"#utility.yul\":8388:8546   */\n      tag_343\n        /* \"#utility.yul\":8541:8545   */\n      dup2\n        /* \"#utility.yul\":8532:8538   */\n      dup5\n        /* \"#utility.yul\":8388:8546   */\n      tag_242\n      jump\t// in\n    tag_343:\n        /* \"#utility.yul\":8380:8546   */\n      swap1\n      pop\n        /* \"#utility.yul\":8080:8553   */\n      swap3\n      swap2\n      pop\n      pop\n      jump\t// out\n        /* \"#utility.yul\":8559:9294   */\n    tag_56:\n        /* \"#utility.yul\":8776:8780   */\n      0x00\n        /* \"#utility.yul\":8814:8817   */\n      0x80\n        /* \"#utility.yul\":8803:8812   */\n      dup3\n        /* \"#utility.yul\":8799:8818   */\n      add\n        /* \"#utility.yul\":8791:8818   */\n      swap1\n      pop\n        /* \"#utility.yul\":8828:8899   */\n      tag_345\n        /* \"#utility.yul\":8896:8897   */\n      0x00\n        /* \"#utility.yul\":8885:8894   */\n      dup4\n        /* \"#utility.yul\":8881:8898   */\n      add\n        /* \"#utility.yul\":8872:8878   */\n      dup8\n        /* \"#utility.yul\":8828:8899   */\n      tag_226\n      jump\t// in\n    tag_345:\n        /* \"#utility.yul\":8946:8955   */\n      dup2\n        /* \"#utility.yul\":8940:8944   */\n      dup2\n        /* \"#utility.yul\":8936:8956   */\n      sub\n        /* \"#utility.yul\":8931:8933   */\n      0x20\n        /* \"#utility.yul\":8920:8929   */\n      dup4\n        /* \"#utility.yul\":8916:8934   */\n      add\n        /* \"#utility.yul\":8909:8957   */\n      mstore\n        /* \"#utility.yul\":8974:9052   */\n      tag_346\n        /* \"#utility.yul\":9047:9051   */\n      dup2\n        /* \"#utility.yul\":9038:9044   */\n      dup7\n        /* \"#utility.yul\":8974:9052   */\n      tag_231\n      jump\t// in\n    tag_346:\n        /* \"#utility.yul\":8966:9052   */\n      swap1\n      pop\n        /* \"#utility.yul\":9099:9108   */\n      dup2\n        /* \"#utility.yul\":9093:9097   */\n      dup2\n        /* \"#utility.yul\":9089:9109   */\n      sub\n        /* \"#utility.yul\":9084:9086   */\n      0x40\n        /* \"#utility.yul\":9073:9082   */\n      dup4\n        /* \"#utility.yul\":9069:9087   */\n      add\n        /* \"#utility.yul\":9062:9110   */\n      mstore\n        /* \"#utility.yul\":9127:9205   */\n      tag_347\n        /* \"#utility.yul\":9200:9204   */\n      dup2\n        /* \"#utility.yul\":9191:9197   */\n      dup6\n        /* \"#utility.yul\":9127:9205   */\n      tag_231\n      jump\t// in\n    tag_347:\n        /* \"#utility.yul\":9119:9205   */\n      swap1\n      pop\n        /* \"#utility.yul\":9215:9287   */\n      tag_348\n        /* \"#utility.yul\":9283:9285   */\n      0x60\n        /* \"#utility.yul\":9272:9281   */\n      dup4\n        /* \"#utility.yul\":9268:9286   */\n      add\n        /* \"#utility.yul\":9259:9265   */\n      dup5\n        /* \"#utility.yul\":9215:9287   */\n      tag_226\n      jump\t// in\n    tag_348:\n        /* \"#utility.yul\":8559:9294   */\n      swap6\n      swap5\n      pop\n      pop\n      pop\n      pop\n      pop\n      jump\t// out\n        /* \"#utility.yul\":9362:10397   */\n    tag_243:\n        /* \"#utility.yul\":9481:9484   */\n      0x00\n        /* \"#utility.yul\":9517:9521   */\n      0x80\n        /* \"#utility.yul\":9512:9515   */\n      dup4\n        /* \"#utility.yul\":9508:9522   */\n      add\n        /* \"#utility.yul\":9602:9606   */\n      0x00\n        /* \"#utility.yul\":9595:9600   */\n      dup4\n        /* \"#utility.yul\":9591:9607   */\n      add\n        /* \"#utility.yul\":9585:9608   */\n      mload\n        /* \"#utility.yul\":9621:9684   */\n      tag_350\n        /* \"#utility.yul\":9678:9682   */\n      0x00\n        /* \"#utility.yul\":9673:9676   */\n      dup7\n        /* \"#utility.yul\":9669:9683   */\n      add\n        /* \"#utility.yul\":9655:9667   */\n      dup3\n        /* \"#utility.yul\":9621:9684   */\n      tag_236\n      jump\t// in\n    tag_350:\n        /* \"#utility.yul\":9532:9694   */\n      pop\n        /* \"#utility.yul\":9776:9780   */\n      0x20\n        /* \"#utility.yul\":9769:9774   */\n      dup4\n        /* \"#utility.yul\":9765:9781   */\n      add\n        /* \"#utility.yul\":9759:9782   */\n      mload\n        /* \"#utility.yul\":9829:9832   */\n      dup5\n        /* \"#utility.yul\":9823:9827   */\n      dup3\n        /* \"#utility.yul\":9819:9833   */\n      sub\n        /* \"#utility.yul\":9812:9816   */\n      0x20\n        /* \"#utility.yul\":9807:9810   */\n      dup7\n        /* \"#utility.yul\":9803:9817   */\n      add\n        /* \"#utility.yul\":9796:9834   */\n      mstore\n        /* \"#utility.yul\":9855:9928   */\n      tag_351\n        /* \"#utility.yul\":9923:9927   */\n      dup3\n        /* \"#utility.yul\":9909:9921   */\n      dup3\n        /* \"#utility.yul\":9855:9928   */\n      tag_238\n      jump\t// in\n    tag_351:\n        /* \"#utility.yul\":9847:9928   */\n      swap2\n      pop\n        /* \"#utility.yul\":9704:9939   */\n      pop\n        /* \"#utility.yul\":10028:10032   */\n      0x40\n        /* \"#utility.yul\":10021:10026   */\n      dup4\n        /* \"#utility.yul\":10017:10033   */\n      add\n        /* \"#utility.yul\":10011:10034   */\n      mload\n        /* \"#utility.yul\":10081:10084   */\n      dup5\n        /* \"#utility.yul\":10075:10079   */\n      dup3\n        /* \"#utility.yul\":10071:10085   */\n      sub\n        /* \"#utility.yul\":10064:10068   */\n      0x40\n        /* \"#utility.yul\":10059:10062   */\n      dup7\n        /* \"#utility.yul\":10055:10069   */\n      add\n        /* \"#utility.yul\":10048:10086   */\n      mstore\n        /* \"#utility.yul\":10107:10180   */\n      tag_352\n        /* \"#utility.yul\":10175:10179   */\n      dup3\n        /* \"#utility.yul\":10161:10173   */\n      dup3\n        /* \"#utility.yul\":10107:10180   */\n      tag_238\n      jump\t// in\n    tag_352:\n        /* \"#utility.yul\":10099:10180   */\n      swap2\n      pop\n        /* \"#utility.yul\":9949:10191   */\n      pop\n        /* \"#utility.yul\":10278:10282   */\n      0x60\n        /* \"#utility.yul\":10271:10276   */\n      dup4\n        /* \"#utility.yul\":10267:10283   */\n      add\n        /* \"#utility.yul\":10261:10284   */\n      mload\n        /* \"#utility.yul\":10297:10360   */\n      tag_353\n        /* \"#utility.yul\":10354:10358   */\n      0x60\n        /* \"#utility.yul\":10349:10352   */\n      dup7\n        /* \"#utility.yul\":10345:10359   */\n      add\n        /* \"#utility.yul\":10331:10343   */\n      dup3\n        /* \"#utility.yul\":10297:10360   */\n      tag_236\n      jump\t// in\n    tag_353:\n        /* \"#utility.yul\":10201:10370   */\n      pop\n        /* \"#utility.yul\":10387:10391   */\n      dup1\n        /* \"#utility.yul\":10380:10391   */\n      swap2\n      pop\n        /* \"#utility.yul\":9486:10397   */\n      pop\n        /* \"#utility.yul\":9362:10397   */\n      swap3\n      swap2\n      pop\n      pop\n      jump\t// out\n        /* \"#utility.yul\":10403:10776   */\n    tag_61:\n        /* \"#utility.yul\":10546:10550   */\n      0x00\n        /* \"#utility.yul\":10584:10586   */\n      0x20\n        /* \"#utility.yul\":10573:10582   */\n      dup3\n        /* \"#utility.yul\":10569:10587   */\n      add\n        /* \"#utility.yul\":10561:10587   */\n      swap1\n      pop\n        /* \"#utility.yul\":10633:10642   */\n      dup2\n        /* \"#utility.yul\":10627:10631   */\n      dup2\n        /* \"#utility.yul\":10623:10643   */\n      sub\n        /* \"#utility.yul\":10619:10620   */\n      0x00\n        /* \"#utility.yul\":10608:10617   */\n      dup4\n        /* \"#utility.yul\":10604:10621   */\n      add\n        /* \"#utility.yul\":10597:10644   */\n      mstore\n        /* \"#utility.yul\":10661:10769   */\n      tag_355\n        /* \"#utility.yul\":10764:10768   */\n      dup2\n        /* \"#utility.yul\":10755:10761   */\n      dup5\n        /* \"#utility.yul\":10661:10769   */\n      tag_243\n      jump\t// in\n    tag_355:\n        /* \"#utility.yul\":10653:10769   */\n      swap1\n      pop\n        /* \"#utility.yul\":10403:10776   */\n      swap3\n      swap2\n      pop\n      pop\n      jump\t// out\n        /* \"#utility.yul\":10782:10896   */\n    tag_244:\n        /* \"#utility.yul\":10849:10855   */\n      0x00\n        /* \"#utility.yul\":10883:10888   */\n      dup2\n        /* \"#utility.yul\":10877:10889   */\n      mload\n        /* \"#utility.yul\":10867:10889   */\n      swap1\n      pop\n        /* \"#utility.yul\":10782:10896   */\n      swap2\n      swap1\n      pop\n      jump\t// out\n        /* \"#utility.yul\":10902:11086   */\n    tag_245:\n        /* \"#utility.yul\":11001:11012   */\n      0x00\n        /* \"#utility.yul\":11035:11041   */\n      dup3\n        /* \"#utility.yul\":11030:11033   */\n      dup3\n        /* \"#utility.yul\":11023:11042   */\n      mstore\n        /* \"#utility.yul\":11075:11079   */\n      0x20\n        /* \"#utility.yul\":11070:11073   */\n      dup3\n        /* \"#utility.yul\":11066:11080   */\n      add\n        /* \"#utility.yul\":11051:11080   */\n      swap1\n      pop\n        /* \"#utility.yul\":10902:11086   */\n      swap3\n      swap2\n      pop\n      pop\n      jump\t// out\n        /* \"#utility.yul\":11092:11224   */\n    tag_246:\n        /* \"#utility.yul\":11159:11163   */\n      0x00\n        /* \"#utility.yul\":11182:11185   */\n      dup2\n        /* \"#utility.yul\":11174:11185   */\n      swap1\n      pop\n        /* \"#utility.yul\":11212:11216   */\n      0x20\n        /* \"#utility.yul\":11207:11210   */\n      dup3\n        /* \"#utility.yul\":11203:11217   */\n      add\n        /* \"#utility.yul\":11195:11217   */\n      swap1\n      pop\n        /* \"#utility.yul\":11092:11224   */\n      swap2\n      swap1\n      pop\n      jump\t// out\n        /* \"#utility.yul\":11230:11409   */\n    tag_247:\n        /* \"#utility.yul\":11299:11309   */\n      0x00\n        /* \"#utility.yul\":11320:11366   */\n      tag_360\n        /* \"#utility.yul\":11362:11365   */\n      dup4\n        /* \"#utility.yul\":11354:11360   */\n      dup4\n        /* \"#utility.yul\":11320:11366   */\n      tag_236\n      jump\t// in\n    tag_360:\n        /* \"#utility.yul\":11398:11402   */\n      0x20\n        /* \"#utility.yul\":11393:11396   */\n      dup4\n        /* \"#utility.yul\":11389:11403   */\n      add\n        /* \"#utility.yul\":11375:11403   */\n      swap1\n      pop\n        /* \"#utility.yul\":11230:11409   */\n      swap3\n      swap2\n      pop\n      pop\n      jump\t// out\n        /* \"#utility.yul\":11415:11528   */\n    tag_248:\n        /* \"#utility.yul\":11485:11489   */\n      0x00\n        /* \"#utility.yul\":11517:11521   */\n      0x20\n        /* \"#utility.yul\":11512:11515   */\n      dup3\n        /* \"#utility.yul\":11508:11522   */\n      add\n        /* \"#utility.yul\":11500:11522   */\n      swap1\n      pop\n        /* \"#utility.yul\":11415:11528   */\n      swap2\n      swap1\n      pop\n      jump\t// out\n        /* \"#utility.yul\":11564:12296   */\n    tag_249:\n        /* \"#utility.yul\":11683:11686   */\n      0x00\n        /* \"#utility.yul\":11712:11766   */\n      tag_363\n        /* \"#utility.yul\":11760:11765   */\n      dup3\n        /* \"#utility.yul\":11712:11766   */\n      tag_244\n      jump\t// in\n    tag_363:\n        /* \"#utility.yul\":11782:11868   */\n      tag_364\n        /* \"#utility.yul\":11861:11867   */\n      dup2\n        /* \"#utility.yul\":11856:11859   */\n      dup6\n        /* \"#utility.yul\":11782:11868   */\n      tag_245\n      jump\t// in\n    tag_364:\n        /* \"#utility.yul\":11775:11868   */\n      swap4\n      pop\n        /* \"#utility.yul\":11892:11948   */\n      tag_365\n        /* \"#utility.yul\":11942:11947   */\n      dup4\n        /* \"#utility.yul\":11892:11948   */\n      tag_246\n      jump\t// in\n    tag_365:\n        /* \"#utility.yul\":11971:11978   */\n      dup1\n        /* \"#utility.yul\":12002:12003   */\n      0x00\n        /* \"#utility.yul\":11987:12271   */\n    tag_366:\n        /* \"#utility.yul\":12012:12018   */\n      dup4\n        /* \"#utility.yul\":12009:12010   */\n      dup2\n        /* \"#utility.yul\":12006:12019   */\n      lt\n        /* \"#utility.yul\":11987:12271   */\n      iszero\n      tag_368\n      jumpi\n        /* \"#utility.yul\":12088:12094   */\n      dup2\n        /* \"#utility.yul\":12082:12095   */\n      mload\n        /* \"#utility.yul\":12115:12178   */\n      tag_369\n        /* \"#utility.yul\":12174:12177   */\n      dup9\n        /* \"#utility.yul\":12159:12172   */\n      dup3\n        /* \"#utility.yul\":12115:12178   */\n      tag_247\n      jump\t// in\n    tag_369:\n        /* \"#utility.yul\":12108:12178   */\n      swap8\n      pop\n        /* \"#utility.yul\":12201:12261   */\n      tag_370\n        /* \"#utility.yul\":12254:12260   */\n      dup4\n        /* \"#utility.yul\":12201:12261   */\n      tag_248\n      jump\t// in\n    tag_370:\n        /* \"#utility.yul\":12191:12261   */\n      swap3\n      pop\n        /* \"#utility.yul\":12047:12271   */\n      pop\n        /* \"#utility.yul\":12034:12035   */\n      0x01\n        /* \"#utility.yul\":12031:12032   */\n      dup2\n        /* \"#utility.yul\":12027:12036   */\n      add\n        /* \"#utility.yul\":12022:12036   */\n      swap1\n      pop\n        /* \"#utility.yul\":11987:12271   */\n      jump(tag_366)\n    tag_368:\n        /* \"#utility.yul\":11991:12005   */\n      pop\n        /* \"#utility.yul\":12287:12290   */\n      dup6\n        /* \"#utility.yul\":12280:12290   */\n      swap4\n      pop\n        /* \"#utility.yul\":11688:12296   */\n      pop\n      pop\n      pop\n        /* \"#utility.yul\":11564:12296   */\n      swap3\n      swap2\n      pop\n      pop\n      jump\t// out\n        /* \"#utility.yul\":12302:12675   */\n    tag_65:\n        /* \"#utility.yul\":12445:12449   */\n      0x00\n        /* \"#utility.yul\":12483:12485   */\n      0x20\n        /* \"#utility.yul\":12472:12481   */\n      dup3\n        /* \"#utility.yul\":12468:12486   */\n      add\n        /* \"#utility.yul\":12460:12486   */\n      swap1\n      pop\n        /* \"#utility.yul\":12532:12541   */\n      dup2\n        /* \"#utility.yul\":12526:12530   */\n      dup2\n        /* \"#utility.yul\":12522:12542   */\n      sub\n        /* \"#utility.yul\":12518:12519   */\n      0x00\n        /* \"#utility.yul\":12507:12516   */\n      dup4\n        /* \"#utility.yul\":12503:12520   */\n      add\n        /* \"#utility.yul\":12496:12543   */\n      mstore\n        /* \"#utility.yul\":12560:12668   */\n      tag_372\n        /* \"#utility.yul\":12663:12667   */\n      dup2\n        /* \"#utility.yul\":12654:12660   */\n      dup5\n        /* \"#utility.yul\":12560:12668   */\n      tag_249\n      jump\t// in\n    tag_372:\n        /* \"#utility.yul\":12552:12668   */\n      swap1\n      pop\n        /* \"#utility.yul\":12302:12675   */\n      swap3\n      swap2\n      pop\n      pop\n      jump\t// out\n        /* \"#utility.yul\":12681:13234   */\n    tag_69:\n        /* \"#utility.yul\":12858:12862   */\n      0x00\n        /* \"#utility.yul\":12896:12899   */\n      0x80\n        /* \"#utility.yul\":12885:12894   */\n      dup3\n        /* \"#utility.yul\":12881:12900   */\n      add\n        /* \"#utility.yul\":12873:12900   */\n      swap1\n      pop\n        /* \"#utility.yul\":12910:12981   */\n      tag_374\n        /* \"#utility.yul\":12978:12979   */\n      0x00\n        /* \"#utility.yul\":12967:12976   */\n      dup4\n        /* \"#utility.yul\":12963:12980   */\n      add\n        /* \"#utility.yul\":12954:12960   */\n      dup8\n        /* \"#utility.yul\":12910:12981   */\n      tag_226\n      jump\t// in\n    tag_374:\n        /* \"#utility.yul\":12991:13063   */\n      tag_375\n        /* \"#utility.yul\":13059:13061   */\n      0x20\n        /* \"#utility.yul\":13048:13057   */\n      dup4\n        /* \"#utility.yul\":13044:13062   */\n      add\n        /* \"#utility.yul\":13035:13041   */\n      dup7\n        /* \"#utility.yul\":12991:13063   */\n      tag_226\n      jump\t// in\n    tag_375:\n        /* \"#utility.yul\":13073:13145   */\n      tag_376\n        /* \"#utility.yul\":13141:13143   */\n      0x40\n        /* \"#utility.yul\":13130:13139   */\n      dup4\n        /* \"#utility.yul\":13126:13144   */\n      add\n        /* \"#utility.yul\":13117:13123   */\n      dup6\n        /* \"#utility.yul\":13073:13145   */\n      tag_226\n      jump\t// in\n    tag_376:\n        /* \"#utility.yul\":13155:13227   */\n      tag_377\n        /* \"#utility.yul\":13223:13225   */\n      0x60\n        /* \"#utility.yul\":13212:13221   */\n      dup4\n        /* \"#utility.yul\":13208:13226   */\n      add\n        /* \"#utility.yul\":13199:13205   */\n      dup5\n        /* \"#utility.yul\":13155:13227   */\n      tag_226\n      jump\t// in\n    tag_377:\n        /* \"#utility.yul\":12681:13234   */\n      swap6\n      swap5\n      pop\n      pop\n      pop\n      pop\n      pop\n      jump\t// out\n        /* \"#utility.yul\":13240:13773   */\n    tag_73:\n        /* \"#utility.yul\":13409:13413   */\n      0x00\n        /* \"#utility.yul\":13447:13449   */\n      0x60\n        /* \"#utility.yul\":13436:13445   */\n      dup3\n        /* \"#utility.yul\":13432:13450   */\n      add\n        /* \"#utility.yul\":13424:13450   */\n      swap1\n      pop\n        /* \"#utility.yul\":13460:13531   */\n      tag_379\n        /* \"#utility.yul\":13528:13529   */\n      0x00\n        /* \"#utility.yul\":13517:13526   */\n      dup4\n        /* \"#utility.yul\":13513:13530   */\n      add\n        /* \"#utility.yul\":13504:13510   */\n      dup7\n        /* \"#utility.yul\":13460:13531   */\n      tag_226\n      jump\t// in\n    tag_379:\n        /* \"#utility.yul\":13578:13587   */\n      dup2\n        /* \"#utility.yul\":13572:13576   */\n      dup2\n        /* \"#utility.yul\":13568:13588   */\n      sub\n        /* \"#utility.yul\":13563:13565   */\n      0x20\n        /* \"#utility.yul\":13552:13561   */\n      dup4\n        /* \"#utility.yul\":13548:13566   */\n      add\n        /* \"#utility.yul\":13541:13589   */\n      mstore\n        /* \"#utility.yul\":13606:13684   */\n      tag_380\n        /* \"#utility.yul\":13679:13683   */\n      dup2\n        /* \"#utility.yul\":13670:13676   */\n      dup6\n        /* \"#utility.yul\":13606:13684   */\n      tag_231\n      jump\t// in\n    tag_380:\n        /* \"#utility.yul\":13598:13684   */\n      swap1\n      pop\n        /* \"#utility.yul\":13694:13766   */\n      tag_381\n        /* \"#utility.yul\":13762:13764   */\n      0x40\n        /* \"#utility.yul\":13751:13760   */\n      dup4\n        /* \"#utility.yul\":13747:13765   */\n      add\n        /* \"#utility.yul\":13738:13744   */\n      dup5\n        /* \"#utility.yul\":13694:13766   */\n      tag_226\n      jump\t// in\n    tag_381:\n        /* \"#utility.yul\":13240:13773   */\n      swap5\n      swap4\n      pop\n      pop\n      pop\n      pop\n      jump\t// out\n        /* \"#utility.yul\":13779:13957   */\n    tag_250:\n        /* \"#utility.yul\":13919:13949   */\n      0x456c656374696f6e20686173206e6f7420737461727465642079657400000000\n        /* \"#utility.yul\":13915:13916   */\n      0x00\n        /* \"#utility.yul\":13907:13913   */\n      dup3\n        /* \"#utility.yul\":13903:13917   */\n      add\n        /* \"#utility.yul\":13896:13950   */\n      mstore\n        /* \"#utility.yul\":13779:13957   */\n      pop\n      jump\t// out\n        /* \"#utility.yul\":13963:14329   */\n    tag_251:\n        /* \"#utility.yul\":14105:14108   */\n      0x00\n        /* \"#utility.yul\":14126:14193   */\n      tag_384\n        /* \"#utility.yul\":14190:14192   */\n      0x1c\n        /* \"#utility.yul\":14185:14188   */\n      dup4\n        /* \"#utility.yul\":14126:14193   */\n      tag_228\n      jump\t// in\n    tag_384:\n        /* \"#utility.yul\":14119:14193   */\n      swap2\n      pop\n        /* \"#utility.yul\":14202:14295   */\n      tag_385\n        /* \"#utility.yul\":14291:14294   */\n      dup3\n        /* \"#utility.yul\":14202:14295   */\n      tag_250\n      jump\t// in\n    tag_385:\n        /* \"#utility.yul\":14320:14322   */\n      0x20\n        /* \"#utility.yul\":14315:14318   */\n      dup3\n        /* \"#utility.yul\":14311:14323   */\n      add\n        /* \"#utility.yul\":14304:14323   */\n      swap1\n      pop\n        /* \"#utility.yul\":13963:14329   */\n      swap2\n      swap1\n      pop\n      jump\t// out\n        /* \"#utility.yul\":14335:14754   */\n    tag_97:\n        /* \"#utility.yul\":14501:14505   */\n      0x00\n        /* \"#utility.yul\":14539:14541   */\n      0x20\n        /* \"#utility.yul\":14528:14537   */\n      dup3\n        /* \"#utility.yul\":14524:14542   */\n      add\n        /* \"#utility.yul\":14516:14542   */\n      swap1\n      pop\n        /* \"#utility.yul\":14588:14597   */\n      dup2\n        /* \"#utility.yul\":14582:14586   */\n      dup2\n        /* \"#utility.yul\":14578:14598   */\n      sub\n        /* \"#utility.yul\":14574:14575   */\n      0x00\n        /* \"#utility.yul\":14563:14572   */\n      dup4\n        /* \"#utility.yul\":14559:14576   */\n      add\n        /* \"#utility.yul\":14552:14599   */\n      mstore\n        /* \"#utility.yul\":14616:14747   */\n      tag_387\n        /* \"#utility.yul\":14742:14746   */\n      dup2\n        /* \"#utility.yul\":14616:14747   */\n      tag_251\n      jump\t// in\n    tag_387:\n        /* \"#utility.yul\":14608:14747   */\n      swap1\n      pop\n        /* \"#utility.yul\":14335:14754   */\n      swap2\n      swap1\n      pop\n      jump\t// out\n        /* \"#utility.yul\":14760:14928   */\n    tag_252:\n        /* \"#utility.yul\":14900:14920   */\n      0x456c656374696f6e2068617320656e6465640000000000000000000000000000\n        /* \"#utility.yul\":14896:14897   */\n      0x00\n        /* \"#utility.yul\":14888:14894   */\n      dup3\n        /* \"#utility.yul\":14884:14898   */\n      add\n        /* \"#utility.yul\":14877:14921   */\n      mstore\n        /* \"#utility.yul\":14760:14928   */\n      pop\n      jump\t// out\n        /* \"#utility.yul\":14934:15300   */\n    tag_253:\n        /* \"#utility.yul\":15076:15079   */\n      0x00\n        /* \"#utility.yul\":15097:15164   */\n      tag_390\n        /* \"#utility.yul\":15161:15163   */\n      0x12\n        /* \"#utility.yul\":15156:15159   */\n      dup4\n        /* \"#utility.yul\":15097:15164   */\n      tag_228\n      jump\t// in\n    tag_390:\n        /* \"#utility.yul\":15090:15164   */\n      swap2\n      pop\n        /* \"#utility.yul\":15173:15266   */\n      tag_391\n        /* \"#utility.yul\":15262:15265   */\n      dup3\n        /* \"#utility.yul\":15173:15266   */\n      tag_252\n      jump\t// in\n    tag_391:\n        /* \"#utility.yul\":15291:15293   */\n      0x20\n        /* \"#utility.yul\":15286:15289   */\n      dup3\n        /* \"#utility.yul\":15282:15294   */\n      add\n        /* \"#utility.yul\":15275:15294   */\n      swap1\n      pop\n        /* \"#utility.yul\":14934:15300   */\n      swap2\n      swap1\n      pop\n      jump\t// out\n        /* \"#utility.yul\":15306:15725   */\n    tag_100:\n        /* \"#utility.yul\":15472:15476   */\n      0x00\n        /* \"#utility.yul\":15510:15512   */\n      0x20\n        /* \"#utility.yul\":15499:15508   */\n      dup3\n        /* \"#utility.yul\":15495:15513   */\n      add\n        /* \"#utility.yul\":15487:15513   */\n      swap1\n      pop\n        /* \"#utility.yul\":15559:15568   */\n      dup2\n        /* \"#utility.yul\":15553:15557   */\n      dup2\n        /* \"#utility.yul\":15549:15569   */\n      sub\n        /* \"#utility.yul\":15545:15546   */\n      0x00\n        /* \"#utility.yul\":15534:15543   */\n      dup4\n        /* \"#utility.yul\":15530:15547   */\n      add\n        /* \"#utility.yul\":15523:15570   */\n      mstore\n        /* \"#utility.yul\":15587:15718   */\n      tag_393\n        /* \"#utility.yul\":15713:15717   */\n      dup2\n        /* \"#utility.yul\":15587:15718   */\n      tag_253\n      jump\t// in\n    tag_393:\n        /* \"#utility.yul\":15579:15718   */\n      swap1\n      pop\n        /* \"#utility.yul\":15306:15725   */\n      swap2\n      swap1\n      pop\n      jump\t// out\n        /* \"#utility.yul\":15731:15903   */\n    tag_254:\n        /* \"#utility.yul\":15871:15895   */\n      0x596f75206861766520616c726561647920766f74656400000000000000000000\n        /* \"#utility.yul\":15867:15868   */\n      0x00\n        /* \"#utility.yul\":15859:15865   */\n      dup3\n        /* \"#utility.yul\":15855:15869   */\n      add\n        /* \"#utility.yul\":15848:15896   */\n      mstore\n        /* \"#utility.yul\":15731:15903   */\n      pop\n      jump\t// out\n        /* \"#utility.yul\":15909:16275   */\n    tag_255:\n        /* \"#utility.yul\":16051:16054   */\n      0x00\n        /* \"#utility.yul\":16072:16139   */\n      tag_396\n        /* \"#utility.yul\":16136:16138   */\n      0x16\n        /* \"#utility.yul\":16131:16134   */\n      dup4\n        /* \"#utility.yul\":16072:16139   */\n      tag_228\n      jump\t// in\n    tag_396:\n        /* \"#utility.yul\":16065:16139   */\n      swap2\n      pop\n        /* \"#utility.yul\":16148:16241   */\n      tag_397\n        /* \"#utility.yul\":16237:16240   */\n      dup3\n        /* \"#utility.yul\":16148:16241   */\n      tag_254\n      jump\t// in\n    tag_397:\n        /* \"#utility.yul\":16266:16268   */\n      0x20\n        /* \"#utility.yul\":16261:16264   */\n      dup3\n        /* \"#utility.yul\":16257:16269   */\n      add\n        /* \"#utility.yul\":16250:16269   */\n      swap1\n      pop\n        /* \"#utility.yul\":15909:16275   */\n      swap2\n      swap1\n      pop\n      jump\t// out\n        /* \"#utility.yul\":16281:16700   */\n    tag_104:\n        /* \"#utility.yul\":16447:16451   */\n      0x00\n        /* \"#utility.yul\":16485:16487   */\n      0x20\n        /* \"#utility.yul\":16474:16483   */\n      dup3\n        /* \"#utility.yul\":16470:16488   */\n      add\n        /* \"#utility.yul\":16462:16488   */\n      swap1\n      pop\n        /* \"#utility.yul\":16534:16543   */\n      dup2\n        /* \"#utility.yul\":16528:16532   */\n      dup2\n        /* \"#utility.yul\":16524:16544   */\n      sub\n        /* \"#utility.yul\":16520:16521   */\n      0x00\n        /* \"#utility.yul\":16509:16518   */\n      dup4\n        /* \"#utility.yul\":16505:16522   */\n      add\n        /* \"#utility.yul\":16498:16545   */\n      mstore\n        /* \"#utility.yul\":16562:16693   */\n      tag_399\n        /* \"#utility.yul\":16688:16692   */\n      dup2\n        /* \"#utility.yul\":16562:16693   */\n      tag_255\n      jump\t// in\n    tag_399:\n        /* \"#utility.yul\":16554:16693   */\n      swap1\n      pop\n        /* \"#utility.yul\":16281:16700   */\n      swap2\n      swap1\n      pop\n      jump\t// out\n        /* \"#utility.yul\":16706:16876   */\n    tag_256:\n        /* \"#utility.yul\":16846:16868   */\n      0x496e76616c69642063616e646964617465204944000000000000000000000000\n        /* \"#utility.yul\":16842:16843   */\n      0x00\n        /* \"#utility.yul\":16834:16840   */\n      dup3\n        /* \"#utility.yul\":16830:16844   */\n      add\n        /* \"#utility.yul\":16823:16869   */\n      mstore\n        /* \"#utility.yul\":16706:16876   */\n      pop\n      jump\t// out\n        /* \"#utility.yul\":16882:17248   */\n    tag_257:\n        /* \"#utility.yul\":17024:17027   */\n      0x00\n        /* \"#utility.yul\":17045:17112   */\n      tag_402\n        /* \"#utility.yul\":17109:17111   */\n      0x14\n        /* \"#utility.yul\":17104:17107   */\n      dup4\n        /* \"#utility.yul\":17045:17112   */\n      tag_228\n      jump\t// in\n    tag_402:\n        /* \"#utility.yul\":17038:17112   */\n      swap2\n      pop\n        /* \"#utility.yul\":17121:17214   */\n      tag_403\n        /* \"#utility.yul\":17210:17213   */\n      dup3\n        /* \"#utility.yul\":17121:17214   */\n      tag_256\n      jump\t// in\n    tag_403:\n        /* \"#utility.yul\":17239:17241   */\n      0x20\n        /* \"#utility.yul\":17234:17237   */\n      dup3\n        /* \"#utility.yul\":17230:17242   */\n      add\n        /* \"#utility.yul\":17223:17242   */\n      swap1\n      pop\n        /* \"#utility.yul\":16882:17248   */\n      swap2\n      swap1\n      pop\n      jump\t// out\n        /* \"#utility.yul\":17254:17673   */\n    tag_109:\n        /* \"#utility.yul\":17420:17424   */\n      0x00\n        /* \"#utility.yul\":17458:17460   */\n      0x20\n        /* \"#utility.yul\":17447:17456   */\n      dup3\n        /* \"#utility.yul\":17443:17461   */\n      add\n        /* \"#utility.yul\":17435:17461   */\n      swap1\n      pop\n        /* \"#utility.yul\":17507:17516   */\n      dup2\n        /* \"#utility.yul\":17501:17505   */\n      dup2\n        /* \"#utility.yul\":17497:17517   */\n      sub\n        /* \"#utility.yul\":17493:17494   */\n      0x00\n        /* \"#utility.yul\":17482:17491   */\n      dup4\n        /* \"#utility.yul\":17478:17495   */\n      add\n        /* \"#utility.yul\":17471:17518   */\n      mstore\n        /* \"#utility.yul\":17535:17666   */\n      tag_405\n        /* \"#utility.yul\":17661:17665   */\n      dup2\n        /* \"#utility.yul\":17535:17666   */\n      tag_257\n      jump\t// in\n    tag_405:\n        /* \"#utility.yul\":17527:17666   */\n      swap1\n      pop\n        /* \"#utility.yul\":17254:17673   */\n      swap2\n      swap1\n      pop\n      jump\t// out\n        /* \"#utility.yul\":17679:17859   */\n    tag_258:\n        /* \"#utility.yul\":17727:17804   */\n      0x4e487b7100000000000000000000000000000000000000000000000000000000\n        /* \"#utility.yul\":17724:17725   */\n      0x00\n        /* \"#utility.yul\":17717:17805   */\n      mstore\n        /* \"#utility.yul\":17824:17828   */\n      0x11\n        /* \"#utility.yul\":17821:17822   */\n      0x04\n        /* \"#utility.yul\":17814:17829   */\n      mstore\n        /* \"#utility.yul\":17848:17852   */\n      0x24\n        /* \"#utility.yul\":17845:17846   */\n      0x00\n        /* \"#utility.yul\":17838:17853   */\n      revert\n        /* \"#utility.yul\":17865:18098   */\n    tag_112:\n        /* \"#utility.yul\":17904:17907   */\n      0x00\n        /* \"#utility.yul\":17927:17951   */\n      tag_408\n        /* \"#utility.yul\":17945:17950   */\n      dup3\n        /* \"#utility.yul\":17927:17951   */\n      tag_217\n      jump\t// in\n    tag_408:\n        /* \"#utility.yul\":17918:17951   */\n      swap2\n      pop\n        /* \"#utility.yul\":17973:18039   */\n      0xffffffffffffffffffffffffffffffffffffffffffffffffffffffffffffffff\n        /* \"#utility.yul\":17966:17971   */\n      dup3\n        /* \"#utility.yul\":17963:18040   */\n      sub\n        /* \"#utility.yul\":17960:18063   */\n      tag_409\n      jumpi\n        /* \"#utility.yul\":18043:18061   */\n      tag_410\n      tag_258\n      jump\t// in\n    tag_410:\n        /* \"#utility.yul\":17960:18063   */\n    tag_409:\n        /* \"#utility.yul\":18090:18091   */\n      0x01\n        /* \"#utility.yul\":18083:18088   */\n      dup3\n        /* \"#utility.yul\":18079:18092   */\n      add\n        /* \"#utility.yul\":18072:18092   */\n      swap1\n      pop\n        /* \"#utility.yul\":17865:18098   */\n      swap2\n      swap1\n      pop\n      jump\t// out\n        /* \"#utility.yul\":18104:18284   */\n    tag_125:\n        /* \"#utility.yul\":18152:18229   */\n      0x4e487b7100000000000000000000000000000000000000000000000000000000\n        /* \"#utility.yul\":18149:18150   */\n      0x00\n        /* \"#utility.yul\":18142:18230   */\n      mstore\n        /* \"#utility.yul\":18249:18253   */\n      0x41\n        /* \"#utility.yul\":18246:18247   */\n      0x04\n        /* \"#utility.yul\":18239:18254   */\n      mstore\n        /* \"#utility.yul\":18273:18277   */\n      0x24\n        /* \"#utility.yul\":18270:18271   */\n      0x00\n        /* \"#utility.yul\":18263:18278   */\n      revert\n        /* \"#utility.yul\":18290:18470   */\n    tag_259:\n        /* \"#utility.yul\":18338:18415   */\n      0x4e487b7100000000000000000000000000000000000000000000000000000000\n        /* \"#utility.yul\":18335:18336   */\n      0x00\n        /* \"#utility.yul\":18328:18416   */\n      mstore\n        /* \"#utility.yul\":18435:18439   */\n      0x22\n        /* \"#utility.yul\":18432:18433   */\n      0x04\n        /* \"#utility.yul\":18425:18440   */\n      mstore\n        /* \"#utility.yul\":18459:18463   */\n      0x24\n        /* \"#utility.yul\":18456:18457   */\n      0x00\n        /* \"#utility.yul\":18449:18464   */\n      revert\n        /* \"#utility.yul\":18476:18796   */\n    tag_134:\n        /* \"#utility.yul\":18520:18526   */\n      0x00\n        /* \"#utility.yul\":18557:18558   */\n      0x02\n        /* \"#utility.yul\":18551:18555   */\n      dup3\n        /* \"#utility.yul\":18547:18559   */\n      div\n        /* \"#utility.yul\":18537:18559   */\n      swap1\n      pop\n        /* \"#utility.yul\":18604:18605   */\n      0x01\n        /* \"#utility.yul\":18598:18602   */\n      dup3\n        /* \"#utility.yul\":18594:18606   */\n      and\n        /* \"#utility.yul\":18625:18643   */\n      dup1\n        /* \"#utility.yul\":18615:18696   */\n      tag_414\n      jumpi\n        /* \"#utility.yul\":18681:18685   */\n      0x7f\n        /* \"#utility.yul\":18673:18679   */\n      dup3\n        /* \"#utility.yul\":18669:18686   */\n      and\n        /* \"#utility.yul\":18659:18686   */\n      swap2\n      pop\n        /* \"#utility.yul\":18615:18696   */\n    tag_414:\n        /* \"#utility.yul\":18743:18745   */\n      0x20\n        /* \"#utility.yul\":18735:18741   */\n      dup3\n        /* \"#utility.yul\":18732:18746   */\n      lt\n        /* \"#utility.yul\":18712:18730   */\n      dup2\n        /* \"#utility.yul\":18709:18747   */\n      sub\n        /* \"#utility.yul\":18706:18790   */\n      tag_415\n      jumpi\n        /* \"#utility.yul\":18762:18780   */\n      tag_416\n      tag_259\n      jump\t// in\n    tag_416:\n        /* \"#utility.yul\":18706:18790   */\n    tag_415:\n        /* \"#utility.yul\":18527:18796   */\n      pop\n        /* \"#utility.yul\":18476:18796   */\n      swap2\n      swap1\n      pop\n      jump\t// out\n        /* \"#utility.yul\":18802:18996   */\n    tag_145:\n        /* \"#utility.yul\":18842:18846   */\n      0x00\n        /* \"#utility.yul\":18862:18882   */\n      tag_418\n        /* \"#utility.yul\":18880:18881   */\n      dup3\n        /* \"#utility.yul\":18862:18882   */\n      tag_217\n      jump\t// in\n    tag_418:\n        /* \"#utility.yul\":18857:18882   */\n      swap2\n      pop\n        /* \"#utility.yul\":18896:18916   */\n      tag_419\n        /* \"#utility.yul\":18914:18915   */\n      dup4\n        /* \"#utility.yul\":18896:18916   */\n      tag_217\n      jump\t// in\n    tag_419:\n        /* \"#utility.yul\":18891:18916   */\n      swap3\n      pop\n        /* \"#utility.yul\":18940:18941   */\n      dup3\n        /* \"#utility.yul\":18937:18938   */\n      dup3\n        /* \"#utility.yul\":18933:18942   */\n      sub\n        /* \"#utility.yul\":18925:18942   */\n      swap1\n      pop\n        /* \"#utility.yul\":18964:18965   */\n      dup2\n        /* \"#utility.yul\":18958:18962   */\n      dup2\n        /* \"#utility.yul\":18955:18966   */\n      gt\n        /* \"#utility.yul\":18952:18989   */\n      iszero\n      tag_420\n      jumpi\n        /* \"#utility.yul\":18969:18987   */\n      tag_421\n      tag_258\n      jump\t// in\n    tag_421:\n        /* \"#utility.yul\":18952:18989   */\n    tag_420:\n        /* \"#utility.yul\":18802:18996   */\n      swap3\n      swap2\n      pop\n      pop\n      jump\t// out\n        /* \"#utility.yul\":19002:19182   */\n    tag_148:\n        /* \"#utility.yul\":19050:19127   */\n      0x4e487b7100000000000000000000000000000000000000000000000000000000\n        /* \"#utility.yul\":19047:19048   */\n      0x00\n        /* \"#utility.yul\":19040:19128   */\n      mstore\n        /* \"#utility.yul\":19147:19151   */\n      0x32\n        /* \"#utility.yul\":19144:19145   */\n      0x04\n        /* \"#utility.yul\":19137:19152   */\n      mstore\n        /* \"#utility.yul\":19171:19175   */\n      0x24\n        /* \"#utility.yul\":19168:19169   */\n      0x00\n        /* \"#utility.yul\":19161:19176   */\n      revert\n        /* \"#utility.yul\":19188:19365   */\n    tag_260:\n        /* \"#utility.yul\":19328:19357   */\n      0x4e6f20766f7465732068617665206265656e2063617374207965740000000000\n        /* \"#utility.yul\":19324:19325   */\n      0x00\n        /* \"#utility.yul\":19316:19322   */\n      dup3\n        /* \"#utility.yul\":19312:19326   */\n      add\n        /* \"#utility.yul\":19305:19358   */\n      mstore\n        /* \"#utility.yul\":19188:19365   */\n      pop\n      jump\t// out\n        /* \"#utility.yul\":19371:19737   */\n    tag_261:\n        /* \"#utility.yul\":19513:19516   */\n      0x00\n        /* \"#utility.yul\":19534:19601   */\n      tag_425\n        /* \"#utility.yul\":19598:19600   */\n      0x1b\n        /* \"#utility.yul\":19593:19596   */\n      dup4\n        /* \"#utility.yul\":19534:19601   */\n      tag_228\n      jump\t// in\n    tag_425:\n        /* \"#utility.yul\":19527:19601   */\n      swap2\n      pop\n        /* \"#utility.yul\":19610:19703   */\n      tag_426\n        /* \"#utility.yul\":19699:19702   */\n      dup3\n        /* \"#utility.yul\":19610:19703   */\n      tag_260\n      jump\t// in\n    tag_426:\n        /* \"#utility.yul\":19728:19730   */\n      0x20\n        /* \"#utility.yul\":19723:19726   */\n      dup3\n        /* \"#utility.yul\":19719:19731   */\n      add\n        /* \"#utility.yul\":19712:19731   */\n      swap1\n      pop\n        /* \"#utility.yul\":19371:19737   */\n      swap2\n      swap1\n      pop\n      jump\t// out\n        /* \"#utility.yul\":19743:20162   */\n    tag_191:\n        /* \"#utility.yul\":19909:19913   */\n      0x00\n        /* \"#utility.yul\":19947:19949   */\n      0x20\n        /* \"#utility.yul\":19936:19945   */\n      dup3\n        /* \"#utility.yul\":19932:19950   */\n      add\n        /* \"#utility.yul\":19924:19950   */\n      swap1\n      pop\n        /* \"#utility.yul\":19996:20005   */\n      dup2\n        /* \"#utility.yul\":19990:19994   */\n      dup2\n        /* \"#utility.yul\":19986:20006   */\n      sub\n        /* \"#utility.yul\":19982:19983   */\n      0x00\n        /* \"#utility.yul\":19971:19980   */\n      dup4\n        /* \"#utility.yul\":19967:19984   */\n      add\n        /* \"#utility.yul\":19960:20007   */\n      mstore\n        /* \"#utility.yul\":20024:20155   */\n      tag_428\n        /* \"#utility.yul\":20150:20154   */\n      dup2\n        /* \"#utility.yul\":20024:20155   */\n      tag_261\n      jump\t// in\n    tag_428:\n        /* \"#utility.yul\":20016:20155   */\n      swap1\n      pop\n        /* \"#utility.yul\":19743:20162   */\n      swap2\n      swap1\n      pop\n      jump\t// out\n        /* \"#utility.yul\":20168:20349   */\n    tag_262:\n        /* \"#utility.yul\":20308:20341   */\n      0x5265656e7472616e637947756172643a207265656e7472616e742063616c6c00\n        /* \"#utility.yul\":20304:20305   */\n      0x00\n        /* \"#utility.yul\":20296:20302   */\n      dup3\n        /* \"#utility.yul\":20292:20306   */\n      add\n        /* \"#utility.yul\":20285:20342   */\n      mstore\n        /* \"#utility.yul\":20168:20349   */\n      pop\n      jump\t// out\n        /* \"#utility.yul\":20355:20721   */\n    tag_263:\n        /* \"#utility.yul\":20497:20500   */\n      0x00\n        /* \"#utility.yul\":20518:20585   */\n      tag_431\n        /* \"#utility.yul\":20582:20584   */\n      0x1f\n        /* \"#utility.yul\":20577:20580   */\n      dup4\n        /* \"#utility.yul\":20518:20585   */\n      tag_228\n      jump\t// in\n    tag_431:\n        /* \"#utility.yul\":20511:20585   */\n      swap2\n      pop\n        /* \"#utility.yul\":20594:20687   */\n      tag_432\n        /* \"#utility.yul\":20683:20686   */\n      dup3\n        /* \"#utility.yul\":20594:20687   */\n      tag_262\n      jump\t// in\n    tag_432:\n        /* \"#utility.yul\":20712:20714   */\n      0x20\n        /* \"#utility.yul\":20707:20710   */\n      dup3\n        /* \"#utility.yul\":20703:20715   */\n      add\n        /* \"#utility.yul\":20696:20715   */\n      swap1\n      pop\n        /* \"#utility.yul\":20355:20721   */\n      swap2\n      swap1\n      pop\n      jump\t// out\n        /* \"#utility.yul\":20727:21146   */\n    tag_212:\n        /* \"#utility.yul\":20893:20897   */\n      0x00\n        /* \"#utility.yul\":20931:20933   */\n      0x20\n        /* \"#utility.yul\":20920:20929   */\n      dup3\n        /* \"#utility.yul\":20916:20934   */\n      add\n        /* \"#utility.yul\":20908:20934   */\n      swap1\n      pop\n        /* \"#utility.yul\":20980:20989   */\n      dup2\n        /* \"#utility.yul\":20974:20978   */\n      dup2\n        /* \"#utility.yul\":20970:20990   */\n      sub\n        /* \"#utility.yul\":20966:20967   */\n      0x00\n        /* \"#utility.yul\":20955:20964   */\n      dup4\n        /* \"#utility.yul\":20951:20968   */\n      add\n        /* \"#utility.yul\":20944:20991   */\n      mstore\n        /* \"#utility.yul\":21008:21139   */\n      tag_434\n        /* \"#utility.yul\":21134:21138   */\n      dup2\n        /* \"#utility.yul\":21008:21139   */\n      tag_263\n      jump\t// in\n    tag_434:\n        /* \"#utility.yul\":21000:21139   */\n      swap1\n      pop\n        /* \"#utility.yul\":20727:21146   */\n      swap2\n      swap1\n      pop\n      jump\t// out\n\n    auxdata: 0xa2646970667358221220d27982ab302908f6cf8ae897ca35d1825b155e2a88c38f96371f24aad81f71f864736f6c634300081e0033\n}\n",
				"bytecode": {
					"linkReferences": {},
					"object": "608060405234801561000f575f5ffd5b5060405161239d38038061239d833981810160405281019061003191906103e8565b60015f8190555080821061007a576040517f08c379a0000000000000000000000000000000000000000000000000000000008152600401610071906104a6565b60405180910390fd5b4281116100bc576040517f08c379a00000000000000000000000000000000000000000000000000000000081526004016100b39061050e565b60405180910390fd5b3360085f6101000a81548173ffffffffffffffffffffffffffffffffffffffff021916908373ffffffffffffffffffffffffffffffffffffffff16021790555081600681905550806007819055506101676040518060400160405280600d81526020017f416c696365204a6f686e736f6e000000000000000000000000000000000000008152506040518060800160405280605d815260200161220a605d913961031f60201b60201c565b6101c46040518060400160405280600981526020017f426f6220536d69746800000000000000000000000000000000000000000000008152506040518060800160405280604d8152602001612267604d913961031f60201b60201c565b6102216040518060400160405280600b81526020017f4361726f6c2044617669730000000000000000000000000000000000000000008152506040518060800160405280604f815260200161234e604f913961031f60201b60201c565b61027e6040518060400160405280600c81526020017f44617669642057696c736f6e00000000000000000000000000000000000000008152506040518060800160405280604d8152602001612301604d913961031f60201b60201c565b6102db6040518060400160405280600981526020017f4576612042726f776e00000000000000000000000000000000000000000000008152506040518060800160405280604d81526020016122b4604d913961031f60201b60201c565b7fe9aa078f1077eb24a3eae58315307861a78b377ee76beb0d0944c496800ae70082826004546040516103109392919061053b565b60405180910390a150506108e7565b60045f8154809291906103319061059d565b9190505550604051806080016040528060045481526020018381526020018281526020015f81525060015f60045481526020019081526020015f205f820151815f015560208201518160010190816103899190610818565b50604082015181600201908161039f9190610818565b50606082015181600301559050505050565b5f5ffd5b5f819050919050565b6103c7816103b5565b81146103d1575f5ffd5b50565b5f815190506103e2816103be565b92915050565b5f5f604083850312156103fe576103fd6103b1565b5b5f61040b858286016103d4565b925050602061041c858286016103d4565b9150509250929050565b5f82825260208201905092915050565b7f53746172742074696d65206d757374206265206265666f726520656e642074695f8201527f6d65000000000000000000000000000000000000000000000000000000000000602082015250565b5f610490602283610426565b915061049b82610436565b604082019050919050565b5f6020820190508181035f8301526104bd81610484565b9050919050565b7f456e642074696d65206d75737420626520696e207468652066757475726500005f82015250565b5f6104f8601e83610426565b9150610503826104c4565b602082019050919050565b5f6020820190508181035f830152610525816104ec565b9050919050565b610535816103b5565b82525050565b5f60608201905061054e5f83018661052c565b61055b602083018561052c565b610568604083018461052c565b949350505050565b7f4e487b71000000000000000000000000000000000000000000000000000000005f52601160045260245ffd5b5f6105a7826103b5565b91507fffffffffffffffffffffffffffffffffffffffffffffffffffffffffffffffff82036105d9576105d8610570565b5b600182019050919050565b5f81519050919050565b7f4e487b71000000000000000000000000000000000000000000000000000000005f52604160045260245ffd5b7f4e487b71000000000000000000000000000000000000000000000000000000005f52602260045260245ffd5b5f600282049050600182168061065f57607f821691505b6020821081036106725761067161061b565b5b50919050565b5f819050815f5260205f209050919050565b5f6020601f8301049050919050565b5f82821b905092915050565b5f600883026106d47fffffffffffffffffffffffffffffffffffffffffffffffffffffffffffffffff82610699565b6106de8683610699565b95508019841693508086168417925050509392505050565b5f819050919050565b5f61071961071461070f846103b5565b6106f6565b6103b5565b9050919050565b5f819050919050565b610732836106ff565b61074661073e82610720565b8484546106a5565b825550505050565b5f5f905090565b61075d61074e565b610768818484610729565b505050565b5b8181101561078b576107805f82610755565b60018101905061076e565b5050565b601f8211156107d0576107a181610678565b6107aa8461068a565b810160208510156107b9578190505b6107cd6107c58561068a565b83018261076d565b50505b505050565b5f82821c905092915050565b5f6107f05f19846008026107d5565b1980831691505092915050565b5f61080883836107e1565b9150826002028217905092915050565b610821826105e4565b67ffffffffffffffff81111561083a576108396105ee565b5b6108448254610648565b61084f82828561078f565b5f60209050601f831160018114610880575f841561086e578287015190505b61087885826107fd565b8655506108df565b601f19841661088e86610678565b5f5b828110156108b557848901518255600182019150602085019450602081019050610890565b868310156108d257848901516108ce601f8916826107e1565b8355505b6001600288020188555050505b505050505050565b611916806108f45f395ff3fe608060405234801561000f575f5ffd5b5060043610610109575f3560e01c806335b8e820116100a05780639e136e641161006f5780639e136e64146102b1578063ad84c2da146102cf578063c5980c94146102ff578063dac6270d1461031d578063e3e6ca7d1461033b57610109565b806335b8e820146102225780634717f97c1461025257806386852dca146102705780638e7ea5b21461029157610109565b80631bdbb2ab116100dc5780631bdbb2ab146101955780632d35a8a2146101b35780632e6997fe146101d15780633477ee2e146101ef57610109565b80630121b93f1461010d57806309eef43e146101295780630d15fd7714610159578063122902a614610177575b5f5ffd5b61012760048036038101906101229190610f97565b61036b565b005b610143600480360381019061013e919061101c565b61060a565b6040516101509190611061565b60405180910390f35b610161610627565b60405161016e9190611089565b60405180910390f35b61017f61062d565b60405161018c9190611112565b60405180910390f35b61019d6106f8565b6040516101aa9190611141565b60405180910390f35b6101bb61071d565b6040516101c89190611089565b60405180910390f35b6101d9610723565b6040516101e691906112d3565b60405180910390f35b61020960048036038101906102049190610f97565b610921565b60405161021994939291906112f3565b60405180910390f35b61023c60048036038101906102379190610f97565b610a59565b60405161024991906113ab565b60405180910390f35b61025a610c09565b6040516102679190611473565b60405180910390f35b610278610cc3565b6040516102889493929190611493565b60405180910390f35b610299610ce1565b6040516102a8939291906114d6565b60405180910390f35b6102b9610e38565b6040516102c69190611089565b60405180910390f35b6102e960048036038101906102e4919061101c565b610e3e565b6040516102f69190611089565b60405180910390f35b610307610e53565b6040516103149190611089565b60405180910390f35b610325610e59565b6040516103329190611089565b60405180910390f35b6103556004803603810190610350919061101c565b610e92565b6040516103629190611061565b60405180910390f35b610373610ee4565b6006544210156103b8576040517f08c379a00000000000000000000000000000000000000000000000000000000081526004016103af9061155c565b60405180910390fd5b6007544211156103fd576040517f08c379a00000000000000000000000000000000000000000000000000000000081526004016103f4906115c4565b60405180910390fd5b60025f3373ffffffffffffffffffffffffffffffffffffffff1673ffffffffffffffffffffffffffffffffffffffff1681526020019081526020015f205f9054906101000a900460ff1615610487576040517f08c379a000000000000000000000000000000000000000000000000000000000815260040161047e9061162c565b60405180910390fd5b805f8111801561049957506004548111155b6104d8576040517f08c379a00000000000000000000000000000000000000000000000000000000081526004016104cf90611694565b60405180910390fd5b600160025f3373ffffffffffffffffffffffffffffffffffffffff1673ffffffffffffffffffffffffffffffffffffffff1681526020019081526020015f205f6101000a81548160ff0219169083151502179055508160035f3373ffffffffffffffffffffffffffffffffffffffff1673ffffffffffffffffffffffffffffffffffffffff1681526020019081526020015f208190555060015f8381526020019081526020015f206003015f815480929190610593906116df565b919050555060055f8154809291906105aa906116df565b9190505550813373ffffffffffffffffffffffffffffffffffffffff167fb4cfecf70861b7b150d8337780d34fb4cbc2114b5fb1fe51a5c5fca1849f7274426040516105f69190611089565b60405180910390a350610607610f31565b50565b6002602052805f5260405f205f915054906101000a900460ff1681565b60055481565b6060600654421015610676576040518060400160405280600b81526020017f4e6f74205374617274656400000000000000000000000000000000000000000081525090506106f5565b60075442116106bc576040518060400160405280600681526020017f416374697665000000000000000000000000000000000000000000000000000081525090506106f5565b6040518060400160405280600581526020017f456e64656400000000000000000000000000000000000000000000000000000081525090505b90565b60085f9054906101000a900473ffffffffffffffffffffffffffffffffffffffff1681565b60045481565b60605f60045467ffffffffffffffff81111561074257610741611726565b5b60405190808252806020026020018201604052801561077b57816020015b610768610f3a565b8152602001906001900390816107605790505b5090505f600190505b60045481116109195760015f8281526020019081526020015f206040518060800160405290815f82015481526020016001820180546107c290611780565b80601f01602080910402602001604051908101604052809291908181526020018280546107ee90611780565b80156108395780601f1061081057610100808354040283529160200191610839565b820191905f5260205f20905b81548152906001019060200180831161081c57829003601f168201915b5050505050815260200160028201805461085290611780565b80601f016020809104026020016040519081016040528092919081815260200182805461087e90611780565b80156108c95780601f106108a0576101008083540402835291602001916108c9565b820191905f5260205f20905b8154815290600101906020018083116108ac57829003601f168201915b50505050508152602001600382015481525050826001836108ea91906117b0565b815181106108fb576108fa6117e3565b5b60200260200101819052508080610911906116df565b915050610784565b508091505090565b6001602052805f5260405f205f91509050805f01549080600101805461094690611780565b80601f016020809104026020016040519081016040528092919081815260200182805461097290611780565b80156109bd5780601f10610994576101008083540402835291602001916109bd565b820191905f5260205f20905b8154815290600101906020018083116109a057829003601f168201915b5050505050908060020180546109d290611780565b80601f01602080910402602001604051908101604052809291908181526020018280546109fe90611780565b8015610a495780601f10610a2057610100808354040283529160200191610a49565b820191905f5260205f20905b815481529060010190602001808311610a2c57829003601f168201915b5050505050908060030154905084565b610a61610f3a565b815f81118015610a7357506004548111155b610ab2576040517f08c379a0000000000000000000000000000000000000000000000000000000008152600401610aa990611694565b60405180910390fd5b60015f8481526020019081526020015f206040518060800160405290815f8201548152602001600182018054610ae790611780565b80601f0160208091040260200160405190810160405280929190818152602001828054610b1390611780565b8015610b5e5780601f10610b3557610100808354040283529160200191610b5e565b820191905f5260205f20905b815481529060010190602001808311610b4157829003601f168201915b50505050508152602001600282018054610b7790611780565b80601f0160208091040260200160405190810160405280929190818152602001828054610ba390611780565b8015610bee5780601f10610bc557610100808354040283529160200191610bee565b820191905f5260205f20905b815481529060010190602001808311610bd157829003601f168201915b50505050508152602001600382015481525050915050919050565b60605f60045467ffffffffffffffff811115610c2857610c27611726565b5b604051908082528060200260200182016040528015610c565781602001602082028036833780820191505090505b5090505f600190505b6004548111610cbb5760015f8281526020019081526020015f206003015482600183610c8b91906117b0565b81518110610c9c57610c9b6117e3565b5b6020026020010181815250508080610cb3906116df565b915050610c5f565b508091505090565b5f5f5f5f600654600754600554600454935093509350935090919293565b5f60605f5f60055411610d29576040517f08c379a0000000000000000000000000000000000000000000000000000000008152600401610d209061185a565b60405180910390fd5b5f5f90505f5f90505f600190505b6004548111610d8a578260015f8381526020019081526020015f20600301541115610d775760015f8281526020019081526020015f206003015492508091505b8080610d82906116df565b915050610d37565b508060015f8381526020019081526020015f2060010183818054610dad90611780565b80601f0160208091040260200160405190810160405280929190818152602001828054610dd990611780565b8015610e245780601f10610dfb57610100808354040283529160200191610e24565b820191905f5260205f20905b815481529060010190602001808311610e0757829003601f168201915b505050505091509450945094505050909192565b60075481565b6003602052805f5260405f205f915090505481565b60065481565b5f600654421015610e6c575f9050610e8f565b600754421115610e7e575f9050610e8f565b42600754610e8c91906117b0565b90505b90565b5f60025f8373ffffffffffffffffffffffffffffffffffffffff1673ffffffffffffffffffffffffffffffffffffffff1681526020019081526020015f205f9054906101000a900460ff169050919050565b60025f5403610f28576040517f08c379a0000000000000000000000000000000000000000000000000000000008152600401610f1f906118c2565b60405180910390fd5b60025f81905550565b60015f81905550565b60405180608001604052805f815260200160608152602001606081526020015f81525090565b5f5ffd5b5f819050919050565b610f7681610f64565b8114610f80575f5ffd5b50565b5f81359050610f9181610f6d565b92915050565b5f60208284031215610fac57610fab610f60565b5b5f610fb984828501610f83565b91505092915050565b5f73ffffffffffffffffffffffffffffffffffffffff82169050919050565b5f610feb82610fc2565b9050919050565b610ffb81610fe1565b8114611005575f5ffd5b50565b5f8135905061101681610ff2565b92915050565b5f6020828403121561103157611030610f60565b5b5f61103e84828501611008565b91505092915050565b5f8115159050919050565b61105b81611047565b82525050565b5f6020820190506110745f830184611052565b92915050565b61108381610f64565b82525050565b5f60208201905061109c5f83018461107a565b92915050565b5f81519050919050565b5f82825260208201905092915050565b8281835e5f83830152505050565b5f601f19601f8301169050919050565b5f6110e4826110a2565b6110ee81856110ac565b93506110fe8185602086016110bc565b611107816110ca565b840191505092915050565b5f6020820190508181035f83015261112a81846110da565b905092915050565b61113b81610fe1565b82525050565b5f6020820190506111545f830184611132565b92915050565b5f81519050919050565b5f82825260208201905092915050565b5f819050602082019050919050565b61118c81610f64565b82525050565b5f82825260208201905092915050565b5f6111ac826110a2565b6111b68185611192565b93506111c68185602086016110bc565b6111cf816110ca565b840191505092915050565b5f608083015f8301516111ef5f860182611183565b506020830151848203602086015261120782826111a2565b9150506040830151848203604086015261122182826111a2565b91505060608301516112366060860182611183565b508091505092915050565b5f61124c83836111da565b905092915050565b5f602082019050919050565b5f61126a8261115a565b6112748185611164565b93508360208202850161128685611174565b805f5b858110156112c157848403895281516112a28582611241565b94506112ad83611254565b925060208a01995050600181019050611289565b50829750879550505050505092915050565b5f6020820190508181035f8301526112eb8184611260565b905092915050565b5f6080820190506113065f83018761107a565b818103602083015261131881866110da565b9050818103604083015261132c81856110da565b905061133b606083018461107a565b95945050505050565b5f608083015f8301516113595f860182611183565b506020830151848203602086015261137182826111a2565b9150506040830151848203604086015261138b82826111a2565b91505060608301516113a06060860182611183565b508091505092915050565b5f6020820190508181035f8301526113c38184611344565b905092915050565b5f81519050919050565b5f82825260208201905092915050565b5f819050602082019050919050565b5f6113ff8383611183565b60208301905092915050565b5f602082019050919050565b5f611421826113cb565b61142b81856113d5565b9350611436836113e5565b805f5b8381101561146657815161144d88826113f4565b97506114588361140b565b925050600181019050611439565b5085935050505092915050565b5f6020820190508181035f83015261148b8184611417565b905092915050565b5f6080820190506114a65f83018761107a565b6114b3602083018661107a565b6114c0604083018561107a565b6114cd606083018461107a565b95945050505050565b5f6060820190506114e95f83018661107a565b81810360208301526114fb81856110da565b905061150a604083018461107a565b949350505050565b7f456c656374696f6e20686173206e6f74207374617274656420796574000000005f82015250565b5f611546601c836110ac565b915061155182611512565b602082019050919050565b5f6020820190508181035f8301526115738161153a565b9050919050565b7f456c656374696f6e2068617320656e64656400000000000000000000000000005f82015250565b5f6115ae6012836110ac565b91506115b98261157a565b602082019050919050565b5f6020820190508181035f8301526115db816115a2565b9050919050565b7f596f75206861766520616c726561647920766f746564000000000000000000005f82015250565b5f6116166016836110ac565b9150611621826115e2565b602082019050919050565b5f6020820190508181035f8301526116438161160a565b9050919050565b7f496e76616c69642063616e6469646174652049440000000000000000000000005f82015250565b5f61167e6014836110ac565b91506116898261164a565b602082019050919050565b5f6020820190508181035f8301526116ab81611672565b9050919050565b7f4e487b71000000000000000000000000000000000000000000000000000000005f52601160045260245ffd5b5f6116e982610f64565b91507fffffffffffffffffffffffffffffffffffffffffffffffffffffffffffffffff820361171b5761171a6116b2565b5b600182019050919050565b7f4e487b71000000000000000000000000000000000000000000000000000000005f52604160045260245ffd5b7f4e487b71000000000000000000000000000000000000000000000000000000005f52602260045260245ffd5b5f600282049050600182168061179757607f821691505b6020821081036117aa576117a9611753565b5b50919050565b5f6117ba82610f64565b91506117c583610f64565b92508282039050818111156117dd576117dc6116b2565b5b92915050565b7f4e487b71000000000000000000000000000000000000000000000000000000005f52603260045260245ffd5b7f4e6f20766f7465732068617665206265656e20636173742079657400000000005f82015250565b5f611844601b836110ac565b915061184f82611810565b602082019050919050565b5f6020820190508181035f83015261187181611838565b9050919050565b7f5265656e7472616e637947756172643a207265656e7472616e742063616c6c005f82015250565b5f6118ac601f836110ac565b91506118b782611878565b602082019050919050565b5f6020820190508181035f8301526118d9816118a0565b905091905056fea2646970667358221220d27982ab302908f6cf8ae897ca35d1825b155e2a88c38f96371f24aad81f71f864736f6c634300081e0033457870657269656e636564206c6561646572207769746820313520796561727320696e207075626c696320736572766963652e20466f637573206f6e20656475636174696f6e20616e64206865616c746863617265207265666f726d2e546563686e6f6c6f677920656e7472657072656e657572206164766f636174696e6720666f72206469676974616c20696e66726173747275637475726520616e6420696e6e6f766174696f6e2e536f6369616c20776f726b65722064656469636174656420746f20636f6d6d756e69747920646576656c6f706d656e7420616e6420736f6369616c2077656c666172652070726f6772616d732e466f726d6572206d696c6974617279206f666669636572207072696f726974697a696e67206e6174696f6e616c20736563757269747920616e64207665746572616e732720616666616972732e456e7669726f6e6d656e74616c20616374697669737420636f6d6d697474656420746f207375737461696e61626c6520646576656c6f706d656e7420616e6420636c696d61746520616374696f6e2e",
					"opcodes": "PUSH1 0x80 PUSH1 0x40 MSTORE CALLVALUE DUP1 ISZERO PUSH2 0xF JUMPI PUSH0 PUSH0 REVERT JUMPDEST POP PUSH1 0x40 MLOAD PUSH2 0x239D CODESIZE SUB DUP1 PUSH2 0x239D DUP4 CODECOPY DUP2 DUP2 ADD PUSH1 0x40 MSTORE DUP2 ADD SWAP1 PUSH2 0x31 SWAP2 SWAP1 PUSH2 0x3E8 JUMP JUMPDEST PUSH1 0x1 PUSH0 DUP2 SWAP1 SSTORE POP DUP1 DUP3 LT PUSH2 0x7A JUMPI PUSH1 0x40 MLOAD PUSH32 0x8C379A000000000000000000000000000000000000000000000000000000000 DUP2 MSTORE PUSH1 0x4 ADD PUSH2 0x71 SWAP1 PUSH2 0x4A6 JUMP JUMPDEST PUSH1 0x40 MLOAD DUP1 SWAP2 SUB SWAP1 REVERT JUMPDEST TIMESTAMP DUP2 GT PUSH2 0xBC JUMPI PUSH1 0x40 MLOAD PUSH32 0x8C379A000000000000000000000000000000000000000000000000000000000 DUP2 MSTORE PUSH1 0x4 ADD PUSH2 0xB3 SWAP1 PUSH2 0x50E JUMP JUMPDEST PUSH1 0x40 MLOAD DUP1 SWAP2 SUB SWAP1 REVERT JUMPDEST CALLER PUSH1 0x8 PUSH0 PUSH2 0x100 EXP DUP2 SLOAD DUP2 PUSH20 0xFFFFFFFFFFFFFFFFFFFFFFFFFFFFFFFFFFFFFFFF MUL NOT AND SWAP1 DUP4 PUSH20 0xFFFFFFFFFFFFFFFFFFFFFFFFFFFFFFFFFFFFFFFF AND MUL OR SWAP1 SSTORE POP DUP2 PUSH1 0x6 DUP2 SWAP1 SSTORE POP DUP1 PUSH1 0x7 DUP2 SWAP1 SSTORE POP PUSH2 0x167 PUSH1 0x40 MLOAD DUP1 PUSH1 0x40 ADD PUSH1 0x40 MSTORE DUP1 PUSH1 0xD DUP2 MSTORE PUSH1 0x20 ADD PUSH32 0x416C696365204A6F686E736F6E00000000000000000000000000000000000000 DUP2 MSTORE POP PUSH1 0x40 MLOAD DUP1 PUSH1 0x80 ADD PUSH1 0x40 MSTORE DUP1 PUSH1 0x5D DUP2 MSTORE PUSH1 0x20 ADD PUSH2 0x220A PUSH1 0x5D SWAP2 CODECOPY PUSH2 0x31F PUSH1 0x20 SHL PUSH1 0x20 SHR JUMP JUMPDEST PUSH2 0x1C4 PUSH1 0x40 MLOAD DUP1 PUSH1 0x40 ADD PUSH1 0x40 MSTORE DUP1 PUSH1 0x9 DUP2 MSTORE PUSH1 0x20 ADD PUSH32 0x426F6220536D6974680000000000000000000000000000000000000000000000 DUP2 MSTORE POP PUSH1 0x40 MLOAD DUP1 PUSH1 0x80 ADD PUSH1 0x40 MSTORE DUP1 PUSH1 0x4D DUP2 MSTORE PUSH1 0x20 ADD PUSH2 0x2267 PUSH1 0x4D SWAP2 CODECOPY PUSH2 0x31F PUSH1 0x20 SHL PUSH1 0x20 SHR JUMP JUMPDEST PUSH2 0x221 PUSH1 0x40 MLOAD DUP1 PUSH1 0x40 ADD PUSH1 0x40 MSTORE DUP1 PUSH1 0xB DUP2 MSTORE PUSH1 0x20 ADD PUSH32 0x4361726F6C204461766973000000000000000000000000000000000000000000 DUP2 MSTORE POP PUSH1 0x40 MLOAD DUP1 PUSH1 0x80 ADD PUSH1 0x40 MSTORE DUP1 PUSH1 0x4F DUP2 MSTORE PUSH1 0x20 ADD PUSH2 0x234E PUSH1 0x4F SWAP2 CODECOPY PUSH2 0x31F PUSH1 0x20 SHL PUSH1 0x20 SHR JUMP JUMPDEST PUSH2 0x27E PUSH1 0x40 MLOAD DUP1 PUSH1 0x40 ADD PUSH1 0x40 MSTORE DUP1 PUSH1 0xC DUP2 MSTORE PUSH1 0x20 ADD PUSH32 0x44617669642057696C736F6E0000000000000000000000000000000000000000 DUP2 MSTORE POP PUSH1 0x40 MLOAD DUP1 PUSH1 0x80 ADD PUSH1 0x40 MSTORE DUP1 PUSH1 0x4D DUP2 MSTORE PUSH1 0x20 ADD PUSH2 0x2301 PUSH1 0x4D SWAP2 CODECOPY PUSH2 0x31F PUSH1 0x20 SHL PUSH1 0x20 SHR JUMP JUMPDEST PUSH2 0x2DB PUSH1 0x40 MLOAD DUP1 PUSH1 0x40 ADD PUSH1 0x40 MSTORE DUP1 PUSH1 0x9 DUP2 MSTORE PUSH1 0x20 ADD PUSH32 0x4576612042726F776E0000000000000000000000000000000000000000000000 DUP2 MSTORE POP PUSH1 0x40 MLOAD DUP1 PUSH1 0x80 ADD PUSH1 0x40 MSTORE DUP1 PUSH1 0x4D DUP2 MSTORE PUSH1 0x20 ADD PUSH2 0x22B4 PUSH1 0x4D SWAP2 CODECOPY PUSH2 0x31F PUSH1 0x20 SHL PUSH1 0x20 SHR JUMP JUMPDEST PUSH32 0xE9AA078F1077EB24A3EAE58315307861A78B377EE76BEB0D0944C496800AE700 DUP3 DUP3 PUSH1 0x4 SLOAD PUSH1 0x40 MLOAD PUSH2 0x310 SWAP4 SWAP3 SWAP2 SWAP1 PUSH2 0x53B JUMP JUMPDEST PUSH1 0x40 MLOAD DUP1 SWAP2 SUB SWAP1 LOG1 POP POP PUSH2 0x8E7 JUMP JUMPDEST PUSH1 0x4 PUSH0 DUP2 SLOAD DUP1 SWAP3 SWAP2 SWAP1 PUSH2 0x331 SWAP1 PUSH2 0x59D JUMP JUMPDEST SWAP2 SWAP1 POP SSTORE POP PUSH1 0x40 MLOAD DUP1 PUSH1 0x80 ADD PUSH1 0x40 MSTORE DUP1 PUSH1 0x4 SLOAD DUP2 MSTORE PUSH1 0x20 ADD DUP4 DUP2 MSTORE PUSH1 0x20 ADD DUP3 DUP2 MSTORE PUSH1 0x20 ADD PUSH0 DUP2 MSTORE POP PUSH1 0x1 PUSH0 PUSH1 0x4 SLOAD DUP2 MSTORE PUSH1 0x20 ADD SWAP1 DUP2 MSTORE PUSH1 0x20 ADD PUSH0 KECCAK256 PUSH0 DUP3 ADD MLOAD DUP2 PUSH0 ADD SSTORE PUSH1 0x20 DUP3 ADD MLOAD DUP2 PUSH1 0x1 ADD SWAP1 DUP2 PUSH2 0x389 SWAP2 SWAP1 PUSH2 0x818 JUMP JUMPDEST POP PUSH1 0x40 DUP3 ADD MLOAD DUP2 PUSH1 0x2 ADD SWAP1 DUP2 PUSH2 0x39F SWAP2 SWAP1 PUSH2 0x818 JUMP JUMPDEST POP PUSH1 0x60 DUP3 ADD MLOAD DUP2 PUSH1 0x3 ADD SSTORE SWAP1 POP POP POP POP JUMP JUMPDEST PUSH0 PUSH0 REVERT JUMPDEST PUSH0 DUP2 SWAP1 POP SWAP2 SWAP1 POP JUMP JUMPDEST PUSH2 0x3C7 DUP2 PUSH2 0x3B5 JUMP JUMPDEST DUP2 EQ PUSH2 0x3D1 JUMPI PUSH0 PUSH0 REVERT JUMPDEST POP JUMP JUMPDEST PUSH0 DUP2 MLOAD SWAP1 POP PUSH2 0x3E2 DUP2 PUSH2 0x3BE JUMP JUMPDEST SWAP3 SWAP2 POP POP JUMP JUMPDEST PUSH0 PUSH0 PUSH1 0x40 DUP4 DUP6 SUB SLT ISZERO PUSH2 0x3FE JUMPI PUSH2 0x3FD PUSH2 0x3B1 JUMP JUMPDEST JUMPDEST PUSH0 PUSH2 0x40B DUP6 DUP3 DUP7 ADD PUSH2 0x3D4 JUMP JUMPDEST SWAP3 POP POP PUSH1 0x20 PUSH2 0x41C DUP6 DUP3 DUP7 ADD PUSH2 0x3D4 JUMP JUMPDEST SWAP2 POP POP SWAP3 POP SWAP3 SWAP1 POP JUMP JUMPDEST PUSH0 DUP3 DUP3 MSTORE PUSH1 0x20 DUP3 ADD SWAP1 POP SWAP3 SWAP2 POP POP JUMP JUMPDEST PUSH32 0x53746172742074696D65206D757374206265206265666F726520656E64207469 PUSH0 DUP3 ADD MSTORE PUSH32 0x6D65000000000000000000000000000000000000000000000000000000000000 PUSH1 0x20 DUP3 ADD MSTORE POP JUMP JUMPDEST PUSH0 PUSH2 0x490 PUSH1 0x22 DUP4 PUSH2 0x426 JUMP JUMPDEST SWAP2 POP PUSH2 0x49B DUP3 PUSH2 0x436 JUMP JUMPDEST PUSH1 0x40 DUP3 ADD SWAP1 POP SWAP2 SWAP1 POP JUMP JUMPDEST PUSH0 PUSH1 0x20 DUP3 ADD SWAP1 POP DUP2 DUP2 SUB PUSH0 DUP4 ADD MSTORE PUSH2 0x4BD DUP2 PUSH2 0x484 JUMP JUMPDEST SWAP1 POP SWAP2 SWAP1 POP JUMP JUMPDEST PUSH32 0x456E642074696D65206D75737420626520696E20746865206675747572650000 PUSH0 DUP3 ADD MSTORE POP JUMP JUMPDEST PUSH0 PUSH2 0x4F8 PUSH1 0x1E DUP4 PUSH2 0x426 JUMP JUMPDEST SWAP2 POP PUSH2 0x503 DUP3 PUSH2 0x4C4 JUMP JUMPDEST PUSH1 0x20 DUP3 ADD SWAP1 POP SWAP2 SWAP1 POP JUMP JUMPDEST PUSH0 PUSH1 0x20 DUP3 ADD SWAP1 POP DUP2 DUP2 SUB PUSH0 DUP4 ADD MSTORE PUSH2 0x525 DUP2 PUSH2 0x4EC JUMP JUMPDEST SWAP1 POP SWAP2 SWAP1 POP JUMP JUMPDEST PUSH2 0x535 DUP2 PUSH2 0x3B5 JUMP JUMPDEST DUP3 MSTORE POP POP JUMP JUMPDEST PUSH0 PUSH1 0x60 DUP3 ADD SWAP1 POP PUSH2 0x54E PUSH0 DUP4 ADD DUP7 PUSH2 0x52C JUMP JUMPDEST PUSH2 0x55B PUSH1 0x20 DUP4 ADD DUP6 PUSH2 0x52C JUMP JUMPDEST PUSH2 0x568 PUSH1 0x40 DUP4 ADD DUP5 PUSH2 0x52C JUMP JUMPDEST SWAP5 SWAP4 POP POP POP POP JUMP JUMPDEST PUSH32 0x4E487B7100000000000000000000000000000000000000000000000000000000 PUSH0 MSTORE PUSH1 0x11 PUSH1 0x4 MSTORE PUSH1 0x24 PUSH0 REVERT JUMPDEST PUSH0 PUSH2 0x5A7 DUP3 PUSH2 0x3B5 JUMP JUMPDEST SWAP2 POP PUSH32 0xFFFFFFFFFFFFFFFFFFFFFFFFFFFFFFFFFFFFFFFFFFFFFFFFFFFFFFFFFFFFFFFF DUP3 SUB PUSH2 0x5D9 JUMPI PUSH2 0x5D8 PUSH2 0x570 JUMP JUMPDEST JUMPDEST PUSH1 0x1 DUP3 ADD SWAP1 POP SWAP2 SWAP1 POP JUMP JUMPDEST PUSH0 DUP2 MLOAD SWAP1 POP SWAP2 SWAP1 POP JUMP JUMPDEST PUSH32 0x4E487B7100000000000000000000000000000000000000000000000000000000 PUSH0 MSTORE PUSH1 0x41 PUSH1 0x4 MSTORE PUSH1 0x24 PUSH0 REVERT JUMPDEST PUSH32 0x4E487B7100000000000000000000000000000000000000000000000000000000 PUSH0 MSTORE PUSH1 0x22 PUSH1 0x4 MSTORE PUSH1 0x24 PUSH0 REVERT JUMPDEST PUSH0 PUSH1 0x2 DUP3 DIV SWAP1 POP PUSH1 0x1 DUP3 AND DUP1 PUSH2 0x65F JUMPI PUSH1 0x7F DUP3 AND SWAP2 POP JUMPDEST PUSH1 0x20 DUP3 LT DUP2 SUB PUSH2 0x672 JUMPI PUSH2 0x671 PUSH2 0x61B JUMP JUMPDEST JUMPDEST POP SWAP2 SWAP1 POP JUMP JUMPDEST PUSH0 DUP2 SWAP1 POP DUP2 PUSH0 MSTORE PUSH1 0x20 PUSH0 KECCAK256 SWAP1 POP SWAP2 SWAP1 POP JUMP JUMPDEST PUSH0 PUSH1 0x20 PUSH1 0x1F DUP4 ADD DIV SWAP1 POP SWAP2 SWAP1 POP JUMP JUMPDEST PUSH0 DUP3 DUP3 SHL SWAP1 POP SWAP3 SWAP2 POP POP JUMP JUMPDEST PUSH0 PUSH1 0x8 DUP4 MUL PUSH2 0x6D4 PUSH32 0xFFFFFFFFFFFFFFFFFFFFFFFFFFFFFFFFFFFFFFFFFFFFFFFFFFFFFFFFFFFFFFFF DUP3 PUSH2 0x699 JUMP JUMPDEST PUSH2 0x6DE DUP7 DUP4 PUSH2 0x699 JUMP JUMPDEST SWAP6 POP DUP1 NOT DUP5 AND SWAP4 POP DUP1 DUP7 AND DUP5 OR SWAP3 POP POP POP SWAP4 SWAP3 POP POP POP JUMP JUMPDEST PUSH0 DUP2 SWAP1 POP SWAP2 SWAP1 POP JUMP JUMPDEST PUSH0 PUSH2 0x719 PUSH2 0x714 PUSH2 0x70F DUP5 PUSH2 0x3B5 JUMP JUMPDEST PUSH2 0x6F6 JUMP JUMPDEST PUSH2 0x3B5 JUMP JUMPDEST SWAP1 POP SWAP2 SWAP1 POP JUMP JUMPDEST PUSH0 DUP2 SWAP1 POP SWAP2 SWAP1 POP JUMP JUMPDEST PUSH2 0x732 DUP4 PUSH2 0x6FF JUMP JUMPDEST PUSH2 0x746 PUSH2 0x73E DUP3 PUSH2 0x720 JUMP JUMPDEST DUP5 DUP5 SLOAD PUSH2 0x6A5 JUMP JUMPDEST DUP3 SSTORE POP POP POP POP JUMP JUMPDEST PUSH0 PUSH0 SWAP1 POP SWAP1 JUMP JUMPDEST PUSH2 0x75D PUSH2 0x74E JUMP JUMPDEST PUSH2 0x768 DUP2 DUP5 DUP5 PUSH2 0x729 JUMP JUMPDEST POP POP POP JUMP JUMPDEST JUMPDEST DUP2 DUP2 LT ISZERO PUSH2 0x78B JUMPI PUSH2 0x780 PUSH0 DUP3 PUSH2 0x755 JUMP JUMPDEST PUSH1 0x1 DUP2 ADD SWAP1 POP PUSH2 0x76E JUMP JUMPDEST POP POP JUMP JUMPDEST PUSH1 0x1F DUP3 GT ISZERO PUSH2 0x7D0 JUMPI PUSH2 0x7A1 DUP2 PUSH2 0x678 JUMP JUMPDEST PUSH2 0x7AA DUP5 PUSH2 0x68A JUMP JUMPDEST DUP2 ADD PUSH1 0x20 DUP6 LT ISZERO PUSH2 0x7B9 JUMPI DUP2 SWAP1 POP JUMPDEST PUSH2 0x7CD PUSH2 0x7C5 DUP6 PUSH2 0x68A JUMP JUMPDEST DUP4 ADD DUP3 PUSH2 0x76D JUMP JUMPDEST POP POP JUMPDEST POP POP POP JUMP JUMPDEST PUSH0 DUP3 DUP3 SHR SWAP1 POP SWAP3 SWAP2 POP POP JUMP JUMPDEST PUSH0 PUSH2 0x7F0 PUSH0 NOT DUP5 PUSH1 0x8 MUL PUSH2 0x7D5 JUMP JUMPDEST NOT DUP1 DUP4 AND SWAP2 POP POP SWAP3 SWAP2 POP POP JUMP JUMPDEST PUSH0 PUSH2 0x808 DUP4 DUP4 PUSH2 0x7E1 JUMP JUMPDEST SWAP2 POP DUP3 PUSH1 0x2 MUL DUP3 OR SWAP1 POP SWAP3 SWAP2 POP POP JUMP JUMPDEST PUSH2 0x821 DUP3 PUSH2 0x5E4 JUMP JUMPDEST PUSH8 0xFFFFFFFFFFFFFFFF DUP2 GT ISZERO PUSH2 0x83A JUMPI PUSH2 0x839 PUSH2 0x5EE JUMP JUMPDEST JUMPDEST PUSH2 0x844 DUP3 SLOAD PUSH2 0x648 JUMP JUMPDEST PUSH2 0x84F DUP3 DUP3 DUP6 PUSH2 0x78F JUMP JUMPDEST PUSH0 PUSH1 0x20 SWAP1 POP PUSH1 0x1F DUP4 GT PUSH1 0x1 DUP2 EQ PUSH2 0x880 JUMPI PUSH0 DUP5 ISZERO PUSH2 0x86E JUMPI DUP3 DUP8 ADD MLOAD SWAP1 POP JUMPDEST PUSH2 0x878 DUP6 DUP3 PUSH2 0x7FD JUMP JUMPDEST DUP7 SSTORE POP PUSH2 0x8DF JUMP JUMPDEST PUSH1 0x1F NOT DUP5 AND PUSH2 0x88E DUP7 PUSH2 0x678 JUMP JUMPDEST PUSH0 JUMPDEST DUP3 DUP2 LT ISZERO PUSH2 0x8B5 JUMPI DUP5 DUP10 ADD MLOAD DUP3 SSTORE PUSH1 0x1 DUP3 ADD SWAP2 POP PUSH1 0x20 DUP6 ADD SWAP5 POP PUSH1 0x20 DUP2 ADD SWAP1 POP PUSH2 0x890 JUMP JUMPDEST DUP7 DUP4 LT ISZERO PUSH2 0x8D2 JUMPI DUP5 DUP10 ADD MLOAD PUSH2 0x8CE PUSH1 0x1F DUP10 AND DUP3 PUSH2 0x7E1 JUMP JUMPDEST DUP4 SSTORE POP JUMPDEST PUSH1 0x1 PUSH1 0x2 DUP9 MUL ADD DUP9 SSTORE POP POP POP JUMPDEST POP POP POP POP POP POP JUMP JUMPDEST PUSH2 0x1916 DUP1 PUSH2 0x8F4 PUSH0 CODECOPY PUSH0 RETURN INVALID PUSH1 0x80 PUSH1 0x40 MSTORE CALLVALUE DUP1 ISZERO PUSH2 0xF JUMPI PUSH0 PUSH0 REVERT JUMPDEST POP PUSH1 0x4 CALLDATASIZE LT PUSH2 0x109 JUMPI PUSH0 CALLDATALOAD PUSH1 0xE0 SHR DUP1 PUSH4 0x35B8E820 GT PUSH2 0xA0 JUMPI DUP1 PUSH4 0x9E136E64 GT PUSH2 0x6F JUMPI DUP1 PUSH4 0x9E136E64 EQ PUSH2 0x2B1 JUMPI DUP1 PUSH4 0xAD84C2DA EQ PUSH2 0x2CF JUMPI DUP1 PUSH4 0xC5980C94 EQ PUSH2 0x2FF JUMPI DUP1 PUSH4 0xDAC6270D EQ PUSH2 0x31D JUMPI DUP1 PUSH4 0xE3E6CA7D EQ PUSH2 0x33B JUMPI PUSH2 0x109 JUMP JUMPDEST DUP1 PUSH4 0x35B8E820 EQ PUSH2 0x222 JUMPI DUP1 PUSH4 0x4717F97C EQ PUSH2 0x252 JUMPI DUP1 PUSH4 0x86852DCA EQ PUSH2 0x270 JUMPI DUP1 PUSH4 0x8E7EA5B2 EQ PUSH2 0x291 JUMPI PUSH2 0x109 JUMP JUMPDEST DUP1 PUSH4 0x1BDBB2AB GT PUSH2 0xDC JUMPI DUP1 PUSH4 0x1BDBB2AB EQ PUSH2 0x195 JUMPI DUP1 PUSH4 0x2D35A8A2 EQ PUSH2 0x1B3 JUMPI DUP1 PUSH4 0x2E6997FE EQ PUSH2 0x1D1 JUMPI DUP1 PUSH4 0x3477EE2E EQ PUSH2 0x1EF JUMPI PUSH2 0x109 JUMP JUMPDEST DUP1 PUSH4 0x121B93F EQ PUSH2 0x10D JUMPI DUP1 PUSH4 0x9EEF43E EQ PUSH2 0x129 JUMPI DUP1 PUSH4 0xD15FD77 EQ PUSH2 0x159 JUMPI DUP1 PUSH4 0x122902A6 EQ PUSH2 0x177 JUMPI JUMPDEST PUSH0 PUSH0 REVERT JUMPDEST PUSH2 0x127 PUSH1 0x4 DUP1 CALLDATASIZE SUB DUP2 ADD SWAP1 PUSH2 0x122 SWAP2 SWAP1 PUSH2 0xF97 JUMP JUMPDEST PUSH2 0x36B JUMP JUMPDEST STOP JUMPDEST PUSH2 0x143 PUSH1 0x4 DUP1 CALLDATASIZE SUB DUP2 ADD SWAP1 PUSH2 0x13E SWAP2 SWAP1 PUSH2 0x101C JUMP JUMPDEST PUSH2 0x60A JUMP JUMPDEST PUSH1 0x40 MLOAD PUSH2 0x150 SWAP2 SWAP1 PUSH2 0x1061 JUMP JUMPDEST PUSH1 0x40 MLOAD DUP1 SWAP2 SUB SWAP1 RETURN JUMPDEST PUSH2 0x161 PUSH2 0x627 JUMP JUMPDEST PUSH1 0x40 MLOAD PUSH2 0x16E SWAP2 SWAP1 PUSH2 0x1089 JUMP JUMPDEST PUSH1 0x40 MLOAD DUP1 SWAP2 SUB SWAP1 RETURN JUMPDEST PUSH2 0x17F PUSH2 0x62D JUMP JUMPDEST PUSH1 0x40 MLOAD PUSH2 0x18C SWAP2 SWAP1 PUSH2 0x1112 JUMP JUMPDEST PUSH1 0x40 MLOAD DUP1 SWAP2 SUB SWAP1 RETURN JUMPDEST PUSH2 0x19D PUSH2 0x6F8 JUMP JUMPDEST PUSH1 0x40 MLOAD PUSH2 0x1AA SWAP2 SWAP1 PUSH2 0x1141 JUMP JUMPDEST PUSH1 0x40 MLOAD DUP1 SWAP2 SUB SWAP1 RETURN JUMPDEST PUSH2 0x1BB PUSH2 0x71D JUMP JUMPDEST PUSH1 0x40 MLOAD PUSH2 0x1C8 SWAP2 SWAP1 PUSH2 0x1089 JUMP JUMPDEST PUSH1 0x40 MLOAD DUP1 SWAP2 SUB SWAP1 RETURN JUMPDEST PUSH2 0x1D9 PUSH2 0x723 JUMP JUMPDEST PUSH1 0x40 MLOAD PUSH2 0x1E6 SWAP2 SWAP1 PUSH2 0x12D3 JUMP JUMPDEST PUSH1 0x40 MLOAD DUP1 SWAP2 SUB SWAP1 RETURN JUMPDEST PUSH2 0x209 PUSH1 0x4 DUP1 CALLDATASIZE SUB DUP2 ADD SWAP1 PUSH2 0x204 SWAP2 SWAP1 PUSH2 0xF97 JUMP JUMPDEST PUSH2 0x921 JUMP JUMPDEST PUSH1 0x40 MLOAD PUSH2 0x219 SWAP5 SWAP4 SWAP3 SWAP2 SWAP1 PUSH2 0x12F3 JUMP JUMPDEST PUSH1 0x40 MLOAD DUP1 SWAP2 SUB SWAP1 RETURN JUMPDEST PUSH2 0x23C PUSH1 0x4 DUP1 CALLDATASIZE SUB DUP2 ADD SWAP1 PUSH2 0x237 SWAP2 SWAP1 PUSH2 0xF97 JUMP JUMPDEST PUSH2 0xA59 JUMP JUMPDEST PUSH1 0x40 MLOAD PUSH2 0x249 SWAP2 SWAP1 PUSH2 0x13AB JUMP JUMPDEST PUSH1 0x40 MLOAD DUP1 SWAP2 SUB SWAP1 RETURN JUMPDEST PUSH2 0x25A PUSH2 0xC09 JUMP JUMPDEST PUSH1 0x40 MLOAD PUSH2 0x267 SWAP2 SWAP1 PUSH2 0x1473 JUMP JUMPDEST PUSH1 0x40 MLOAD DUP1 SWAP2 SUB SWAP1 RETURN JUMPDEST PUSH2 0x278 PUSH2 0xCC3 JUMP JUMPDEST PUSH1 0x40 MLOAD PUSH2 0x288 SWAP5 SWAP4 SWAP3 SWAP2 SWAP1 PUSH2 0x1493 JUMP JUMPDEST PUSH1 0x40 MLOAD DUP1 SWAP2 SUB SWAP1 RETURN JUMPDEST PUSH2 0x299 PUSH2 0xCE1 JUMP JUMPDEST PUSH1 0x40 MLOAD PUSH2 0x2A8 SWAP4 SWAP3 SWAP2 SWAP1 PUSH2 0x14D6 JUMP JUMPDEST PUSH1 0x40 MLOAD DUP1 SWAP2 SUB SWAP1 RETURN JUMPDEST PUSH2 0x2B9 PUSH2 0xE38 JUMP JUMPDEST PUSH1 0x40 MLOAD PUSH2 0x2C6 SWAP2 SWAP1 PUSH2 0x1089 JUMP JUMPDEST PUSH1 0x40 MLOAD DUP1 SWAP2 SUB SWAP1 RETURN JUMPDEST PUSH2 0x2E9 PUSH1 0x4 DUP1 CALLDATASIZE SUB DUP2 ADD SWAP1 PUSH2 0x2E4 SWAP2 SWAP1 PUSH2 0x101C JUMP JUMPDEST PUSH2 0xE3E JUMP JUMPDEST PUSH1 0x40 MLOAD PUSH2 0x2F6 SWAP2 SWAP1 PUSH2 0x1089 JUMP JUMPDEST PUSH1 0x40 MLOAD DUP1 SWAP2 SUB SWAP1 RETURN JUMPDEST PUSH2 0x307 PUSH2 0xE53 JUMP JUMPDEST PUSH1 0x40 MLOAD PUSH2 0x314 SWAP2 SWAP1 PUSH2 0x1089 JUMP JUMPDEST PUSH1 0x40 MLOAD DUP1 SWAP2 SUB SWAP1 RETURN JUMPDEST PUSH2 0x325 PUSH2 0xE59 JUMP JUMPDEST PUSH1 0x40 MLOAD PUSH2 0x332 SWAP2 SWAP1 PUSH2 0x1089 JUMP JUMPDEST PUSH1 0x40 MLOAD DUP1 SWAP2 SUB SWAP1 RETURN JUMPDEST PUSH2 0x355 PUSH1 0x4 DUP1 CALLDATASIZE SUB DUP2 ADD SWAP1 PUSH2 0x350 SWAP2 SWAP1 PUSH2 0x101C JUMP JUMPDEST PUSH2 0xE92 JUMP JUMPDEST PUSH1 0x40 MLOAD PUSH2 0x362 SWAP2 SWAP1 PUSH2 0x1061 JUMP JUMPDEST PUSH1 0x40 MLOAD DUP1 SWAP2 SUB SWAP1 RETURN JUMPDEST PUSH2 0x373 PUSH2 0xEE4 JUMP JUMPDEST PUSH1 0x6 SLOAD TIMESTAMP LT ISZERO PUSH2 0x3B8 JUMPI PUSH1 0x40 MLOAD PUSH32 0x8C379A000000000000000000000000000000000000000000000000000000000 DUP2 MSTORE PUSH1 0x4 ADD PUSH2 0x3AF SWAP1 PUSH2 0x155C JUMP JUMPDEST PUSH1 0x40 MLOAD DUP1 SWAP2 SUB SWAP1 REVERT JUMPDEST PUSH1 0x7 SLOAD TIMESTAMP GT ISZERO PUSH2 0x3FD JUMPI PUSH1 0x40 MLOAD PUSH32 0x8C379A000000000000000000000000000000000000000000000000000000000 DUP2 MSTORE PUSH1 0x4 ADD PUSH2 0x3F4 SWAP1 PUSH2 0x15C4 JUMP JUMPDEST PUSH1 0x40 MLOAD DUP1 SWAP2 SUB SWAP1 REVERT JUMPDEST PUSH1 0x2 PUSH0 CALLER PUSH20 0xFFFFFFFFFFFFFFFFFFFFFFFFFFFFFFFFFFFFFFFF AND PUSH20 0xFFFFFFFFFFFFFFFFFFFFFFFFFFFFFFFFFFFFFFFF AND DUP2 MSTORE PUSH1 0x20 ADD SWAP1 DUP2 MSTORE PUSH1 0x20 ADD PUSH0 KECCAK256 PUSH0 SWAP1 SLOAD SWAP1 PUSH2 0x100 EXP SWAP1 DIV PUSH1 0xFF AND ISZERO PUSH2 0x487 JUMPI PUSH1 0x40 MLOAD PUSH32 0x8C379A000000000000000000000000000000000000000000000000000000000 DUP2 MSTORE PUSH1 0x4 ADD PUSH2 0x47E SWAP1 PUSH2 0x162C JUMP JUMPDEST PUSH1 0x40 MLOAD DUP1 SWAP2 SUB SWAP1 REVERT JUMPDEST DUP1 PUSH0 DUP2 GT DUP1 ISZERO PUSH2 0x499 JUMPI POP PUSH1 0x4 SLOAD DUP2 GT ISZERO JUMPDEST PUSH2 0x4D8 JUMPI PUSH1 0x40 MLOAD PUSH32 0x8C379A000000000000000000000000000000000000000000000000000000000 DUP2 MSTORE PUSH1 0x4 ADD PUSH2 0x4CF SWAP1 PUSH2 0x1694 JUMP JUMPDEST PUSH1 0x40 MLOAD DUP1 SWAP2 SUB SWAP1 REVERT JUMPDEST PUSH1 0x1 PUSH1 0x2 PUSH0 CALLER PUSH20 0xFFFFFFFFFFFFFFFFFFFFFFFFFFFFFFFFFFFFFFFF AND PUSH20 0xFFFFFFFFFFFFFFFFFFFFFFFFFFFFFFFFFFFFFFFF AND DUP2 MSTORE PUSH1 0x20 ADD SWAP1 DUP2 MSTORE PUSH1 0x20 ADD PUSH0 KECCAK256 PUSH0 PUSH2 0x100 EXP DUP2 SLOAD DUP2 PUSH1 0xFF MUL NOT AND SWAP1 DUP4 ISZERO ISZERO MUL OR SWAP1 SSTORE POP DUP2 PUSH1 0x3 PUSH0 CALLER PUSH20 0xFFFFFFFFFFFFFFFFFFFFFFFFFFFFFFFFFFFFFFFF AND PUSH20 0xFFFFFFFFFFFFFFFFFFFFFFFFFFFFFFFFFFFFFFFF AND DUP2 MSTORE PUSH1 0x20 ADD SWAP1 DUP2 MSTORE PUSH1 0x20 ADD PUSH0 KECCAK256 DUP2 SWAP1 SSTORE POP PUSH1 0x1 PUSH0 DUP4 DUP2 MSTORE PUSH1 0x20 ADD SWAP1 DUP2 MSTORE PUSH1 0x20 ADD PUSH0 KECCAK256 PUSH1 0x3 ADD PUSH0 DUP2 SLOAD DUP1 SWAP3 SWAP2 SWAP1 PUSH2 0x593 SWAP1 PUSH2 0x16DF JUMP JUMPDEST SWAP2 SWAP1 POP SSTORE POP PUSH1 0x5 PUSH0 DUP2 SLOAD DUP1 SWAP3 SWAP2 SWAP1 PUSH2 0x5AA SWAP1 PUSH2 0x16DF JUMP JUMPDEST SWAP2 SWAP1 POP SSTORE POP DUP2 CALLER PUSH20 0xFFFFFFFFFFFFFFFFFFFFFFFFFFFFFFFFFFFFFFFF AND PUSH32 0xB4CFECF70861B7B150D8337780D34FB4CBC2114B5FB1FE51A5C5FCA1849F7274 TIMESTAMP PUSH1 0x40 MLOAD PUSH2 0x5F6 SWAP2 SWAP1 PUSH2 0x1089 JUMP JUMPDEST PUSH1 0x40 MLOAD DUP1 SWAP2 SUB SWAP1 LOG3 POP PUSH2 0x607 PUSH2 0xF31 JUMP JUMPDEST POP JUMP JUMPDEST PUSH1 0x2 PUSH1 0x20 MSTORE DUP1 PUSH0 MSTORE PUSH1 0x40 PUSH0 KECCAK256 PUSH0 SWAP2 POP SLOAD SWAP1 PUSH2 0x100 EXP SWAP1 DIV PUSH1 0xFF AND DUP2 JUMP JUMPDEST PUSH1 0x5 SLOAD DUP2 JUMP JUMPDEST PUSH1 0x60 PUSH1 0x6 SLOAD TIMESTAMP LT ISZERO PUSH2 0x676 JUMPI PUSH1 0x40 MLOAD DUP1 PUSH1 0x40 ADD PUSH1 0x40 MSTORE DUP1 PUSH1 0xB DUP2 MSTORE PUSH1 0x20 ADD PUSH32 0x4E6F742053746172746564000000000000000000000000000000000000000000 DUP2 MSTORE POP SWAP1 POP PUSH2 0x6F5 JUMP JUMPDEST PUSH1 0x7 SLOAD TIMESTAMP GT PUSH2 0x6BC JUMPI PUSH1 0x40 MLOAD DUP1 PUSH1 0x40 ADD PUSH1 0x40 MSTORE DUP1 PUSH1 0x6 DUP2 MSTORE PUSH1 0x20 ADD PUSH32 0x4163746976650000000000000000000000000000000000000000000000000000 DUP2 MSTORE POP SWAP1 POP PUSH2 0x6F5 JUMP JUMPDEST PUSH1 0x40 MLOAD DUP1 PUSH1 0x40 ADD PUSH1 0x40 MSTORE DUP1 PUSH1 0x5 DUP2 MSTORE PUSH1 0x20 ADD PUSH32 0x456E646564000000000000000000000000000000000000000000000000000000 DUP2 MSTORE POP SWAP1 POP JUMPDEST SWAP1 JUMP JUMPDEST PUSH1 0x8 PUSH0 SWAP1 SLOAD SWAP1 PUSH2 0x100 EXP SWAP1 DIV PUSH20 0xFFFFFFFFFFFFFFFFFFFFFFFFFFFFFFFFFFFFFFFF AND DUP2 JUMP JUMPDEST PUSH1 0x4 SLOAD DUP2 JUMP JUMPDEST PUSH1 0x60 PUSH0 PUSH1 0x4 SLOAD PUSH8 0xFFFFFFFFFFFFFFFF DUP2 GT ISZERO PUSH2 0x742 JUMPI PUSH2 0x741 PUSH2 0x1726 JUMP JUMPDEST JUMPDEST PUSH1 0x40 MLOAD SWAP1 DUP1 DUP3 MSTORE DUP1 PUSH1 0x20 MUL PUSH1 0x20 ADD DUP3 ADD PUSH1 0x40 MSTORE DUP1 ISZERO PUSH2 0x77B JUMPI DUP2 PUSH1 0x20 ADD JUMPDEST PUSH2 0x768 PUSH2 0xF3A JUMP JUMPDEST DUP2 MSTORE PUSH1 0x20 ADD SWAP1 PUSH1 0x1 SWAP1 SUB SWAP1 DUP2 PUSH2 0x760 JUMPI SWAP1 POP JUMPDEST POP SWAP1 POP PUSH0 PUSH1 0x1 SWAP1 POP JUMPDEST PUSH1 0x4 SLOAD DUP2 GT PUSH2 0x919 JUMPI PUSH1 0x1 PUSH0 DUP3 DUP2 MSTORE PUSH1 0x20 ADD SWAP1 DUP2 MSTORE PUSH1 0x20 ADD PUSH0 KECCAK256 PUSH1 0x40 MLOAD DUP1 PUSH1 0x80 ADD PUSH1 0x40 MSTORE SWAP1 DUP2 PUSH0 DUP3 ADD SLOAD DUP2 MSTORE PUSH1 0x20 ADD PUSH1 0x1 DUP3 ADD DUP1 SLOAD PUSH2 0x7C2 SWAP1 PUSH2 0x1780 JUMP JUMPDEST DUP1 PUSH1 0x1F ADD PUSH1 0x20 DUP1 SWAP2 DIV MUL PUSH1 0x20 ADD PUSH1 0x40 MLOAD SWAP1 DUP2 ADD PUSH1 0x40 MSTORE DUP1 SWAP3 SWAP2 SWAP1 DUP2 DUP2 MSTORE PUSH1 0x20 ADD DUP3 DUP1 SLOAD PUSH2 0x7EE SWAP1 PUSH2 0x1780 JUMP JUMPDEST DUP1 ISZERO PUSH2 0x839 JUMPI DUP1 PUSH1 0x1F LT PUSH2 0x810 JUMPI PUSH2 0x100 DUP1 DUP4 SLOAD DIV MUL DUP4 MSTORE SWAP2 PUSH1 0x20 ADD SWAP2 PUSH2 0x839 JUMP JUMPDEST DUP3 ADD SWAP2 SWAP1 PUSH0 MSTORE PUSH1 0x20 PUSH0 KECCAK256 SWAP1 JUMPDEST DUP2 SLOAD DUP2 MSTORE SWAP1 PUSH1 0x1 ADD SWAP1 PUSH1 0x20 ADD DUP1 DUP4 GT PUSH2 0x81C JUMPI DUP3 SWAP1 SUB PUSH1 0x1F AND DUP3 ADD SWAP2 JUMPDEST POP POP POP POP POP DUP2 MSTORE PUSH1 0x20 ADD PUSH1 0x2 DUP3 ADD DUP1 SLOAD PUSH2 0x852 SWAP1 PUSH2 0x1780 JUMP JUMPDEST DUP1 PUSH1 0x1F ADD PUSH1 0x20 DUP1 SWAP2 DIV MUL PUSH1 0x20 ADD PUSH1 0x40 MLOAD SWAP1 DUP2 ADD PUSH1 0x40 MSTORE DUP1 SWAP3 SWAP2 SWAP1 DUP2 DUP2 MSTORE PUSH1 0x20 ADD DUP3 DUP1 SLOAD PUSH2 0x87E SWAP1 PUSH2 0x1780 JUMP JUMPDEST DUP1 ISZERO PUSH2 0x8C9 JUMPI DUP1 PUSH1 0x1F LT PUSH2 0x8A0 JUMPI PUSH2 0x100 DUP1 DUP4 SLOAD DIV MUL DUP4 MSTORE SWAP2 PUSH1 0x20 ADD SWAP2 PUSH2 0x8C9 JUMP JUMPDEST DUP3 ADD SWAP2 SWAP1 PUSH0 MSTORE PUSH1 0x20 PUSH0 KECCAK256 SWAP1 JUMPDEST DUP2 SLOAD DUP2 MSTORE SWAP1 PUSH1 0x1 ADD SWAP1 PUSH1 0x20 ADD DUP1 DUP4 GT PUSH2 0x8AC JUMPI DUP3 SWAP1 SUB PUSH1 0x1F AND DUP3 ADD SWAP2 JUMPDEST POP POP POP POP POP DUP2 MSTORE PUSH1 0x20 ADD PUSH1 0x3 DUP3 ADD SLOAD DUP2 MSTORE POP POP DUP3 PUSH1 0x1 DUP4 PUSH2 0x8EA SWAP2 SWAP1 PUSH2 0x17B0 JUMP JUMPDEST DUP2 MLOAD DUP2 LT PUSH2 0x8FB JUMPI PUSH2 0x8FA PUSH2 0x17E3 JUMP JUMPDEST JUMPDEST PUSH1 0x20 MUL PUSH1 0x20 ADD ADD DUP2 SWAP1 MSTORE POP DUP1 DUP1 PUSH2 0x911 SWAP1 PUSH2 0x16DF JUMP JUMPDEST SWAP2 POP POP PUSH2 0x784 JUMP JUMPDEST POP DUP1 SWAP2 POP POP SWAP1 JUMP JUMPDEST PUSH1 0x1 PUSH1 0x20 MSTORE DUP1 PUSH0 MSTORE PUSH1 0x40 PUSH0 KECCAK256 PUSH0 SWAP2 POP SWAP1 POP DUP1 PUSH0 ADD SLOAD SWAP1 DUP1 PUSH1 0x1 ADD DUP1 SLOAD PUSH2 0x946 SWAP1 PUSH2 0x1780 JUMP JUMPDEST DUP1 PUSH1 0x1F ADD PUSH1 0x20 DUP1 SWAP2 DIV MUL PUSH1 0x20 ADD PUSH1 0x40 MLOAD SWAP1 DUP2 ADD PUSH1 0x40 MSTORE DUP1 SWAP3 SWAP2 SWAP1 DUP2 DUP2 MSTORE PUSH1 0x20 ADD DUP3 DUP1 SLOAD PUSH2 0x972 SWAP1 PUSH2 0x1780 JUMP JUMPDEST DUP1 ISZERO PUSH2 0x9BD JUMPI DUP1 PUSH1 0x1F LT PUSH2 0x994 JUMPI PUSH2 0x100 DUP1 DUP4 SLOAD DIV MUL DUP4 MSTORE SWAP2 PUSH1 0x20 ADD SWAP2 PUSH2 0x9BD JUMP JUMPDEST DUP3 ADD SWAP2 SWAP1 PUSH0 MSTORE PUSH1 0x20 PUSH0 KECCAK256 SWAP1 JUMPDEST DUP2 SLOAD DUP2 MSTORE SWAP1 PUSH1 0x1 ADD SWAP1 PUSH1 0x20 ADD DUP1 DUP4 GT PUSH2 0x9A0 JUMPI DUP3 SWAP1 SUB PUSH1 0x1F AND DUP3 ADD SWAP2 JUMPDEST POP POP POP POP POP SWAP1 DUP1 PUSH1 0x2 ADD DUP1 SLOAD PUSH2 0x9D2 SWAP1 PUSH2 0x1780 JUMP JUMPDEST DUP1 PUSH1 0x1F ADD PUSH1 0x20 DUP1 SWAP2 DIV MUL PUSH1 0x20 ADD PUSH1 0x40 MLOAD SWAP1 DUP2 ADD PUSH1 0x40 MSTORE DUP1 SWAP3 SWAP2 SWAP1 DUP2 DUP2 MSTORE PUSH1 0x20 ADD DUP3 DUP1 SLOAD PUSH2 0x9FE SWAP1 PUSH2 0x1780 JUMP JUMPDEST DUP1 ISZERO PUSH2 0xA49 JUMPI DUP1 PUSH1 0x1F LT PUSH2 0xA20 JUMPI PUSH2 0x100 DUP1 DUP4 SLOAD DIV MUL DUP4 MSTORE SWAP2 PUSH1 0x20 ADD SWAP2 PUSH2 0xA49 JUMP JUMPDEST DUP3 ADD SWAP2 SWAP1 PUSH0 MSTORE PUSH1 0x20 PUSH0 KECCAK256 SWAP1 JUMPDEST DUP2 SLOAD DUP2 MSTORE SWAP1 PUSH1 0x1 ADD SWAP1 PUSH1 0x20 ADD DUP1 DUP4 GT PUSH2 0xA2C JUMPI DUP3 SWAP1 SUB PUSH1 0x1F AND DUP3 ADD SWAP2 JUMPDEST POP POP POP POP POP SWAP1 DUP1 PUSH1 0x3 ADD SLOAD SWAP1 POP DUP5 JUMP JUMPDEST PUSH2 0xA61 PUSH2 0xF3A JUMP JUMPDEST DUP2 PUSH0 DUP2 GT DUP1 ISZERO PUSH2 0xA73 JUMPI POP PUSH1 0x4 SLOAD DUP2 GT ISZERO JUMPDEST PUSH2 0xAB2 JUMPI PUSH1 0x40 MLOAD PUSH32 0x8C379A000000000000000000000000000000000000000000000000000000000 DUP2 MSTORE PUSH1 0x4 ADD PUSH2 0xAA9 SWAP1 PUSH2 0x1694 JUMP JUMPDEST PUSH1 0x40 MLOAD DUP1 SWAP2 SUB SWAP1 REVERT JUMPDEST PUSH1 0x1 PUSH0 DUP5 DUP2 MSTORE PUSH1 0x20 ADD SWAP1 DUP2 MSTORE PUSH1 0x20 ADD PUSH0 KECCAK256 PUSH1 0x40 MLOAD DUP1 PUSH1 0x80 ADD PUSH1 0x40 MSTORE SWAP1 DUP2 PUSH0 DUP3 ADD SLOAD DUP2 MSTORE PUSH1 0x20 ADD PUSH1 0x1 DUP3 ADD DUP1 SLOAD PUSH2 0xAE7 SWAP1 PUSH2 0x1780 JUMP JUMPDEST DUP1 PUSH1 0x1F ADD PUSH1 0x20 DUP1 SWAP2 DIV MUL PUSH1 0x20 ADD PUSH1 0x40 MLOAD SWAP1 DUP2 ADD PUSH1 0x40 MSTORE DUP1 SWAP3 SWAP2 SWAP1 DUP2 DUP2 MSTORE PUSH1 0x20 ADD DUP3 DUP1 SLOAD PUSH2 0xB13 SWAP1 PUSH2 0x1780 JUMP JUMPDEST DUP1 ISZERO PUSH2 0xB5E JUMPI DUP1 PUSH1 0x1F LT PUSH2 0xB35 JUMPI PUSH2 0x100 DUP1 DUP4 SLOAD DIV MUL DUP4 MSTORE SWAP2 PUSH1 0x20 ADD SWAP2 PUSH2 0xB5E JUMP JUMPDEST DUP3 ADD SWAP2 SWAP1 PUSH0 MSTORE PUSH1 0x20 PUSH0 KECCAK256 SWAP1 JUMPDEST DUP2 SLOAD DUP2 MSTORE SWAP1 PUSH1 0x1 ADD SWAP1 PUSH1 0x20 ADD DUP1 DUP4 GT PUSH2 0xB41 JUMPI DUP3 SWAP1 SUB PUSH1 0x1F AND DUP3 ADD SWAP2 JUMPDEST POP POP POP POP POP DUP2 MSTORE PUSH1 0x20 ADD PUSH1 0x2 DUP3 ADD DUP1 SLOAD PUSH2 0xB77 SWAP1 PUSH2 0x1780 JUMP JUMPDEST DUP1 PUSH1 0x1F ADD PUSH1 0x20 DUP1 SWAP2 DIV MUL PUSH1 0x20 ADD PUSH1 0x40 MLOAD SWAP1 DUP2 ADD PUSH1 0x40 MSTORE DUP1 SWAP3 SWAP2 SWAP1 DUP2 DUP2 MSTORE PUSH1 0x20 ADD DUP3 DUP1 SLOAD PUSH2 0xBA3 SWAP1 PUSH2 0x1780 JUMP JUMPDEST DUP1 ISZERO PUSH2 0xBEE JUMPI DUP1 PUSH1 0x1F LT PUSH2 0xBC5 JUMPI PUSH2 0x100 DUP1 DUP4 SLOAD DIV MUL DUP4 MSTORE SWAP2 PUSH1 0x20 ADD SWAP2 PUSH2 0xBEE JUMP JUMPDEST DUP3 ADD SWAP2 SWAP1 PUSH0 MSTORE PUSH1 0x20 PUSH0 KECCAK256 SWAP1 JUMPDEST DUP2 SLOAD DUP2 MSTORE SWAP1 PUSH1 0x1 ADD SWAP1 PUSH1 0x20 ADD DUP1 DUP4 GT PUSH2 0xBD1 JUMPI DUP3 SWAP1 SUB PUSH1 0x1F AND DUP3 ADD SWAP2 JUMPDEST POP POP POP POP POP DUP2 MSTORE PUSH1 0x20 ADD PUSH1 0x3 DUP3 ADD SLOAD DUP2 MSTORE POP POP SWAP2 POP POP SWAP2 SWAP1 POP JUMP JUMPDEST PUSH1 0x60 PUSH0 PUSH1 0x4 SLOAD PUSH8 0xFFFFFFFFFFFFFFFF DUP2 GT ISZERO PUSH2 0xC28 JUMPI PUSH2 0xC27 PUSH2 0x1726 JUMP JUMPDEST JUMPDEST PUSH1 0x40 MLOAD SWAP1 DUP1 DUP3 MSTORE DUP1 PUSH1 0x20 MUL PUSH1 0x20 ADD DUP3 ADD PUSH1 0x40 MSTORE DUP1 ISZERO PUSH2 0xC56 JUMPI DUP2 PUSH1 0x20 ADD PUSH1 0x20 DUP3 MUL DUP1 CALLDATASIZE DUP4 CALLDATACOPY DUP1 DUP3 ADD SWAP2 POP POP SWAP1 POP JUMPDEST POP SWAP1 POP PUSH0 PUSH1 0x1 SWAP1 POP JUMPDEST PUSH1 0x4 SLOAD DUP2 GT PUSH2 0xCBB JUMPI PUSH1 0x1 PUSH0 DUP3 DUP2 MSTORE PUSH1 0x20 ADD SWAP1 DUP2 MSTORE PUSH1 0x20 ADD PUSH0 KECCAK256 PUSH1 0x3 ADD SLOAD DUP3 PUSH1 0x1 DUP4 PUSH2 0xC8B SWAP2 SWAP1 PUSH2 0x17B0 JUMP JUMPDEST DUP2 MLOAD DUP2 LT PUSH2 0xC9C JUMPI PUSH2 0xC9B PUSH2 0x17E3 JUMP JUMPDEST JUMPDEST PUSH1 0x20 MUL PUSH1 0x20 ADD ADD DUP2 DUP2 MSTORE POP POP DUP1 DUP1 PUSH2 0xCB3 SWAP1 PUSH2 0x16DF JUMP JUMPDEST SWAP2 POP POP PUSH2 0xC5F JUMP JUMPDEST POP DUP1 SWAP2 POP POP SWAP1 JUMP JUMPDEST PUSH0 PUSH0 PUSH0 PUSH0 PUSH1 0x6 SLOAD PUSH1 0x7 SLOAD PUSH1 0x5 SLOAD PUSH1 0x4 SLOAD SWAP4 POP SWAP4 POP SWAP4 POP SWAP4 POP SWAP1 SWAP2 SWAP3 SWAP4 JUMP JUMPDEST PUSH0 PUSH1 0x60 PUSH0 PUSH0 PUSH1 0x5 SLOAD GT PUSH2 0xD29 JUMPI PUSH1 0x40 MLOAD PUSH32 0x8C379A000000000000000000000000000000000000000000000000000000000 DUP2 MSTORE PUSH1 0x4 ADD PUSH2 0xD20 SWAP1 PUSH2 0x185A JUMP JUMPDEST PUSH1 0x40 MLOAD DUP1 SWAP2 SUB SWAP1 REVERT JUMPDEST PUSH0 PUSH0 SWAP1 POP PUSH0 PUSH0 SWAP1 POP PUSH0 PUSH1 0x1 SWAP1 POP JUMPDEST PUSH1 0x4 SLOAD DUP2 GT PUSH2 0xD8A JUMPI DUP3 PUSH1 0x1 PUSH0 DUP4 DUP2 MSTORE PUSH1 0x20 ADD SWAP1 DUP2 MSTORE PUSH1 0x20 ADD PUSH0 KECCAK256 PUSH1 0x3 ADD SLOAD GT ISZERO PUSH2 0xD77 JUMPI PUSH1 0x1 PUSH0 DUP3 DUP2 MSTORE PUSH1 0x20 ADD SWAP1 DUP2 MSTORE PUSH1 0x20 ADD PUSH0 KECCAK256 PUSH1 0x3 ADD SLOAD SWAP3 POP DUP1 SWAP2 POP JUMPDEST DUP1 DUP1 PUSH2 0xD82 SWAP1 PUSH2 0x16DF JUMP JUMPDEST SWAP2 POP POP PUSH2 0xD37 JUMP JUMPDEST POP DUP1 PUSH1 0x1 PUSH0 DUP4 DUP2 MSTORE PUSH1 0x20 ADD SWAP1 DUP2 MSTORE PUSH1 0x20 ADD PUSH0 KECCAK256 PUSH1 0x1 ADD DUP4 DUP2 DUP1 SLOAD PUSH2 0xDAD SWAP1 PUSH2 0x1780 JUMP JUMPDEST DUP1 PUSH1 0x1F ADD PUSH1 0x20 DUP1 SWAP2 DIV MUL PUSH1 0x20 ADD PUSH1 0x40 MLOAD SWAP1 DUP2 ADD PUSH1 0x40 MSTORE DUP1 SWAP3 SWAP2 SWAP1 DUP2 DUP2 MSTORE PUSH1 0x20 ADD DUP3 DUP1 SLOAD PUSH2 0xDD9 SWAP1 PUSH2 0x1780 JUMP JUMPDEST DUP1 ISZERO PUSH2 0xE24 JUMPI DUP1 PUSH1 0x1F LT PUSH2 0xDFB JUMPI PUSH2 0x100 DUP1 DUP4 SLOAD DIV MUL DUP4 MSTORE SWAP2 PUSH1 0x20 ADD SWAP2 PUSH2 0xE24 JUMP JUMPDEST DUP3 ADD SWAP2 SWAP1 PUSH0 MSTORE PUSH1 0x20 PUSH0 KECCAK256 SWAP1 JUMPDEST DUP2 SLOAD DUP2 MSTORE SWAP1 PUSH1 0x1 ADD SWAP1 PUSH1 0x20 ADD DUP1 DUP4 GT PUSH2 0xE07 JUMPI DUP3 SWAP1 SUB PUSH1 0x1F AND DUP3 ADD SWAP2 JUMPDEST POP POP POP POP POP SWAP2 POP SWAP5 POP SWAP5 POP SWAP5 POP POP POP SWAP1 SWAP2 SWAP3 JUMP JUMPDEST PUSH1 0x7 SLOAD DUP2 JUMP JUMPDEST PUSH1 0x3 PUSH1 0x20 MSTORE DUP1 PUSH0 MSTORE PUSH1 0x40 PUSH0 KECCAK256 PUSH0 SWAP2 POP SWAP1 POP SLOAD DUP2 JUMP JUMPDEST PUSH1 0x6 SLOAD DUP2 JUMP JUMPDEST PUSH0 PUSH1 0x6 SLOAD TIMESTAMP LT ISZERO PUSH2 0xE6C JUMPI PUSH0 SWAP1 POP PUSH2 0xE8F JUMP JUMPDEST PUSH1 0x7 SLOAD TIMESTAMP GT ISZERO PUSH2 0xE7E JUMPI PUSH0 SWAP1 POP PUSH2 0xE8F JUMP JUMPDEST TIMESTAMP PUSH1 0x7 SLOAD PUSH2 0xE8C SWAP2 SWAP1 PUSH2 0x17B0 JUMP JUMPDEST SWAP1 POP JUMPDEST SWAP1 JUMP JUMPDEST PUSH0 PUSH1 0x2 PUSH0 DUP4 PUSH20 0xFFFFFFFFFFFFFFFFFFFFFFFFFFFFFFFFFFFFFFFF AND PUSH20 0xFFFFFFFFFFFFFFFFFFFFFFFFFFFFFFFFFFFFFFFF AND DUP2 MSTORE PUSH1 0x20 ADD SWAP1 DUP2 MSTORE PUSH1 0x20 ADD PUSH0 KECCAK256 PUSH0 SWAP1 SLOAD SWAP1 PUSH2 0x100 EXP SWAP1 DIV PUSH1 0xFF AND SWAP1 POP SWAP2 SWAP1 POP JUMP JUMPDEST PUSH1 0x2 PUSH0 SLOAD SUB PUSH2 0xF28 JUMPI PUSH1 0x40 MLOAD PUSH32 0x8C379A000000000000000000000000000000000000000000000000000000000 DUP2 MSTORE PUSH1 0x4 ADD PUSH2 0xF1F SWAP1 PUSH2 0x18C2 JUMP JUMPDEST PUSH1 0x40 MLOAD DUP1 SWAP2 SUB SWAP1 REVERT JUMPDEST PUSH1 0x2 PUSH0 DUP2 SWAP1 SSTORE POP JUMP JUMPDEST PUSH1 0x1 PUSH0 DUP2 SWAP1 SSTORE POP JUMP JUMPDEST PUSH1 0x40 MLOAD DUP1 PUSH1 0x80 ADD PUSH1 0x40 MSTORE DUP1 PUSH0 DUP2 MSTORE PUSH1 0x20 ADD PUSH1 0x60 DUP2 MSTORE PUSH1 0x20 ADD PUSH1 0x60 DUP2 MSTORE PUSH1 0x20 ADD PUSH0 DUP2 MSTORE POP SWAP1 JUMP JUMPDEST PUSH0 PUSH0 REVERT JUMPDEST PUSH0 DUP2 SWAP1 POP SWAP2 SWAP1 POP JUMP JUMPDEST PUSH2 0xF76 DUP2 PUSH2 0xF64 JUMP JUMPDEST DUP2 EQ PUSH2 0xF80 JUMPI PUSH0 PUSH0 REVERT JUMPDEST POP JUMP JUMPDEST PUSH0 DUP2 CALLDATALOAD SWAP1 POP PUSH2 0xF91 DUP2 PUSH2 0xF6D JUMP JUMPDEST SWAP3 SWAP2 POP POP JUMP JUMPDEST PUSH0 PUSH1 0x20 DUP3 DUP5 SUB SLT ISZERO PUSH2 0xFAC JUMPI PUSH2 0xFAB PUSH2 0xF60 JUMP JUMPDEST JUMPDEST PUSH0 PUSH2 0xFB9 DUP5 DUP3 DUP6 ADD PUSH2 0xF83 JUMP JUMPDEST SWAP2 POP POP SWAP3 SWAP2 POP POP JUMP JUMPDEST PUSH0 PUSH20 0xFFFFFFFFFFFFFFFFFFFFFFFFFFFFFFFFFFFFFFFF DUP3 AND SWAP1 POP SWAP2 SWAP1 POP JUMP JUMPDEST PUSH0 PUSH2 0xFEB DUP3 PUSH2 0xFC2 JUMP JUMPDEST SWAP1 POP SWAP2 SWAP1 POP JUMP JUMPDEST PUSH2 0xFFB DUP2 PUSH2 0xFE1 JUMP JUMPDEST DUP2 EQ PUSH2 0x1005 JUMPI PUSH0 PUSH0 REVERT JUMPDEST POP JUMP JUMPDEST PUSH0 DUP2 CALLDATALOAD SWAP1 POP PUSH2 0x1016 DUP2 PUSH2 0xFF2 JUMP JUMPDEST SWAP3 SWAP2 POP POP JUMP JUMPDEST PUSH0 PUSH1 0x20 DUP3 DUP5 SUB SLT ISZERO PUSH2 0x1031 JUMPI PUSH2 0x1030 PUSH2 0xF60 JUMP JUMPDEST JUMPDEST PUSH0 PUSH2 0x103E DUP5 DUP3 DUP6 ADD PUSH2 0x1008 JUMP JUMPDEST SWAP2 POP POP SWAP3 SWAP2 POP POP JUMP JUMPDEST PUSH0 DUP2 ISZERO ISZERO SWAP1 POP SWAP2 SWAP1 POP JUMP JUMPDEST PUSH2 0x105B DUP2 PUSH2 0x1047 JUMP JUMPDEST DUP3 MSTORE POP POP JUMP JUMPDEST PUSH0 PUSH1 0x20 DUP3 ADD SWAP1 POP PUSH2 0x1074 PUSH0 DUP4 ADD DUP5 PUSH2 0x1052 JUMP JUMPDEST SWAP3 SWAP2 POP POP JUMP JUMPDEST PUSH2 0x1083 DUP2 PUSH2 0xF64 JUMP JUMPDEST DUP3 MSTORE POP POP JUMP JUMPDEST PUSH0 PUSH1 0x20 DUP3 ADD SWAP1 POP PUSH2 0x109C PUSH0 DUP4 ADD DUP5 PUSH2 0x107A JUMP JUMPDEST SWAP3 SWAP2 POP POP JUMP JUMPDEST PUSH0 DUP2 MLOAD SWAP1 POP SWAP2 SWAP1 POP JUMP JUMPDEST PUSH0 DUP3 DUP3 MSTORE PUSH1 0x20 DUP3 ADD SWAP1 POP SWAP3 SWAP2 POP POP JUMP JUMPDEST DUP3 DUP2 DUP4 MCOPY PUSH0 DUP4 DUP4 ADD MSTORE POP POP POP JUMP JUMPDEST PUSH0 PUSH1 0x1F NOT PUSH1 0x1F DUP4 ADD AND SWAP1 POP SWAP2 SWAP1 POP JUMP JUMPDEST PUSH0 PUSH2 0x10E4 DUP3 PUSH2 0x10A2 JUMP JUMPDEST PUSH2 0x10EE DUP2 DUP6 PUSH2 0x10AC JUMP JUMPDEST SWAP4 POP PUSH2 0x10FE DUP2 DUP6 PUSH1 0x20 DUP7 ADD PUSH2 0x10BC JUMP JUMPDEST PUSH2 0x1107 DUP2 PUSH2 0x10CA JUMP JUMPDEST DUP5 ADD SWAP2 POP POP SWAP3 SWAP2 POP POP JUMP JUMPDEST PUSH0 PUSH1 0x20 DUP3 ADD SWAP1 POP DUP2 DUP2 SUB PUSH0 DUP4 ADD MSTORE PUSH2 0x112A DUP2 DUP5 PUSH2 0x10DA JUMP JUMPDEST SWAP1 POP SWAP3 SWAP2 POP POP JUMP JUMPDEST PUSH2 0x113B DUP2 PUSH2 0xFE1 JUMP JUMPDEST DUP3 MSTORE POP POP JUMP JUMPDEST PUSH0 PUSH1 0x20 DUP3 ADD SWAP1 POP PUSH2 0x1154 PUSH0 DUP4 ADD DUP5 PUSH2 0x1132 JUMP JUMPDEST SWAP3 SWAP2 POP POP JUMP JUMPDEST PUSH0 DUP2 MLOAD SWAP1 POP SWAP2 SWAP1 POP JUMP JUMPDEST PUSH0 DUP3 DUP3 MSTORE PUSH1 0x20 DUP3 ADD SWAP1 POP SWAP3 SWAP2 POP POP JUMP JUMPDEST PUSH0 DUP2 SWAP1 POP PUSH1 0x20 DUP3 ADD SWAP1 POP SWAP2 SWAP1 POP JUMP JUMPDEST PUSH2 0x118C DUP2 PUSH2 0xF64 JUMP JUMPDEST DUP3 MSTORE POP POP JUMP JUMPDEST PUSH0 DUP3 DUP3 MSTORE PUSH1 0x20 DUP3 ADD SWAP1 POP SWAP3 SWAP2 POP POP JUMP JUMPDEST PUSH0 PUSH2 0x11AC DUP3 PUSH2 0x10A2 JUMP JUMPDEST PUSH2 0x11B6 DUP2 DUP6 PUSH2 0x1192 JUMP JUMPDEST SWAP4 POP PUSH2 0x11C6 DUP2 DUP6 PUSH1 0x20 DUP7 ADD PUSH2 0x10BC JUMP JUMPDEST PUSH2 0x11CF DUP2 PUSH2 0x10CA JUMP JUMPDEST DUP5 ADD SWAP2 POP POP SWAP3 SWAP2 POP POP JUMP JUMPDEST PUSH0 PUSH1 0x80 DUP4 ADD PUSH0 DUP4 ADD MLOAD PUSH2 0x11EF PUSH0 DUP7 ADD DUP3 PUSH2 0x1183 JUMP JUMPDEST POP PUSH1 0x20 DUP4 ADD MLOAD DUP5 DUP3 SUB PUSH1 0x20 DUP7 ADD MSTORE PUSH2 0x1207 DUP3 DUP3 PUSH2 0x11A2 JUMP JUMPDEST SWAP2 POP POP PUSH1 0x40 DUP4 ADD MLOAD DUP5 DUP3 SUB PUSH1 0x40 DUP7 ADD MSTORE PUSH2 0x1221 DUP3 DUP3 PUSH2 0x11A2 JUMP JUMPDEST SWAP2 POP POP PUSH1 0x60 DUP4 ADD MLOAD PUSH2 0x1236 PUSH1 0x60 DUP7 ADD DUP3 PUSH2 0x1183 JUMP JUMPDEST POP DUP1 SWAP2 POP POP SWAP3 SWAP2 POP POP JUMP JUMPDEST PUSH0 PUSH2 0x124C DUP4 DUP4 PUSH2 0x11DA JUMP JUMPDEST SWAP1 POP SWAP3 SWAP2 POP POP JUMP JUMPDEST PUSH0 PUSH1 0x20 DUP3 ADD SWAP1 POP SWAP2 SWAP1 POP JUMP JUMPDEST PUSH0 PUSH2 0x126A DUP3 PUSH2 0x115A JUMP JUMPDEST PUSH2 0x1274 DUP2 DUP6 PUSH2 0x1164 JUMP JUMPDEST SWAP4 POP DUP4 PUSH1 0x20 DUP3 MUL DUP6 ADD PUSH2 0x1286 DUP6 PUSH2 0x1174 JUMP JUMPDEST DUP1 PUSH0 JUMPDEST DUP6 DUP2 LT ISZERO PUSH2 0x12C1 JUMPI DUP5 DUP5 SUB DUP10 MSTORE DUP2 MLOAD PUSH2 0x12A2 DUP6 DUP3 PUSH2 0x1241 JUMP JUMPDEST SWAP5 POP PUSH2 0x12AD DUP4 PUSH2 0x1254 JUMP JUMPDEST SWAP3 POP PUSH1 0x20 DUP11 ADD SWAP10 POP POP PUSH1 0x1 DUP2 ADD SWAP1 POP PUSH2 0x1289 JUMP JUMPDEST POP DUP3 SWAP8 POP DUP8 SWAP6 POP POP POP POP POP POP SWAP3 SWAP2 POP POP JUMP JUMPDEST PUSH0 PUSH1 0x20 DUP3 ADD SWAP1 POP DUP2 DUP2 SUB PUSH0 DUP4 ADD MSTORE PUSH2 0x12EB DUP2 DUP5 PUSH2 0x1260 JUMP JUMPDEST SWAP1 POP SWAP3 SWAP2 POP POP JUMP JUMPDEST PUSH0 PUSH1 0x80 DUP3 ADD SWAP1 POP PUSH2 0x1306 PUSH0 DUP4 ADD DUP8 PUSH2 0x107A JUMP JUMPDEST DUP2 DUP2 SUB PUSH1 0x20 DUP4 ADD MSTORE PUSH2 0x1318 DUP2 DUP7 PUSH2 0x10DA JUMP JUMPDEST SWAP1 POP DUP2 DUP2 SUB PUSH1 0x40 DUP4 ADD MSTORE PUSH2 0x132C DUP2 DUP6 PUSH2 0x10DA JUMP JUMPDEST SWAP1 POP PUSH2 0x133B PUSH1 0x60 DUP4 ADD DUP5 PUSH2 0x107A JUMP JUMPDEST SWAP6 SWAP5 POP POP POP POP POP JUMP JUMPDEST PUSH0 PUSH1 0x80 DUP4 ADD PUSH0 DUP4 ADD MLOAD PUSH2 0x1359 PUSH0 DUP7 ADD DUP3 PUSH2 0x1183 JUMP JUMPDEST POP PUSH1 0x20 DUP4 ADD MLOAD DUP5 DUP3 SUB PUSH1 0x20 DUP7 ADD MSTORE PUSH2 0x1371 DUP3 DUP3 PUSH2 0x11A2 JUMP JUMPDEST SWAP2 POP POP PUSH1 0x40 DUP4 ADD MLOAD DUP5 DUP3 SUB PUSH1 0x40 DUP7 ADD MSTORE PUSH2 0x138B DUP3 DUP3 PUSH2 0x11A2 JUMP JUMPDEST SWAP2 POP POP PUSH1 0x60 DUP4 ADD MLOAD PUSH2 0x13A0 PUSH1 0x60 DUP7 ADD DUP3 PUSH2 0x1183 JUMP JUMPDEST POP DUP1 SWAP2 POP POP SWAP3 SWAP2 POP POP JUMP JUMPDEST PUSH0 PUSH1 0x20 DUP3 ADD SWAP1 POP DUP2 DUP2 SUB PUSH0 DUP4 ADD MSTORE PUSH2 0x13C3 DUP2 DUP5 PUSH2 0x1344 JUMP JUMPDEST SWAP1 POP SWAP3 SWAP2 POP POP JUMP JUMPDEST PUSH0 DUP2 MLOAD SWAP1 POP SWAP2 SWAP1 POP JUMP JUMPDEST PUSH0 DUP3 DUP3 MSTORE PUSH1 0x20 DUP3 ADD SWAP1 POP SWAP3 SWAP2 POP POP JUMP JUMPDEST PUSH0 DUP2 SWAP1 POP PUSH1 0x20 DUP3 ADD SWAP1 POP SWAP2 SWAP1 POP JUMP JUMPDEST PUSH0 PUSH2 0x13FF DUP4 DUP4 PUSH2 0x1183 JUMP JUMPDEST PUSH1 0x20 DUP4 ADD SWAP1 POP SWAP3 SWAP2 POP POP JUMP JUMPDEST PUSH0 PUSH1 0x20 DUP3 ADD SWAP1 POP SWAP2 SWAP1 POP JUMP JUMPDEST PUSH0 PUSH2 0x1421 DUP3 PUSH2 0x13CB JUMP JUMPDEST PUSH2 0x142B DUP2 DUP6 PUSH2 0x13D5 JUMP JUMPDEST SWAP4 POP PUSH2 0x1436 DUP4 PUSH2 0x13E5 JUMP JUMPDEST DUP1 PUSH0 JUMPDEST DUP4 DUP2 LT ISZERO PUSH2 0x1466 JUMPI DUP2 MLOAD PUSH2 0x144D DUP9 DUP3 PUSH2 0x13F4 JUMP JUMPDEST SWAP8 POP PUSH2 0x1458 DUP4 PUSH2 0x140B JUMP JUMPDEST SWAP3 POP POP PUSH1 0x1 DUP2 ADD SWAP1 POP PUSH2 0x1439 JUMP JUMPDEST POP DUP6 SWAP4 POP POP POP POP SWAP3 SWAP2 POP POP JUMP JUMPDEST PUSH0 PUSH1 0x20 DUP3 ADD SWAP1 POP DUP2 DUP2 SUB PUSH0 DUP4 ADD MSTORE PUSH2 0x148B DUP2 DUP5 PUSH2 0x1417 JUMP JUMPDEST SWAP1 POP SWAP3 SWAP2 POP POP JUMP JUMPDEST PUSH0 PUSH1 0x80 DUP3 ADD SWAP1 POP PUSH2 0x14A6 PUSH0 DUP4 ADD DUP8 PUSH2 0x107A JUMP JUMPDEST PUSH2 0x14B3 PUSH1 0x20 DUP4 ADD DUP7 PUSH2 0x107A JUMP JUMPDEST PUSH2 0x14C0 PUSH1 0x40 DUP4 ADD DUP6 PUSH2 0x107A JUMP JUMPDEST PUSH2 0x14CD PUSH1 0x60 DUP4 ADD DUP5 PUSH2 0x107A JUMP JUMPDEST SWAP6 SWAP5 POP POP POP POP POP JUMP JUMPDEST PUSH0 PUSH1 0x60 DUP3 ADD SWAP1 POP PUSH2 0x14E9 PUSH0 DUP4 ADD DUP7 PUSH2 0x107A JUMP JUMPDEST DUP2 DUP2 SUB PUSH1 0x20 DUP4 ADD MSTORE PUSH2 0x14FB DUP2 DUP6 PUSH2 0x10DA JUMP JUMPDEST SWAP1 POP PUSH2 0x150A PUSH1 0x40 DUP4 ADD DUP5 PUSH2 0x107A JUMP JUMPDEST SWAP5 SWAP4 POP POP POP POP JUMP JUMPDEST PUSH32 0x456C656374696F6E20686173206E6F7420737461727465642079657400000000 PUSH0 DUP3 ADD MSTORE POP JUMP JUMPDEST PUSH0 PUSH2 0x1546 PUSH1 0x1C DUP4 PUSH2 0x10AC JUMP JUMPDEST SWAP2 POP PUSH2 0x1551 DUP3 PUSH2 0x1512 JUMP JUMPDEST PUSH1 0x20 DUP3 ADD SWAP1 POP SWAP2 SWAP1 POP JUMP JUMPDEST PUSH0 PUSH1 0x20 DUP3 ADD SWAP1 POP DUP2 DUP2 SUB PUSH0 DUP4 ADD MSTORE PUSH2 0x1573 DUP2 PUSH2 0x153A JUMP JUMPDEST SWAP1 POP SWAP2 SWAP1 POP JUMP JUMPDEST PUSH32 0x456C656374696F6E2068617320656E6465640000000000000000000000000000 PUSH0 DUP3 ADD MSTORE POP JUMP JUMPDEST PUSH0 PUSH2 0x15AE PUSH1 0x12 DUP4 PUSH2 0x10AC JUMP JUMPDEST SWAP2 POP PUSH2 0x15B9 DUP3 PUSH2 0x157A JUMP JUMPDEST PUSH1 0x20 DUP3 ADD SWAP1 POP SWAP2 SWAP1 POP JUMP JUMPDEST PUSH0 PUSH1 0x20 DUP3 ADD SWAP1 POP DUP2 DUP2 SUB PUSH0 DUP4 ADD MSTORE PUSH2 0x15DB DUP2 PUSH2 0x15A2 JUMP JUMPDEST SWAP1 POP SWAP2 SWAP1 POP JUMP JUMPDEST PUSH32 0x596F75206861766520616C726561647920766F74656400000000000000000000 PUSH0 DUP3 ADD MSTORE POP JUMP JUMPDEST PUSH0 PUSH2 0x1616 PUSH1 0x16 DUP4 PUSH2 0x10AC JUMP JUMPDEST SWAP2 POP PUSH2 0x1621 DUP3 PUSH2 0x15E2 JUMP JUMPDEST PUSH1 0x20 DUP3 ADD SWAP1 POP SWAP2 SWAP1 POP JUMP JUMPDEST PUSH0 PUSH1 0x20 DUP3 ADD SWAP1 POP DUP2 DUP2 SUB PUSH0 DUP4 ADD MSTORE PUSH2 0x1643 DUP2 PUSH2 0x160A JUMP JUMPDEST SWAP1 POP SWAP2 SWAP1 POP JUMP JUMPDEST PUSH32 0x496E76616C69642063616E646964617465204944000000000000000000000000 PUSH0 DUP3 ADD MSTORE POP JUMP JUMPDEST PUSH0 PUSH2 0x167E PUSH1 0x14 DUP4 PUSH2 0x10AC JUMP JUMPDEST SWAP2 POP PUSH2 0x1689 DUP3 PUSH2 0x164A JUMP JUMPDEST PUSH1 0x20 DUP3 ADD SWAP1 POP SWAP2 SWAP1 POP JUMP JUMPDEST PUSH0 PUSH1 0x20 DUP3 ADD SWAP1 POP DUP2 DUP2 SUB PUSH0 DUP4 ADD MSTORE PUSH2 0x16AB DUP2 PUSH2 0x1672 JUMP JUMPDEST SWAP1 POP SWAP2 SWAP1 POP JUMP JUMPDEST PUSH32 0x4E487B7100000000000000000000000000000000000000000000000000000000 PUSH0 MSTORE PUSH1 0x11 PUSH1 0x4 MSTORE PUSH1 0x24 PUSH0 REVERT JUMPDEST PUSH0 PUSH2 0x16E9 DUP3 PUSH2 0xF64 JUMP JUMPDEST SWAP2 POP PUSH32 0xFFFFFFFFFFFFFFFFFFFFFFFFFFFFFFFFFFFFFFFFFFFFFFFFFFFFFFFFFFFFFFFF DUP3 SUB PUSH2 0x171B JUMPI PUSH2 0x171A PUSH2 0x16B2 JUMP JUMPDEST JUMPDEST PUSH1 0x1 DUP3 ADD SWAP1 POP SWAP2 SWAP1 POP JUMP JUMPDEST PUSH32 0x4E487B7100000000000000000000000000000000000000000000000000000000 PUSH0 MSTORE PUSH1 0x41 PUSH1 0x4 MSTORE PUSH1 0x24 PUSH0 REVERT JUMPDEST PUSH32 0x4E487B7100000000000000000000000000000000000000000000000000000000 PUSH0 MSTORE PUSH1 0x22 PUSH1 0x4 MSTORE PUSH1 0x24 PUSH0 REVERT JUMPDEST PUSH0 PUSH1 0x2 DUP3 DIV SWAP1 POP PUSH1 0x1 DUP3 AND DUP1 PUSH2 0x1797 JUMPI PUSH1 0x7F DUP3 AND SWAP2 POP JUMPDEST PUSH1 0x20 DUP3 LT DUP2 SUB PUSH2 0x17AA JUMPI PUSH2 0x17A9 PUSH2 0x1753 JUMP JUMPDEST JUMPDEST POP SWAP2 SWAP1 POP JUMP JUMPDEST PUSH0 PUSH2 0x17BA DUP3 PUSH2 0xF64 JUMP JUMPDEST SWAP2 POP PUSH2 0x17C5 DUP4 PUSH2 0xF64 JUMP JUMPDEST SWAP3 POP DUP3 DUP3 SUB SWAP1 POP DUP2 DUP2 GT ISZERO PUSH2 0x17DD JUMPI PUSH2 0x17DC PUSH2 0x16B2 JUMP JUMPDEST JUMPDEST SWAP3 SWAP2 POP POP JUMP JUMPDEST PUSH32 0x4E487B7100000000000000000000000000000000000000000000000000000000 PUSH0 MSTORE PUSH1 0x32 PUSH1 0x4 MSTORE PUSH1 0x24 PUSH0 REVERT JUMPDEST PUSH32 0x4E6F20766F7465732068617665206265656E2063617374207965740000000000 PUSH0 DUP3 ADD MSTORE POP JUMP JUMPDEST PUSH0 PUSH2 0x1844 PUSH1 0x1B DUP4 PUSH2 0x10AC JUMP JUMPDEST SWAP2 POP PUSH2 0x184F DUP3 PUSH2 0x1810 JUMP JUMPDEST PUSH1 0x20 DUP3 ADD SWAP1 POP SWAP2 SWAP1 POP JUMP JUMPDEST PUSH0 PUSH1 0x20 DUP3 ADD SWAP1 POP DUP2 DUP2 SUB PUSH0 DUP4 ADD MSTORE PUSH2 0x1871 DUP2 PUSH2 0x1838 JUMP JUMPDEST SWAP1 POP SWAP2 SWAP1 POP JUMP JUMPDEST PUSH32 0x5265656E7472616E637947756172643A207265656E7472616E742063616C6C00 PUSH0 DUP3 ADD MSTORE POP JUMP JUMPDEST PUSH0 PUSH2 0x18AC PUSH1 0x1F DUP4 PUSH2 0x10AC JUMP JUMPDEST SWAP2 POP PUSH2 0x18B7 DUP3 PUSH2 0x1878 JUMP JUMPDEST PUSH1 0x20 DUP3 ADD SWAP1 POP SWAP2 SWAP1 POP JUMP JUMPDEST PUSH0 PUSH1 0x20 DUP3 ADD SWAP1 POP DUP2 DUP2 SUB PUSH0 DUP4 ADD MSTORE PUSH2 0x18D9 DUP2 PUSH2 0x18A0 JUMP JUMPDEST SWAP1 POP SWAP2 SWAP1 POP JUMP INVALID LOG2 PUSH5 0x6970667358 0x22 SLT KECCAK256 0xD2 PUSH26 0x82AB302908F6CF8AE897CA35D1825B155E2A88C38F96371F24AA 0xD8 0x1F PUSH18 0xF864736F6C634300081E0033457870657269 PUSH6 0x6E636564206C PUSH6 0x616465722077 PUSH10 0x74682031352079656172 PUSH20 0x20696E207075626C696320736572766963652E20 CHAINID PUSH16 0x637573206F6E20656475636174696F6E KECCAK256 PUSH2 0x6E64 KECCAK256 PUSH9 0x65616C746863617265 KECCAK256 PUSH19 0x65666F726D2E546563686E6F6C6F677920656E PUSH21 0x72657072656E657572206164766F636174696E6720 PUSH7 0x6F722064696769 PUSH21 0x616C20696E66726173747275637475726520616E64 KECCAK256 PUSH10 0x6E6E6F766174696F6E2E MSTORE8 PUSH16 0x6369616C20776F726B65722064656469 PUSH4 0x61746564 KECCAK256 PUSH21 0x6F20636F6D6D756E69747920646576656C6F706D65 PUSH15 0x7420616E6420736F6369616C207765 PUSH13 0x666172652070726F6772616D73 0x2E CHAINID PUSH16 0x726D6572206D696C6974617279206F66 PUSH7 0x69636572207072 PUSH10 0x6F726974697A696E6720 PUSH15 0x6174696F6E616C2073656375726974 PUSH26 0x20616E64207665746572616E732720616666616972732E456E76 PUSH10 0x726F6E6D656E74616C20 PUSH2 0x6374 PUSH10 0x7669737420636F6D6D69 PUSH21 0x74656420746F207375737461696E61626C65206465 PUSH23 0x656C6F706D656E7420616E6420636C696D617465206163 PUSH21 0x696F6E2E0000000000000000000000000000000000 "
				},
				"gasEstimates": {
					"creation": {
						"codeDepositCost": "1284400",
						"executionCost": "infinite",
						"totalCost": "infinite"
					},
					"external": {
						"candidates(uint256)": "infinite",
						"candidatesCount()": "2470",
						"electionCommissioner()": "2531",
						"electionEndTime()": "2447",
						"electionStartTime()": "2491",
						"getAllCandidates()": "infinite",
						"getCandidate(uint256)": "infinite",
						"getElectionInfo()": "infinite",
						"getElectionStatus()": "infinite",
						"getResults()": "infinite",
						"getTimeRemaining()": "infinite",
						"getWinner()": "infinite",
						"hasAddressVoted(address)": "2980",
						"hasVoted(address)": "2879",
						"totalVotes()": "2493",
						"vote(uint256)": "infinite",
						"voterChoice(address)": "2846"
					},
					"internal": {
						"_addCandidate(string memory,string memory)": "infinite"
					}
				},
				"methodIdentifiers": {
					"candidates(uint256)": "3477ee2e",
					"candidatesCount()": "2d35a8a2",
					"electionCommissioner()": "1bdbb2ab",
					"electionEndTime()": "9e136e64",
					"electionStartTime()": "c5980c94",
					"getAllCandidates()": "2e6997fe",
					"getCandidate(uint256)": "35b8e820",
					"getElectionInfo()": "86852dca",
					"getElectionStatus()": "122902a6",
					"getResults()": "4717f97c",
					"getTimeRemaining()": "dac6270d",
					"getWinner()": "8e7ea5b2",
					"hasAddressVoted(address)": "e3e6ca7d",
					"hasVoted(address)": "09eef43e",
					"totalVotes()": "0d15fd77",
					"vote(uint256)": "0121b93f",
					"voterChoice(address)": "ad84c2da"
				}
			},
			"storageLayout": {
				"storage": [
					{
						"astId": 10,
						"contract": "contracts/project/election.sol:Election",
						"label": "_status",
						"offset": 0,
						"slot": "0",
						"type": "t_uint256"
					},
					{
						"astId": 84,
						"contract": "contracts/project/election.sol:Election",
						"label": "candidates",
						"offset": 0,
						"slot": "1",
						"type": "t_mapping(t_uint256,t_struct(Candidate)79_storage)"
					},
					{
						"astId": 88,
						"contract": "contracts/project/election.sol:Election",
						"label": "hasVoted",
						"offset": 0,
						"slot": "2",
						"type": "t_mapping(t_address,t_bool)"
					},
					{
						"astId": 92,
						"contract": "contracts/project/election.sol:Election",
						"label": "voterChoice",
						"offset": 0,
						"slot": "3",
						"type": "t_mapping(t_address,t_uint256)"
					},
					{
						"astId": 94,
						"contract": "contracts/project/election.sol:Election",
						"label": "candidatesCount",
						"offset": 0,
						"slot": "4",
						"type": "t_uint256"
					},
					{
						"astId": 96,
						"contract": "contracts/project/election.sol:Election",
						"label": "totalVotes",
						"offset": 0,
						"slot": "5",
						"type": "t_uint256"
					},
					{
						"astId": 98,
						"contract": "contracts/project/election.sol:Election",
						"label": "electionStartTime",
						"offset": 0,
						"slot": "6",
						"type": "t_uint256"
					},
					{
						"astId": 100,
						"contract": "contracts/project/election.sol:Election",
						"label": "electionEndTime",
						"offset": 0,
						"slot": "7",
						"type": "t_uint256"
					},
					{
						"astId": 102,
						"contract": "contracts/project/election.sol:Election",
						"label": "electionCommissioner",
						"offset": 0,
						"slot": "8",
						"type": "t_address"
					}
				],
				"types": {
					"t_address": {
						"encoding": "inplace",
						"label": "address",
						"numberOfBytes": "20"
					},
					"t_bool": {
						"encoding": "inplace",
						"label": "bool",
						"numberOfBytes": "1"
					},
					"t_mapping(t_address,t_bool)": {
						"encoding": "mapping",
						"key": "t_address",
						"label": "mapping(address => bool)",
						"numberOfBytes": "32",
						"value": "t_bool"
					},
					"t_mapping(t_address,t_uint256)": {
						"encoding": "mapping",
						"key": "t_address",
						"label": "mapping(address => uint256)",
						"numberOfBytes": "32",
						"value": "t_uint256"
					},
					"t_mapping(t_uint256,t_struct(Candidate)79_storage)": {
						"encoding": "mapping",
						"key": "t_uint256",
						"label": "mapping(uint256 => struct Election.Candidate)",
						"numberOfBytes": "32",
						"value": "t_struct(Candidate)79_storage"
					},
					"t_string_storage": {
						"encoding": "bytes",
						"label": "string",
						"numberOfBytes": "32"
					},
					"t_struct(Candidate)79_storage": {
						"encoding": "inplace",
						"label": "struct Election.Candidate",
						"members": [
							{
								"astId": 72,
								"contract": "contracts/project/election.sol:Election",
								"label": "id",
								"offset": 0,
								"slot": "0",
								"type": "t_uint256"
							},
							{
								"astId": 74,
								"contract": "contracts/project/election.sol:Election",
								"label": "name",
								"offset": 0,
								"slot": "1",
								"type": "t_string_storage"
							},
							{
								"astId": 76,
								"contract": "contracts/project/election.sol:Election",
								"label": "description",
								"offset": 0,
								"slot": "2",
								"type": "t_string_storage"
							},
							{
								"astId": 78,
								"contract": "contracts/project/election.sol:Election",
								"label": "voteCount",
								"offset": 0,
								"slot": "3",
								"type": "t_uint256"
							}
						],
						"numberOfBytes": "128"
					},
					"t_uint256": {
						"encoding": "inplace",
						"label": "uint256",
						"numberOfBytes": "32"
					}
				}
			},
			"userdoc": {
				"kind": "user",
				"methods": {},
				"notice": "This contract allows one vote per address during a specified time window",
				"version": 1
			}
		}
	}
}