{
	"data": {
		"bytecode": {
			"linkReferences": {},
			"object": "608060405234801561000f575f5ffd5b5060405161712b38038061712b83398181016040528101906100319190610250565b60015f819055503360015f6101000a81548173ffffffffffffffffffffffffffffffffffffffff021916908373ffffffffffffffffffffffffffffffffffffffff160217905550816004908161008791906104d6565b50806005908161009791906104d6565b505f60035f6101000a81548160ff021916908360068111156100bc576100bb6105a5565b5b02179055507f184d51cdcac34bb27b7a2fc48df2288bc62dcad236c9e586b3b2ff0ae96489e78282426040516100f493929190610629565b60405180910390a1505061066c565b5f604051905090565b5f5ffd5b5f5ffd5b5f5ffd5b5f5ffd5b5f601f19601f8301169050919050565b7f4e487b71000000000000000000000000000000000000000000000000000000005f52604160045260245ffd5b6101628261011c565b810181811067ffffffffffffffff821117156101815761018061012c565b5b80604052505050565b5f610193610103565b905061019f8282610159565b919050565b5f67ffffffffffffffff8211156101be576101bd61012c565b5b6101c78261011c565b9050602081019050919050565b8281835e5f83830152505050565b5f6101f46101ef846101a4565b61018a565b9050828152602081018484840111156102105761020f610118565b5b61021b8482856101d4565b509392505050565b5f82601f83011261023757610236610114565b5b81516102478482602086016101e2565b91505092915050565b5f5f604083850312156102665761026561010c565b5b5f83015167ffffffffffffffff81111561028357610282610110565b5b61028f85828601610223565b925050602083015167ffffffffffffffff8111156102b0576102af610110565b5b6102bc85828601610223565b9150509250929050565b5f81519050919050565b7f4e487b71000000000000000000000000000000000000000000000000000000005f52602260045260245ffd5b5f600282049050600182168061031457607f821691505b602082108103610327576103266102d0565b5b50919050565b5f819050815f5260205f209050919050565b5f6020601f8301049050919050565b5f82821b905092915050565b5f600883026103897fffffffffffffffffffffffffffffffffffffffffffffffffffffffffffffffff8261034e565b610393868361034e565b95508019841693508086168417925050509392505050565b5f819050919050565b5f819050919050565b5f6103d76103d26103cd846103ab565b6103b4565b6103ab565b9050919050565b5f819050919050565b6103f0836103bd565b6104046103fc826103de565b84845461035a565b825550505050565b5f5f905090565b61041b61040c565b6104268184846103e7565b505050565b5b818110156104495761043e5f82610413565b60018101905061042c565b5050565b601f82111561048e5761045f8161032d565b6104688461033f565b81016020851015610477578190505b61048b6104838561033f565b83018261042b565b50505b505050565b5f82821c905092915050565b5f6104ae5f1984600802610493565b1980831691505092915050565b5f6104c6838361049f565b9150826002028217905092915050565b6104df826102c6565b67ffffffffffffffff8111156104f8576104f761012c565b5b61050282546102fd565b61050d82828561044d565b5f60209050601f83116001811461053e575f841561052c578287015190505b61053685826104bb565b86555061059d565b601f19841661054c8661032d565b5f5b828110156105735784890151825560018201915060208501945060208101905061054e565b86831015610590578489015161058c601f89168261049f565b8355505b6001600288020188555050505b505050505050565b7f4e487b71000000000000000000000000000000000000000000000000000000005f52602160045260245ffd5b5f82825260208201905092915050565b5f6105ec826102c6565b6105f681856105d2565b93506106068185602086016101d4565b61060f8161011c565b840191505092915050565b610623816103ab565b82525050565b5f6060820190508181035f83015261064181866105e2565b9050818103602083015261065581856105e2565b9050610664604083018461061a565b949350505050565b616ab2806106795f395ff3fe6080604052600436106102cc575f3560e01c80636995604611610174578063a9a981a3116100db578063da58c7d911610094578063fb45f1281161006e578063fb45f12814610b44578063fced5fa414610b5a578063fd11f97a14610b84578063fdba31cc14610bc05761030c565b8063da58c7d914610aae578063f169b30814610af2578063f694855914610b1a5761030c565b8063a9a981a314610990578063ae7cb26f146109ba578063bdb01a38146109f6578063c3b0a88b14610a1e578063ca298f6214610a48578063d07bff0c14610a725761030c565b80638a2e368b1161012d5780638a2e368b146108845780638ad22706146108c05780638c421fbc146108ea5780638e7ea5b214610912578063990edc3d1461093e578063a0bd43e5146109685761030c565b806369956046146107a85780636e40d4ba146107d0578063797a882a146107e65780637aff6f911461080e57806385e8e7a71461082a57806386852dca146108545761030c565b80633477ee2e116102335780634717f97c116101ec5780635d0e91c5116101c65780635d0e91c514610706578063660cdec81461072e5780636636b91e146107585780636733765b146107805761030c565b80634717f97c146106885780634e3ad145146106b257806355f776c0146106dc5761030c565b80633477ee2e1461053d57806335b8e820146105825780633ce3b25d146105be5780633eb76b9c146105fa57806342169e481461062257806343012c691461064c5761030c565b8063156e903311610285578063156e90331461042f5780631ea736e0146104595780631eac8de0146104835780632019a608146104bf5780632e6997fe146104e95780632fd0d870146105135761030c565b80630248a34114610347578063055ad42e1461035d5780630d15fd7714610387578063122902a6146103b157806312498a70146103db57806313e7b33e146104055761030c565b3661030c576040517f08c379a000000000000000000000000000000000000000000000000000000000815260040161030390614a15565b60405180910390fd5b6040517f08c379a000000000000000000000000000000000000000000000000000000000815260040161033e90614a7d565b60405180910390fd5b348015610352575f5ffd5b5061035b610be8565b005b348015610368575f5ffd5b50610371610e19565b60405161037e9190614b0e565b60405180910390f35b348015610392575f5ffd5b5061039b610e2b565b6040516103a89190614b3f565b60405180910390f35b3480156103bc575f5ffd5b506103c5610e31565b6040516103d29190614bb8565b60405180910390f35b3480156103e6575f5ffd5b506103ef6111ae565b6040516103fc9190614b3f565b60405180910390f35b348015610410575f5ffd5b506104196111b4565b6040516104269190614b3f565b60405180910390f35b34801561043a575f5ffd5b506104436111ba565b6040516104509190614b3f565b60405180910390f35b348015610464575f5ffd5b5061046d6111c0565b60405161047a9190614b3f565b60405180910390f35b34801561048e575f5ffd5b506104a960048036038101906104a49190614c43565b6111c6565b6040516104b69190614b3f565b60405180910390f35b3480156104ca575f5ffd5b506104d36111db565b6040516104e09190614b3f565b60405180910390f35b3480156104f4575f5ffd5b506104fd6111e1565b60405161050a9190614e95565b60405180910390f35b34801561051e575f5ffd5b50610527611583565b6040516105349190614b3f565b60405180910390f35b348015610548575f5ffd5b50610563600480360381019061055e9190614edf565b6115b7565b6040516105799a99989796959493929190614f28565b60405180910390f35b34801561058d575f5ffd5b506105a860048036038101906105a39190614edf565b61184a565b6040516105b591906150ca565b60405180910390f35b3480156105c9575f5ffd5b506105e460048036038101906105df9190614c43565b611b9e565b6040516105f191906150ea565b60405180910390f35b348015610605575f5ffd5b50610620600480360381019061061b9190614edf565b611c1b565b005b34801561062d575f5ffd5b50610636611f27565b6040516106439190614b3f565b60405180910390f35b348015610657575f5ffd5b50610672600480360381019061066d9190614c43565b611f2d565b60405161067f91906150ea565b60405180910390f35b348015610693575f5ffd5b5061069c611fa9565b6040516106a99190614e95565b60405180910390f35b3480156106bd575f5ffd5b506106c6612020565b6040516106d39190614b3f565b60405180910390f35b3480156106e7575f5ffd5b506106f0612026565b6040516106fd9190614bb8565b60405180910390f35b348015610711575f5ffd5b5061072c60048036038101906107279190614c43565b6120b2565b005b348015610739575f5ffd5b5061074261226f565b60405161074f9190614b3f565b60405180910390f35b348015610763575f5ffd5b5061077e6004803603810190610779919061522f565b612275565b005b34801561078b575f5ffd5b506107a660048036038101906107a19190614c43565b6125db565b005b3480156107b3575f5ffd5b506107ce60048036038101906107c99190614edf565b612808565b005b3480156107db575f5ffd5b506107e4612a04565b005b3480156107f1575f5ffd5b5061080c60048036038101906108079190614edf565b612c55565b005b610828600480360381019061082391906152b7565b612eaf565b005b348015610835575f5ffd5b5061083e613281565b60405161084b9190614bb8565b60405180910390f35b34801561085f575f5ffd5b5061086861330d565b60405161087b979695949392919061538b565b60405180910390f35b34801561088f575f5ffd5b506108aa60048036038101906108a59190614c43565b61345f565b6040516108b79190614b3f565b60405180910390f35b3480156108cb575f5ffd5b506108d4613474565b6040516108e19190614e95565b60405180910390f35b3480156108f5575f5ffd5b50610910600480360381019061090b9190615429565b61389f565b005b34801561091d575f5ffd5b506109266139a8565b60405161093593929190615454565b60405180910390f35b348015610949575f5ffd5b50610952613b6a565b60405161095f9190614b3f565b60405180910390f35b348015610973575f5ffd5b5061098e60048036038101906109899190614edf565b613b70565b005b34801561099b575f5ffd5b506109a4613d6e565b6040516109b19190614b3f565b60405180910390f35b3480156109c5575f5ffd5b506109e060048036038101906109db9190614c43565b613d74565b6040516109ed91906150ea565b60405180910390f35b348015610a01575f5ffd5b50610a1c6004803603810190610a179190615490565b613d91565b005b348015610a29575f5ffd5b50610a32613f49565b604051610a3f9190614b3f565b60405180910390f35b348015610a53575f5ffd5b50610a5c613f4e565b604051610a6991906154d7565b60405180910390f35b348015610a7d575f5ffd5b50610a986004803603810190610a939190614edf565b613f73565b604051610aa591906155b9565b60405180910390f35b348015610ab9575f5ffd5b50610ad46004803603810190610acf9190614edf565b6141c3565b604051610ae9999897969594939291906155d9565b60405180910390f35b348015610afd575f5ffd5b50610b186004803603810190610b139190614edf565b614352565b005b348015610b25575f5ffd5b50610b2e614523565b604051610b3b9190614b3f565b60405180910390f35b348015610b4f575f5ffd5b50610b5861452e565b005b348015610b65575f5ffd5b50610b6e61474d565b604051610b7b9190614b3f565b60405180910390f35b348015610b8f575f5ffd5b50610baa6004803603810190610ba59190614c43565b614753565b604051610bb791906150ea565b60405180910390f35b348015610bcb575f5ffd5b50610be66004803603810190610be19190615672565b6147d0565b005b60015f9054906101000a900473ffffffffffffffffffffffffffffffffffffffff1673ffffffffffffffffffffffffffffffffffffffff163373ffffffffffffffffffffffffffffffffffffffff1614610c77576040517f08c379a0000000000000000000000000000000000000000000000000000000008152600401610c6e9061576d565b60405180910390fd5b60056006811115610c8b57610c8a614a9b565b5b60035f9054906101000a900460ff166006811115610cac57610cab614a9b565b5b1480610cea575060046006811115610cc757610cc6614a9b565b5b60035f9054906101000a900460ff166006811115610ce857610ce7614a9b565b5b145b610d29576040517f08c379a0000000000000000000000000000000000000000000000000000000008152600401610d20906157d5565b60405180910390fd5b600660035f6101000a81548160ff02191690836006811115610d4e57610d4d614a9b565b5b02179055505f600c541115610e17575f5f5f3073ffffffffffffffffffffffffffffffffffffffff16638e7ea5b26040518163ffffffff1660e01b81526004015f60405180830381865afa158015610da8573d5f5f3e3d5ffd5b505050506040513d5f823e3d601f19601f82011682018060405250810190610dd09190615875565b9250925092507f32afba56da392c563a2acac2dced5682a8014b886e4926d32640ee0c928df88f83838342604051610e0b94939291906158e1565b60405180910390a15050505b565b60035f9054906101000a900460ff1681565b600c5481565b60605f6006811115610e4657610e45614a9b565b5b60035f9054906101000a900460ff166006811115610e6757610e66614a9b565b5b03610ea9576040518060400160405280600581526020017f536574757000000000000000000000000000000000000000000000000000000081525090506111ab565b60016006811115610ebd57610ebc614a9b565b5b60035f9054906101000a900460ff166006811115610ede57610edd614a9b565b5b03610f20576040518060400160405280601681526020017f43616e64696461746520526567697374726174696f6e0000000000000000000081525090506111ab565b60026006811115610f3457610f33614a9b565b5b60035f9054906101000a900460ff166006811115610f5557610f54614a9b565b5b03610f97576040518060400160405280601281526020017f566f74657220526567697374726174696f6e000000000000000000000000000081525090506111ab565b60036006811115610fab57610faa614a9b565b5b60035f9054906101000a900460ff166006811115610fcc57610fcb614a9b565b5b0361100e576040518060400160405280600f81526020017f43616d706169676e20506572696f64000000000000000000000000000000000081525090506111ab565b6004600681111561102257611021614a9b565b5b60035f9054906101000a900460ff16600681111561104357611042614a9b565b5b03611085576040518060400160405280600d81526020017f566f74696e67204163746976650000000000000000000000000000000000000081525090506111ab565b6005600681111561109957611098614a9b565b5b60035f9054906101000a900460ff1660068111156110ba576110b9614a9b565b5b036110fc576040518060400160405280600e81526020017f436f756e74696e6720566f74657300000000000000000000000000000000000081525090506111ab565b60068081111561110f5761110e614a9b565b5b60035f9054906101000a900460ff1660068111156111305761112f614a9b565b5b03611172576040518060400160405280601081526020017f526573756c7473204465636c617265640000000000000000000000000000000081525090506111ab565b6040518060400160405280600781526020017f556e6b6e6f776e0000000000000000000000000000000000000000000000000081525090505b90565b60135481565b60125481565b600e5481565b60155481565b6009602052805f5260405f205f915090505481565b60145481565b60605f600a5467ffffffffffffffff811115611200576111ff61510b565b5b60405190808252806020026020018201604052801561123957816020015b6112266148f7565b81526020019060019003908161121e5790505b5090505f600190505b600a54811161157b5760065f8281526020019081526020015f20604051806101400160405290815f820154815260200160018201805461128190615958565b80601f01602080910402602001604051908101604052809291908181526020018280546112ad90615958565b80156112f85780601f106112cf576101008083540402835291602001916112f8565b820191905f5260205f20905b8154815290600101906020018083116112db57829003601f168201915b5050505050815260200160028201805461131190615958565b80601f016020809104026020016040519081016040528092919081815260200182805461133d90615958565b80156113885780601f1061135f57610100808354040283529160200191611388565b820191905f5260205f20905b81548152906001019060200180831161136b57829003601f168201915b505050505081526020016003820180546113a190615958565b80601f01602080910402602001604051908101604052809291908181526020018280546113cd90615958565b80156114185780601f106113ef57610100808354040283529160200191611418565b820191905f5260205f20905b8154815290600101906020018083116113fb57829003601f168201915b5050505050815260200160048201805461143190615958565b80601f016020809104026020016040519081016040528092919081815260200182805461145d90615958565b80156114a85780601f1061147f576101008083540402835291602001916114a8565b820191905f5260205f20905b81548152906001019060200180831161148b57829003601f168201915b50505050508152602001600582015f9054906101000a900473ffffffffffffffffffffffffffffffffffffffff1673ffffffffffffffffffffffffffffffffffffffff1673ffffffffffffffffffffffffffffffffffffffff16815260200160068201548152602001600782015f9054906101000a900460ff16151515158152602001600882015481526020016009820154815250508260018361154c91906159b5565b8151811061155d5761155c6159e8565b5b6020026020010181905250808061157390615a15565b915050611242565b508091505090565b5f5f600b5403611595575f90506115b4565b600b546064600c546115a79190615a5c565b6115b19190615aca565b90505b90565b6006602052805f5260405f205f91509050805f0154908060010180546115dc90615958565b80601f016020809104026020016040519081016040528092919081815260200182805461160890615958565b80156116535780601f1061162a57610100808354040283529160200191611653565b820191905f5260205f20905b81548152906001019060200180831161163657829003601f168201915b50505050509080600201805461166890615958565b80601f016020809104026020016040519081016040528092919081815260200182805461169490615958565b80156116df5780601f106116b6576101008083540402835291602001916116df565b820191905f5260205f20905b8154815290600101906020018083116116c257829003601f168201915b5050505050908060030180546116f490615958565b80601f016020809104026020016040519081016040528092919081815260200182805461172090615958565b801561176b5780601f106117425761010080835404028352916020019161176b565b820191905f5260205f20905b81548152906001019060200180831161174e57829003601f168201915b50505050509080600401805461178090615958565b80601f01602080910402602001604051908101604052809291908181526020018280546117ac90615958565b80156117f75780601f106117ce576101008083540402835291602001916117f7565b820191905f5260205f20905b8154815290600101906020018083116117da57829003601f168201915b505050505090806005015f9054906101000a900473ffffffffffffffffffffffffffffffffffffffff1690806006015490806007015f9054906101000a900460ff1690806008015490806009015490508a565b6118526148f7565b815f811180156118645750600a548111155b6118a3576040517f08c379a000000000000000000000000000000000000000000000000000000000815260040161189a90615b44565b60405180910390fd5b60065f8481526020019081526020015f20604051806101400160405290815f82015481526020016001820180546118d990615958565b80601f016020809104026020016040519081016040528092919081815260200182805461190590615958565b80156119505780601f1061192757610100808354040283529160200191611950565b820191905f5260205f20905b81548152906001019060200180831161193357829003601f168201915b5050505050815260200160028201805461196990615958565b80601f016020809104026020016040519081016040528092919081815260200182805461199590615958565b80156119e05780601f106119b7576101008083540402835291602001916119e0565b820191905f5260205f20905b8154815290600101906020018083116119c357829003601f168201915b505050505081526020016003820180546119f990615958565b80601f0160208091040260200160405190810160405280929190818152602001828054611a2590615958565b8015611a705780601f10611a4757610100808354040283529160200191611a70565b820191905f5260205f20905b815481529060010190602001808311611a5357829003601f168201915b50505050508152602001600482018054611a8990615958565b80601f0160208091040260200160405190810160405280929190818152602001828054611ab590615958565b8015611b005780601f10611ad757610100808354040283529160200191611b00565b820191905f5260205f20905b815481529060010190602001808311611ae357829003601f168201915b50505050508152602001600582015f9054906101000a900473ffffffffffffffffffffffffffffffffffffffff1673ffffffffffffffffffffffffffffffffffffffff1673ffffffffffffffffffffffffffffffffffffffff16815260200160068201548152602001600782015f9054906101000a900460ff1615151515815260200160088201548152602001600982015481525050915050919050565b5f5f60095f8473ffffffffffffffffffffffffffffffffffffffff1673ffffffffffffffffffffffffffffffffffffffff1681526020019081526020015f205490505f8103611bf0575f915050611c16565b60085f8281526020019081526020015f2060040160149054906101000a900460ff169150505b919050565b6004806006811115611c3057611c2f614a9b565b5b60035f9054906101000a900460ff166006811115611c5157611c50614a9b565b5b14611c91576040517f08c379a0000000000000000000000000000000000000000000000000000000008152600401611c8890615bac565b60405180910390fd5b611c996148a1565b815f81118015611cab5750600a548111155b611cea576040517f08c379a0000000000000000000000000000000000000000000000000000000008152600401611ce190615b44565b60405180910390fd5b5f60095f3373ffffffffffffffffffffffffffffffffffffffff1673ffffffffffffffffffffffffffffffffffffffff1681526020019081526020015f205490505f8111611d6d576040517f08c379a0000000000000000000000000000000000000000000000000000000008152600401611d6490615c14565b60405180910390fd5b5f60085f8381526020019081526020015f2090508060040160149054906101000a900460ff16611dd2576040517f08c379a0000000000000000000000000000000000000000000000000000000008152600401611dc990615c7c565b60405180910390fd5b8060040160159054906101000a900460ff1615611e24576040517f08c379a0000000000000000000000000000000000000000000000000000000008152600401611e1b90615ce4565b60405180910390fd5b5f60065f8781526020019081526020015f209050806007015f9054906101000a900460ff16611e88576040517f08c379a0000000000000000000000000000000000000000000000000000000008152600401611e7f90615d4c565b60405180910390fd5b60018260040160156101000a81548160ff021916908315150217905550858260050181905550806008015f815480929190611ec290615a15565b9190505550600c5f815480929190611ed990615a15565b919050555085837f24930ecca7f60d4736cd965cb5522694ea4b32308405d3f88fea2f59eff63caa42604051611f0f9190614b3f565b60405180910390a350505050611f236148ee565b5050565b600b5481565b5f5f60075f8473ffffffffffffffffffffffffffffffffffffffff1673ffffffffffffffffffffffffffffffffffffffff1681526020019081526020015f205490505f8103611f7f575f915050611fa4565b60065f8281526020019081526020015f206007015f9054906101000a900460ff169150505b919050565b60603073ffffffffffffffffffffffffffffffffffffffff16638ad227066040518163ffffffff1660e01b81526004015f60405180830381865afa158015611ff3573d5f5f3e3d5ffd5b505050506040513d5f823e3d601f19601f8201168201806040525081019061201b9190615ff5565b905090565b600f5481565b6005805461203390615958565b80601f016020809104026020016040519081016040528092919081815260200182805461205f90615958565b80156120aa5780601f10612081576101008083540402835291602001916120aa565b820191905f5260205f20905b81548152906001019060200180831161208d57829003601f168201915b505050505081565b60015f9054906101000a900473ffffffffffffffffffffffffffffffffffffffff1673ffffffffffffffffffffffffffffffffffffffff163373ffffffffffffffffffffffffffffffffffffffff1614612141576040517f08c379a00000000000000000000000000000000000000000000000000000000081526004016121389061576d565b60405180910390fd5b60025f8273ffffffffffffffffffffffffffffffffffffffff1673ffffffffffffffffffffffffffffffffffffffff1681526020019081526020015f205f9054906101000a900460ff166121ca576040517f08c379a00000000000000000000000000000000000000000000000000000000081526004016121c190616086565b60405180910390fd5b5f60025f8373ffffffffffffffffffffffffffffffffffffffff1673ffffffffffffffffffffffffffffffffffffffff1681526020019081526020015f205f6101000a81548160ff0219169083151502179055508073ffffffffffffffffffffffffffffffffffffffff167f9dd902b9757cc3e4a6b89a63bdac61bfc3087b2f94a55832cb55d3de65f29608426040516122649190614b3f565b60405180910390a250565b60115481565b600280600681111561228a57612289614a9b565b5b60035f9054906101000a900460ff1660068111156122ab576122aa614a9b565b5b146122eb576040517f08c379a00000000000000000000000000000000000000000000000000000000081526004016122e290615bac565b60405180910390fd5b601283101561232f576040517f08c379a0000000000000000000000000000000000000000000000000000000008152600401612326906160ee565b60405180910390fd5b5f60095f3373ffffffffffffffffffffffffffffffffffffffff1673ffffffffffffffffffffffffffffffffffffffff1681526020019081526020015f2054146123ae576040517f08c379a00000000000000000000000000000000000000000000000000000000081526004016123a590616156565b60405180910390fd5b5f8451116123f1576040517f08c379a00000000000000000000000000000000000000000000000000000000081526004016123e8906161be565b60405180910390fd5b600b5f81548092919061240390615a15565b9190505550604051806101200160405280600b5481526020018581526020018481526020018381526020013373ffffffffffffffffffffffffffffffffffffffff1681526020015f151581526020015f151581526020015f81526020014281525060085f600b5481526020019081526020015f205f820151815f01556020820151816001019081612494919061637c565b506040820151816002015560608201518160030190816124b4919061637c565b506080820151816004015f6101000a81548173ffffffffffffffffffffffffffffffffffffffff021916908373ffffffffffffffffffffffffffffffffffffffff16021790555060a08201518160040160146101000a81548160ff02191690831515021790555060c08201518160040160156101000a81548160ff02191690831515021790555060e082015181600501556101008201518160060155905050600b5460095f3373ffffffffffffffffffffffffffffffffffffffff1673ffffffffffffffffffffffffffffffffffffffff1681526020019081526020015f2081905550600b547fd30636f280d2ba3d6969f9e730fa176badb085756380cba91ab8a6d636ce1e248533426040516125cd9392919061644b565b60405180910390a250505050565b60015f9054906101000a900473ffffffffffffffffffffffffffffffffffffffff1673ffffffffffffffffffffffffffffffffffffffff163373ffffffffffffffffffffffffffffffffffffffff161461266a576040517f08c379a00000000000000000000000000000000000000000000000000000000081526004016126619061576d565b60405180910390fd5b5f73ffffffffffffffffffffffffffffffffffffffff168173ffffffffffffffffffffffffffffffffffffffff16036126d8576040517f08c379a00000000000000000000000000000000000000000000000000000000081526004016126cf906164d1565b60405180910390fd5b60025f8273ffffffffffffffffffffffffffffffffffffffff1673ffffffffffffffffffffffffffffffffffffffff1681526020019081526020015f205f9054906101000a900460ff1615612762576040517f08c379a000000000000000000000000000000000000000000000000000000000815260040161275990616539565b60405180910390fd5b600160025f8373ffffffffffffffffffffffffffffffffffffffff1673ffffffffffffffffffffffffffffffffffffffff1681526020019081526020015f205f6101000a81548160ff0219169083151502179055508073ffffffffffffffffffffffffffffffffffffffff167ffcec821a70e12047fa0e17132c41ef19a9e018bd461c5de656f2d31ff2f7114d426040516127fd9190614b3f565b60405180910390a250565b60025f3373ffffffffffffffffffffffffffffffffffffffff1673ffffffffffffffffffffffffffffffffffffffff1681526020019081526020015f205f9054906101000a900460ff16806128a9575060015f9054906101000a900473ffffffffffffffffffffffffffffffffffffffff1673ffffffffffffffffffffffffffffffffffffffff163373ffffffffffffffffffffffffffffffffffffffff16145b6128e8576040517f08c379a00000000000000000000000000000000000000000000000000000000081526004016128df906165a1565b60405180910390fd5b805f811180156128fa5750600a548111155b612939576040517f08c379a000000000000000000000000000000000000000000000000000000000815260040161293090615b44565b60405180910390fd5b60065f8381526020019081526020015f206007015f9054906101000a900460ff161561299a576040517f08c379a000000000000000000000000000000000000000000000000000000000815260040161299190616609565b60405180910390fd5b600160065f8481526020019081526020015f206007015f6101000a81548160ff021916908315150217905550817fbe3802cea1f17660053d124f9c6c8d35243bd9aef11c365105120e84accaff0033426040516129f8929190616627565b60405180910390a25050565b6004806006811115612a1957612a18614a9b565b5b60035f9054906101000a900460ff166006811115612a3a57612a39614a9b565b5b14612a7a576040517f08c379a0000000000000000000000000000000000000000000000000000000008152600401612a7190615bac565b60405180910390fd5b612a826148a1565b5f60095f3373ffffffffffffffffffffffffffffffffffffffff1673ffffffffffffffffffffffffffffffffffffffff1681526020019081526020015f205490505f8111612b05576040517f08c379a0000000000000000000000000000000000000000000000000000000008152600401612afc90615c14565b60405180910390fd5b5f60085f8381526020019081526020015f2090508060040160149054906101000a900460ff16612b6a576040517f08c379a0000000000000000000000000000000000000000000000000000000008152600401612b6190615c7c565b60405180910390fd5b8060040160159054906101000a900460ff1615612bbc576040517f08c379a0000000000000000000000000000000000000000000000000000000008152600401612bb390615ce4565b60405180910390fd5b60018160040160156101000a81548160ff0219169083151502179055505f8160050181905550600d5f815480929190612bf490615a15565b9190505550600c5f815480929190612c0b90615a15565b9190505550817fe5660b90982e2c7efdb0d9617dee08e857c4f217a9fa199d238461dcd135b5ad42604051612c409190614b3f565b60405180910390a25050612c526148ee565b50565b60025f3373ffffffffffffffffffffffffffffffffffffffff1673ffffffffffffffffffffffffffffffffffffffff1681526020019081526020015f205f9054906101000a900460ff1680612cf6575060015f9054906101000a900473ffffffffffffffffffffffffffffffffffffffff1673ffffffffffffffffffffffffffffffffffffffff163373ffffffffffffffffffffffffffffffffffffffff16145b612d35576040517f08c379a0000000000000000000000000000000000000000000000000000000008152600401612d2c906165a1565b60405180910390fd5b805f81118015612d475750600a548111155b612d86576040517f08c379a0000000000000000000000000000000000000000000000000000000008152600401612d7d90615b44565b60405180910390fd5b60065f8381526020019081526020015f206007015f9054906101000a900460ff1615612de7576040517f08c379a0000000000000000000000000000000000000000000000000000000008152600401612dde90616609565b60405180910390fd5b5f60065f8481526020019081526020015f2090505f816005015f9054906101000a900473ffffffffffffffffffffffffffffffffffffffff1690505f826006015490508173ffffffffffffffffffffffffffffffffffffffff166108fc8290811502906040515f60405180830381858888f19350505050158015612e6d573d5f5f3e3d5ffd5b50847f0c612606c243f65a26073114f9524538384ae2511a1633e88320f611738f54b73342604051612ea0929190616627565b60405180910390a25050505050565b6001806006811115612ec457612ec3614a9b565b5b60035f9054906101000a900460ff166006811115612ee557612ee4614a9b565b5b14612f25576040517f08c379a0000000000000000000000000000000000000000000000000000000008152600401612f1c90615bac565b60405180910390fd5b612f2d6148a1565b662386f26fc10000341015612f77576040517f08c379a0000000000000000000000000000000000000000000000000000000008152600401612f6e90616698565b60405180910390fd5b5f60075f3373ffffffffffffffffffffffffffffffffffffffff1673ffffffffffffffffffffffffffffffffffffffff1681526020019081526020015f205414612ff6576040517f08c379a0000000000000000000000000000000000000000000000000000000008152600401612fed90616700565b60405180910390fd5b5f855111613039576040517f08c379a0000000000000000000000000000000000000000000000000000000008152600401613030906161be565b60405180910390fd5b5f84511161307c576040517f08c379a000000000000000000000000000000000000000000000000000000000815260040161307390616768565b60405180910390fd5b600a5f81548092919061308e90615a15565b9190505550604051806101400160405280600a5481526020018681526020018581526020018481526020018381526020013373ffffffffffffffffffffffffffffffffffffffff1681526020013481526020015f151581526020015f81526020014281525060065f600a5481526020019081526020015f205f820151815f01556020820151816001019081613123919061637c565b506040820151816002019081613139919061637c565b50606082015181600301908161314f919061637c565b506080820151816004019081613165919061637c565b5060a0820151816005015f6101000a81548173ffffffffffffffffffffffffffffffffffffffff021916908373ffffffffffffffffffffffffffffffffffffffff16021790555060c0820151816006015560e0820151816007015f6101000a81548160ff02191690831515021790555061010082015181600801556101208201518160090155905050600a5460075f3373ffffffffffffffffffffffffffffffffffffffff1673ffffffffffffffffffffffffffffffffffffffff1681526020019081526020015f2081905550600a547f9da554e597f950619ba1d6d7d925797c571bcfc30e40cfef81ca74dadc2c79a78686334260405161326a9493929190616786565b60405180910390a261327a6148ee565b5050505050565b6004805461328e90615958565b80601f01602080910402602001604051908101604052809291908181526020018280546132ba90615958565b80156133055780601f106132dc57610100808354040283529160200191613305565b820191905f5260205f20905b8154815290600101906020018083116132e857829003601f168201915b505050505081565b6060805f5f5f5f5f6004600560035f9054906101000a900460ff16600a54600b54600c54600d5486805461334090615958565b80601f016020809104026020016040519081016040528092919081815260200182805461336c90615958565b80156133b75780601f1061338e576101008083540402835291602001916133b7565b820191905f5260205f20905b81548152906001019060200180831161339a57829003601f168201915b505050505096508580546133ca90615958565b80601f01602080910402602001604051908101604052809291908181526020018280546133f690615958565b80156134415780601f1061341857610100808354040283529160200191613441565b820191905f5260205f20905b81548152906001019060200180831161342457829003601f168201915b50505050509550965096509650965096509650965090919293949596565b6007602052805f5260405f205f915090505481565b60605f5f90505f600190505b600a5481116134d15760065f8281526020019081526020015f206007015f9054906101000a900460ff16156134be5781806134ba90615a15565b9250505b80806134c990615a15565b915050613480565b505f8167ffffffffffffffff8111156134ed576134ec61510b565b5b60405190808252806020026020018201604052801561352657816020015b6135136148f7565b81526020019060019003908161350b5790505b5090505f5f90505f600190505b600a5481116138955760065f8281526020019081526020015f206007015f9054906101000a900460ff16156138825760065f8281526020019081526020015f20604051806101400160405290815f820154815260200160018201805461359890615958565b80601f01602080910402602001604051908101604052809291908181526020018280546135c490615958565b801561360f5780601f106135e65761010080835404028352916020019161360f565b820191905f5260205f20905b8154815290600101906020018083116135f257829003601f168201915b5050505050815260200160028201805461362890615958565b80601f016020809104026020016040519081016040528092919081815260200182805461365490615958565b801561369f5780601f106136765761010080835404028352916020019161369f565b820191905f5260205f20905b81548152906001019060200180831161368257829003601f168201915b505050505081526020016003820180546136b890615958565b80601f01602080910402602001604051908101604052809291908181526020018280546136e490615958565b801561372f5780601f106137065761010080835404028352916020019161372f565b820191905f5260205f20905b81548152906001019060200180831161371257829003601f168201915b5050505050815260200160048201805461374890615958565b80601f016020809104026020016040519081016040528092919081815260200182805461377490615958565b80156137bf5780601f10613796576101008083540402835291602001916137bf565b820191905f5260205f20905b8154815290600101906020018083116137a257829003601f168201915b50505050508152602001600582015f9054906101000a900473ffffffffffffffffffffffffffffffffffffffff1673ffffffffffffffffffffffffffffffffffffffff1673ffffffffffffffffffffffffffffffffffffffff16815260200160068201548152602001600782015f9054906101000a900460ff1615151515815260200160088201548152602001600982015481525050838381518110613868576138676159e8565b5b6020026020010181905250818061387e90615a15565b9250505b808061388d90615a15565b915050613533565b5081935050505090565b60015f9054906101000a900473ffffffffffffffffffffffffffffffffffffffff1673ffffffffffffffffffffffffffffffffffffffff163373ffffffffffffffffffffffffffffffffffffffff161461392e576040517f08c379a00000000000000000000000000000000000000000000000000000000081526004016139259061576d565b60405180910390fd5b5f60035f9054906101000a900460ff1690508160035f6101000a81548160ff0219169083600681111561396457613963614a9b565b5b02179055507fb070f30564c7f6b4417cbad108e44deef775fbe1f133668303bd71b13497ac4a81834260405161399c939291906167d7565b60405180910390a15050565b5f60605f5f600c54116139f0576040517f08c379a00000000000000000000000000000000000000000000000000000000081526004016139e790616856565b60405180910390fd5b5f5f90505f5f90505f600190505b600a548111613a7a5760065f8281526020019081526020015f206007015f9054906101000a900460ff168015613a4757508260065f8381526020019081526020015f2060080154115b15613a675760065f8281526020019081526020015f206008015492508091505b8080613a7290615a15565b9150506139fe565b505f8111613abd576040517f08c379a0000000000000000000000000000000000000000000000000000000008152600401613ab4906168be565b60405180910390fd5b8060065f8381526020019081526020015f2060010183818054613adf90615958565b80601f0160208091040260200160405190810160405280929190818152602001828054613b0b90615958565b8015613b565780601f10613b2d57610100808354040283529160200191613b56565b820191905f5260205f20905b815481529060010190602001808311613b3957829003601f168201915b505050505091509450945094505050909192565b60105481565b60025f3373ffffffffffffffffffffffffffffffffffffffff1673ffffffffffffffffffffffffffffffffffffffff1681526020019081526020015f205f9054906101000a900460ff1680613c11575060015f9054906101000a900473ffffffffffffffffffffffffffffffffffffffff1673ffffffffffffffffffffffffffffffffffffffff163373ffffffffffffffffffffffffffffffffffffffff16145b613c50576040517f08c379a0000000000000000000000000000000000000000000000000000000008152600401613c47906165a1565b60405180910390fd5b805f81118015613c625750600b548111155b613ca1576040517f08c379a0000000000000000000000000000000000000000000000000000000008152600401613c9890616926565b60405180910390fd5b60085f8381526020019081526020015f2060040160149054906101000a900460ff1615613d03576040517f08c379a0000000000000000000000000000000000000000000000000000000008152600401613cfa9061698e565b60405180910390fd5b600160085f8481526020019081526020015f2060040160146101000a81548160ff021916908315150217905550817f77e0f3c307d22573326b9fe794048ca2137a56de0195cf3db5606adb8a6586b93342604051613d62929190616627565b60405180910390a25050565b600a5481565b6002602052805f5260405f205f915054906101000a900460ff1681565b6003806006811115613da657613da5614a9b565b5b60035f9054906101000a900460ff166006811115613dc757613dc6614a9b565b5b14613e07576040517f08c379a0000000000000000000000000000000000000000000000000000000008152600401613dfe90615bac565b60405180910390fd5b5f60075f3373ffffffffffffffffffffffffffffffffffffffff1673ffffffffffffffffffffffffffffffffffffffff1681526020019081526020015f205490505f8111613e8a576040517f08c379a0000000000000000000000000000000000000000000000000000000008152600401613e81906169f6565b60405180910390fd5b60065f8281526020019081526020015f206007015f9054906101000a900460ff16613eea576040517f08c379a0000000000000000000000000000000000000000000000000000000008152600401613ee190615d4c565b60405180910390fd5b8260065f8381526020019081526020015f206004019081613f0b919061637c565b50807ff9222ff17404785be01982106fe54cc7e96c57ad01ab55fd63eed959bbc7db1d42604051613f3c9190614b3f565b60405180910390a2505050565b601281565b60015f9054906101000a900473ffffffffffffffffffffffffffffffffffffffff1681565b613f7b61495c565b815f81118015613f8d5750600b548111155b613fcc576040517f08c379a0000000000000000000000000000000000000000000000000000000008152600401613fc390616926565b60405180910390fd5b60085f8481526020019081526020015f20604051806101200160405290815f820154815260200160018201805461400290615958565b80601f016020809104026020016040519081016040528092919081815260200182805461402e90615958565b80156140795780601f1061405057610100808354040283529160200191614079565b820191905f5260205f20905b81548152906001019060200180831161405c57829003601f168201915b505050505081526020016002820154815260200160038201805461409c90615958565b80601f01602080910402602001604051908101604052809291908181526020018280546140c890615958565b80156141135780601f106140ea57610100808354040283529160200191614113565b820191905f5260205f20905b8154815290600101906020018083116140f657829003601f168201915b50505050508152602001600482015f9054906101000a900473ffffffffffffffffffffffffffffffffffffffff1673ffffffffffffffffffffffffffffffffffffffff1673ffffffffffffffffffffffffffffffffffffffff1681526020016004820160149054906101000a900460ff161515151581526020016004820160159054906101000a900460ff1615151515815260200160058201548152602001600682015481525050915050919050565b6008602052805f5260405f205f91509050805f0154908060010180546141e890615958565b80601f016020809104026020016040519081016040528092919081815260200182805461421490615958565b801561425f5780601f106142365761010080835404028352916020019161425f565b820191905f5260205f20905b81548152906001019060200180831161424257829003601f168201915b50505050509080600201549080600301805461427a90615958565b80601f01602080910402602001604051908101604052809291908181526020018280546142a690615958565b80156142f15780601f106142c8576101008083540402835291602001916142f1565b820191905f5260205f20905b8154815290600101906020018083116142d457829003601f168201915b505050505090806004015f9054906101000a900473ffffffffffffffffffffffffffffffffffffffff16908060040160149054906101000a900460ff16908060040160159054906101000a900460ff16908060050154908060060154905089565b60025f3373ffffffffffffffffffffffffffffffffffffffff1673ffffffffffffffffffffffffffffffffffffffff1681526020019081526020015f205f9054906101000a900460ff16806143f3575060015f9054906101000a900473ffffffffffffffffffffffffffffffffffffffff1673ffffffffffffffffffffffffffffffffffffffff163373ffffffffffffffffffffffffffffffffffffffff16145b614432576040517f08c379a0000000000000000000000000000000000000000000000000000000008152600401614429906165a1565b60405180910390fd5b805f811180156144445750600b548111155b614483576040517f08c379a000000000000000000000000000000000000000000000000000000000815260040161447a90616926565b60405180910390fd5b60085f8381526020019081526020015f2060040160149054906101000a900460ff16156144e5576040517f08c379a00000000000000000000000000000000000000000000000000000000081526004016144dc9061698e565b60405180910390fd5b817f29d4da9625aec53f70e486f3cd1a047fe2d2205cb13d390f604c0346a83fd6073342604051614517929190616627565b60405180910390a25050565b662386f26fc1000081565b60015f9054906101000a900473ffffffffffffffffffffffffffffffffffffffff1673ffffffffffffffffffffffffffffffffffffffff163373ffffffffffffffffffffffffffffffffffffffff16146145bd576040517f08c379a00000000000000000000000000000000000000000000000000000000081526004016145b49061576d565b60405180910390fd5b60068060068111156145d2576145d1614a9b565b5b60035f9054906101000a900460ff1660068111156145f3576145f2614a9b565b5b14614633576040517f08c379a000000000000000000000000000000000000000000000000000000000815260040161462a90615bac565b60405180910390fd5b5f600190505b600a5481116147495760065f8281526020019081526020015f206007015f9054906101000a900460ff16801561468257505f60065f8381526020019081526020015f2060060154115b15614736575f60065f8381526020019081526020015f206006015490505f60065f8481526020019081526020015f206005015f9054906101000a900473ffffffffffffffffffffffffffffffffffffffff1690505f60065f8581526020019081526020015f20600601819055508073ffffffffffffffffffffffffffffffffffffffff166108fc8390811502906040515f60405180830381858888f19350505050158015614732573d5f5f3e3d5ffd5b5050505b808061474190615a15565b915050614639565b5050565b600d5481565b5f5f60095f8473ffffffffffffffffffffffffffffffffffffffff1673ffffffffffffffffffffffffffffffffffffffff1681526020019081526020015f205490505f81036147a5575f9150506147cb565b60085f8281526020019081526020015f2060040160159054906101000a900460ff169150505b919050565b60015f9054906101000a900473ffffffffffffffffffffffffffffffffffffffff1673ffffffffffffffffffffffffffffffffffffffff163373ffffffffffffffffffffffffffffffffffffffff161461485f576040517f08c379a00000000000000000000000000000000000000000000000000000000081526004016148569061576d565b60405180910390fd5b87600e8190555086600f819055508560108190555084601181905550836012819055508260138190555081601481905550806015819055505050505050505050565b60025f54036148e5576040517f08c379a00000000000000000000000000000000000000000000000000000000081526004016148dc90616a5e565b60405180910390fd5b60025f81905550565b60015f81905550565b6040518061014001604052805f8152602001606081526020016060815260200160608152602001606081526020015f73ffffffffffffffffffffffffffffffffffffffff1681526020015f81526020015f151581526020015f81526020015f81525090565b6040518061012001604052805f8152602001606081526020015f8152602001606081526020015f73ffffffffffffffffffffffffffffffffffffffff1681526020015f151581526020015f151581526020015f81526020015f81525090565b5f82825260208201905092915050565b7f446972656374207061796d656e7473206e6f74206163636570746564000000005f82015250565b5f6149ff601c836149bb565b9150614a0a826149cb565b602082019050919050565b5f6020820190508181035f830152614a2c816149f3565b9050919050565b7f496e76616c69642066756e6374696f6e2063616c6c00000000000000000000005f82015250565b5f614a676015836149bb565b9150614a7282614a33565b602082019050919050565b5f6020820190508181035f830152614a9481614a5b565b9050919050565b7f4e487b71000000000000000000000000000000000000000000000000000000005f52602160045260245ffd5b60078110614ad957614ad8614a9b565b5b50565b5f819050614ae982614ac8565b919050565b5f614af882614adc565b9050919050565b614b0881614aee565b82525050565b5f602082019050614b215f830184614aff565b92915050565b5f819050919050565b614b3981614b27565b82525050565b5f602082019050614b525f830184614b30565b92915050565b5f81519050919050565b8281835e5f83830152505050565b5f601f19601f8301169050919050565b5f614b8a82614b58565b614b9481856149bb565b9350614ba4818560208601614b62565b614bad81614b70565b840191505092915050565b5f6020820190508181035f830152614bd08184614b80565b905092915050565b5f604051905090565b5f5ffd5b5f5ffd5b5f73ffffffffffffffffffffffffffffffffffffffff82169050919050565b5f614c1282614be9565b9050919050565b614c2281614c08565b8114614c2c575f5ffd5b50565b5f81359050614c3d81614c19565b92915050565b5f60208284031215614c5857614c57614be1565b5b5f614c6584828501614c2f565b91505092915050565b5f81519050919050565b5f82825260208201905092915050565b5f819050602082019050919050565b614ca081614b27565b82525050565b5f82825260208201905092915050565b5f614cc082614b58565b614cca8185614ca6565b9350614cda818560208601614b62565b614ce381614b70565b840191505092915050565b614cf781614c08565b82525050565b5f8115159050919050565b614d1181614cfd565b82525050565b5f61014083015f830151614d2d5f860182614c97565b5060208301518482036020860152614d458282614cb6565b91505060408301518482036040860152614d5f8282614cb6565b91505060608301518482036060860152614d798282614cb6565b91505060808301518482036080860152614d938282614cb6565b91505060a0830151614da860a0860182614cee565b5060c0830151614dbb60c0860182614c97565b5060e0830151614dce60e0860182614d08565b50610100830151614de3610100860182614c97565b50610120830151614df8610120860182614c97565b508091505092915050565b5f614e0e8383614d17565b905092915050565b5f602082019050919050565b5f614e2c82614c6e565b614e368185614c78565b935083602082028501614e4885614c88565b805f5b85811015614e835784840389528151614e648582614e03565b9450614e6f83614e16565b925060208a01995050600181019050614e4b565b50829750879550505050505092915050565b5f6020820190508181035f830152614ead8184614e22565b905092915050565b614ebe81614b27565b8114614ec8575f5ffd5b50565b5f81359050614ed981614eb5565b92915050565b5f60208284031215614ef457614ef3614be1565b5b5f614f0184828501614ecb565b91505092915050565b614f1381614c08565b82525050565b614f2281614cfd565b82525050565b5f61014082019050614f3c5f83018d614b30565b8181036020830152614f4e818c614b80565b90508181036040830152614f62818b614b80565b90508181036060830152614f76818a614b80565b90508181036080830152614f8a8189614b80565b9050614f9960a0830188614f0a565b614fa660c0830187614b30565b614fb360e0830186614f19565b614fc1610100830185614b30565b614fcf610120830184614b30565b9b9a5050505050505050505050565b5f61014083015f830151614ff45f860182614c97565b506020830151848203602086015261500c8282614cb6565b915050604083015184820360408601526150268282614cb6565b915050606083015184820360608601526150408282614cb6565b9150506080830151848203608086015261505a8282614cb6565b91505060a083015161506f60a0860182614cee565b5060c083015161508260c0860182614c97565b5060e083015161509560e0860182614d08565b506101008301516150aa610100860182614c97565b506101208301516150bf610120860182614c97565b508091505092915050565b5f6020820190508181035f8301526150e28184614fde565b905092915050565b5f6020820190506150fd5f830184614f19565b92915050565b5f5ffd5b5f5ffd5b7f4e487b71000000000000000000000000000000000000000000000000000000005f52604160045260245ffd5b61514182614b70565b810181811067ffffffffffffffff821117156151605761515f61510b565b5b80604052505050565b5f615172614bd8565b905061517e8282615138565b919050565b5f67ffffffffffffffff82111561519d5761519c61510b565b5b6151a682614b70565b9050602081019050919050565b828183375f83830152505050565b5f6151d36151ce84615183565b615169565b9050828152602081018484840111156151ef576151ee615107565b5b6151fa8482856151b3565b509392505050565b5f82601f83011261521657615215615103565b5b81356152268482602086016151c1565b91505092915050565b5f5f5f6060848603121561524657615245614be1565b5b5f84013567ffffffffffffffff81111561526357615262614be5565b5b61526f86828701615202565b935050602061528086828701614ecb565b925050604084013567ffffffffffffffff8111156152a1576152a0614be5565b5b6152ad86828701615202565b9150509250925092565b5f5f5f5f608085870312156152cf576152ce614be1565b5b5f85013567ffffffffffffffff8111156152ec576152eb614be5565b5b6152f887828801615202565b945050602085013567ffffffffffffffff81111561531957615318614be5565b5b61532587828801615202565b935050604085013567ffffffffffffffff81111561534657615345614be5565b5b61535287828801615202565b925050606085013567ffffffffffffffff81111561537357615372614be5565b5b61537f87828801615202565b91505092959194509250565b5f60e0820190508181035f8301526153a3818a614b80565b905081810360208301526153b78189614b80565b90506153c66040830188614aff565b6153d36060830187614b30565b6153e06080830186614b30565b6153ed60a0830185614b30565b6153fa60c0830184614b30565b98975050505050505050565b60078110615412575f5ffd5b50565b5f8135905061542381615406565b92915050565b5f6020828403121561543e5761543d614be1565b5b5f61544b84828501615415565b91505092915050565b5f6060820190506154675f830186614b30565b81810360208301526154798185614b80565b90506154886040830184614b30565b949350505050565b5f602082840312156154a5576154a4614be1565b5b5f82013567ffffffffffffffff8111156154c2576154c1614be5565b5b6154ce84828501615202565b91505092915050565b5f6020820190506154ea5f830184614f0a565b92915050565b5f61012083015f8301516155065f860182614c97565b506020830151848203602086015261551e8282614cb6565b91505060408301516155336040860182614c97565b506060830151848203606086015261554b8282614cb6565b91505060808301516155606080860182614cee565b5060a083015161557360a0860182614d08565b5060c083015161558660c0860182614d08565b5060e083015161559960e0860182614c97565b506101008301516155ae610100860182614c97565b508091505092915050565b5f6020820190508181035f8301526155d181846154f0565b905092915050565b5f610120820190506155ed5f83018c614b30565b81810360208301526155ff818b614b80565b905061560e604083018a614b30565b81810360608301526156208189614b80565b905061562f6080830188614f0a565b61563c60a0830187614f19565b61564960c0830186614f19565b61565660e0830185614b30565b615664610100830184614b30565b9a9950505050505050505050565b5f5f5f5f5f5f5f5f610100898b03121561568f5761568e614be1565b5b5f61569c8b828c01614ecb565b98505060206156ad8b828c01614ecb565b97505060406156be8b828c01614ecb565b96505060606156cf8b828c01614ecb565b95505060806156e08b828c01614ecb565b94505060a06156f18b828c01614ecb565b93505060c06157028b828c01614ecb565b92505060e06157138b828c01614ecb565b9150509295985092959890939650565b7f4f6e6c7920436869656620456c656374696f6e20436f6d6d697373696f6e65725f82015250565b5f6157576020836149bb565b915061576282615723565b602082019050919050565b5f6020820190508181035f8301526157848161574b565b9050919050565b7f43616e6e6f74206465636c61726520726573756c7473207965740000000000005f82015250565b5f6157bf601a836149bb565b91506157ca8261578b565b602082019050919050565b5f6020820190508181035f8301526157ec816157b3565b9050919050565b5f8151905061580181614eb5565b92915050565b5f61581961581484615183565b615169565b90508281526020810184848401111561583557615834615107565b5b615840848285614b62565b509392505050565b5f82601f83011261585c5761585b615103565b5b815161586c848260208601615807565b91505092915050565b5f5f5f6060848603121561588c5761588b614be1565b5b5f615899868287016157f3565b935050602084015167ffffffffffffffff8111156158ba576158b9614be5565b5b6158c686828701615848565b92505060406158d7868287016157f3565b9150509250925092565b5f6080820190506158f45f830187614b30565b81810360208301526159068186614b80565b90506159156040830185614b30565b6159226060830184614b30565b95945050505050565b7f4e487b71000000000000000000000000000000000000000000000000000000005f52602260045260245ffd5b5f600282049050600182168061596f57607f821691505b6020821081036159825761598161592b565b5b50919050565b7f4e487b71000000000000000000000000000000000000000000000000000000005f52601160045260245ffd5b5f6159bf82614b27565b91506159ca83614b27565b92508282039050818111156159e2576159e1615988565b5b92915050565b7f4e487b71000000000000000000000000000000000000000000000000000000005f52603260045260245ffd5b5f615a1f82614b27565b91507fffffffffffffffffffffffffffffffffffffffffffffffffffffffffffffffff8203615a5157615a50615988565b5b600182019050919050565b5f615a6682614b27565b9150615a7183614b27565b9250828202615a7f81614b27565b91508282048414831517615a9657615a95615988565b5b5092915050565b7f4e487b71000000000000000000000000000000000000000000000000000000005f52601260045260245ffd5b5f615ad482614b27565b9150615adf83614b27565b925082615aef57615aee615a9d565b5b828204905092915050565b7f496e76616c69642063616e6469646174652049440000000000000000000000005f82015250565b5f615b2e6014836149bb565b9150615b3982615afa565b602082019050919050565b5f6020820190508181035f830152615b5b81615b22565b9050919050565b7f4e6f7420696e20636f727265637420656c656374696f6e2070686173650000005f82015250565b5f615b96601d836149bb565b9150615ba182615b62565b602082019050919050565b5f6020820190508181035f830152615bc381615b8a565b9050919050565b7f4e6f742061207265676973746572656420766f746572000000000000000000005f82015250565b5f615bfe6016836149bb565b9150615c0982615bca565b602082019050919050565b5f6020820190508181035f830152615c2b81615bf2565b9050919050565b7f566f746572206e6f7420766572696669656400000000000000000000000000005f82015250565b5f615c666012836149bb565b9150615c7182615c32565b602082019050919050565b5f6020820190508181035f830152615c9381615c5a565b9050919050565b7f416c726561647920766f746564000000000000000000000000000000000000005f82015250565b5f615cce600d836149bb565b9150615cd982615c9a565b602082019050919050565b5f6020820190508181035f830152615cfb81615cc2565b9050919050565b7f43616e646964617465206e6f7420617070726f766564000000000000000000005f82015250565b5f615d366016836149bb565b9150615d4182615d02565b602082019050919050565b5f6020820190508181035f830152615d6381615d2a565b9050919050565b5f67ffffffffffffffff821115615d8457615d8361510b565b5b602082029050602081019050919050565b5f5ffd5b5f5ffd5b5f5ffd5b5f81519050615daf81614c19565b92915050565b615dbe81614cfd565b8114615dc8575f5ffd5b50565b5f81519050615dd981615db5565b92915050565b5f6101408284031215615df557615df4615d99565b5b615e00610140615169565b90505f615e0f848285016157f3565b5f83015250602082015167ffffffffffffffff811115615e3257615e31615d9d565b5b615e3e84828501615848565b602083015250604082015167ffffffffffffffff811115615e6257615e61615d9d565b5b615e6e84828501615848565b604083015250606082015167ffffffffffffffff811115615e9257615e91615d9d565b5b615e9e84828501615848565b606083015250608082015167ffffffffffffffff811115615ec257615ec1615d9d565b5b615ece84828501615848565b60808301525060a0615ee284828501615da1565b60a08301525060c0615ef6848285016157f3565b60c08301525060e0615f0a84828501615dcb565b60e083015250610100615f1f848285016157f3565b61010083015250610120615f35848285016157f3565b6101208301525092915050565b5f615f54615f4f84615d6a565b615169565b90508083825260208201905060208402830185811115615f7757615f76615d95565b5b835b81811015615fbe57805167ffffffffffffffff811115615f9c57615f9b615103565b5b808601615fa98982615ddf565b85526020850194505050602081019050615f79565b5050509392505050565b5f82601f830112615fdc57615fdb615103565b5b8151615fec848260208601615f42565b91505092915050565b5f6020828403121561600a57616009614be1565b5b5f82015167ffffffffffffffff81111561602757616026614be5565b5b61603384828501615fc8565b91505092915050565b7f4e6f7420616e206f6666696365720000000000000000000000000000000000005f82015250565b5f616070600e836149bb565b915061607b8261603c565b602082019050919050565b5f6020820190508181035f83015261609d81616064565b9050919050565b7f42656c6f77206d696e696d756d20766f74696e672061676500000000000000005f82015250565b5f6160d86018836149bb565b91506160e3826160a4565b602082019050919050565b5f6020820190508181035f830152616105816160cc565b9050919050565b7f416c7265616479207265676973746572656420617320766f74657200000000005f82015250565b5f616140601b836149bb565b915061614b8261610c565b602082019050919050565b5f6020820190508181035f83015261616d81616134565b9050919050565b7f4e616d65207265717569726564000000000000000000000000000000000000005f82015250565b5f6161a8600d836149bb565b91506161b382616174565b602082019050919050565b5f6020820190508181035f8301526161d58161619c565b9050919050565b5f819050815f5260205f209050919050565b5f6020601f8301049050919050565b5f82821b905092915050565b5f600883026162387fffffffffffffffffffffffffffffffffffffffffffffffffffffffffffffffff826161fd565b61624286836161fd565b95508019841693508086168417925050509392505050565b5f819050919050565b5f61627d61627861627384614b27565b61625a565b614b27565b9050919050565b5f819050919050565b61629683616263565b6162aa6162a282616284565b848454616209565b825550505050565b5f5f905090565b6162c16162b2565b6162cc81848461628d565b505050565b5b818110156162ef576162e45f826162b9565b6001810190506162d2565b5050565b601f82111561633457616305816161dc565b61630e846161ee565b8101602085101561631d578190505b616331616329856161ee565b8301826162d1565b50505b505050565b5f82821c905092915050565b5f6163545f1984600802616339565b1980831691505092915050565b5f61636c8383616345565b9150826002028217905092915050565b61638582614b58565b67ffffffffffffffff81111561639e5761639d61510b565b5b6163a88254615958565b6163b38282856162f3565b5f60209050601f8311600181146163e4575f84156163d2578287015190505b6163dc8582616361565b865550616443565b601f1984166163f2866161dc565b5f5b82811015616419578489015182556001820191506020850194506020810190506163f4565b868310156164365784890151616432601f891682616345565b8355505b6001600288020188555050505b505050505050565b5f6060820190508181035f8301526164638186614b80565b90506164726020830185614f0a565b61647f6040830184614b30565b949350505050565b7f496e76616c6964206164647265737300000000000000000000000000000000005f82015250565b5f6164bb600f836149bb565b91506164c682616487565b602082019050919050565b5f6020820190508181035f8301526164e8816164af565b9050919050565b7f416c726561647920616e206f66666963657200000000000000000000000000005f82015250565b5f6165236012836149bb565b915061652e826164ef565b602082019050919050565b5f6020820190508181035f83015261655081616517565b9050919050565b7f4f6e6c7920456c656374696f6e204f66666963657273000000000000000000005f82015250565b5f61658b6016836149bb565b915061659682616557565b602082019050919050565b5f6020820190508181035f8301526165b88161657f565b9050919050565b7f416c726561647920617070726f766564000000000000000000000000000000005f82015250565b5f6165f36010836149bb565b91506165fe826165bf565b602082019050919050565b5f6020820190508181035f830152616620816165e7565b9050919050565b5f60408201905061663a5f830185614f0a565b6166476020830184614b30565b9392505050565b7f496e73756666696369656e74207365637572697479206465706f7369740000005f82015250565b5f616682601d836149bb565b915061668d8261664e565b602082019050919050565b5f6020820190508181035f8301526166af81616676565b9050919050565b7f416c726561647920726567697374657265642061732063616e646964617465005f82015250565b5f6166ea601f836149bb565b91506166f5826166b6565b602082019050919050565b5f6020820190508181035f830152616717816166de565b9050919050565b7f50617274792072657175697265640000000000000000000000000000000000005f82015250565b5f616752600e836149bb565b915061675d8261671e565b602082019050919050565b5f6020820190508181035f83015261677f81616746565b9050919050565b5f6080820190508181035f83015261679e8187614b80565b905081810360208301526167b28186614b80565b90506167c16040830185614f0a565b6167ce6060830184614b30565b95945050505050565b5f6060820190506167ea5f830186614aff565b6167f76020830185614aff565b6168046040830184614b30565b949350505050565b7f4e6f20766f7465732063617374207965740000000000000000000000000000005f82015250565b5f6168406011836149bb565b915061684b8261680c565b602082019050919050565b5f6020820190508181035f83015261686d81616834565b9050919050565b7f4e6f2077696e6e657220796574000000000000000000000000000000000000005f82015250565b5f6168a8600d836149bb565b91506168b382616874565b602082019050919050565b5f6020820190508181035f8301526168d58161689c565b9050919050565b7f496e76616c696420766f746572204944000000000000000000000000000000005f82015250565b5f6169106010836149bb565b915061691b826168dc565b602082019050919050565b5f6020820190508181035f83015261693d81616904565b9050919050565b7f416c7265616479207665726966696564000000000000000000000000000000005f82015250565b5f6169786010836149bb565b915061698382616944565b602082019050919050565b5f6020820190508181035f8301526169a58161696c565b9050919050565b7f4e6f74206120726567697374657265642063616e6469646174650000000000005f82015250565b5f6169e0601a836149bb565b91506169eb826169ac565b602082019050919050565b5f6020820190508181035f830152616a0d816169d4565b9050919050565b7f5265656e7472616e637947756172643a207265656e7472616e742063616c6c005f82015250565b5f616a48601f836149bb565b9150616a5382616a14565b602082019050919050565b5f6020820190508181035f830152616a7581616a3c565b905091905056fea264697066735822122001420c4cac70e239206d74e03f09369f8821f8f4c33bef6164f4226c0819a90364736f6c634300081e0033",
			"opcodes": "PUSH1 0x80 PUSH1 0x40 MSTORE CALLVALUE DUP1 ISZERO PUSH2 0xF JUMPI PUSH0 PUSH0 REVERT JUMPDEST POP PUSH1 0x40 MLOAD PUSH2 0x712B CODESIZE SUB DUP1 PUSH2 0x712B DUP4 CODECOPY DUP2 DUP2 ADD PUSH1 0x40 MSTORE DUP2 ADD SWAP1 PUSH2 0x31 SWAP2 SWAP1 PUSH2 0x250 JUMP JUMPDEST PUSH1 0x1 PUSH0 DUP2 SWAP1 SSTORE POP CALLER PUSH1 0x1 PUSH0 PUSH2 0x100 EXP DUP2 SLOAD DUP2 PUSH20 0xFFFFFFFFFFFFFFFFFFFFFFFFFFFFFFFFFFFFFFFF MUL NOT AND SWAP1 DUP4 PUSH20 0xFFFFFFFFFFFFFFFFFFFFFFFFFFFFFFFFFFFFFFFF AND MUL OR SWAP1 SSTORE POP DUP2 PUSH1 0x4 SWAP1 DUP2 PUSH2 0x87 SWAP2 SWAP1 PUSH2 0x4D6 JUMP JUMPDEST POP DUP1 PUSH1 0x5 SWAP1 DUP2 PUSH2 0x97 SWAP2 SWAP1 PUSH2 0x4D6 JUMP JUMPDEST POP PUSH0 PUSH1 0x3 PUSH0 PUSH2 0x100 EXP DUP2 SLOAD DUP2 PUSH1 0xFF MUL NOT AND SWAP1 DUP4 PUSH1 0x6 DUP2 GT ISZERO PUSH2 0xBC JUMPI PUSH2 0xBB PUSH2 0x5A5 JUMP JUMPDEST JUMPDEST MUL OR SWAP1 SSTORE POP PUSH32 0x184D51CDCAC34BB27B7A2FC48DF2288BC62DCAD236C9E586B3B2FF0AE96489E7 DUP3 DUP3 TIMESTAMP PUSH1 0x40 MLOAD PUSH2 0xF4 SWAP4 SWAP3 SWAP2 SWAP1 PUSH2 0x629 JUMP JUMPDEST PUSH1 0x40 MLOAD DUP1 SWAP2 SUB SWAP1 LOG1 POP POP PUSH2 0x66C JUMP JUMPDEST PUSH0 PUSH1 0x40 MLOAD SWAP1 POP SWAP1 JUMP JUMPDEST PUSH0 PUSH0 REVERT JUMPDEST PUSH0 PUSH0 REVERT JUMPDEST PUSH0 PUSH0 REVERT JUMPDEST PUSH0 PUSH0 REVERT JUMPDEST PUSH0 PUSH1 0x1F NOT PUSH1 0x1F DUP4 ADD AND SWAP1 POP SWAP2 SWAP1 POP JUMP JUMPDEST PUSH32 0x4E487B7100000000000000000000000000000000000000000000000000000000 PUSH0 MSTORE PUSH1 0x41 PUSH1 0x4 MSTORE PUSH1 0x24 PUSH0 REVERT JUMPDEST PUSH2 0x162 DUP3 PUSH2 0x11C JUMP JUMPDEST DUP2 ADD DUP2 DUP2 LT PUSH8 0xFFFFFFFFFFFFFFFF DUP3 GT OR ISZERO PUSH2 0x181 JUMPI PUSH2 0x180 PUSH2 0x12C JUMP JUMPDEST JUMPDEST DUP1 PUSH1 0x40 MSTORE POP POP POP JUMP JUMPDEST PUSH0 PUSH2 0x193 PUSH2 0x103 JUMP JUMPDEST SWAP1 POP PUSH2 0x19F DUP3 DUP3 PUSH2 0x159 JUMP JUMPDEST SWAP2 SWAP1 POP JUMP JUMPDEST PUSH0 PUSH8 0xFFFFFFFFFFFFFFFF DUP3 GT ISZERO PUSH2 0x1BE JUMPI PUSH2 0x1BD PUSH2 0x12C JUMP JUMPDEST JUMPDEST PUSH2 0x1C7 DUP3 PUSH2 0x11C JUMP JUMPDEST SWAP1 POP PUSH1 0x20 DUP2 ADD SWAP1 POP SWAP2 SWAP1 POP JUMP JUMPDEST DUP3 DUP2 DUP4 MCOPY PUSH0 DUP4 DUP4 ADD MSTORE POP POP POP JUMP JUMPDEST PUSH0 PUSH2 0x1F4 PUSH2 0x1EF DUP5 PUSH2 0x1A4 JUMP JUMPDEST PUSH2 0x18A JUMP JUMPDEST SWAP1 POP DUP3 DUP2 MSTORE PUSH1 0x20 DUP2 ADD DUP5 DUP5 DUP5 ADD GT ISZERO PUSH2 0x210 JUMPI PUSH2 0x20F PUSH2 0x118 JUMP JUMPDEST JUMPDEST PUSH2 0x21B DUP5 DUP3 DUP6 PUSH2 0x1D4 JUMP JUMPDEST POP SWAP4 SWAP3 POP POP POP JUMP JUMPDEST PUSH0 DUP3 PUSH1 0x1F DUP4 ADD SLT PUSH2 0x237 JUMPI PUSH2 0x236 PUSH2 0x114 JUMP JUMPDEST JUMPDEST DUP2 MLOAD PUSH2 0x247 DUP5 DUP3 PUSH1 0x20 DUP7 ADD PUSH2 0x1E2 JUMP JUMPDEST SWAP2 POP POP SWAP3 SWAP2 POP POP JUMP JUMPDEST PUSH0 PUSH0 PUSH1 0x40 DUP4 DUP6 SUB SLT ISZERO PUSH2 0x266 JUMPI PUSH2 0x265 PUSH2 0x10C JUMP JUMPDEST JUMPDEST PUSH0 DUP4 ADD MLOAD PUSH8 0xFFFFFFFFFFFFFFFF DUP2 GT ISZERO PUSH2 0x283 JUMPI PUSH2 0x282 PUSH2 0x110 JUMP JUMPDEST JUMPDEST PUSH2 0x28F DUP6 DUP3 DUP7 ADD PUSH2 0x223 JUMP JUMPDEST SWAP3 POP POP PUSH1 0x20 DUP4 ADD MLOAD PUSH8 0xFFFFFFFFFFFFFFFF DUP2 GT ISZERO PUSH2 0x2B0 JUMPI PUSH2 0x2AF PUSH2 0x110 JUMP JUMPDEST JUMPDEST PUSH2 0x2BC DUP6 DUP3 DUP7 ADD PUSH2 0x223 JUMP JUMPDEST SWAP2 POP POP SWAP3 POP SWAP3 SWAP1 POP JUMP JUMPDEST PUSH0 DUP2 MLOAD SWAP1 POP SWAP2 SWAP1 POP JUMP JUMPDEST PUSH32 0x4E487B7100000000000000000000000000000000000000000000000000000000 PUSH0 MSTORE PUSH1 0x22 PUSH1 0x4 MSTORE PUSH1 0x24 PUSH0 REVERT JUMPDEST PUSH0 PUSH1 0x2 DUP3 DIV SWAP1 POP PUSH1 0x1 DUP3 AND DUP1 PUSH2 0x314 JUMPI PUSH1 0x7F DUP3 AND SWAP2 POP JUMPDEST PUSH1 0x20 DUP3 LT DUP2 SUB PUSH2 0x327 JUMPI PUSH2 0x326 PUSH2 0x2D0 JUMP JUMPDEST JUMPDEST POP SWAP2 SWAP1 POP JUMP JUMPDEST PUSH0 DUP2 SWAP1 POP DUP2 PUSH0 MSTORE PUSH1 0x20 PUSH0 KECCAK256 SWAP1 POP SWAP2 SWAP1 POP JUMP JUMPDEST PUSH0 PUSH1 0x20 PUSH1 0x1F DUP4 ADD DIV SWAP1 POP SWAP2 SWAP1 POP JUMP JUMPDEST PUSH0 DUP3 DUP3 SHL SWAP1 POP SWAP3 SWAP2 POP POP JUMP JUMPDEST PUSH0 PUSH1 0x8 DUP4 MUL PUSH2 0x389 PUSH32 0xFFFFFFFFFFFFFFFFFFFFFFFFFFFFFFFFFFFFFFFFFFFFFFFFFFFFFFFFFFFFFFFF DUP3 PUSH2 0x34E JUMP JUMPDEST PUSH2 0x393 DUP7 DUP4 PUSH2 0x34E JUMP JUMPDEST SWAP6 POP DUP1 NOT DUP5 AND SWAP4 POP DUP1 DUP7 AND DUP5 OR SWAP3 POP POP POP SWAP4 SWAP3 POP POP POP JUMP JUMPDEST PUSH0 DUP2 SWAP1 POP SWAP2 SWAP1 POP JUMP JUMPDEST PUSH0 DUP2 SWAP1 POP SWAP2 SWAP1 POP JUMP JUMPDEST PUSH0 PUSH2 0x3D7 PUSH2 0x3D2 PUSH2 0x3CD DUP5 PUSH2 0x3AB JUMP JUMPDEST PUSH2 0x3B4 JUMP JUMPDEST PUSH2 0x3AB JUMP JUMPDEST SWAP1 POP SWAP2 SWAP1 POP JUMP JUMPDEST PUSH0 DUP2 SWAP1 POP SWAP2 SWAP1 POP JUMP JUMPDEST PUSH2 0x3F0 DUP4 PUSH2 0x3BD JUMP JUMPDEST PUSH2 0x404 PUSH2 0x3FC DUP3 PUSH2 0x3DE JUMP JUMPDEST DUP5 DUP5 SLOAD PUSH2 0x35A JUMP JUMPDEST DUP3 SSTORE POP POP POP POP JUMP JUMPDEST PUSH0 PUSH0 SWAP1 POP SWAP1 JUMP JUMPDEST PUSH2 0x41B PUSH2 0x40C JUMP JUMPDEST PUSH2 0x426 DUP2 DUP5 DUP5 PUSH2 0x3E7 JUMP JUMPDEST POP POP POP JUMP JUMPDEST JUMPDEST DUP2 DUP2 LT ISZERO PUSH2 0x449 JUMPI PUSH2 0x43E PUSH0 DUP3 PUSH2 0x413 JUMP JUMPDEST PUSH1 0x1 DUP2 ADD SWAP1 POP PUSH2 0x42C JUMP JUMPDEST POP POP JUMP JUMPDEST PUSH1 0x1F DUP3 GT ISZERO PUSH2 0x48E JUMPI PUSH2 0x45F DUP2 PUSH2 0x32D JUMP JUMPDEST PUSH2 0x468 DUP5 PUSH2 0x33F JUMP JUMPDEST DUP2 ADD PUSH1 0x20 DUP6 LT ISZERO PUSH2 0x477 JUMPI DUP2 SWAP1 POP JUMPDEST PUSH2 0x48B PUSH2 0x483 DUP6 PUSH2 0x33F JUMP JUMPDEST DUP4 ADD DUP3 PUSH2 0x42B JUMP JUMPDEST POP POP JUMPDEST POP POP POP JUMP JUMPDEST PUSH0 DUP3 DUP3 SHR SWAP1 POP SWAP3 SWAP2 POP POP JUMP JUMPDEST PUSH0 PUSH2 0x4AE PUSH0 NOT DUP5 PUSH1 0x8 MUL PUSH2 0x493 JUMP JUMPDEST NOT DUP1 DUP4 AND SWAP2 POP POP SWAP3 SWAP2 POP POP JUMP JUMPDEST PUSH0 PUSH2 0x4C6 DUP4 DUP4 PUSH2 0x49F JUMP JUMPDEST SWAP2 POP DUP3 PUSH1 0x2 MUL DUP3 OR SWAP1 POP SWAP3 SWAP2 POP POP JUMP JUMPDEST PUSH2 0x4DF DUP3 PUSH2 0x2C6 JUMP JUMPDEST PUSH8 0xFFFFFFFFFFFFFFFF DUP2 GT ISZERO PUSH2 0x4F8 JUMPI PUSH2 0x4F7 PUSH2 0x12C JUMP JUMPDEST JUMPDEST PUSH2 0x502 DUP3 SLOAD PUSH2 0x2FD JUMP JUMPDEST PUSH2 0x50D DUP3 DUP3 DUP6 PUSH2 0x44D JUMP JUMPDEST PUSH0 PUSH1 0x20 SWAP1 POP PUSH1 0x1F DUP4 GT PUSH1 0x1 DUP2 EQ PUSH2 0x53E JUMPI PUSH0 DUP5 ISZERO PUSH2 0x52C JUMPI DUP3 DUP8 ADD MLOAD SWAP1 POP JUMPDEST PUSH2 0x536 DUP6 DUP3 PUSH2 0x4BB JUMP JUMPDEST DUP7 SSTORE POP PUSH2 0x59D JUMP JUMPDEST PUSH1 0x1F NOT DUP5 AND PUSH2 0x54C DUP7 PUSH2 0x32D JUMP JUMPDEST PUSH0 JUMPDEST DUP3 DUP2 LT ISZERO PUSH2 0x573 JUMPI DUP5 DUP10 ADD MLOAD DUP3 SSTORE PUSH1 0x1 DUP3 ADD SWAP2 POP PUSH1 0x20 DUP6 ADD SWAP5 POP PUSH1 0x20 DUP2 ADD SWAP1 POP PUSH2 0x54E JUMP JUMPDEST DUP7 DUP4 LT ISZERO PUSH2 0x590 JUMPI DUP5 DUP10 ADD MLOAD PUSH2 0x58C PUSH1 0x1F DUP10 AND DUP3 PUSH2 0x49F JUMP JUMPDEST DUP4 SSTORE POP JUMPDEST PUSH1 0x1 PUSH1 0x2 DUP9 MUL ADD DUP9 SSTORE POP POP POP JUMPDEST POP POP POP POP POP POP JUMP JUMPDEST PUSH32 0x4E487B7100000000000000000000000000000000000000000000000000000000 PUSH0 MSTORE PUSH1 0x21 PUSH1 0x4 MSTORE PUSH1 0x24 PUSH0 REVERT JUMPDEST PUSH0 DUP3 DUP3 MSTORE PUSH1 0x20 DUP3 ADD SWAP1 POP SWAP3 SWAP2 POP POP JUMP JUMPDEST PUSH0 PUSH2 0x5EC DUP3 PUSH2 0x2C6 JUMP JUMPDEST PUSH2 0x5F6 DUP2 DUP6 PUSH2 0x5D2 JUMP JUMPDEST SWAP4 POP PUSH2 0x606 DUP2 DUP6 PUSH1 0x20 DUP7 ADD PUSH2 0x1D4 JUMP JUMPDEST PUSH2 0x60F DUP2 PUSH2 0x11C JUMP JUMPDEST DUP5 ADD SWAP2 POP POP SWAP3 SWAP2 POP POP JUMP JUMPDEST PUSH2 0x623 DUP2 PUSH2 0x3AB JUMP JUMPDEST DUP3 MSTORE POP POP JUMP JUMPDEST PUSH0 PUSH1 0x60 DUP3 ADD SWAP1 POP DUP2 DUP2 SUB PUSH0 DUP4 ADD MSTORE PUSH2 0x641 DUP2 DUP7 PUSH2 0x5E2 JUMP JUMPDEST SWAP1 POP DUP2 DUP2 SUB PUSH1 0x20 DUP4 ADD MSTORE PUSH2 0x655 DUP2 DUP6 PUSH2 0x5E2 JUMP JUMPDEST SWAP1 POP PUSH2 0x664 PUSH1 0x40 DUP4 ADD DUP5 PUSH2 0x61A JUMP JUMPDEST SWAP5 SWAP4 POP POP POP POP JUMP JUMPDEST PUSH2 0x6AB2 DUP1 PUSH2 0x679 PUSH0 CODECOPY PUSH0 RETURN INVALID PUSH1 0x80 PUSH1 0x40 MSTORE PUSH1 0x4 CALLDATASIZE LT PUSH2 0x2CC JUMPI PUSH0 CALLDATALOAD PUSH1 0xE0 SHR DUP1 PUSH4 0x69956046 GT PUSH2 0x174 JUMPI DUP1 PUSH4 0xA9A981A3 GT PUSH2 0xDB JUMPI DUP1 PUSH4 0xDA58C7D9 GT PUSH2 0x94 JUMPI DUP1 PUSH4 0xFB45F128 GT PUSH2 0x6E JUMPI DUP1 PUSH4 0xFB45F128 EQ PUSH2 0xB44 JUMPI DUP1 PUSH4 0xFCED5FA4 EQ PUSH2 0xB5A JUMPI DUP1 PUSH4 0xFD11F97A EQ PUSH2 0xB84 JUMPI DUP1 PUSH4 0xFDBA31CC EQ PUSH2 0xBC0 JUMPI PUSH2 0x30C JUMP JUMPDEST DUP1 PUSH4 0xDA58C7D9 EQ PUSH2 0xAAE JUMPI DUP1 PUSH4 0xF169B308 EQ PUSH2 0xAF2 JUMPI DUP1 PUSH4 0xF6948559 EQ PUSH2 0xB1A JUMPI PUSH2 0x30C JUMP JUMPDEST DUP1 PUSH4 0xA9A981A3 EQ PUSH2 0x990 JUMPI DUP1 PUSH4 0xAE7CB26F EQ PUSH2 0x9BA JUMPI DUP1 PUSH4 0xBDB01A38 EQ PUSH2 0x9F6 JUMPI DUP1 PUSH4 0xC3B0A88B EQ PUSH2 0xA1E JUMPI DUP1 PUSH4 0xCA298F62 EQ PUSH2 0xA48 JUMPI DUP1 PUSH4 0xD07BFF0C EQ PUSH2 0xA72 JUMPI PUSH2 0x30C JUMP JUMPDEST DUP1 PUSH4 0x8A2E368B GT PUSH2 0x12D JUMPI DUP1 PUSH4 0x8A2E368B EQ PUSH2 0x884 JUMPI DUP1 PUSH4 0x8AD22706 EQ PUSH2 0x8C0 JUMPI DUP1 PUSH4 0x8C421FBC EQ PUSH2 0x8EA JUMPI DUP1 PUSH4 0x8E7EA5B2 EQ PUSH2 0x912 JUMPI DUP1 PUSH4 0x990EDC3D EQ PUSH2 0x93E JUMPI DUP1 PUSH4 0xA0BD43E5 EQ PUSH2 0x968 JUMPI PUSH2 0x30C JUMP JUMPDEST DUP1 PUSH4 0x69956046 EQ PUSH2 0x7A8 JUMPI DUP1 PUSH4 0x6E40D4BA EQ PUSH2 0x7D0 JUMPI DUP1 PUSH4 0x797A882A EQ PUSH2 0x7E6 JUMPI DUP1 PUSH4 0x7AFF6F91 EQ PUSH2 0x80E JUMPI DUP1 PUSH4 0x85E8E7A7 EQ PUSH2 0x82A JUMPI DUP1 PUSH4 0x86852DCA EQ PUSH2 0x854 JUMPI PUSH2 0x30C JUMP JUMPDEST DUP1 PUSH4 0x3477EE2E GT PUSH2 0x233 JUMPI DUP1 PUSH4 0x4717F97C GT PUSH2 0x1EC JUMPI DUP1 PUSH4 0x5D0E91C5 GT PUSH2 0x1C6 JUMPI DUP1 PUSH4 0x5D0E91C5 EQ PUSH2 0x706 JUMPI DUP1 PUSH4 0x660CDEC8 EQ PUSH2 0x72E JUMPI DUP1 PUSH4 0x6636B91E EQ PUSH2 0x758 JUMPI DUP1 PUSH4 0x6733765B EQ PUSH2 0x780 JUMPI PUSH2 0x30C JUMP JUMPDEST DUP1 PUSH4 0x4717F97C EQ PUSH2 0x688 JUMPI DUP1 PUSH4 0x4E3AD145 EQ PUSH2 0x6B2 JUMPI DUP1 PUSH4 0x55F776C0 EQ PUSH2 0x6DC JUMPI PUSH2 0x30C JUMP JUMPDEST DUP1 PUSH4 0x3477EE2E EQ PUSH2 0x53D JUMPI DUP1 PUSH4 0x35B8E820 EQ PUSH2 0x582 JUMPI DUP1 PUSH4 0x3CE3B25D EQ PUSH2 0x5BE JUMPI DUP1 PUSH4 0x3EB76B9C EQ PUSH2 0x5FA JUMPI DUP1 PUSH4 0x42169E48 EQ PUSH2 0x622 JUMPI DUP1 PUSH4 0x43012C69 EQ PUSH2 0x64C JUMPI PUSH2 0x30C JUMP JUMPDEST DUP1 PUSH4 0x156E9033 GT PUSH2 0x285 JUMPI DUP1 PUSH4 0x156E9033 EQ PUSH2 0x42F JUMPI DUP1 PUSH4 0x1EA736E0 EQ PUSH2 0x459 JUMPI DUP1 PUSH4 0x1EAC8DE0 EQ PUSH2 0x483 JUMPI DUP1 PUSH4 0x2019A608 EQ PUSH2 0x4BF JUMPI DUP1 PUSH4 0x2E6997FE EQ PUSH2 0x4E9 JUMPI DUP1 PUSH4 0x2FD0D870 EQ PUSH2 0x513 JUMPI PUSH2 0x30C JUMP JUMPDEST DUP1 PUSH4 0x248A341 EQ PUSH2 0x347 JUMPI DUP1 PUSH4 0x55AD42E EQ PUSH2 0x35D JUMPI DUP1 PUSH4 0xD15FD77 EQ PUSH2 0x387 JUMPI DUP1 PUSH4 0x122902A6 EQ PUSH2 0x3B1 JUMPI DUP1 PUSH4 0x12498A70 EQ PUSH2 0x3DB JUMPI DUP1 PUSH4 0x13E7B33E EQ PUSH2 0x405 JUMPI PUSH2 0x30C JUMP JUMPDEST CALLDATASIZE PUSH2 0x30C JUMPI PUSH1 0x40 MLOAD PUSH32 0x8C379A000000000000000000000000000000000000000000000000000000000 DUP2 MSTORE PUSH1 0x4 ADD PUSH2 0x303 SWAP1 PUSH2 0x4A15 JUMP JUMPDEST PUSH1 0x40 MLOAD DUP1 SWAP2 SUB SWAP1 REVERT JUMPDEST PUSH1 0x40 MLOAD PUSH32 0x8C379A000000000000000000000000000000000000000000000000000000000 DUP2 MSTORE PUSH1 0x4 ADD PUSH2 0x33E SWAP1 PUSH2 0x4A7D JUMP JUMPDEST PUSH1 0x40 MLOAD DUP1 SWAP2 SUB SWAP1 REVERT JUMPDEST CALLVALUE DUP1 ISZERO PUSH2 0x352 JUMPI PUSH0 PUSH0 REVERT JUMPDEST POP PUSH2 0x35B PUSH2 0xBE8 JUMP JUMPDEST STOP JUMPDEST CALLVALUE DUP1 ISZERO PUSH2 0x368 JUMPI PUSH0 PUSH0 REVERT JUMPDEST POP PUSH2 0x371 PUSH2 0xE19 JUMP JUMPDEST PUSH1 0x40 MLOAD PUSH2 0x37E SWAP2 SWAP1 PUSH2 0x4B0E JUMP JUMPDEST PUSH1 0x40 MLOAD DUP1 SWAP2 SUB SWAP1 RETURN JUMPDEST CALLVALUE DUP1 ISZERO PUSH2 0x392 JUMPI PUSH0 PUSH0 REVERT JUMPDEST POP PUSH2 0x39B PUSH2 0xE2B JUMP JUMPDEST PUSH1 0x40 MLOAD PUSH2 0x3A8 SWAP2 SWAP1 PUSH2 0x4B3F JUMP JUMPDEST PUSH1 0x40 MLOAD DUP1 SWAP2 SUB SWAP1 RETURN JUMPDEST CALLVALUE DUP1 ISZERO PUSH2 0x3BC JUMPI PUSH0 PUSH0 REVERT JUMPDEST POP PUSH2 0x3C5 PUSH2 0xE31 JUMP JUMPDEST PUSH1 0x40 MLOAD PUSH2 0x3D2 SWAP2 SWAP1 PUSH2 0x4BB8 JUMP JUMPDEST PUSH1 0x40 MLOAD DUP1 SWAP2 SUB SWAP1 RETURN JUMPDEST CALLVALUE DUP1 ISZERO PUSH2 0x3E6 JUMPI PUSH0 PUSH0 REVERT JUMPDEST POP PUSH2 0x3EF PUSH2 0x11AE JUMP JUMPDEST PUSH1 0x40 MLOAD PUSH2 0x3FC SWAP2 SWAP1 PUSH2 0x4B3F JUMP JUMPDEST PUSH1 0x40 MLOAD DUP1 SWAP2 SUB SWAP1 RETURN JUMPDEST CALLVALUE DUP1 ISZERO PUSH2 0x410 JUMPI PUSH0 PUSH0 REVERT JUMPDEST POP PUSH2 0x419 PUSH2 0x11B4 JUMP JUMPDEST PUSH1 0x40 MLOAD PUSH2 0x426 SWAP2 SWAP1 PUSH2 0x4B3F JUMP JUMPDEST PUSH1 0x40 MLOAD DUP1 SWAP2 SUB SWAP1 RETURN JUMPDEST CALLVALUE DUP1 ISZERO PUSH2 0x43A JUMPI PUSH0 PUSH0 REVERT JUMPDEST POP PUSH2 0x443 PUSH2 0x11BA JUMP JUMPDEST PUSH1 0x40 MLOAD PUSH2 0x450 SWAP2 SWAP1 PUSH2 0x4B3F JUMP JUMPDEST PUSH1 0x40 MLOAD DUP1 SWAP2 SUB SWAP1 RETURN JUMPDEST CALLVALUE DUP1 ISZERO PUSH2 0x464 JUMPI PUSH0 PUSH0 REVERT JUMPDEST POP PUSH2 0x46D PUSH2 0x11C0 JUMP JUMPDEST PUSH1 0x40 MLOAD PUSH2 0x47A SWAP2 SWAP1 PUSH2 0x4B3F JUMP JUMPDEST PUSH1 0x40 MLOAD DUP1 SWAP2 SUB SWAP1 RETURN JUMPDEST CALLVALUE DUP1 ISZERO PUSH2 0x48E JUMPI PUSH0 PUSH0 REVERT JUMPDEST POP PUSH2 0x4A9 PUSH1 0x4 DUP1 CALLDATASIZE SUB DUP2 ADD SWAP1 PUSH2 0x4A4 SWAP2 SWAP1 PUSH2 0x4C43 JUMP JUMPDEST PUSH2 0x11C6 JUMP JUMPDEST PUSH1 0x40 MLOAD PUSH2 0x4B6 SWAP2 SWAP1 PUSH2 0x4B3F JUMP JUMPDEST PUSH1 0x40 MLOAD DUP1 SWAP2 SUB SWAP1 RETURN JUMPDEST CALLVALUE DUP1 ISZERO PUSH2 0x4CA JUMPI PUSH0 PUSH0 REVERT JUMPDEST POP PUSH2 0x4D3 PUSH2 0x11DB JUMP JUMPDEST PUSH1 0x40 MLOAD PUSH2 0x4E0 SWAP2 SWAP1 PUSH2 0x4B3F JUMP JUMPDEST PUSH1 0x40 MLOAD DUP1 SWAP2 SUB SWAP1 RETURN JUMPDEST CALLVALUE DUP1 ISZERO PUSH2 0x4F4 JUMPI PUSH0 PUSH0 REVERT JUMPDEST POP PUSH2 0x4FD PUSH2 0x11E1 JUMP JUMPDEST PUSH1 0x40 MLOAD PUSH2 0x50A SWAP2 SWAP1 PUSH2 0x4E95 JUMP JUMPDEST PUSH1 0x40 MLOAD DUP1 SWAP2 SUB SWAP1 RETURN JUMPDEST CALLVALUE DUP1 ISZERO PUSH2 0x51E JUMPI PUSH0 PUSH0 REVERT JUMPDEST POP PUSH2 0x527 PUSH2 0x1583 JUMP JUMPDEST PUSH1 0x40 MLOAD PUSH2 0x534 SWAP2 SWAP1 PUSH2 0x4B3F JUMP JUMPDEST PUSH1 0x40 MLOAD DUP1 SWAP2 SUB SWAP1 RETURN JUMPDEST CALLVALUE DUP1 ISZERO PUSH2 0x548 JUMPI PUSH0 PUSH0 REVERT JUMPDEST POP PUSH2 0x563 PUSH1 0x4 DUP1 CALLDATASIZE SUB DUP2 ADD SWAP1 PUSH2 0x55E SWAP2 SWAP1 PUSH2 0x4EDF JUMP JUMPDEST PUSH2 0x15B7 JUMP JUMPDEST PUSH1 0x40 MLOAD PUSH2 0x579 SWAP11 SWAP10 SWAP9 SWAP8 SWAP7 SWAP6 SWAP5 SWAP4 SWAP3 SWAP2 SWAP1 PUSH2 0x4F28 JUMP JUMPDEST PUSH1 0x40 MLOAD DUP1 SWAP2 SUB SWAP1 RETURN JUMPDEST CALLVALUE DUP1 ISZERO PUSH2 0x58D JUMPI PUSH0 PUSH0 REVERT JUMPDEST POP PUSH2 0x5A8 PUSH1 0x4 DUP1 CALLDATASIZE SUB DUP2 ADD SWAP1 PUSH2 0x5A3 SWAP2 SWAP1 PUSH2 0x4EDF JUMP JUMPDEST PUSH2 0x184A JUMP JUMPDEST PUSH1 0x40 MLOAD PUSH2 0x5B5 SWAP2 SWAP1 PUSH2 0x50CA JUMP JUMPDEST PUSH1 0x40 MLOAD DUP1 SWAP2 SUB SWAP1 RETURN JUMPDEST CALLVALUE DUP1 ISZERO PUSH2 0x5C9 JUMPI PUSH0 PUSH0 REVERT JUMPDEST POP PUSH2 0x5E4 PUSH1 0x4 DUP1 CALLDATASIZE SUB DUP2 ADD SWAP1 PUSH2 0x5DF SWAP2 SWAP1 PUSH2 0x4C43 JUMP JUMPDEST PUSH2 0x1B9E JUMP JUMPDEST PUSH1 0x40 MLOAD PUSH2 0x5F1 SWAP2 SWAP1 PUSH2 0x50EA JUMP JUMPDEST PUSH1 0x40 MLOAD DUP1 SWAP2 SUB SWAP1 RETURN JUMPDEST CALLVALUE DUP1 ISZERO PUSH2 0x605 JUMPI PUSH0 PUSH0 REVERT JUMPDEST POP PUSH2 0x620 PUSH1 0x4 DUP1 CALLDATASIZE SUB DUP2 ADD SWAP1 PUSH2 0x61B SWAP2 SWAP1 PUSH2 0x4EDF JUMP JUMPDEST PUSH2 0x1C1B JUMP JUMPDEST STOP JUMPDEST CALLVALUE DUP1 ISZERO PUSH2 0x62D JUMPI PUSH0 PUSH0 REVERT JUMPDEST POP PUSH2 0x636 PUSH2 0x1F27 JUMP JUMPDEST PUSH1 0x40 MLOAD PUSH2 0x643 SWAP2 SWAP1 PUSH2 0x4B3F JUMP JUMPDEST PUSH1 0x40 MLOAD DUP1 SWAP2 SUB SWAP1 RETURN JUMPDEST CALLVALUE DUP1 ISZERO PUSH2 0x657 JUMPI PUSH0 PUSH0 REVERT JUMPDEST POP PUSH2 0x672 PUSH1 0x4 DUP1 CALLDATASIZE SUB DUP2 ADD SWAP1 PUSH2 0x66D SWAP2 SWAP1 PUSH2 0x4C43 JUMP JUMPDEST PUSH2 0x1F2D JUMP JUMPDEST PUSH1 0x40 MLOAD PUSH2 0x67F SWAP2 SWAP1 PUSH2 0x50EA JUMP JUMPDEST PUSH1 0x40 MLOAD DUP1 SWAP2 SUB SWAP1 RETURN JUMPDEST CALLVALUE DUP1 ISZERO PUSH2 0x693 JUMPI PUSH0 PUSH0 REVERT JUMPDEST POP PUSH2 0x69C PUSH2 0x1FA9 JUMP JUMPDEST PUSH1 0x40 MLOAD PUSH2 0x6A9 SWAP2 SWAP1 PUSH2 0x4E95 JUMP JUMPDEST PUSH1 0x40 MLOAD DUP1 SWAP2 SUB SWAP1 RETURN JUMPDEST CALLVALUE DUP1 ISZERO PUSH2 0x6BD JUMPI PUSH0 PUSH0 REVERT JUMPDEST POP PUSH2 0x6C6 PUSH2 0x2020 JUMP JUMPDEST PUSH1 0x40 MLOAD PUSH2 0x6D3 SWAP2 SWAP1 PUSH2 0x4B3F JUMP JUMPDEST PUSH1 0x40 MLOAD DUP1 SWAP2 SUB SWAP1 RETURN JUMPDEST CALLVALUE DUP1 ISZERO PUSH2 0x6E7 JUMPI PUSH0 PUSH0 REVERT JUMPDEST POP PUSH2 0x6F0 PUSH2 0x2026 JUMP JUMPDEST PUSH1 0x40 MLOAD PUSH2 0x6FD SWAP2 SWAP1 PUSH2 0x4BB8 JUMP JUMPDEST PUSH1 0x40 MLOAD DUP1 SWAP2 SUB SWAP1 RETURN JUMPDEST CALLVALUE DUP1 ISZERO PUSH2 0x711 JUMPI PUSH0 PUSH0 REVERT JUMPDEST POP PUSH2 0x72C PUSH1 0x4 DUP1 CALLDATASIZE SUB DUP2 ADD SWAP1 PUSH2 0x727 SWAP2 SWAP1 PUSH2 0x4C43 JUMP JUMPDEST PUSH2 0x20B2 JUMP JUMPDEST STOP JUMPDEST CALLVALUE DUP1 ISZERO PUSH2 0x739 JUMPI PUSH0 PUSH0 REVERT JUMPDEST POP PUSH2 0x742 PUSH2 0x226F JUMP JUMPDEST PUSH1 0x40 MLOAD PUSH2 0x74F SWAP2 SWAP1 PUSH2 0x4B3F JUMP JUMPDEST PUSH1 0x40 MLOAD DUP1 SWAP2 SUB SWAP1 RETURN JUMPDEST CALLVALUE DUP1 ISZERO PUSH2 0x763 JUMPI PUSH0 PUSH0 REVERT JUMPDEST POP PUSH2 0x77E PUSH1 0x4 DUP1 CALLDATASIZE SUB DUP2 ADD SWAP1 PUSH2 0x779 SWAP2 SWAP1 PUSH2 0x522F JUMP JUMPDEST PUSH2 0x2275 JUMP JUMPDEST STOP JUMPDEST CALLVALUE DUP1 ISZERO PUSH2 0x78B JUMPI PUSH0 PUSH0 REVERT JUMPDEST POP PUSH2 0x7A6 PUSH1 0x4 DUP1 CALLDATASIZE SUB DUP2 ADD SWAP1 PUSH2 0x7A1 SWAP2 SWAP1 PUSH2 0x4C43 JUMP JUMPDEST PUSH2 0x25DB JUMP JUMPDEST STOP JUMPDEST CALLVALUE DUP1 ISZERO PUSH2 0x7B3 JUMPI PUSH0 PUSH0 REVERT JUMPDEST POP PUSH2 0x7CE PUSH1 0x4 DUP1 CALLDATASIZE SUB DUP2 ADD SWAP1 PUSH2 0x7C9 SWAP2 SWAP1 PUSH2 0x4EDF JUMP JUMPDEST PUSH2 0x2808 JUMP JUMPDEST STOP JUMPDEST CALLVALUE DUP1 ISZERO PUSH2 0x7DB JUMPI PUSH0 PUSH0 REVERT JUMPDEST POP PUSH2 0x7E4 PUSH2 0x2A04 JUMP JUMPDEST STOP JUMPDEST CALLVALUE DUP1 ISZERO PUSH2 0x7F1 JUMPI PUSH0 PUSH0 REVERT JUMPDEST POP PUSH2 0x80C PUSH1 0x4 DUP1 CALLDATASIZE SUB DUP2 ADD SWAP1 PUSH2 0x807 SWAP2 SWAP1 PUSH2 0x4EDF JUMP JUMPDEST PUSH2 0x2C55 JUMP JUMPDEST STOP JUMPDEST PUSH2 0x828 PUSH1 0x4 DUP1 CALLDATASIZE SUB DUP2 ADD SWAP1 PUSH2 0x823 SWAP2 SWAP1 PUSH2 0x52B7 JUMP JUMPDEST PUSH2 0x2EAF JUMP JUMPDEST STOP JUMPDEST CALLVALUE DUP1 ISZERO PUSH2 0x835 JUMPI PUSH0 PUSH0 REVERT JUMPDEST POP PUSH2 0x83E PUSH2 0x3281 JUMP JUMPDEST PUSH1 0x40 MLOAD PUSH2 0x84B SWAP2 SWAP1 PUSH2 0x4BB8 JUMP JUMPDEST PUSH1 0x40 MLOAD DUP1 SWAP2 SUB SWAP1 RETURN JUMPDEST CALLVALUE DUP1 ISZERO PUSH2 0x85F JUMPI PUSH0 PUSH0 REVERT JUMPDEST POP PUSH2 0x868 PUSH2 0x330D JUMP JUMPDEST PUSH1 0x40 MLOAD PUSH2 0x87B SWAP8 SWAP7 SWAP6 SWAP5 SWAP4 SWAP3 SWAP2 SWAP1 PUSH2 0x538B JUMP JUMPDEST PUSH1 0x40 MLOAD DUP1 SWAP2 SUB SWAP1 RETURN JUMPDEST CALLVALUE DUP1 ISZERO PUSH2 0x88F JUMPI PUSH0 PUSH0 REVERT JUMPDEST POP PUSH2 0x8AA PUSH1 0x4 DUP1 CALLDATASIZE SUB DUP2 ADD SWAP1 PUSH2 0x8A5 SWAP2 SWAP1 PUSH2 0x4C43 JUMP JUMPDEST PUSH2 0x345F JUMP JUMPDEST PUSH1 0x40 MLOAD PUSH2 0x8B7 SWAP2 SWAP1 PUSH2 0x4B3F JUMP JUMPDEST PUSH1 0x40 MLOAD DUP1 SWAP2 SUB SWAP1 RETURN JUMPDEST CALLVALUE DUP1 ISZERO PUSH2 0x8CB JUMPI PUSH0 PUSH0 REVERT JUMPDEST POP PUSH2 0x8D4 PUSH2 0x3474 JUMP JUMPDEST PUSH1 0x40 MLOAD PUSH2 0x8E1 SWAP2 SWAP1 PUSH2 0x4E95 JUMP JUMPDEST PUSH1 0x40 MLOAD DUP1 SWAP2 SUB SWAP1 RETURN JUMPDEST CALLVALUE DUP1 ISZERO PUSH2 0x8F5 JUMPI PUSH0 PUSH0 REVERT JUMPDEST POP PUSH2 0x910 PUSH1 0x4 DUP1 CALLDATASIZE SUB DUP2 ADD SWAP1 PUSH2 0x90B SWAP2 SWAP1 PUSH2 0x5429 JUMP JUMPDEST PUSH2 0x389F JUMP JUMPDEST STOP JUMPDEST CALLVALUE DUP1 ISZERO PUSH2 0x91D JUMPI PUSH0 PUSH0 REVERT JUMPDEST POP PUSH2 0x926 PUSH2 0x39A8 JUMP JUMPDEST PUSH1 0x40 MLOAD PUSH2 0x935 SWAP4 SWAP3 SWAP2 SWAP1 PUSH2 0x5454 JUMP JUMPDEST PUSH1 0x40 MLOAD DUP1 SWAP2 SUB SWAP1 RETURN JUMPDEST CALLVALUE DUP1 ISZERO PUSH2 0x949 JUMPI PUSH0 PUSH0 REVERT JUMPDEST POP PUSH2 0x952 PUSH2 0x3B6A JUMP JUMPDEST PUSH1 0x40 MLOAD PUSH2 0x95F SWAP2 SWAP1 PUSH2 0x4B3F JUMP JUMPDEST PUSH1 0x40 MLOAD DUP1 SWAP2 SUB SWAP1 RETURN JUMPDEST CALLVALUE DUP1 ISZERO PUSH2 0x973 JUMPI PUSH0 PUSH0 REVERT JUMPDEST POP PUSH2 0x98E PUSH1 0x4 DUP1 CALLDATASIZE SUB DUP2 ADD SWAP1 PUSH2 0x989 SWAP2 SWAP1 PUSH2 0x4EDF JUMP JUMPDEST PUSH2 0x3B70 JUMP JUMPDEST STOP JUMPDEST CALLVALUE DUP1 ISZERO PUSH2 0x99B JUMPI PUSH0 PUSH0 REVERT JUMPDEST POP PUSH2 0x9A4 PUSH2 0x3D6E JUMP JUMPDEST PUSH1 0x40 MLOAD PUSH2 0x9B1 SWAP2 SWAP1 PUSH2 0x4B3F JUMP JUMPDEST PUSH1 0x40 MLOAD DUP1 SWAP2 SUB SWAP1 RETURN JUMPDEST CALLVALUE DUP1 ISZERO PUSH2 0x9C5 JUMPI PUSH0 PUSH0 REVERT JUMPDEST POP PUSH2 0x9E0 PUSH1 0x4 DUP1 CALLDATASIZE SUB DUP2 ADD SWAP1 PUSH2 0x9DB SWAP2 SWAP1 PUSH2 0x4C43 JUMP JUMPDEST PUSH2 0x3D74 JUMP JUMPDEST PUSH1 0x40 MLOAD PUSH2 0x9ED SWAP2 SWAP1 PUSH2 0x50EA JUMP JUMPDEST PUSH1 0x40 MLOAD DUP1 SWAP2 SUB SWAP1 RETURN JUMPDEST CALLVALUE DUP1 ISZERO PUSH2 0xA01 JUMPI PUSH0 PUSH0 REVERT JUMPDEST POP PUSH2 0xA1C PUSH1 0x4 DUP1 CALLDATASIZE SUB DUP2 ADD SWAP1 PUSH2 0xA17 SWAP2 SWAP1 PUSH2 0x5490 JUMP JUMPDEST PUSH2 0x3D91 JUMP JUMPDEST STOP JUMPDEST CALLVALUE DUP1 ISZERO PUSH2 0xA29 JUMPI PUSH0 PUSH0 REVERT JUMPDEST POP PUSH2 0xA32 PUSH2 0x3F49 JUMP JUMPDEST PUSH1 0x40 MLOAD PUSH2 0xA3F SWAP2 SWAP1 PUSH2 0x4B3F JUMP JUMPDEST PUSH1 0x40 MLOAD DUP1 SWAP2 SUB SWAP1 RETURN JUMPDEST CALLVALUE DUP1 ISZERO PUSH2 0xA53 JUMPI PUSH0 PUSH0 REVERT JUMPDEST POP PUSH2 0xA5C PUSH2 0x3F4E JUMP JUMPDEST PUSH1 0x40 MLOAD PUSH2 0xA69 SWAP2 SWAP1 PUSH2 0x54D7 JUMP JUMPDEST PUSH1 0x40 MLOAD DUP1 SWAP2 SUB SWAP1 RETURN JUMPDEST CALLVALUE DUP1 ISZERO PUSH2 0xA7D JUMPI PUSH0 PUSH0 REVERT JUMPDEST POP PUSH2 0xA98 PUSH1 0x4 DUP1 CALLDATASIZE SUB DUP2 ADD SWAP1 PUSH2 0xA93 SWAP2 SWAP1 PUSH2 0x4EDF JUMP JUMPDEST PUSH2 0x3F73 JUMP JUMPDEST PUSH1 0x40 MLOAD PUSH2 0xAA5 SWAP2 SWAP1 PUSH2 0x55B9 JUMP JUMPDEST PUSH1 0x40 MLOAD DUP1 SWAP2 SUB SWAP1 RETURN JUMPDEST CALLVALUE DUP1 ISZERO PUSH2 0xAB9 JUMPI PUSH0 PUSH0 REVERT JUMPDEST POP PUSH2 0xAD4 PUSH1 0x4 DUP1 CALLDATASIZE SUB DUP2 ADD SWAP1 PUSH2 0xACF SWAP2 SWAP1 PUSH2 0x4EDF JUMP JUMPDEST PUSH2 0x41C3 JUMP JUMPDEST PUSH1 0x40 MLOAD PUSH2 0xAE9 SWAP10 SWAP9 SWAP8 SWAP7 SWAP6 SWAP5 SWAP4 SWAP3 SWAP2 SWAP1 PUSH2 0x55D9 JUMP JUMPDEST PUSH1 0x40 MLOAD DUP1 SWAP2 SUB SWAP1 RETURN JUMPDEST CALLVALUE DUP1 ISZERO PUSH2 0xAFD JUMPI PUSH0 PUSH0 REVERT JUMPDEST POP PUSH2 0xB18 PUSH1 0x4 DUP1 CALLDATASIZE SUB DUP2 ADD SWAP1 PUSH2 0xB13 SWAP2 SWAP1 PUSH2 0x4EDF JUMP JUMPDEST PUSH2 0x4352 JUMP JUMPDEST STOP JUMPDEST CALLVALUE DUP1 ISZERO PUSH2 0xB25 JUMPI PUSH0 PUSH0 REVERT JUMPDEST POP PUSH2 0xB2E PUSH2 0x4523 JUMP JUMPDEST PUSH1 0x40 MLOAD PUSH2 0xB3B SWAP2 SWAP1 PUSH2 0x4B3F JUMP JUMPDEST PUSH1 0x40 MLOAD DUP1 SWAP2 SUB SWAP1 RETURN JUMPDEST CALLVALUE DUP1 ISZERO PUSH2 0xB4F JUMPI PUSH0 PUSH0 REVERT JUMPDEST POP PUSH2 0xB58 PUSH2 0x452E JUMP JUMPDEST STOP JUMPDEST CALLVALUE DUP1 ISZERO PUSH2 0xB65 JUMPI PUSH0 PUSH0 REVERT JUMPDEST POP PUSH2 0xB6E PUSH2 0x474D JUMP JUMPDEST PUSH1 0x40 MLOAD PUSH2 0xB7B SWAP2 SWAP1 PUSH2 0x4B3F JUMP JUMPDEST PUSH1 0x40 MLOAD DUP1 SWAP2 SUB SWAP1 RETURN JUMPDEST CALLVALUE DUP1 ISZERO PUSH2 0xB8F JUMPI PUSH0 PUSH0 REVERT JUMPDEST POP PUSH2 0xBAA PUSH1 0x4 DUP1 CALLDATASIZE SUB DUP2 ADD SWAP1 PUSH2 0xBA5 SWAP2 SWAP1 PUSH2 0x4C43 JUMP JUMPDEST PUSH2 0x4753 JUMP JUMPDEST PUSH1 0x40 MLOAD PUSH2 0xBB7 SWAP2 SWAP1 PUSH2 0x50EA JUMP JUMPDEST PUSH1 0x40 MLOAD DUP1 SWAP2 SUB SWAP1 RETURN JUMPDEST CALLVALUE DUP1 ISZERO PUSH2 0xBCB JUMPI PUSH0 PUSH0 REVERT JUMPDEST POP PUSH2 0xBE6 PUSH1 0x4 DUP1 CALLDATASIZE SUB DUP2 ADD SWAP1 PUSH2 0xBE1 SWAP2 SWAP1 PUSH2 0x5672 JUMP JUMPDEST PUSH2 0x47D0 JUMP JUMPDEST STOP JUMPDEST PUSH1 0x1 PUSH0 SWAP1 SLOAD SWAP1 PUSH2 0x100 EXP SWAP1 DIV PUSH20 0xFFFFFFFFFFFFFFFFFFFFFFFFFFFFFFFFFFFFFFFF AND PUSH20 0xFFFFFFFFFFFFFFFFFFFFFFFFFFFFFFFFFFFFFFFF AND CALLER PUSH20 0xFFFFFFFFFFFFFFFFFFFFFFFFFFFFFFFFFFFFFFFF AND EQ PUSH2 0xC77 JUMPI PUSH1 0x40 MLOAD PUSH32 0x8C379A000000000000000000000000000000000000000000000000000000000 DUP2 MSTORE PUSH1 0x4 ADD PUSH2 0xC6E SWAP1 PUSH2 0x576D JUMP JUMPDEST PUSH1 0x40 MLOAD DUP1 SWAP2 SUB SWAP1 REVERT JUMPDEST PUSH1 0x5 PUSH1 0x6 DUP2 GT ISZERO PUSH2 0xC8B JUMPI PUSH2 0xC8A PUSH2 0x4A9B JUMP JUMPDEST JUMPDEST PUSH1 0x3 PUSH0 SWAP1 SLOAD SWAP1 PUSH2 0x100 EXP SWAP1 DIV PUSH1 0xFF AND PUSH1 0x6 DUP2 GT ISZERO PUSH2 0xCAC JUMPI PUSH2 0xCAB PUSH2 0x4A9B JUMP JUMPDEST JUMPDEST EQ DUP1 PUSH2 0xCEA JUMPI POP PUSH1 0x4 PUSH1 0x6 DUP2 GT ISZERO PUSH2 0xCC7 JUMPI PUSH2 0xCC6 PUSH2 0x4A9B JUMP JUMPDEST JUMPDEST PUSH1 0x3 PUSH0 SWAP1 SLOAD SWAP1 PUSH2 0x100 EXP SWAP1 DIV PUSH1 0xFF AND PUSH1 0x6 DUP2 GT ISZERO PUSH2 0xCE8 JUMPI PUSH2 0xCE7 PUSH2 0x4A9B JUMP JUMPDEST JUMPDEST EQ JUMPDEST PUSH2 0xD29 JUMPI PUSH1 0x40 MLOAD PUSH32 0x8C379A000000000000000000000000000000000000000000000000000000000 DUP2 MSTORE PUSH1 0x4 ADD PUSH2 0xD20 SWAP1 PUSH2 0x57D5 JUMP JUMPDEST PUSH1 0x40 MLOAD DUP1 SWAP2 SUB SWAP1 REVERT JUMPDEST PUSH1 0x6 PUSH1 0x3 PUSH0 PUSH2 0x100 EXP DUP2 SLOAD DUP2 PUSH1 0xFF MUL NOT AND SWAP1 DUP4 PUSH1 0x6 DUP2 GT ISZERO PUSH2 0xD4E JUMPI PUSH2 0xD4D PUSH2 0x4A9B JUMP JUMPDEST JUMPDEST MUL OR SWAP1 SSTORE POP PUSH0 PUSH1 0xC SLOAD GT ISZERO PUSH2 0xE17 JUMPI PUSH0 PUSH0 PUSH0 ADDRESS PUSH20 0xFFFFFFFFFFFFFFFFFFFFFFFFFFFFFFFFFFFFFFFF AND PUSH4 0x8E7EA5B2 PUSH1 0x40 MLOAD DUP2 PUSH4 0xFFFFFFFF AND PUSH1 0xE0 SHL DUP2 MSTORE PUSH1 0x4 ADD PUSH0 PUSH1 0x40 MLOAD DUP1 DUP4 SUB DUP2 DUP7 GAS STATICCALL ISZERO DUP1 ISZERO PUSH2 0xDA8 JUMPI RETURNDATASIZE PUSH0 PUSH0 RETURNDATACOPY RETURNDATASIZE PUSH0 REVERT JUMPDEST POP POP POP POP PUSH1 0x40 MLOAD RETURNDATASIZE PUSH0 DUP3 RETURNDATACOPY RETURNDATASIZE PUSH1 0x1F NOT PUSH1 0x1F DUP3 ADD AND DUP3 ADD DUP1 PUSH1 0x40 MSTORE POP DUP2 ADD SWAP1 PUSH2 0xDD0 SWAP2 SWAP1 PUSH2 0x5875 JUMP JUMPDEST SWAP3 POP SWAP3 POP SWAP3 POP PUSH32 0x32AFBA56DA392C563A2ACAC2DCED5682A8014B886E4926D32640EE0C928DF88F DUP4 DUP4 DUP4 TIMESTAMP PUSH1 0x40 MLOAD PUSH2 0xE0B SWAP5 SWAP4 SWAP3 SWAP2 SWAP1 PUSH2 0x58E1 JUMP JUMPDEST PUSH1 0x40 MLOAD DUP1 SWAP2 SUB SWAP1 LOG1 POP POP POP JUMPDEST JUMP JUMPDEST PUSH1 0x3 PUSH0 SWAP1 SLOAD SWAP1 PUSH2 0x100 EXP SWAP1 DIV PUSH1 0xFF AND DUP2 JUMP JUMPDEST PUSH1 0xC SLOAD DUP2 JUMP JUMPDEST PUSH1 0x60 PUSH0 PUSH1 0x6 DUP2 GT ISZERO PUSH2 0xE46 JUMPI PUSH2 0xE45 PUSH2 0x4A9B JUMP JUMPDEST JUMPDEST PUSH1 0x3 PUSH0 SWAP1 SLOAD SWAP1 PUSH2 0x100 EXP SWAP1 DIV PUSH1 0xFF AND PUSH1 0x6 DUP2 GT ISZERO PUSH2 0xE67 JUMPI PUSH2 0xE66 PUSH2 0x4A9B JUMP JUMPDEST JUMPDEST SUB PUSH2 0xEA9 JUMPI PUSH1 0x40 MLOAD DUP1 PUSH1 0x40 ADD PUSH1 0x40 MSTORE DUP1 PUSH1 0x5 DUP2 MSTORE PUSH1 0x20 ADD PUSH32 0x5365747570000000000000000000000000000000000000000000000000000000 DUP2 MSTORE POP SWAP1 POP PUSH2 0x11AB JUMP JUMPDEST PUSH1 0x1 PUSH1 0x6 DUP2 GT ISZERO PUSH2 0xEBD JUMPI PUSH2 0xEBC PUSH2 0x4A9B JUMP JUMPDEST JUMPDEST PUSH1 0x3 PUSH0 SWAP1 SLOAD SWAP1 PUSH2 0x100 EXP SWAP1 DIV PUSH1 0xFF AND PUSH1 0x6 DUP2 GT ISZERO PUSH2 0xEDE JUMPI PUSH2 0xEDD PUSH2 0x4A9B JUMP JUMPDEST JUMPDEST SUB PUSH2 0xF20 JUMPI PUSH1 0x40 MLOAD DUP1 PUSH1 0x40 ADD PUSH1 0x40 MSTORE DUP1 PUSH1 0x16 DUP2 MSTORE PUSH1 0x20 ADD PUSH32 0x43616E64696461746520526567697374726174696F6E00000000000000000000 DUP2 MSTORE POP SWAP1 POP PUSH2 0x11AB JUMP JUMPDEST PUSH1 0x2 PUSH1 0x6 DUP2 GT ISZERO PUSH2 0xF34 JUMPI PUSH2 0xF33 PUSH2 0x4A9B JUMP JUMPDEST JUMPDEST PUSH1 0x3 PUSH0 SWAP1 SLOAD SWAP1 PUSH2 0x100 EXP SWAP1 DIV PUSH1 0xFF AND PUSH1 0x6 DUP2 GT ISZERO PUSH2 0xF55 JUMPI PUSH2 0xF54 PUSH2 0x4A9B JUMP JUMPDEST JUMPDEST SUB PUSH2 0xF97 JUMPI PUSH1 0x40 MLOAD DUP1 PUSH1 0x40 ADD PUSH1 0x40 MSTORE DUP1 PUSH1 0x12 DUP2 MSTORE PUSH1 0x20 ADD PUSH32 0x566F74657220526567697374726174696F6E0000000000000000000000000000 DUP2 MSTORE POP SWAP1 POP PUSH2 0x11AB JUMP JUMPDEST PUSH1 0x3 PUSH1 0x6 DUP2 GT ISZERO PUSH2 0xFAB JUMPI PUSH2 0xFAA PUSH2 0x4A9B JUMP JUMPDEST JUMPDEST PUSH1 0x3 PUSH0 SWAP1 SLOAD SWAP1 PUSH2 0x100 EXP SWAP1 DIV PUSH1 0xFF AND PUSH1 0x6 DUP2 GT ISZERO PUSH2 0xFCC JUMPI PUSH2 0xFCB PUSH2 0x4A9B JUMP JUMPDEST JUMPDEST SUB PUSH2 0x100E JUMPI PUSH1 0x40 MLOAD DUP1 PUSH1 0x40 ADD PUSH1 0x40 MSTORE DUP1 PUSH1 0xF DUP2 MSTORE PUSH1 0x20 ADD PUSH32 0x43616D706169676E20506572696F640000000000000000000000000000000000 DUP2 MSTORE POP SWAP1 POP PUSH2 0x11AB JUMP JUMPDEST PUSH1 0x4 PUSH1 0x6 DUP2 GT ISZERO PUSH2 0x1022 JUMPI PUSH2 0x1021 PUSH2 0x4A9B JUMP JUMPDEST JUMPDEST PUSH1 0x3 PUSH0 SWAP1 SLOAD SWAP1 PUSH2 0x100 EXP SWAP1 DIV PUSH1 0xFF AND PUSH1 0x6 DUP2 GT ISZERO PUSH2 0x1043 JUMPI PUSH2 0x1042 PUSH2 0x4A9B JUMP JUMPDEST JUMPDEST SUB PUSH2 0x1085 JUMPI PUSH1 0x40 MLOAD DUP1 PUSH1 0x40 ADD PUSH1 0x40 MSTORE DUP1 PUSH1 0xD DUP2 MSTORE PUSH1 0x20 ADD PUSH32 0x566F74696E672041637469766500000000000000000000000000000000000000 DUP2 MSTORE POP SWAP1 POP PUSH2 0x11AB JUMP JUMPDEST PUSH1 0x5 PUSH1 0x6 DUP2 GT ISZERO PUSH2 0x1099 JUMPI PUSH2 0x1098 PUSH2 0x4A9B JUMP JUMPDEST JUMPDEST PUSH1 0x3 PUSH0 SWAP1 SLOAD SWAP1 PUSH2 0x100 EXP SWAP1 DIV PUSH1 0xFF AND PUSH1 0x6 DUP2 GT ISZERO PUSH2 0x10BA JUMPI PUSH2 0x10B9 PUSH2 0x4A9B JUMP JUMPDEST JUMPDEST SUB PUSH2 0x10FC JUMPI PUSH1 0x40 MLOAD DUP1 PUSH1 0x40 ADD PUSH1 0x40 MSTORE DUP1 PUSH1 0xE DUP2 MSTORE PUSH1 0x20 ADD PUSH32 0x436F756E74696E6720566F746573000000000000000000000000000000000000 DUP2 MSTORE POP SWAP1 POP PUSH2 0x11AB JUMP JUMPDEST PUSH1 0x6 DUP1 DUP2 GT ISZERO PUSH2 0x110F JUMPI PUSH2 0x110E PUSH2 0x4A9B JUMP JUMPDEST JUMPDEST PUSH1 0x3 PUSH0 SWAP1 SLOAD SWAP1 PUSH2 0x100 EXP SWAP1 DIV PUSH1 0xFF AND PUSH1 0x6 DUP2 GT ISZERO PUSH2 0x1130 JUMPI PUSH2 0x112F PUSH2 0x4A9B JUMP JUMPDEST JUMPDEST SUB PUSH2 0x1172 JUMPI PUSH1 0x40 MLOAD DUP1 PUSH1 0x40 ADD PUSH1 0x40 MSTORE DUP1 PUSH1 0x10 DUP2 MSTORE PUSH1 0x20 ADD PUSH32 0x526573756C7473204465636C6172656400000000000000000000000000000000 DUP2 MSTORE POP SWAP1 POP PUSH2 0x11AB JUMP JUMPDEST PUSH1 0x40 MLOAD DUP1 PUSH1 0x40 ADD PUSH1 0x40 MSTORE DUP1 PUSH1 0x7 DUP2 MSTORE PUSH1 0x20 ADD PUSH32 0x556E6B6E6F776E00000000000000000000000000000000000000000000000000 DUP2 MSTORE POP SWAP1 POP JUMPDEST SWAP1 JUMP JUMPDEST PUSH1 0x13 SLOAD DUP2 JUMP JUMPDEST PUSH1 0x12 SLOAD DUP2 JUMP JUMPDEST PUSH1 0xE SLOAD DUP2 JUMP JUMPDEST PUSH1 0x15 SLOAD DUP2 JUMP JUMPDEST PUSH1 0x9 PUSH1 0x20 MSTORE DUP1 PUSH0 MSTORE PUSH1 0x40 PUSH0 KECCAK256 PUSH0 SWAP2 POP SWAP1 POP SLOAD DUP2 JUMP JUMPDEST PUSH1 0x14 SLOAD DUP2 JUMP JUMPDEST PUSH1 0x60 PUSH0 PUSH1 0xA SLOAD PUSH8 0xFFFFFFFFFFFFFFFF DUP2 GT ISZERO PUSH2 0x1200 JUMPI PUSH2 0x11FF PUSH2 0x510B JUMP JUMPDEST JUMPDEST PUSH1 0x40 MLOAD SWAP1 DUP1 DUP3 MSTORE DUP1 PUSH1 0x20 MUL PUSH1 0x20 ADD DUP3 ADD PUSH1 0x40 MSTORE DUP1 ISZERO PUSH2 0x1239 JUMPI DUP2 PUSH1 0x20 ADD JUMPDEST PUSH2 0x1226 PUSH2 0x48F7 JUMP JUMPDEST DUP2 MSTORE PUSH1 0x20 ADD SWAP1 PUSH1 0x1 SWAP1 SUB SWAP1 DUP2 PUSH2 0x121E JUMPI SWAP1 POP JUMPDEST POP SWAP1 POP PUSH0 PUSH1 0x1 SWAP1 POP JUMPDEST PUSH1 0xA SLOAD DUP2 GT PUSH2 0x157B JUMPI PUSH1 0x6 PUSH0 DUP3 DUP2 MSTORE PUSH1 0x20 ADD SWAP1 DUP2 MSTORE PUSH1 0x20 ADD PUSH0 KECCAK256 PUSH1 0x40 MLOAD DUP1 PUSH2 0x140 ADD PUSH1 0x40 MSTORE SWAP1 DUP2 PUSH0 DUP3 ADD SLOAD DUP2 MSTORE PUSH1 0x20 ADD PUSH1 0x1 DUP3 ADD DUP1 SLOAD PUSH2 0x1281 SWAP1 PUSH2 0x5958 JUMP JUMPDEST DUP1 PUSH1 0x1F ADD PUSH1 0x20 DUP1 SWAP2 DIV MUL PUSH1 0x20 ADD PUSH1 0x40 MLOAD SWAP1 DUP2 ADD PUSH1 0x40 MSTORE DUP1 SWAP3 SWAP2 SWAP1 DUP2 DUP2 MSTORE PUSH1 0x20 ADD DUP3 DUP1 SLOAD PUSH2 0x12AD SWAP1 PUSH2 0x5958 JUMP JUMPDEST DUP1 ISZERO PUSH2 0x12F8 JUMPI DUP1 PUSH1 0x1F LT PUSH2 0x12CF JUMPI PUSH2 0x100 DUP1 DUP4 SLOAD DIV MUL DUP4 MSTORE SWAP2 PUSH1 0x20 ADD SWAP2 PUSH2 0x12F8 JUMP JUMPDEST DUP3 ADD SWAP2 SWAP1 PUSH0 MSTORE PUSH1 0x20 PUSH0 KECCAK256 SWAP1 JUMPDEST DUP2 SLOAD DUP2 MSTORE SWAP1 PUSH1 0x1 ADD SWAP1 PUSH1 0x20 ADD DUP1 DUP4 GT PUSH2 0x12DB JUMPI DUP3 SWAP1 SUB PUSH1 0x1F AND DUP3 ADD SWAP2 JUMPDEST POP POP POP POP POP DUP2 MSTORE PUSH1 0x20 ADD PUSH1 0x2 DUP3 ADD DUP1 SLOAD PUSH2 0x1311 SWAP1 PUSH2 0x5958 JUMP JUMPDEST DUP1 PUSH1 0x1F ADD PUSH1 0x20 DUP1 SWAP2 DIV MUL PUSH1 0x20 ADD PUSH1 0x40 MLOAD SWAP1 DUP2 ADD PUSH1 0x40 MSTORE DUP1 SWAP3 SWAP2 SWAP1 DUP2 DUP2 MSTORE PUSH1 0x20 ADD DUP3 DUP1 SLOAD PUSH2 0x133D SWAP1 PUSH2 0x5958 JUMP JUMPDEST DUP1 ISZERO PUSH2 0x1388 JUMPI DUP1 PUSH1 0x1F LT PUSH2 0x135F JUMPI PUSH2 0x100 DUP1 DUP4 SLOAD DIV MUL DUP4 MSTORE SWAP2 PUSH1 0x20 ADD SWAP2 PUSH2 0x1388 JUMP JUMPDEST DUP3 ADD SWAP2 SWAP1 PUSH0 MSTORE PUSH1 0x20 PUSH0 KECCAK256 SWAP1 JUMPDEST DUP2 SLOAD DUP2 MSTORE SWAP1 PUSH1 0x1 ADD SWAP1 PUSH1 0x20 ADD DUP1 DUP4 GT PUSH2 0x136B JUMPI DUP3 SWAP1 SUB PUSH1 0x1F AND DUP3 ADD SWAP2 JUMPDEST POP POP POP POP POP DUP2 MSTORE PUSH1 0x20 ADD PUSH1 0x3 DUP3 ADD DUP1 SLOAD PUSH2 0x13A1 SWAP1 PUSH2 0x5958 JUMP JUMPDEST DUP1 PUSH1 0x1F ADD PUSH1 0x20 DUP1 SWAP2 DIV MUL PUSH1 0x20 ADD PUSH1 0x40 MLOAD SWAP1 DUP2 ADD PUSH1 0x40 MSTORE DUP1 SWAP3 SWAP2 SWAP1 DUP2 DUP2 MSTORE PUSH1 0x20 ADD DUP3 DUP1 SLOAD PUSH2 0x13CD SWAP1 PUSH2 0x5958 JUMP JUMPDEST DUP1 ISZERO PUSH2 0x1418 JUMPI DUP1 PUSH1 0x1F LT PUSH2 0x13EF JUMPI PUSH2 0x100 DUP1 DUP4 SLOAD DIV MUL DUP4 MSTORE SWAP2 PUSH1 0x20 ADD SWAP2 PUSH2 0x1418 JUMP JUMPDEST DUP3 ADD SWAP2 SWAP1 PUSH0 MSTORE PUSH1 0x20 PUSH0 KECCAK256 SWAP1 JUMPDEST DUP2 SLOAD DUP2 MSTORE SWAP1 PUSH1 0x1 ADD SWAP1 PUSH1 0x20 ADD DUP1 DUP4 GT PUSH2 0x13FB JUMPI DUP3 SWAP1 SUB PUSH1 0x1F AND DUP3 ADD SWAP2 JUMPDEST POP POP POP POP POP DUP2 MSTORE PUSH1 0x20 ADD PUSH1 0x4 DUP3 ADD DUP1 SLOAD PUSH2 0x1431 SWAP1 PUSH2 0x5958 JUMP JUMPDEST DUP1 PUSH1 0x1F ADD PUSH1 0x20 DUP1 SWAP2 DIV MUL PUSH1 0x20 ADD PUSH1 0x40 MLOAD SWAP1 DUP2 ADD PUSH1 0x40 MSTORE DUP1 SWAP3 SWAP2 SWAP1 DUP2 DUP2 MSTORE PUSH1 0x20 ADD DUP3 DUP1 SLOAD PUSH2 0x145D SWAP1 PUSH2 0x5958 JUMP JUMPDEST DUP1 ISZERO PUSH2 0x14A8 JUMPI DUP1 PUSH1 0x1F LT PUSH2 0x147F JUMPI PUSH2 0x100 DUP1 DUP4 SLOAD DIV MUL DUP4 MSTORE SWAP2 PUSH1 0x20 ADD SWAP2 PUSH2 0x14A8 JUMP JUMPDEST DUP3 ADD SWAP2 SWAP1 PUSH0 MSTORE PUSH1 0x20 PUSH0 KECCAK256 SWAP1 JUMPDEST DUP2 SLOAD DUP2 MSTORE SWAP1 PUSH1 0x1 ADD SWAP1 PUSH1 0x20 ADD DUP1 DUP4 GT PUSH2 0x148B JUMPI DUP3 SWAP1 SUB PUSH1 0x1F AND DUP3 ADD SWAP2 JUMPDEST POP POP POP POP POP DUP2 MSTORE PUSH1 0x20 ADD PUSH1 0x5 DUP3 ADD PUSH0 SWAP1 SLOAD SWAP1 PUSH2 0x100 EXP SWAP1 DIV PUSH20 0xFFFFFFFFFFFFFFFFFFFFFFFFFFFFFFFFFFFFFFFF AND PUSH20 0xFFFFFFFFFFFFFFFFFFFFFFFFFFFFFFFFFFFFFFFF AND PUSH20 0xFFFFFFFFFFFFFFFFFFFFFFFFFFFFFFFFFFFFFFFF AND DUP2 MSTORE PUSH1 0x20 ADD PUSH1 0x6 DUP3 ADD SLOAD DUP2 MSTORE PUSH1 0x20 ADD PUSH1 0x7 DUP3 ADD PUSH0 SWAP1 SLOAD SWAP1 PUSH2 0x100 EXP SWAP1 DIV PUSH1 0xFF AND ISZERO ISZERO ISZERO ISZERO DUP2 MSTORE PUSH1 0x20 ADD PUSH1 0x8 DUP3 ADD SLOAD DUP2 MSTORE PUSH1 0x20 ADD PUSH1 0x9 DUP3 ADD SLOAD DUP2 MSTORE POP POP DUP3 PUSH1 0x1 DUP4 PUSH2 0x154C SWAP2 SWAP1 PUSH2 0x59B5 JUMP JUMPDEST DUP2 MLOAD DUP2 LT PUSH2 0x155D JUMPI PUSH2 0x155C PUSH2 0x59E8 JUMP JUMPDEST JUMPDEST PUSH1 0x20 MUL PUSH1 0x20 ADD ADD DUP2 SWAP1 MSTORE POP DUP1 DUP1 PUSH2 0x1573 SWAP1 PUSH2 0x5A15 JUMP JUMPDEST SWAP2 POP POP PUSH2 0x1242 JUMP JUMPDEST POP DUP1 SWAP2 POP POP SWAP1 JUMP JUMPDEST PUSH0 PUSH0 PUSH1 0xB SLOAD SUB PUSH2 0x1595 JUMPI PUSH0 SWAP1 POP PUSH2 0x15B4 JUMP JUMPDEST PUSH1 0xB SLOAD PUSH1 0x64 PUSH1 0xC SLOAD PUSH2 0x15A7 SWAP2 SWAP1 PUSH2 0x5A5C JUMP JUMPDEST PUSH2 0x15B1 SWAP2 SWAP1 PUSH2 0x5ACA JUMP JUMPDEST SWAP1 POP JUMPDEST SWAP1 JUMP JUMPDEST PUSH1 0x6 PUSH1 0x20 MSTORE DUP1 PUSH0 MSTORE PUSH1 0x40 PUSH0 KECCAK256 PUSH0 SWAP2 POP SWAP1 POP DUP1 PUSH0 ADD SLOAD SWAP1 DUP1 PUSH1 0x1 ADD DUP1 SLOAD PUSH2 0x15DC SWAP1 PUSH2 0x5958 JUMP JUMPDEST DUP1 PUSH1 0x1F ADD PUSH1 0x20 DUP1 SWAP2 DIV MUL PUSH1 0x20 ADD PUSH1 0x40 MLOAD SWAP1 DUP2 ADD PUSH1 0x40 MSTORE DUP1 SWAP3 SWAP2 SWAP1 DUP2 DUP2 MSTORE PUSH1 0x20 ADD DUP3 DUP1 SLOAD PUSH2 0x1608 SWAP1 PUSH2 0x5958 JUMP JUMPDEST DUP1 ISZERO PUSH2 0x1653 JUMPI DUP1 PUSH1 0x1F LT PUSH2 0x162A JUMPI PUSH2 0x100 DUP1 DUP4 SLOAD DIV MUL DUP4 MSTORE SWAP2 PUSH1 0x20 ADD SWAP2 PUSH2 0x1653 JUMP JUMPDEST DUP3 ADD SWAP2 SWAP1 PUSH0 MSTORE PUSH1 0x20 PUSH0 KECCAK256 SWAP1 JUMPDEST DUP2 SLOAD DUP2 MSTORE SWAP1 PUSH1 0x1 ADD SWAP1 PUSH1 0x20 ADD DUP1 DUP4 GT PUSH2 0x1636 JUMPI DUP3 SWAP1 SUB PUSH1 0x1F AND DUP3 ADD SWAP2 JUMPDEST POP POP POP POP POP SWAP1 DUP1 PUSH1 0x2 ADD DUP1 SLOAD PUSH2 0x1668 SWAP1 PUSH2 0x5958 JUMP JUMPDEST DUP1 PUSH1 0x1F ADD PUSH1 0x20 DUP1 SWAP2 DIV MUL PUSH1 0x20 ADD PUSH1 0x40 MLOAD SWAP1 DUP2 ADD PUSH1 0x40 MSTORE DUP1 SWAP3 SWAP2 SWAP1 DUP2 DUP2 MSTORE PUSH1 0x20 ADD DUP3 DUP1 SLOAD PUSH2 0x1694 SWAP1 PUSH2 0x5958 JUMP JUMPDEST DUP1 ISZERO PUSH2 0x16DF JUMPI DUP1 PUSH1 0x1F LT PUSH2 0x16B6 JUMPI PUSH2 0x100 DUP1 DUP4 SLOAD DIV MUL DUP4 MSTORE SWAP2 PUSH1 0x20 ADD SWAP2 PUSH2 0x16DF JUMP JUMPDEST DUP3 ADD SWAP2 SWAP1 PUSH0 MSTORE PUSH1 0x20 PUSH0 KECCAK256 SWAP1 JUMPDEST DUP2 SLOAD DUP2 MSTORE SWAP1 PUSH1 0x1 ADD SWAP1 PUSH1 0x20 ADD DUP1 DUP4 GT PUSH2 0x16C2 JUMPI DUP3 SWAP1 SUB PUSH1 0x1F AND DUP3 ADD SWAP2 JUMPDEST POP POP POP POP POP SWAP1 DUP1 PUSH1 0x3 ADD DUP1 SLOAD PUSH2 0x16F4 SWAP1 PUSH2 0x5958 JUMP JUMPDEST DUP1 PUSH1 0x1F ADD PUSH1 0x20 DUP1 SWAP2 DIV MUL PUSH1 0x20 ADD PUSH1 0x40 MLOAD SWAP1 DUP2 ADD PUSH1 0x40 MSTORE DUP1 SWAP3 SWAP2 SWAP1 DUP2 DUP2 MSTORE PUSH1 0x20 ADD DUP3 DUP1 SLOAD PUSH2 0x1720 SWAP1 PUSH2 0x5958 JUMP JUMPDEST DUP1 ISZERO PUSH2 0x176B JUMPI DUP1 PUSH1 0x1F LT PUSH2 0x1742 JUMPI PUSH2 0x100 DUP1 DUP4 SLOAD DIV MUL DUP4 MSTORE SWAP2 PUSH1 0x20 ADD SWAP2 PUSH2 0x176B JUMP JUMPDEST DUP3 ADD SWAP2 SWAP1 PUSH0 MSTORE PUSH1 0x20 PUSH0 KECCAK256 SWAP1 JUMPDEST DUP2 SLOAD DUP2 MSTORE SWAP1 PUSH1 0x1 ADD SWAP1 PUSH1 0x20 ADD DUP1 DUP4 GT PUSH2 0x174E JUMPI DUP3 SWAP1 SUB PUSH1 0x1F AND DUP3 ADD SWAP2 JUMPDEST POP POP POP POP POP SWAP1 DUP1 PUSH1 0x4 ADD DUP1 SLOAD PUSH2 0x1780 SWAP1 PUSH2 0x5958 JUMP JUMPDEST DUP1 PUSH1 0x1F ADD PUSH1 0x20 DUP1 SWAP2 DIV MUL PUSH1 0x20 ADD PUSH1 0x40 MLOAD SWAP1 DUP2 ADD PUSH1 0x40 MSTORE DUP1 SWAP3 SWAP2 SWAP1 DUP2 DUP2 MSTORE PUSH1 0x20 ADD DUP3 DUP1 SLOAD PUSH2 0x17AC SWAP1 PUSH2 0x5958 JUMP JUMPDEST DUP1 ISZERO PUSH2 0x17F7 JUMPI DUP1 PUSH1 0x1F LT PUSH2 0x17CE JUMPI PUSH2 0x100 DUP1 DUP4 SLOAD DIV MUL DUP4 MSTORE SWAP2 PUSH1 0x20 ADD SWAP2 PUSH2 0x17F7 JUMP JUMPDEST DUP3 ADD SWAP2 SWAP1 PUSH0 MSTORE PUSH1 0x20 PUSH0 KECCAK256 SWAP1 JUMPDEST DUP2 SLOAD DUP2 MSTORE SWAP1 PUSH1 0x1 ADD SWAP1 PUSH1 0x20 ADD DUP1 DUP4 GT PUSH2 0x17DA JUMPI DUP3 SWAP1 SUB PUSH1 0x1F AND DUP3 ADD SWAP2 JUMPDEST POP POP POP POP POP SWAP1 DUP1 PUSH1 0x5 ADD PUSH0 SWAP1 SLOAD SWAP1 PUSH2 0x100 EXP SWAP1 DIV PUSH20 0xFFFFFFFFFFFFFFFFFFFFFFFFFFFFFFFFFFFFFFFF AND SWAP1 DUP1 PUSH1 0x6 ADD SLOAD SWAP1 DUP1 PUSH1 0x7 ADD PUSH0 SWAP1 SLOAD SWAP1 PUSH2 0x100 EXP SWAP1 DIV PUSH1 0xFF AND SWAP1 DUP1 PUSH1 0x8 ADD SLOAD SWAP1 DUP1 PUSH1 0x9 ADD SLOAD SWAP1 POP DUP11 JUMP JUMPDEST PUSH2 0x1852 PUSH2 0x48F7 JUMP JUMPDEST DUP2 PUSH0 DUP2 GT DUP1 ISZERO PUSH2 0x1864 JUMPI POP PUSH1 0xA SLOAD DUP2 GT ISZERO JUMPDEST PUSH2 0x18A3 JUMPI PUSH1 0x40 MLOAD PUSH32 0x8C379A000000000000000000000000000000000000000000000000000000000 DUP2 MSTORE PUSH1 0x4 ADD PUSH2 0x189A SWAP1 PUSH2 0x5B44 JUMP JUMPDEST PUSH1 0x40 MLOAD DUP1 SWAP2 SUB SWAP1 REVERT JUMPDEST PUSH1 0x6 PUSH0 DUP5 DUP2 MSTORE PUSH1 0x20 ADD SWAP1 DUP2 MSTORE PUSH1 0x20 ADD PUSH0 KECCAK256 PUSH1 0x40 MLOAD DUP1 PUSH2 0x140 ADD PUSH1 0x40 MSTORE SWAP1 DUP2 PUSH0 DUP3 ADD SLOAD DUP2 MSTORE PUSH1 0x20 ADD PUSH1 0x1 DUP3 ADD DUP1 SLOAD PUSH2 0x18D9 SWAP1 PUSH2 0x5958 JUMP JUMPDEST DUP1 PUSH1 0x1F ADD PUSH1 0x20 DUP1 SWAP2 DIV MUL PUSH1 0x20 ADD PUSH1 0x40 MLOAD SWAP1 DUP2 ADD PUSH1 0x40 MSTORE DUP1 SWAP3 SWAP2 SWAP1 DUP2 DUP2 MSTORE PUSH1 0x20 ADD DUP3 DUP1 SLOAD PUSH2 0x1905 SWAP1 PUSH2 0x5958 JUMP JUMPDEST DUP1 ISZERO PUSH2 0x1950 JUMPI DUP1 PUSH1 0x1F LT PUSH2 0x1927 JUMPI PUSH2 0x100 DUP1 DUP4 SLOAD DIV MUL DUP4 MSTORE SWAP2 PUSH1 0x20 ADD SWAP2 PUSH2 0x1950 JUMP JUMPDEST DUP3 ADD SWAP2 SWAP1 PUSH0 MSTORE PUSH1 0x20 PUSH0 KECCAK256 SWAP1 JUMPDEST DUP2 SLOAD DUP2 MSTORE SWAP1 PUSH1 0x1 ADD SWAP1 PUSH1 0x20 ADD DUP1 DUP4 GT PUSH2 0x1933 JUMPI DUP3 SWAP1 SUB PUSH1 0x1F AND DUP3 ADD SWAP2 JUMPDEST POP POP POP POP POP DUP2 MSTORE PUSH1 0x20 ADD PUSH1 0x2 DUP3 ADD DUP1 SLOAD PUSH2 0x1969 SWAP1 PUSH2 0x5958 JUMP JUMPDEST DUP1 PUSH1 0x1F ADD PUSH1 0x20 DUP1 SWAP2 DIV MUL PUSH1 0x20 ADD PUSH1 0x40 MLOAD SWAP1 DUP2 ADD PUSH1 0x40 MSTORE DUP1 SWAP3 SWAP2 SWAP1 DUP2 DUP2 MSTORE PUSH1 0x20 ADD DUP3 DUP1 SLOAD PUSH2 0x1995 SWAP1 PUSH2 0x5958 JUMP JUMPDEST DUP1 ISZERO PUSH2 0x19E0 JUMPI DUP1 PUSH1 0x1F LT PUSH2 0x19B7 JUMPI PUSH2 0x100 DUP1 DUP4 SLOAD DIV MUL DUP4 MSTORE SWAP2 PUSH1 0x20 ADD SWAP2 PUSH2 0x19E0 JUMP JUMPDEST DUP3 ADD SWAP2 SWAP1 PUSH0 MSTORE PUSH1 0x20 PUSH0 KECCAK256 SWAP1 JUMPDEST DUP2 SLOAD DUP2 MSTORE SWAP1 PUSH1 0x1 ADD SWAP1 PUSH1 0x20 ADD DUP1 DUP4 GT PUSH2 0x19C3 JUMPI DUP3 SWAP1 SUB PUSH1 0x1F AND DUP3 ADD SWAP2 JUMPDEST POP POP POP POP POP DUP2 MSTORE PUSH1 0x20 ADD PUSH1 0x3 DUP3 ADD DUP1 SLOAD PUSH2 0x19F9 SWAP1 PUSH2 0x5958 JUMP JUMPDEST DUP1 PUSH1 0x1F ADD PUSH1 0x20 DUP1 SWAP2 DIV MUL PUSH1 0x20 ADD PUSH1 0x40 MLOAD SWAP1 DUP2 ADD PUSH1 0x40 MSTORE DUP1 SWAP3 SWAP2 SWAP1 DUP2 DUP2 MSTORE PUSH1 0x20 ADD DUP3 DUP1 SLOAD PUSH2 0x1A25 SWAP1 PUSH2 0x5958 JUMP JUMPDEST DUP1 ISZERO PUSH2 0x1A70 JUMPI DUP1 PUSH1 0x1F LT PUSH2 0x1A47 JUMPI PUSH2 0x100 DUP1 DUP4 SLOAD DIV MUL DUP4 MSTORE SWAP2 PUSH1 0x20 ADD SWAP2 PUSH2 0x1A70 JUMP JUMPDEST DUP3 ADD SWAP2 SWAP1 PUSH0 MSTORE PUSH1 0x20 PUSH0 KECCAK256 SWAP1 JUMPDEST DUP2 SLOAD DUP2 MSTORE SWAP1 PUSH1 0x1 ADD SWAP1 PUSH1 0x20 ADD DUP1 DUP4 GT PUSH2 0x1A53 JUMPI DUP3 SWAP1 SUB PUSH1 0x1F AND DUP3 ADD SWAP2 JUMPDEST POP POP POP POP POP DUP2 MSTORE PUSH1 0x20 ADD PUSH1 0x4 DUP3 ADD DUP1 SLOAD PUSH2 0x1A89 SWAP1 PUSH2 0x5958 JUMP JUMPDEST DUP1 PUSH1 0x1F ADD PUSH1 0x20 DUP1 SWAP2 DIV MUL PUSH1 0x20 ADD PUSH1 0x40 MLOAD SWAP1 DUP2 ADD PUSH1 0x40 MSTORE DUP1 SWAP3 SWAP2 SWAP1 DUP2 DUP2 MSTORE PUSH1 0x20 ADD DUP3 DUP1 SLOAD PUSH2 0x1AB5 SWAP1 PUSH2 0x5958 JUMP JUMPDEST DUP1 ISZERO PUSH2 0x1B00 JUMPI DUP1 PUSH1 0x1F LT PUSH2 0x1AD7 JUMPI PUSH2 0x100 DUP1 DUP4 SLOAD DIV MUL DUP4 MSTORE SWAP2 PUSH1 0x20 ADD SWAP2 PUSH2 0x1B00 JUMP JUMPDEST DUP3 ADD SWAP2 SWAP1 PUSH0 MSTORE PUSH1 0x20 PUSH0 KECCAK256 SWAP1 JUMPDEST DUP2 SLOAD DUP2 MSTORE SWAP1 PUSH1 0x1 ADD SWAP1 PUSH1 0x20 ADD DUP1 DUP4 GT PUSH2 0x1AE3 JUMPI DUP3 SWAP1 SUB PUSH1 0x1F AND DUP3 ADD SWAP2 JUMPDEST POP POP POP POP POP DUP2 MSTORE PUSH1 0x20 ADD PUSH1 0x5 DUP3 ADD PUSH0 SWAP1 SLOAD SWAP1 PUSH2 0x100 EXP SWAP1 DIV PUSH20 0xFFFFFFFFFFFFFFFFFFFFFFFFFFFFFFFFFFFFFFFF AND PUSH20 0xFFFFFFFFFFFFFFFFFFFFFFFFFFFFFFFFFFFFFFFF AND PUSH20 0xFFFFFFFFFFFFFFFFFFFFFFFFFFFFFFFFFFFFFFFF AND DUP2 MSTORE PUSH1 0x20 ADD PUSH1 0x6 DUP3 ADD SLOAD DUP2 MSTORE PUSH1 0x20 ADD PUSH1 0x7 DUP3 ADD PUSH0 SWAP1 SLOAD SWAP1 PUSH2 0x100 EXP SWAP1 DIV PUSH1 0xFF AND ISZERO ISZERO ISZERO ISZERO DUP2 MSTORE PUSH1 0x20 ADD PUSH1 0x8 DUP3 ADD SLOAD DUP2 MSTORE PUSH1 0x20 ADD PUSH1 0x9 DUP3 ADD SLOAD DUP2 MSTORE POP POP SWAP2 POP POP SWAP2 SWAP1 POP JUMP JUMPDEST PUSH0 PUSH0 PUSH1 0x9 PUSH0 DUP5 PUSH20 0xFFFFFFFFFFFFFFFFFFFFFFFFFFFFFFFFFFFFFFFF AND PUSH20 0xFFFFFFFFFFFFFFFFFFFFFFFFFFFFFFFFFFFFFFFF AND DUP2 MSTORE PUSH1 0x20 ADD SWAP1 DUP2 MSTORE PUSH1 0x20 ADD PUSH0 KECCAK256 SLOAD SWAP1 POP PUSH0 DUP2 SUB PUSH2 0x1BF0 JUMPI PUSH0 SWAP2 POP POP PUSH2 0x1C16 JUMP JUMPDEST PUSH1 0x8 PUSH0 DUP3 DUP2 MSTORE PUSH1 0x20 ADD SWAP1 DUP2 MSTORE PUSH1 0x20 ADD PUSH0 KECCAK256 PUSH1 0x4 ADD PUSH1 0x14 SWAP1 SLOAD SWAP1 PUSH2 0x100 EXP SWAP1 DIV PUSH1 0xFF AND SWAP2 POP POP JUMPDEST SWAP2 SWAP1 POP JUMP JUMPDEST PUSH1 0x4 DUP1 PUSH1 0x6 DUP2 GT ISZERO PUSH2 0x1C30 JUMPI PUSH2 0x1C2F PUSH2 0x4A9B JUMP JUMPDEST JUMPDEST PUSH1 0x3 PUSH0 SWAP1 SLOAD SWAP1 PUSH2 0x100 EXP SWAP1 DIV PUSH1 0xFF AND PUSH1 0x6 DUP2 GT ISZERO PUSH2 0x1C51 JUMPI PUSH2 0x1C50 PUSH2 0x4A9B JUMP JUMPDEST JUMPDEST EQ PUSH2 0x1C91 JUMPI PUSH1 0x40 MLOAD PUSH32 0x8C379A000000000000000000000000000000000000000000000000000000000 DUP2 MSTORE PUSH1 0x4 ADD PUSH2 0x1C88 SWAP1 PUSH2 0x5BAC JUMP JUMPDEST PUSH1 0x40 MLOAD DUP1 SWAP2 SUB SWAP1 REVERT JUMPDEST PUSH2 0x1C99 PUSH2 0x48A1 JUMP JUMPDEST DUP2 PUSH0 DUP2 GT DUP1 ISZERO PUSH2 0x1CAB JUMPI POP PUSH1 0xA SLOAD DUP2 GT ISZERO JUMPDEST PUSH2 0x1CEA JUMPI PUSH1 0x40 MLOAD PUSH32 0x8C379A000000000000000000000000000000000000000000000000000000000 DUP2 MSTORE PUSH1 0x4 ADD PUSH2 0x1CE1 SWAP1 PUSH2 0x5B44 JUMP JUMPDEST PUSH1 0x40 MLOAD DUP1 SWAP2 SUB SWAP1 REVERT JUMPDEST PUSH0 PUSH1 0x9 PUSH0 CALLER PUSH20 0xFFFFFFFFFFFFFFFFFFFFFFFFFFFFFFFFFFFFFFFF AND PUSH20 0xFFFFFFFFFFFFFFFFFFFFFFFFFFFFFFFFFFFFFFFF AND DUP2 MSTORE PUSH1 0x20 ADD SWAP1 DUP2 MSTORE PUSH1 0x20 ADD PUSH0 KECCAK256 SLOAD SWAP1 POP PUSH0 DUP2 GT PUSH2 0x1D6D JUMPI PUSH1 0x40 MLOAD PUSH32 0x8C379A000000000000000000000000000000000000000000000000000000000 DUP2 MSTORE PUSH1 0x4 ADD PUSH2 0x1D64 SWAP1 PUSH2 0x5C14 JUMP JUMPDEST PUSH1 0x40 MLOAD DUP1 SWAP2 SUB SWAP1 REVERT JUMPDEST PUSH0 PUSH1 0x8 PUSH0 DUP4 DUP2 MSTORE PUSH1 0x20 ADD SWAP1 DUP2 MSTORE PUSH1 0x20 ADD PUSH0 KECCAK256 SWAP1 POP DUP1 PUSH1 0x4 ADD PUSH1 0x14 SWAP1 SLOAD SWAP1 PUSH2 0x100 EXP SWAP1 DIV PUSH1 0xFF AND PUSH2 0x1DD2 JUMPI PUSH1 0x40 MLOAD PUSH32 0x8C379A000000000000000000000000000000000000000000000000000000000 DUP2 MSTORE PUSH1 0x4 ADD PUSH2 0x1DC9 SWAP1 PUSH2 0x5C7C JUMP JUMPDEST PUSH1 0x40 MLOAD DUP1 SWAP2 SUB SWAP1 REVERT JUMPDEST DUP1 PUSH1 0x4 ADD PUSH1 0x15 SWAP1 SLOAD SWAP1 PUSH2 0x100 EXP SWAP1 DIV PUSH1 0xFF AND ISZERO PUSH2 0x1E24 JUMPI PUSH1 0x40 MLOAD PUSH32 0x8C379A000000000000000000000000000000000000000000000000000000000 DUP2 MSTORE PUSH1 0x4 ADD PUSH2 0x1E1B SWAP1 PUSH2 0x5CE4 JUMP JUMPDEST PUSH1 0x40 MLOAD DUP1 SWAP2 SUB SWAP1 REVERT JUMPDEST PUSH0 PUSH1 0x6 PUSH0 DUP8 DUP2 MSTORE PUSH1 0x20 ADD SWAP1 DUP2 MSTORE PUSH1 0x20 ADD PUSH0 KECCAK256 SWAP1 POP DUP1 PUSH1 0x7 ADD PUSH0 SWAP1 SLOAD SWAP1 PUSH2 0x100 EXP SWAP1 DIV PUSH1 0xFF AND PUSH2 0x1E88 JUMPI PUSH1 0x40 MLOAD PUSH32 0x8C379A000000000000000000000000000000000000000000000000000000000 DUP2 MSTORE PUSH1 0x4 ADD PUSH2 0x1E7F SWAP1 PUSH2 0x5D4C JUMP JUMPDEST PUSH1 0x40 MLOAD DUP1 SWAP2 SUB SWAP1 REVERT JUMPDEST PUSH1 0x1 DUP3 PUSH1 0x4 ADD PUSH1 0x15 PUSH2 0x100 EXP DUP2 SLOAD DUP2 PUSH1 0xFF MUL NOT AND SWAP1 DUP4 ISZERO ISZERO MUL OR SWAP1 SSTORE POP DUP6 DUP3 PUSH1 0x5 ADD DUP2 SWAP1 SSTORE POP DUP1 PUSH1 0x8 ADD PUSH0 DUP2 SLOAD DUP1 SWAP3 SWAP2 SWAP1 PUSH2 0x1EC2 SWAP1 PUSH2 0x5A15 JUMP JUMPDEST SWAP2 SWAP1 POP SSTORE POP PUSH1 0xC PUSH0 DUP2 SLOAD DUP1 SWAP3 SWAP2 SWAP1 PUSH2 0x1ED9 SWAP1 PUSH2 0x5A15 JUMP JUMPDEST SWAP2 SWAP1 POP SSTORE POP DUP6 DUP4 PUSH32 0x24930ECCA7F60D4736CD965CB5522694EA4B32308405D3F88FEA2F59EFF63CAA TIMESTAMP PUSH1 0x40 MLOAD PUSH2 0x1F0F SWAP2 SWAP1 PUSH2 0x4B3F JUMP JUMPDEST PUSH1 0x40 MLOAD DUP1 SWAP2 SUB SWAP1 LOG3 POP POP POP POP PUSH2 0x1F23 PUSH2 0x48EE JUMP JUMPDEST POP POP JUMP JUMPDEST PUSH1 0xB SLOAD DUP2 JUMP JUMPDEST PUSH0 PUSH0 PUSH1 0x7 PUSH0 DUP5 PUSH20 0xFFFFFFFFFFFFFFFFFFFFFFFFFFFFFFFFFFFFFFFF AND PUSH20 0xFFFFFFFFFFFFFFFFFFFFFFFFFFFFFFFFFFFFFFFF AND DUP2 MSTORE PUSH1 0x20 ADD SWAP1 DUP2 MSTORE PUSH1 0x20 ADD PUSH0 KECCAK256 SLOAD SWAP1 POP PUSH0 DUP2 SUB PUSH2 0x1F7F JUMPI PUSH0 SWAP2 POP POP PUSH2 0x1FA4 JUMP JUMPDEST PUSH1 0x6 PUSH0 DUP3 DUP2 MSTORE PUSH1 0x20 ADD SWAP1 DUP2 MSTORE PUSH1 0x20 ADD PUSH0 KECCAK256 PUSH1 0x7 ADD PUSH0 SWAP1 SLOAD SWAP1 PUSH2 0x100 EXP SWAP1 DIV PUSH1 0xFF AND SWAP2 POP POP JUMPDEST SWAP2 SWAP1 POP JUMP JUMPDEST PUSH1 0x60 ADDRESS PUSH20 0xFFFFFFFFFFFFFFFFFFFFFFFFFFFFFFFFFFFFFFFF AND PUSH4 0x8AD22706 PUSH1 0x40 MLOAD DUP2 PUSH4 0xFFFFFFFF AND PUSH1 0xE0 SHL DUP2 MSTORE PUSH1 0x4 ADD PUSH0 PUSH1 0x40 MLOAD DUP1 DUP4 SUB DUP2 DUP7 GAS STATICCALL ISZERO DUP1 ISZERO PUSH2 0x1FF3 JUMPI RETURNDATASIZE PUSH0 PUSH0 RETURNDATACOPY RETURNDATASIZE PUSH0 REVERT JUMPDEST POP POP POP POP PUSH1 0x40 MLOAD RETURNDATASIZE PUSH0 DUP3 RETURNDATACOPY RETURNDATASIZE PUSH1 0x1F NOT PUSH1 0x1F DUP3 ADD AND DUP3 ADD DUP1 PUSH1 0x40 MSTORE POP DUP2 ADD SWAP1 PUSH2 0x201B SWAP2 SWAP1 PUSH2 0x5FF5 JUMP JUMPDEST SWAP1 POP SWAP1 JUMP JUMPDEST PUSH1 0xF SLOAD DUP2 JUMP JUMPDEST PUSH1 0x5 DUP1 SLOAD PUSH2 0x2033 SWAP1 PUSH2 0x5958 JUMP JUMPDEST DUP1 PUSH1 0x1F ADD PUSH1 0x20 DUP1 SWAP2 DIV MUL PUSH1 0x20 ADD PUSH1 0x40 MLOAD SWAP1 DUP2 ADD PUSH1 0x40 MSTORE DUP1 SWAP3 SWAP2 SWAP1 DUP2 DUP2 MSTORE PUSH1 0x20 ADD DUP3 DUP1 SLOAD PUSH2 0x205F SWAP1 PUSH2 0x5958 JUMP JUMPDEST DUP1 ISZERO PUSH2 0x20AA JUMPI DUP1 PUSH1 0x1F LT PUSH2 0x2081 JUMPI PUSH2 0x100 DUP1 DUP4 SLOAD DIV MUL DUP4 MSTORE SWAP2 PUSH1 0x20 ADD SWAP2 PUSH2 0x20AA JUMP JUMPDEST DUP3 ADD SWAP2 SWAP1 PUSH0 MSTORE PUSH1 0x20 PUSH0 KECCAK256 SWAP1 JUMPDEST DUP2 SLOAD DUP2 MSTORE SWAP1 PUSH1 0x1 ADD SWAP1 PUSH1 0x20 ADD DUP1 DUP4 GT PUSH2 0x208D JUMPI DUP3 SWAP1 SUB PUSH1 0x1F AND DUP3 ADD SWAP2 JUMPDEST POP POP POP POP POP DUP2 JUMP JUMPDEST PUSH1 0x1 PUSH0 SWAP1 SLOAD SWAP1 PUSH2 0x100 EXP SWAP1 DIV PUSH20 0xFFFFFFFFFFFFFFFFFFFFFFFFFFFFFFFFFFFFFFFF AND PUSH20 0xFFFFFFFFFFFFFFFFFFFFFFFFFFFFFFFFFFFFFFFF AND CALLER PUSH20 0xFFFFFFFFFFFFFFFFFFFFFFFFFFFFFFFFFFFFFFFF AND EQ PUSH2 0x2141 JUMPI PUSH1 0x40 MLOAD PUSH32 0x8C379A000000000000000000000000000000000000000000000000000000000 DUP2 MSTORE PUSH1 0x4 ADD PUSH2 0x2138 SWAP1 PUSH2 0x576D JUMP JUMPDEST PUSH1 0x40 MLOAD DUP1 SWAP2 SUB SWAP1 REVERT JUMPDEST PUSH1 0x2 PUSH0 DUP3 PUSH20 0xFFFFFFFFFFFFFFFFFFFFFFFFFFFFFFFFFFFFFFFF AND PUSH20 0xFFFFFFFFFFFFFFFFFFFFFFFFFFFFFFFFFFFFFFFF AND DUP2 MSTORE PUSH1 0x20 ADD SWAP1 DUP2 MSTORE PUSH1 0x20 ADD PUSH0 KECCAK256 PUSH0 SWAP1 SLOAD SWAP1 PUSH2 0x100 EXP SWAP1 DIV PUSH1 0xFF AND PUSH2 0x21CA JUMPI PUSH1 0x40 MLOAD PUSH32 0x8C379A000000000000000000000000000000000000000000000000000000000 DUP2 MSTORE PUSH1 0x4 ADD PUSH2 0x21C1 SWAP1 PUSH2 0x6086 JUMP JUMPDEST PUSH1 0x40 MLOAD DUP1 SWAP2 SUB SWAP1 REVERT JUMPDEST PUSH0 PUSH1 0x2 PUSH0 DUP4 PUSH20 0xFFFFFFFFFFFFFFFFFFFFFFFFFFFFFFFFFFFFFFFF AND PUSH20 0xFFFFFFFFFFFFFFFFFFFFFFFFFFFFFFFFFFFFFFFF AND DUP2 MSTORE PUSH1 0x20 ADD SWAP1 DUP2 MSTORE PUSH1 0x20 ADD PUSH0 KECCAK256 PUSH0 PUSH2 0x100 EXP DUP2 SLOAD DUP2 PUSH1 0xFF MUL NOT AND SWAP1 DUP4 ISZERO ISZERO MUL OR SWAP1 SSTORE POP DUP1 PUSH20 0xFFFFFFFFFFFFFFFFFFFFFFFFFFFFFFFFFFFFFFFF AND PUSH32 0x9DD902B9757CC3E4A6B89A63BDAC61BFC3087B2F94A55832CB55D3DE65F29608 TIMESTAMP PUSH1 0x40 MLOAD PUSH2 0x2264 SWAP2 SWAP1 PUSH2 0x4B3F JUMP JUMPDEST PUSH1 0x40 MLOAD DUP1 SWAP2 SUB SWAP1 LOG2 POP JUMP JUMPDEST PUSH1 0x11 SLOAD DUP2 JUMP JUMPDEST PUSH1 0x2 DUP1 PUSH1 0x6 DUP2 GT ISZERO PUSH2 0x228A JUMPI PUSH2 0x2289 PUSH2 0x4A9B JUMP JUMPDEST JUMPDEST PUSH1 0x3 PUSH0 SWAP1 SLOAD SWAP1 PUSH2 0x100 EXP SWAP1 DIV PUSH1 0xFF AND PUSH1 0x6 DUP2 GT ISZERO PUSH2 0x22AB JUMPI PUSH2 0x22AA PUSH2 0x4A9B JUMP JUMPDEST JUMPDEST EQ PUSH2 0x22EB JUMPI PUSH1 0x40 MLOAD PUSH32 0x8C379A000000000000000000000000000000000000000000000000000000000 DUP2 MSTORE PUSH1 0x4 ADD PUSH2 0x22E2 SWAP1 PUSH2 0x5BAC JUMP JUMPDEST PUSH1 0x40 MLOAD DUP1 SWAP2 SUB SWAP1 REVERT JUMPDEST PUSH1 0x12 DUP4 LT ISZERO PUSH2 0x232F JUMPI PUSH1 0x40 MLOAD PUSH32 0x8C379A000000000000000000000000000000000000000000000000000000000 DUP2 MSTORE PUSH1 0x4 ADD PUSH2 0x2326 SWAP1 PUSH2 0x60EE JUMP JUMPDEST PUSH1 0x40 MLOAD DUP1 SWAP2 SUB SWAP1 REVERT JUMPDEST PUSH0 PUSH1 0x9 PUSH0 CALLER PUSH20 0xFFFFFFFFFFFFFFFFFFFFFFFFFFFFFFFFFFFFFFFF AND PUSH20 0xFFFFFFFFFFFFFFFFFFFFFFFFFFFFFFFFFFFFFFFF AND DUP2 MSTORE PUSH1 0x20 ADD SWAP1 DUP2 MSTORE PUSH1 0x20 ADD PUSH0 KECCAK256 SLOAD EQ PUSH2 0x23AE JUMPI PUSH1 0x40 MLOAD PUSH32 0x8C379A000000000000000000000000000000000000000000000000000000000 DUP2 MSTORE PUSH1 0x4 ADD PUSH2 0x23A5 SWAP1 PUSH2 0x6156 JUMP JUMPDEST PUSH1 0x40 MLOAD DUP1 SWAP2 SUB SWAP1 REVERT JUMPDEST PUSH0 DUP5 MLOAD GT PUSH2 0x23F1 JUMPI PUSH1 0x40 MLOAD PUSH32 0x8C379A000000000000000000000000000000000000000000000000000000000 DUP2 MSTORE PUSH1 0x4 ADD PUSH2 0x23E8 SWAP1 PUSH2 0x61BE JUMP JUMPDEST PUSH1 0x40 MLOAD DUP1 SWAP2 SUB SWAP1 REVERT JUMPDEST PUSH1 0xB PUSH0 DUP2 SLOAD DUP1 SWAP3 SWAP2 SWAP1 PUSH2 0x2403 SWAP1 PUSH2 0x5A15 JUMP JUMPDEST SWAP2 SWAP1 POP SSTORE POP PUSH1 0x40 MLOAD DUP1 PUSH2 0x120 ADD PUSH1 0x40 MSTORE DUP1 PUSH1 0xB SLOAD DUP2 MSTORE PUSH1 0x20 ADD DUP6 DUP2 MSTORE PUSH1 0x20 ADD DUP5 DUP2 MSTORE PUSH1 0x20 ADD DUP4 DUP2 MSTORE PUSH1 0x20 ADD CALLER PUSH20 0xFFFFFFFFFFFFFFFFFFFFFFFFFFFFFFFFFFFFFFFF AND DUP2 MSTORE PUSH1 0x20 ADD PUSH0 ISZERO ISZERO DUP2 MSTORE PUSH1 0x20 ADD PUSH0 ISZERO ISZERO DUP2 MSTORE PUSH1 0x20 ADD PUSH0 DUP2 MSTORE PUSH1 0x20 ADD TIMESTAMP DUP2 MSTORE POP PUSH1 0x8 PUSH0 PUSH1 0xB SLOAD DUP2 MSTORE PUSH1 0x20 ADD SWAP1 DUP2 MSTORE PUSH1 0x20 ADD PUSH0 KECCAK256 PUSH0 DUP3 ADD MLOAD DUP2 PUSH0 ADD SSTORE PUSH1 0x20 DUP3 ADD MLOAD DUP2 PUSH1 0x1 ADD SWAP1 DUP2 PUSH2 0x2494 SWAP2 SWAP1 PUSH2 0x637C JUMP JUMPDEST POP PUSH1 0x40 DUP3 ADD MLOAD DUP2 PUSH1 0x2 ADD SSTORE PUSH1 0x60 DUP3 ADD MLOAD DUP2 PUSH1 0x3 ADD SWAP1 DUP2 PUSH2 0x24B4 SWAP2 SWAP1 PUSH2 0x637C JUMP JUMPDEST POP PUSH1 0x80 DUP3 ADD MLOAD DUP2 PUSH1 0x4 ADD PUSH0 PUSH2 0x100 EXP DUP2 SLOAD DUP2 PUSH20 0xFFFFFFFFFFFFFFFFFFFFFFFFFFFFFFFFFFFFFFFF MUL NOT AND SWAP1 DUP4 PUSH20 0xFFFFFFFFFFFFFFFFFFFFFFFFFFFFFFFFFFFFFFFF AND MUL OR SWAP1 SSTORE POP PUSH1 0xA0 DUP3 ADD MLOAD DUP2 PUSH1 0x4 ADD PUSH1 0x14 PUSH2 0x100 EXP DUP2 SLOAD DUP2 PUSH1 0xFF MUL NOT AND SWAP1 DUP4 ISZERO ISZERO MUL OR SWAP1 SSTORE POP PUSH1 0xC0 DUP3 ADD MLOAD DUP2 PUSH1 0x4 ADD PUSH1 0x15 PUSH2 0x100 EXP DUP2 SLOAD DUP2 PUSH1 0xFF MUL NOT AND SWAP1 DUP4 ISZERO ISZERO MUL OR SWAP1 SSTORE POP PUSH1 0xE0 DUP3 ADD MLOAD DUP2 PUSH1 0x5 ADD SSTORE PUSH2 0x100 DUP3 ADD MLOAD DUP2 PUSH1 0x6 ADD SSTORE SWAP1 POP POP PUSH1 0xB SLOAD PUSH1 0x9 PUSH0 CALLER PUSH20 0xFFFFFFFFFFFFFFFFFFFFFFFFFFFFFFFFFFFFFFFF AND PUSH20 0xFFFFFFFFFFFFFFFFFFFFFFFFFFFFFFFFFFFFFFFF AND DUP2 MSTORE PUSH1 0x20 ADD SWAP1 DUP2 MSTORE PUSH1 0x20 ADD PUSH0 KECCAK256 DUP2 SWAP1 SSTORE POP PUSH1 0xB SLOAD PUSH32 0xD30636F280D2BA3D6969F9E730FA176BADB085756380CBA91AB8A6D636CE1E24 DUP6 CALLER TIMESTAMP PUSH1 0x40 MLOAD PUSH2 0x25CD SWAP4 SWAP3 SWAP2 SWAP1 PUSH2 0x644B JUMP JUMPDEST PUSH1 0x40 MLOAD DUP1 SWAP2 SUB SWAP1 LOG2 POP POP POP POP JUMP JUMPDEST PUSH1 0x1 PUSH0 SWAP1 SLOAD SWAP1 PUSH2 0x100 EXP SWAP1 DIV PUSH20 0xFFFFFFFFFFFFFFFFFFFFFFFFFFFFFFFFFFFFFFFF AND PUSH20 0xFFFFFFFFFFFFFFFFFFFFFFFFFFFFFFFFFFFFFFFF AND CALLER PUSH20 0xFFFFFFFFFFFFFFFFFFFFFFFFFFFFFFFFFFFFFFFF AND EQ PUSH2 0x266A JUMPI PUSH1 0x40 MLOAD PUSH32 0x8C379A000000000000000000000000000000000000000000000000000000000 DUP2 MSTORE PUSH1 0x4 ADD PUSH2 0x2661 SWAP1 PUSH2 0x576D JUMP JUMPDEST PUSH1 0x40 MLOAD DUP1 SWAP2 SUB SWAP1 REVERT JUMPDEST PUSH0 PUSH20 0xFFFFFFFFFFFFFFFFFFFFFFFFFFFFFFFFFFFFFFFF AND DUP2 PUSH20 0xFFFFFFFFFFFFFFFFFFFFFFFFFFFFFFFFFFFFFFFF AND SUB PUSH2 0x26D8 JUMPI PUSH1 0x40 MLOAD PUSH32 0x8C379A000000000000000000000000000000000000000000000000000000000 DUP2 MSTORE PUSH1 0x4 ADD PUSH2 0x26CF SWAP1 PUSH2 0x64D1 JUMP JUMPDEST PUSH1 0x40 MLOAD DUP1 SWAP2 SUB SWAP1 REVERT JUMPDEST PUSH1 0x2 PUSH0 DUP3 PUSH20 0xFFFFFFFFFFFFFFFFFFFFFFFFFFFFFFFFFFFFFFFF AND PUSH20 0xFFFFFFFFFFFFFFFFFFFFFFFFFFFFFFFFFFFFFFFF AND DUP2 MSTORE PUSH1 0x20 ADD SWAP1 DUP2 MSTORE PUSH1 0x20 ADD PUSH0 KECCAK256 PUSH0 SWAP1 SLOAD SWAP1 PUSH2 0x100 EXP SWAP1 DIV PUSH1 0xFF AND ISZERO PUSH2 0x2762 JUMPI PUSH1 0x40 MLOAD PUSH32 0x8C379A000000000000000000000000000000000000000000000000000000000 DUP2 MSTORE PUSH1 0x4 ADD PUSH2 0x2759 SWAP1 PUSH2 0x6539 JUMP JUMPDEST PUSH1 0x40 MLOAD DUP1 SWAP2 SUB SWAP1 REVERT JUMPDEST PUSH1 0x1 PUSH1 0x2 PUSH0 DUP4 PUSH20 0xFFFFFFFFFFFFFFFFFFFFFFFFFFFFFFFFFFFFFFFF AND PUSH20 0xFFFFFFFFFFFFFFFFFFFFFFFFFFFFFFFFFFFFFFFF AND DUP2 MSTORE PUSH1 0x20 ADD SWAP1 DUP2 MSTORE PUSH1 0x20 ADD PUSH0 KECCAK256 PUSH0 PUSH2 0x100 EXP DUP2 SLOAD DUP2 PUSH1 0xFF MUL NOT AND SWAP1 DUP4 ISZERO ISZERO MUL OR SWAP1 SSTORE POP DUP1 PUSH20 0xFFFFFFFFFFFFFFFFFFFFFFFFFFFFFFFFFFFFFFFF AND PUSH32 0xFCEC821A70E12047FA0E17132C41EF19A9E018BD461C5DE656F2D31FF2F7114D TIMESTAMP PUSH1 0x40 MLOAD PUSH2 0x27FD SWAP2 SWAP1 PUSH2 0x4B3F JUMP JUMPDEST PUSH1 0x40 MLOAD DUP1 SWAP2 SUB SWAP1 LOG2 POP JUMP JUMPDEST PUSH1 0x2 PUSH0 CALLER PUSH20 0xFFFFFFFFFFFFFFFFFFFFFFFFFFFFFFFFFFFFFFFF AND PUSH20 0xFFFFFFFFFFFFFFFFFFFFFFFFFFFFFFFFFFFFFFFF AND DUP2 MSTORE PUSH1 0x20 ADD SWAP1 DUP2 MSTORE PUSH1 0x20 ADD PUSH0 KECCAK256 PUSH0 SWAP1 SLOAD SWAP1 PUSH2 0x100 EXP SWAP1 DIV PUSH1 0xFF AND DUP1 PUSH2 0x28A9 JUMPI POP PUSH1 0x1 PUSH0 SWAP1 SLOAD SWAP1 PUSH2 0x100 EXP SWAP1 DIV PUSH20 0xFFFFFFFFFFFFFFFFFFFFFFFFFFFFFFFFFFFFFFFF AND PUSH20 0xFFFFFFFFFFFFFFFFFFFFFFFFFFFFFFFFFFFFFFFF AND CALLER PUSH20 0xFFFFFFFFFFFFFFFFFFFFFFFFFFFFFFFFFFFFFFFF AND EQ JUMPDEST PUSH2 0x28E8 JUMPI PUSH1 0x40 MLOAD PUSH32 0x8C379A000000000000000000000000000000000000000000000000000000000 DUP2 MSTORE PUSH1 0x4 ADD PUSH2 0x28DF SWAP1 PUSH2 0x65A1 JUMP JUMPDEST PUSH1 0x40 MLOAD DUP1 SWAP2 SUB SWAP1 REVERT JUMPDEST DUP1 PUSH0 DUP2 GT DUP1 ISZERO PUSH2 0x28FA JUMPI POP PUSH1 0xA SLOAD DUP2 GT ISZERO JUMPDEST PUSH2 0x2939 JUMPI PUSH1 0x40 MLOAD PUSH32 0x8C379A000000000000000000000000000000000000000000000000000000000 DUP2 MSTORE PUSH1 0x4 ADD PUSH2 0x2930 SWAP1 PUSH2 0x5B44 JUMP JUMPDEST PUSH1 0x40 MLOAD DUP1 SWAP2 SUB SWAP1 REVERT JUMPDEST PUSH1 0x6 PUSH0 DUP4 DUP2 MSTORE PUSH1 0x20 ADD SWAP1 DUP2 MSTORE PUSH1 0x20 ADD PUSH0 KECCAK256 PUSH1 0x7 ADD PUSH0 SWAP1 SLOAD SWAP1 PUSH2 0x100 EXP SWAP1 DIV PUSH1 0xFF AND ISZERO PUSH2 0x299A JUMPI PUSH1 0x40 MLOAD PUSH32 0x8C379A000000000000000000000000000000000000000000000000000000000 DUP2 MSTORE PUSH1 0x4 ADD PUSH2 0x2991 SWAP1 PUSH2 0x6609 JUMP JUMPDEST PUSH1 0x40 MLOAD DUP1 SWAP2 SUB SWAP1 REVERT JUMPDEST PUSH1 0x1 PUSH1 0x6 PUSH0 DUP5 DUP2 MSTORE PUSH1 0x20 ADD SWAP1 DUP2 MSTORE PUSH1 0x20 ADD PUSH0 KECCAK256 PUSH1 0x7 ADD PUSH0 PUSH2 0x100 EXP DUP2 SLOAD DUP2 PUSH1 0xFF MUL NOT AND SWAP1 DUP4 ISZERO ISZERO MUL OR SWAP1 SSTORE POP DUP2 PUSH32 0xBE3802CEA1F17660053D124F9C6C8D35243BD9AEF11C365105120E84ACCAFF00 CALLER TIMESTAMP PUSH1 0x40 MLOAD PUSH2 0x29F8 SWAP3 SWAP2 SWAP1 PUSH2 0x6627 JUMP JUMPDEST PUSH1 0x40 MLOAD DUP1 SWAP2 SUB SWAP1 LOG2 POP POP JUMP JUMPDEST PUSH1 0x4 DUP1 PUSH1 0x6 DUP2 GT ISZERO PUSH2 0x2A19 JUMPI PUSH2 0x2A18 PUSH2 0x4A9B JUMP JUMPDEST JUMPDEST PUSH1 0x3 PUSH0 SWAP1 SLOAD SWAP1 PUSH2 0x100 EXP SWAP1 DIV PUSH1 0xFF AND PUSH1 0x6 DUP2 GT ISZERO PUSH2 0x2A3A JUMPI PUSH2 0x2A39 PUSH2 0x4A9B JUMP JUMPDEST JUMPDEST EQ PUSH2 0x2A7A JUMPI PUSH1 0x40 MLOAD PUSH32 0x8C379A000000000000000000000000000000000000000000000000000000000 DUP2 MSTORE PUSH1 0x4 ADD PUSH2 0x2A71 SWAP1 PUSH2 0x5BAC JUMP JUMPDEST PUSH1 0x40 MLOAD DUP1 SWAP2 SUB SWAP1 REVERT JUMPDEST PUSH2 0x2A82 PUSH2 0x48A1 JUMP JUMPDEST PUSH0 PUSH1 0x9 PUSH0 CALLER PUSH20 0xFFFFFFFFFFFFFFFFFFFFFFFFFFFFFFFFFFFFFFFF AND PUSH20 0xFFFFFFFFFFFFFFFFFFFFFFFFFFFFFFFFFFFFFFFF AND DUP2 MSTORE PUSH1 0x20 ADD SWAP1 DUP2 MSTORE PUSH1 0x20 ADD PUSH0 KECCAK256 SLOAD SWAP1 POP PUSH0 DUP2 GT PUSH2 0x2B05 JUMPI PUSH1 0x40 MLOAD PUSH32 0x8C379A000000000000000000000000000000000000000000000000000000000 DUP2 MSTORE PUSH1 0x4 ADD PUSH2 0x2AFC SWAP1 PUSH2 0x5C14 JUMP JUMPDEST PUSH1 0x40 MLOAD DUP1 SWAP2 SUB SWAP1 REVERT JUMPDEST PUSH0 PUSH1 0x8 PUSH0 DUP4 DUP2 MSTORE PUSH1 0x20 ADD SWAP1 DUP2 MSTORE PUSH1 0x20 ADD PUSH0 KECCAK256 SWAP1 POP DUP1 PUSH1 0x4 ADD PUSH1 0x14 SWAP1 SLOAD SWAP1 PUSH2 0x100 EXP SWAP1 DIV PUSH1 0xFF AND PUSH2 0x2B6A JUMPI PUSH1 0x40 MLOAD PUSH32 0x8C379A000000000000000000000000000000000000000000000000000000000 DUP2 MSTORE PUSH1 0x4 ADD PUSH2 0x2B61 SWAP1 PUSH2 0x5C7C JUMP JUMPDEST PUSH1 0x40 MLOAD DUP1 SWAP2 SUB SWAP1 REVERT JUMPDEST DUP1 PUSH1 0x4 ADD PUSH1 0x15 SWAP1 SLOAD SWAP1 PUSH2 0x100 EXP SWAP1 DIV PUSH1 0xFF AND ISZERO PUSH2 0x2BBC JUMPI PUSH1 0x40 MLOAD PUSH32 0x8C379A000000000000000000000000000000000000000000000000000000000 DUP2 MSTORE PUSH1 0x4 ADD PUSH2 0x2BB3 SWAP1 PUSH2 0x5CE4 JUMP JUMPDEST PUSH1 0x40 MLOAD DUP1 SWAP2 SUB SWAP1 REVERT JUMPDEST PUSH1 0x1 DUP2 PUSH1 0x4 ADD PUSH1 0x15 PUSH2 0x100 EXP DUP2 SLOAD DUP2 PUSH1 0xFF MUL NOT AND SWAP1 DUP4 ISZERO ISZERO MUL OR SWAP1 SSTORE POP PUSH0 DUP2 PUSH1 0x5 ADD DUP2 SWAP1 SSTORE POP PUSH1 0xD PUSH0 DUP2 SLOAD DUP1 SWAP3 SWAP2 SWAP1 PUSH2 0x2BF4 SWAP1 PUSH2 0x5A15 JUMP JUMPDEST SWAP2 SWAP1 POP SSTORE POP PUSH1 0xC PUSH0 DUP2 SLOAD DUP1 SWAP3 SWAP2 SWAP1 PUSH2 0x2C0B SWAP1 PUSH2 0x5A15 JUMP JUMPDEST SWAP2 SWAP1 POP SSTORE POP DUP2 PUSH32 0xE5660B90982E2C7EFDB0D9617DEE08E857C4F217A9FA199D238461DCD135B5AD TIMESTAMP PUSH1 0x40 MLOAD PUSH2 0x2C40 SWAP2 SWAP1 PUSH2 0x4B3F JUMP JUMPDEST PUSH1 0x40 MLOAD DUP1 SWAP2 SUB SWAP1 LOG2 POP POP PUSH2 0x2C52 PUSH2 0x48EE JUMP JUMPDEST POP JUMP JUMPDEST PUSH1 0x2 PUSH0 CALLER PUSH20 0xFFFFFFFFFFFFFFFFFFFFFFFFFFFFFFFFFFFFFFFF AND PUSH20 0xFFFFFFFFFFFFFFFFFFFFFFFFFFFFFFFFFFFFFFFF AND DUP2 MSTORE PUSH1 0x20 ADD SWAP1 DUP2 MSTORE PUSH1 0x20 ADD PUSH0 KECCAK256 PUSH0 SWAP1 SLOAD SWAP1 PUSH2 0x100 EXP SWAP1 DIV PUSH1 0xFF AND DUP1 PUSH2 0x2CF6 JUMPI POP PUSH1 0x1 PUSH0 SWAP1 SLOAD SWAP1 PUSH2 0x100 EXP SWAP1 DIV PUSH20 0xFFFFFFFFFFFFFFFFFFFFFFFFFFFFFFFFFFFFFFFF AND PUSH20 0xFFFFFFFFFFFFFFFFFFFFFFFFFFFFFFFFFFFFFFFF AND CALLER PUSH20 0xFFFFFFFFFFFFFFFFFFFFFFFFFFFFFFFFFFFFFFFF AND EQ JUMPDEST PUSH2 0x2D35 JUMPI PUSH1 0x40 MLOAD PUSH32 0x8C379A000000000000000000000000000000000000000000000000000000000 DUP2 MSTORE PUSH1 0x4 ADD PUSH2 0x2D2C SWAP1 PUSH2 0x65A1 JUMP JUMPDEST PUSH1 0x40 MLOAD DUP1 SWAP2 SUB SWAP1 REVERT JUMPDEST DUP1 PUSH0 DUP2 GT DUP1 ISZERO PUSH2 0x2D47 JUMPI POP PUSH1 0xA SLOAD DUP2 GT ISZERO JUMPDEST PUSH2 0x2D86 JUMPI PUSH1 0x40 MLOAD PUSH32 0x8C379A000000000000000000000000000000000000000000000000000000000 DUP2 MSTORE PUSH1 0x4 ADD PUSH2 0x2D7D SWAP1 PUSH2 0x5B44 JUMP JUMPDEST PUSH1 0x40 MLOAD DUP1 SWAP2 SUB SWAP1 REVERT JUMPDEST PUSH1 0x6 PUSH0 DUP4 DUP2 MSTORE PUSH1 0x20 ADD SWAP1 DUP2 MSTORE PUSH1 0x20 ADD PUSH0 KECCAK256 PUSH1 0x7 ADD PUSH0 SWAP1 SLOAD SWAP1 PUSH2 0x100 EXP SWAP1 DIV PUSH1 0xFF AND ISZERO PUSH2 0x2DE7 JUMPI PUSH1 0x40 MLOAD PUSH32 0x8C379A000000000000000000000000000000000000000000000000000000000 DUP2 MSTORE PUSH1 0x4 ADD PUSH2 0x2DDE SWAP1 PUSH2 0x6609 JUMP JUMPDEST PUSH1 0x40 MLOAD DUP1 SWAP2 SUB SWAP1 REVERT JUMPDEST PUSH0 PUSH1 0x6 PUSH0 DUP5 DUP2 MSTORE PUSH1 0x20 ADD SWAP1 DUP2 MSTORE PUSH1 0x20 ADD PUSH0 KECCAK256 SWAP1 POP PUSH0 DUP2 PUSH1 0x5 ADD PUSH0 SWAP1 SLOAD SWAP1 PUSH2 0x100 EXP SWAP1 DIV PUSH20 0xFFFFFFFFFFFFFFFFFFFFFFFFFFFFFFFFFFFFFFFF AND SWAP1 POP PUSH0 DUP3 PUSH1 0x6 ADD SLOAD SWAP1 POP DUP2 PUSH20 0xFFFFFFFFFFFFFFFFFFFFFFFFFFFFFFFFFFFFFFFF AND PUSH2 0x8FC DUP3 SWAP1 DUP2 ISZERO MUL SWAP1 PUSH1 0x40 MLOAD PUSH0 PUSH1 0x40 MLOAD DUP1 DUP4 SUB DUP2 DUP6 DUP9 DUP9 CALL SWAP4 POP POP POP POP ISZERO DUP1 ISZERO PUSH2 0x2E6D JUMPI RETURNDATASIZE PUSH0 PUSH0 RETURNDATACOPY RETURNDATASIZE PUSH0 REVERT JUMPDEST POP DUP5 PUSH32 0xC612606C243F65A26073114F9524538384AE2511A1633E88320F611738F54B7 CALLER TIMESTAMP PUSH1 0x40 MLOAD PUSH2 0x2EA0 SWAP3 SWAP2 SWAP1 PUSH2 0x6627 JUMP JUMPDEST PUSH1 0x40 MLOAD DUP1 SWAP2 SUB SWAP1 LOG2 POP POP POP POP POP JUMP JUMPDEST PUSH1 0x1 DUP1 PUSH1 0x6 DUP2 GT ISZERO PUSH2 0x2EC4 JUMPI PUSH2 0x2EC3 PUSH2 0x4A9B JUMP JUMPDEST JUMPDEST PUSH1 0x3 PUSH0 SWAP1 SLOAD SWAP1 PUSH2 0x100 EXP SWAP1 DIV PUSH1 0xFF AND PUSH1 0x6 DUP2 GT ISZERO PUSH2 0x2EE5 JUMPI PUSH2 0x2EE4 PUSH2 0x4A9B JUMP JUMPDEST JUMPDEST EQ PUSH2 0x2F25 JUMPI PUSH1 0x40 MLOAD PUSH32 0x8C379A000000000000000000000000000000000000000000000000000000000 DUP2 MSTORE PUSH1 0x4 ADD PUSH2 0x2F1C SWAP1 PUSH2 0x5BAC JUMP JUMPDEST PUSH1 0x40 MLOAD DUP1 SWAP2 SUB SWAP1 REVERT JUMPDEST PUSH2 0x2F2D PUSH2 0x48A1 JUMP JUMPDEST PUSH7 0x2386F26FC10000 CALLVALUE LT ISZERO PUSH2 0x2F77 JUMPI PUSH1 0x40 MLOAD PUSH32 0x8C379A000000000000000000000000000000000000000000000000000000000 DUP2 MSTORE PUSH1 0x4 ADD PUSH2 0x2F6E SWAP1 PUSH2 0x6698 JUMP JUMPDEST PUSH1 0x40 MLOAD DUP1 SWAP2 SUB SWAP1 REVERT JUMPDEST PUSH0 PUSH1 0x7 PUSH0 CALLER PUSH20 0xFFFFFFFFFFFFFFFFFFFFFFFFFFFFFFFFFFFFFFFF AND PUSH20 0xFFFFFFFFFFFFFFFFFFFFFFFFFFFFFFFFFFFFFFFF AND DUP2 MSTORE PUSH1 0x20 ADD SWAP1 DUP2 MSTORE PUSH1 0x20 ADD PUSH0 KECCAK256 SLOAD EQ PUSH2 0x2FF6 JUMPI PUSH1 0x40 MLOAD PUSH32 0x8C379A000000000000000000000000000000000000000000000000000000000 DUP2 MSTORE PUSH1 0x4 ADD PUSH2 0x2FED SWAP1 PUSH2 0x6700 JUMP JUMPDEST PUSH1 0x40 MLOAD DUP1 SWAP2 SUB SWAP1 REVERT JUMPDEST PUSH0 DUP6 MLOAD GT PUSH2 0x3039 JUMPI PUSH1 0x40 MLOAD PUSH32 0x8C379A000000000000000000000000000000000000000000000000000000000 DUP2 MSTORE PUSH1 0x4 ADD PUSH2 0x3030 SWAP1 PUSH2 0x61BE JUMP JUMPDEST PUSH1 0x40 MLOAD DUP1 SWAP2 SUB SWAP1 REVERT JUMPDEST PUSH0 DUP5 MLOAD GT PUSH2 0x307C JUMPI PUSH1 0x40 MLOAD PUSH32 0x8C379A000000000000000000000000000000000000000000000000000000000 DUP2 MSTORE PUSH1 0x4 ADD PUSH2 0x3073 SWAP1 PUSH2 0x6768 JUMP JUMPDEST PUSH1 0x40 MLOAD DUP1 SWAP2 SUB SWAP1 REVERT JUMPDEST PUSH1 0xA PUSH0 DUP2 SLOAD DUP1 SWAP3 SWAP2 SWAP1 PUSH2 0x308E SWAP1 PUSH2 0x5A15 JUMP JUMPDEST SWAP2 SWAP1 POP SSTORE POP PUSH1 0x40 MLOAD DUP1 PUSH2 0x140 ADD PUSH1 0x40 MSTORE DUP1 PUSH1 0xA SLOAD DUP2 MSTORE PUSH1 0x20 ADD DUP7 DUP2 MSTORE PUSH1 0x20 ADD DUP6 DUP2 MSTORE PUSH1 0x20 ADD DUP5 DUP2 MSTORE PUSH1 0x20 ADD DUP4 DUP2 MSTORE PUSH1 0x20 ADD CALLER PUSH20 0xFFFFFFFFFFFFFFFFFFFFFFFFFFFFFFFFFFFFFFFF AND DUP2 MSTORE PUSH1 0x20 ADD CALLVALUE DUP2 MSTORE PUSH1 0x20 ADD PUSH0 ISZERO ISZERO DUP2 MSTORE PUSH1 0x20 ADD PUSH0 DUP2 MSTORE PUSH1 0x20 ADD TIMESTAMP DUP2 MSTORE POP PUSH1 0x6 PUSH0 PUSH1 0xA SLOAD DUP2 MSTORE PUSH1 0x20 ADD SWAP1 DUP2 MSTORE PUSH1 0x20 ADD PUSH0 KECCAK256 PUSH0 DUP3 ADD MLOAD DUP2 PUSH0 ADD SSTORE PUSH1 0x20 DUP3 ADD MLOAD DUP2 PUSH1 0x1 ADD SWAP1 DUP2 PUSH2 0x3123 SWAP2 SWAP1 PUSH2 0x637C JUMP JUMPDEST POP PUSH1 0x40 DUP3 ADD MLOAD DUP2 PUSH1 0x2 ADD SWAP1 DUP2 PUSH2 0x3139 SWAP2 SWAP1 PUSH2 0x637C JUMP JUMPDEST POP PUSH1 0x60 DUP3 ADD MLOAD DUP2 PUSH1 0x3 ADD SWAP1 DUP2 PUSH2 0x314F SWAP2 SWAP1 PUSH2 0x637C JUMP JUMPDEST POP PUSH1 0x80 DUP3 ADD MLOAD DUP2 PUSH1 0x4 ADD SWAP1 DUP2 PUSH2 0x3165 SWAP2 SWAP1 PUSH2 0x637C JUMP JUMPDEST POP PUSH1 0xA0 DUP3 ADD MLOAD DUP2 PUSH1 0x5 ADD PUSH0 PUSH2 0x100 EXP DUP2 SLOAD DUP2 PUSH20 0xFFFFFFFFFFFFFFFFFFFFFFFFFFFFFFFFFFFFFFFF MUL NOT AND SWAP1 DUP4 PUSH20 0xFFFFFFFFFFFFFFFFFFFFFFFFFFFFFFFFFFFFFFFF AND MUL OR SWAP1 SSTORE POP PUSH1 0xC0 DUP3 ADD MLOAD DUP2 PUSH1 0x6 ADD SSTORE PUSH1 0xE0 DUP3 ADD MLOAD DUP2 PUSH1 0x7 ADD PUSH0 PUSH2 0x100 EXP DUP2 SLOAD DUP2 PUSH1 0xFF MUL NOT AND SWAP1 DUP4 ISZERO ISZERO MUL OR SWAP1 SSTORE POP PUSH2 0x100 DUP3 ADD MLOAD DUP2 PUSH1 0x8 ADD SSTORE PUSH2 0x120 DUP3 ADD MLOAD DUP2 PUSH1 0x9 ADD SSTORE SWAP1 POP POP PUSH1 0xA SLOAD PUSH1 0x7 PUSH0 CALLER PUSH20 0xFFFFFFFFFFFFFFFFFFFFFFFFFFFFFFFFFFFFFFFF AND PUSH20 0xFFFFFFFFFFFFFFFFFFFFFFFFFFFFFFFFFFFFFFFF AND DUP2 MSTORE PUSH1 0x20 ADD SWAP1 DUP2 MSTORE PUSH1 0x20 ADD PUSH0 KECCAK256 DUP2 SWAP1 SSTORE POP PUSH1 0xA SLOAD PUSH32 0x9DA554E597F950619BA1D6D7D925797C571BCFC30E40CFEF81CA74DADC2C79A7 DUP7 DUP7 CALLER TIMESTAMP PUSH1 0x40 MLOAD PUSH2 0x326A SWAP5 SWAP4 SWAP3 SWAP2 SWAP1 PUSH2 0x6786 JUMP JUMPDEST PUSH1 0x40 MLOAD DUP1 SWAP2 SUB SWAP1 LOG2 PUSH2 0x327A PUSH2 0x48EE JUMP JUMPDEST POP POP POP POP POP JUMP JUMPDEST PUSH1 0x4 DUP1 SLOAD PUSH2 0x328E SWAP1 PUSH2 0x5958 JUMP JUMPDEST DUP1 PUSH1 0x1F ADD PUSH1 0x20 DUP1 SWAP2 DIV MUL PUSH1 0x20 ADD PUSH1 0x40 MLOAD SWAP1 DUP2 ADD PUSH1 0x40 MSTORE DUP1 SWAP3 SWAP2 SWAP1 DUP2 DUP2 MSTORE PUSH1 0x20 ADD DUP3 DUP1 SLOAD PUSH2 0x32BA SWAP1 PUSH2 0x5958 JUMP JUMPDEST DUP1 ISZERO PUSH2 0x3305 JUMPI DUP1 PUSH1 0x1F LT PUSH2 0x32DC JUMPI PUSH2 0x100 DUP1 DUP4 SLOAD DIV MUL DUP4 MSTORE SWAP2 PUSH1 0x20 ADD SWAP2 PUSH2 0x3305 JUMP JUMPDEST DUP3 ADD SWAP2 SWAP1 PUSH0 MSTORE PUSH1 0x20 PUSH0 KECCAK256 SWAP1 JUMPDEST DUP2 SLOAD DUP2 MSTORE SWAP1 PUSH1 0x1 ADD SWAP1 PUSH1 0x20 ADD DUP1 DUP4 GT PUSH2 0x32E8 JUMPI DUP3 SWAP1 SUB PUSH1 0x1F AND DUP3 ADD SWAP2 JUMPDEST POP POP POP POP POP DUP2 JUMP JUMPDEST PUSH1 0x60 DUP1 PUSH0 PUSH0 PUSH0 PUSH0 PUSH0 PUSH1 0x4 PUSH1 0x5 PUSH1 0x3 PUSH0 SWAP1 SLOAD SWAP1 PUSH2 0x100 EXP SWAP1 DIV PUSH1 0xFF AND PUSH1 0xA SLOAD PUSH1 0xB SLOAD PUSH1 0xC SLOAD PUSH1 0xD SLOAD DUP7 DUP1 SLOAD PUSH2 0x3340 SWAP1 PUSH2 0x5958 JUMP JUMPDEST DUP1 PUSH1 0x1F ADD PUSH1 0x20 DUP1 SWAP2 DIV MUL PUSH1 0x20 ADD PUSH1 0x40 MLOAD SWAP1 DUP2 ADD PUSH1 0x40 MSTORE DUP1 SWAP3 SWAP2 SWAP1 DUP2 DUP2 MSTORE PUSH1 0x20 ADD DUP3 DUP1 SLOAD PUSH2 0x336C SWAP1 PUSH2 0x5958 JUMP JUMPDEST DUP1 ISZERO PUSH2 0x33B7 JUMPI DUP1 PUSH1 0x1F LT PUSH2 0x338E JUMPI PUSH2 0x100 DUP1 DUP4 SLOAD DIV MUL DUP4 MSTORE SWAP2 PUSH1 0x20 ADD SWAP2 PUSH2 0x33B7 JUMP JUMPDEST DUP3 ADD SWAP2 SWAP1 PUSH0 MSTORE PUSH1 0x20 PUSH0 KECCAK256 SWAP1 JUMPDEST DUP2 SLOAD DUP2 MSTORE SWAP1 PUSH1 0x1 ADD SWAP1 PUSH1 0x20 ADD DUP1 DUP4 GT PUSH2 0x339A JUMPI DUP3 SWAP1 SUB PUSH1 0x1F AND DUP3 ADD SWAP2 JUMPDEST POP POP POP POP POP SWAP7 POP DUP6 DUP1 SLOAD PUSH2 0x33CA SWAP1 PUSH2 0x5958 JUMP JUMPDEST DUP1 PUSH1 0x1F ADD PUSH1 0x20 DUP1 SWAP2 DIV MUL PUSH1 0x20 ADD PUSH1 0x40 MLOAD SWAP1 DUP2 ADD PUSH1 0x40 MSTORE DUP1 SWAP3 SWAP2 SWAP1 DUP2 DUP2 MSTORE PUSH1 0x20 ADD DUP3 DUP1 SLOAD PUSH2 0x33F6 SWAP1 PUSH2 0x5958 JUMP JUMPDEST DUP1 ISZERO PUSH2 0x3441 JUMPI DUP1 PUSH1 0x1F LT PUSH2 0x3418 JUMPI PUSH2 0x100 DUP1 DUP4 SLOAD DIV MUL DUP4 MSTORE SWAP2 PUSH1 0x20 ADD SWAP2 PUSH2 0x3441 JUMP JUMPDEST DUP3 ADD SWAP2 SWAP1 PUSH0 MSTORE PUSH1 0x20 PUSH0 KECCAK256 SWAP1 JUMPDEST DUP2 SLOAD DUP2 MSTORE SWAP1 PUSH1 0x1 ADD SWAP1 PUSH1 0x20 ADD DUP1 DUP4 GT PUSH2 0x3424 JUMPI DUP3 SWAP1 SUB PUSH1 0x1F AND DUP3 ADD SWAP2 JUMPDEST POP POP POP POP POP SWAP6 POP SWAP7 POP SWAP7 POP SWAP7 POP SWAP7 POP SWAP7 POP SWAP7 POP SWAP7 POP SWAP1 SWAP2 SWAP3 SWAP4 SWAP5 SWAP6 SWAP7 JUMP JUMPDEST PUSH1 0x7 PUSH1 0x20 MSTORE DUP1 PUSH0 MSTORE PUSH1 0x40 PUSH0 KECCAK256 PUSH0 SWAP2 POP SWAP1 POP SLOAD DUP2 JUMP JUMPDEST PUSH1 0x60 PUSH0 PUSH0 SWAP1 POP PUSH0 PUSH1 0x1 SWAP1 POP JUMPDEST PUSH1 0xA SLOAD DUP2 GT PUSH2 0x34D1 JUMPI PUSH1 0x6 PUSH0 DUP3 DUP2 MSTORE PUSH1 0x20 ADD SWAP1 DUP2 MSTORE PUSH1 0x20 ADD PUSH0 KECCAK256 PUSH1 0x7 ADD PUSH0 SWAP1 SLOAD SWAP1 PUSH2 0x100 EXP SWAP1 DIV PUSH1 0xFF AND ISZERO PUSH2 0x34BE JUMPI DUP2 DUP1 PUSH2 0x34BA SWAP1 PUSH2 0x5A15 JUMP JUMPDEST SWAP3 POP POP JUMPDEST DUP1 DUP1 PUSH2 0x34C9 SWAP1 PUSH2 0x5A15 JUMP JUMPDEST SWAP2 POP POP PUSH2 0x3480 JUMP JUMPDEST POP PUSH0 DUP2 PUSH8 0xFFFFFFFFFFFFFFFF DUP2 GT ISZERO PUSH2 0x34ED JUMPI PUSH2 0x34EC PUSH2 0x510B JUMP JUMPDEST JUMPDEST PUSH1 0x40 MLOAD SWAP1 DUP1 DUP3 MSTORE DUP1 PUSH1 0x20 MUL PUSH1 0x20 ADD DUP3 ADD PUSH1 0x40 MSTORE DUP1 ISZERO PUSH2 0x3526 JUMPI DUP2 PUSH1 0x20 ADD JUMPDEST PUSH2 0x3513 PUSH2 0x48F7 JUMP JUMPDEST DUP2 MSTORE PUSH1 0x20 ADD SWAP1 PUSH1 0x1 SWAP1 SUB SWAP1 DUP2 PUSH2 0x350B JUMPI SWAP1 POP JUMPDEST POP SWAP1 POP PUSH0 PUSH0 SWAP1 POP PUSH0 PUSH1 0x1 SWAP1 POP JUMPDEST PUSH1 0xA SLOAD DUP2 GT PUSH2 0x3895 JUMPI PUSH1 0x6 PUSH0 DUP3 DUP2 MSTORE PUSH1 0x20 ADD SWAP1 DUP2 MSTORE PUSH1 0x20 ADD PUSH0 KECCAK256 PUSH1 0x7 ADD PUSH0 SWAP1 SLOAD SWAP1 PUSH2 0x100 EXP SWAP1 DIV PUSH1 0xFF AND ISZERO PUSH2 0x3882 JUMPI PUSH1 0x6 PUSH0 DUP3 DUP2 MSTORE PUSH1 0x20 ADD SWAP1 DUP2 MSTORE PUSH1 0x20 ADD PUSH0 KECCAK256 PUSH1 0x40 MLOAD DUP1 PUSH2 0x140 ADD PUSH1 0x40 MSTORE SWAP1 DUP2 PUSH0 DUP3 ADD SLOAD DUP2 MSTORE PUSH1 0x20 ADD PUSH1 0x1 DUP3 ADD DUP1 SLOAD PUSH2 0x3598 SWAP1 PUSH2 0x5958 JUMP JUMPDEST DUP1 PUSH1 0x1F ADD PUSH1 0x20 DUP1 SWAP2 DIV MUL PUSH1 0x20 ADD PUSH1 0x40 MLOAD SWAP1 DUP2 ADD PUSH1 0x40 MSTORE DUP1 SWAP3 SWAP2 SWAP1 DUP2 DUP2 MSTORE PUSH1 0x20 ADD DUP3 DUP1 SLOAD PUSH2 0x35C4 SWAP1 PUSH2 0x5958 JUMP JUMPDEST DUP1 ISZERO PUSH2 0x360F JUMPI DUP1 PUSH1 0x1F LT PUSH2 0x35E6 JUMPI PUSH2 0x100 DUP1 DUP4 SLOAD DIV MUL DUP4 MSTORE SWAP2 PUSH1 0x20 ADD SWAP2 PUSH2 0x360F JUMP JUMPDEST DUP3 ADD SWAP2 SWAP1 PUSH0 MSTORE PUSH1 0x20 PUSH0 KECCAK256 SWAP1 JUMPDEST DUP2 SLOAD DUP2 MSTORE SWAP1 PUSH1 0x1 ADD SWAP1 PUSH1 0x20 ADD DUP1 DUP4 GT PUSH2 0x35F2 JUMPI DUP3 SWAP1 SUB PUSH1 0x1F AND DUP3 ADD SWAP2 JUMPDEST POP POP POP POP POP DUP2 MSTORE PUSH1 0x20 ADD PUSH1 0x2 DUP3 ADD DUP1 SLOAD PUSH2 0x3628 SWAP1 PUSH2 0x5958 JUMP JUMPDEST DUP1 PUSH1 0x1F ADD PUSH1 0x20 DUP1 SWAP2 DIV MUL PUSH1 0x20 ADD PUSH1 0x40 MLOAD SWAP1 DUP2 ADD PUSH1 0x40 MSTORE DUP1 SWAP3 SWAP2 SWAP1 DUP2 DUP2 MSTORE PUSH1 0x20 ADD DUP3 DUP1 SLOAD PUSH2 0x3654 SWAP1 PUSH2 0x5958 JUMP JUMPDEST DUP1 ISZERO PUSH2 0x369F JUMPI DUP1 PUSH1 0x1F LT PUSH2 0x3676 JUMPI PUSH2 0x100 DUP1 DUP4 SLOAD DIV MUL DUP4 MSTORE SWAP2 PUSH1 0x20 ADD SWAP2 PUSH2 0x369F JUMP JUMPDEST DUP3 ADD SWAP2 SWAP1 PUSH0 MSTORE PUSH1 0x20 PUSH0 KECCAK256 SWAP1 JUMPDEST DUP2 SLOAD DUP2 MSTORE SWAP1 PUSH1 0x1 ADD SWAP1 PUSH1 0x20 ADD DUP1 DUP4 GT PUSH2 0x3682 JUMPI DUP3 SWAP1 SUB PUSH1 0x1F AND DUP3 ADD SWAP2 JUMPDEST POP POP POP POP POP DUP2 MSTORE PUSH1 0x20 ADD PUSH1 0x3 DUP3 ADD DUP1 SLOAD PUSH2 0x36B8 SWAP1 PUSH2 0x5958 JUMP JUMPDEST DUP1 PUSH1 0x1F ADD PUSH1 0x20 DUP1 SWAP2 DIV MUL PUSH1 0x20 ADD PUSH1 0x40 MLOAD SWAP1 DUP2 ADD PUSH1 0x40 MSTORE DUP1 SWAP3 SWAP2 SWAP1 DUP2 DUP2 MSTORE PUSH1 0x20 ADD DUP3 DUP1 SLOAD PUSH2 0x36E4 SWAP1 PUSH2 0x5958 JUMP JUMPDEST DUP1 ISZERO PUSH2 0x372F JUMPI DUP1 PUSH1 0x1F LT PUSH2 0x3706 JUMPI PUSH2 0x100 DUP1 DUP4 SLOAD DIV MUL DUP4 MSTORE SWAP2 PUSH1 0x20 ADD SWAP2 PUSH2 0x372F JUMP JUMPDEST DUP3 ADD SWAP2 SWAP1 PUSH0 MSTORE PUSH1 0x20 PUSH0 KECCAK256 SWAP1 JUMPDEST DUP2 SLOAD DUP2 MSTORE SWAP1 PUSH1 0x1 ADD SWAP1 PUSH1 0x20 ADD DUP1 DUP4 GT PUSH2 0x3712 JUMPI DUP3 SWAP1 SUB PUSH1 0x1F AND DUP3 ADD SWAP2 JUMPDEST POP POP POP POP POP DUP2 MSTORE PUSH1 0x20 ADD PUSH1 0x4 DUP3 ADD DUP1 SLOAD PUSH2 0x3748 SWAP1 PUSH2 0x5958 JUMP JUMPDEST DUP1 PUSH1 0x1F ADD PUSH1 0x20 DUP1 SWAP2 DIV MUL PUSH1 0x20 ADD PUSH1 0x40 MLOAD SWAP1 DUP2 ADD PUSH1 0x40 MSTORE DUP1 SWAP3 SWAP2 SWAP1 DUP2 DUP2 MSTORE PUSH1 0x20 ADD DUP3 DUP1 SLOAD PUSH2 0x3774 SWAP1 PUSH2 0x5958 JUMP JUMPDEST DUP1 ISZERO PUSH2 0x37BF JUMPI DUP1 PUSH1 0x1F LT PUSH2 0x3796 JUMPI PUSH2 0x100 DUP1 DUP4 SLOAD DIV MUL DUP4 MSTORE SWAP2 PUSH1 0x20 ADD SWAP2 PUSH2 0x37BF JUMP JUMPDEST DUP3 ADD SWAP2 SWAP1 PUSH0 MSTORE PUSH1 0x20 PUSH0 KECCAK256 SWAP1 JUMPDEST DUP2 SLOAD DUP2 MSTORE SWAP1 PUSH1 0x1 ADD SWAP1 PUSH1 0x20 ADD DUP1 DUP4 GT PUSH2 0x37A2 JUMPI DUP3 SWAP1 SUB PUSH1 0x1F AND DUP3 ADD SWAP2 JUMPDEST POP POP POP POP POP DUP2 MSTORE PUSH1 0x20 ADD PUSH1 0x5 DUP3 ADD PUSH0 SWAP1 SLOAD SWAP1 PUSH2 0x100 EXP SWAP1 DIV PUSH20 0xFFFFFFFFFFFFFFFFFFFFFFFFFFFFFFFFFFFFFFFF AND PUSH20 0xFFFFFFFFFFFFFFFFFFFFFFFFFFFFFFFFFFFFFFFF AND PUSH20 0xFFFFFFFFFFFFFFFFFFFFFFFFFFFFFFFFFFFFFFFF AND DUP2 MSTORE PUSH1 0x20 ADD PUSH1 0x6 DUP3 ADD SLOAD DUP2 MSTORE PUSH1 0x20 ADD PUSH1 0x7 DUP3 ADD PUSH0 SWAP1 SLOAD SWAP1 PUSH2 0x100 EXP SWAP1 DIV PUSH1 0xFF AND ISZERO ISZERO ISZERO ISZERO DUP2 MSTORE PUSH1 0x20 ADD PUSH1 0x8 DUP3 ADD SLOAD DUP2 MSTORE PUSH1 0x20 ADD PUSH1 0x9 DUP3 ADD SLOAD DUP2 MSTORE POP POP DUP4 DUP4 DUP2 MLOAD DUP2 LT PUSH2 0x3868 JUMPI PUSH2 0x3867 PUSH2 0x59E8 JUMP JUMPDEST JUMPDEST PUSH1 0x20 MUL PUSH1 0x20 ADD ADD DUP2 SWAP1 MSTORE POP DUP2 DUP1 PUSH2 0x387E SWAP1 PUSH2 0x5A15 JUMP JUMPDEST SWAP3 POP POP JUMPDEST DUP1 DUP1 PUSH2 0x388D SWAP1 PUSH2 0x5A15 JUMP JUMPDEST SWAP2 POP POP PUSH2 0x3533 JUMP JUMPDEST POP DUP2 SWAP4 POP POP POP POP SWAP1 JUMP JUMPDEST PUSH1 0x1 PUSH0 SWAP1 SLOAD SWAP1 PUSH2 0x100 EXP SWAP1 DIV PUSH20 0xFFFFFFFFFFFFFFFFFFFFFFFFFFFFFFFFFFFFFFFF AND PUSH20 0xFFFFFFFFFFFFFFFFFFFFFFFFFFFFFFFFFFFFFFFF AND CALLER PUSH20 0xFFFFFFFFFFFFFFFFFFFFFFFFFFFFFFFFFFFFFFFF AND EQ PUSH2 0x392E JUMPI PUSH1 0x40 MLOAD PUSH32 0x8C379A000000000000000000000000000000000000000000000000000000000 DUP2 MSTORE PUSH1 0x4 ADD PUSH2 0x3925 SWAP1 PUSH2 0x576D JUMP JUMPDEST PUSH1 0x40 MLOAD DUP1 SWAP2 SUB SWAP1 REVERT JUMPDEST PUSH0 PUSH1 0x3 PUSH0 SWAP1 SLOAD SWAP1 PUSH2 0x100 EXP SWAP1 DIV PUSH1 0xFF AND SWAP1 POP DUP2 PUSH1 0x3 PUSH0 PUSH2 0x100 EXP DUP2 SLOAD DUP2 PUSH1 0xFF MUL NOT AND SWAP1 DUP4 PUSH1 0x6 DUP2 GT ISZERO PUSH2 0x3964 JUMPI PUSH2 0x3963 PUSH2 0x4A9B JUMP JUMPDEST JUMPDEST MUL OR SWAP1 SSTORE POP PUSH32 0xB070F30564C7F6B4417CBAD108E44DEEF775FBE1F133668303BD71B13497AC4A DUP2 DUP4 TIMESTAMP PUSH1 0x40 MLOAD PUSH2 0x399C SWAP4 SWAP3 SWAP2 SWAP1 PUSH2 0x67D7 JUMP JUMPDEST PUSH1 0x40 MLOAD DUP1 SWAP2 SUB SWAP1 LOG1 POP POP JUMP JUMPDEST PUSH0 PUSH1 0x60 PUSH0 PUSH0 PUSH1 0xC SLOAD GT PUSH2 0x39F0 JUMPI PUSH1 0x40 MLOAD PUSH32 0x8C379A000000000000000000000000000000000000000000000000000000000 DUP2 MSTORE PUSH1 0x4 ADD PUSH2 0x39E7 SWAP1 PUSH2 0x6856 JUMP JUMPDEST PUSH1 0x40 MLOAD DUP1 SWAP2 SUB SWAP1 REVERT JUMPDEST PUSH0 PUSH0 SWAP1 POP PUSH0 PUSH0 SWAP1 POP PUSH0 PUSH1 0x1 SWAP1 POP JUMPDEST PUSH1 0xA SLOAD DUP2 GT PUSH2 0x3A7A JUMPI PUSH1 0x6 PUSH0 DUP3 DUP2 MSTORE PUSH1 0x20 ADD SWAP1 DUP2 MSTORE PUSH1 0x20 ADD PUSH0 KECCAK256 PUSH1 0x7 ADD PUSH0 SWAP1 SLOAD SWAP1 PUSH2 0x100 EXP SWAP1 DIV PUSH1 0xFF AND DUP1 ISZERO PUSH2 0x3A47 JUMPI POP DUP3 PUSH1 0x6 PUSH0 DUP4 DUP2 MSTORE PUSH1 0x20 ADD SWAP1 DUP2 MSTORE PUSH1 0x20 ADD PUSH0 KECCAK256 PUSH1 0x8 ADD SLOAD GT JUMPDEST ISZERO PUSH2 0x3A67 JUMPI PUSH1 0x6 PUSH0 DUP3 DUP2 MSTORE PUSH1 0x20 ADD SWAP1 DUP2 MSTORE PUSH1 0x20 ADD PUSH0 KECCAK256 PUSH1 0x8 ADD SLOAD SWAP3 POP DUP1 SWAP2 POP JUMPDEST DUP1 DUP1 PUSH2 0x3A72 SWAP1 PUSH2 0x5A15 JUMP JUMPDEST SWAP2 POP POP PUSH2 0x39FE JUMP JUMPDEST POP PUSH0 DUP2 GT PUSH2 0x3ABD JUMPI PUSH1 0x40 MLOAD PUSH32 0x8C379A000000000000000000000000000000000000000000000000000000000 DUP2 MSTORE PUSH1 0x4 ADD PUSH2 0x3AB4 SWAP1 PUSH2 0x68BE JUMP JUMPDEST PUSH1 0x40 MLOAD DUP1 SWAP2 SUB SWAP1 REVERT JUMPDEST DUP1 PUSH1 0x6 PUSH0 DUP4 DUP2 MSTORE PUSH1 0x20 ADD SWAP1 DUP2 MSTORE PUSH1 0x20 ADD PUSH0 KECCAK256 PUSH1 0x1 ADD DUP4 DUP2 DUP1 SLOAD PUSH2 0x3ADF SWAP1 PUSH2 0x5958 JUMP JUMPDEST DUP1 PUSH1 0x1F ADD PUSH1 0x20 DUP1 SWAP2 DIV MUL PUSH1 0x20 ADD PUSH1 0x40 MLOAD SWAP1 DUP2 ADD PUSH1 0x40 MSTORE DUP1 SWAP3 SWAP2 SWAP1 DUP2 DUP2 MSTORE PUSH1 0x20 ADD DUP3 DUP1 SLOAD PUSH2 0x3B0B SWAP1 PUSH2 0x5958 JUMP JUMPDEST DUP1 ISZERO PUSH2 0x3B56 JUMPI DUP1 PUSH1 0x1F LT PUSH2 0x3B2D JUMPI PUSH2 0x100 DUP1 DUP4 SLOAD DIV MUL DUP4 MSTORE SWAP2 PUSH1 0x20 ADD SWAP2 PUSH2 0x3B56 JUMP JUMPDEST DUP3 ADD SWAP2 SWAP1 PUSH0 MSTORE PUSH1 0x20 PUSH0 KECCAK256 SWAP1 JUMPDEST DUP2 SLOAD DUP2 MSTORE SWAP1 PUSH1 0x1 ADD SWAP1 PUSH1 0x20 ADD DUP1 DUP4 GT PUSH2 0x3B39 JUMPI DUP3 SWAP1 SUB PUSH1 0x1F AND DUP3 ADD SWAP2 JUMPDEST POP POP POP POP POP SWAP2 POP SWAP5 POP SWAP5 POP SWAP5 POP POP POP SWAP1 SWAP2 SWAP3 JUMP JUMPDEST PUSH1 0x10 SLOAD DUP2 JUMP JUMPDEST PUSH1 0x2 PUSH0 CALLER PUSH20 0xFFFFFFFFFFFFFFFFFFFFFFFFFFFFFFFFFFFFFFFF AND PUSH20 0xFFFFFFFFFFFFFFFFFFFFFFFFFFFFFFFFFFFFFFFF AND DUP2 MSTORE PUSH1 0x20 ADD SWAP1 DUP2 MSTORE PUSH1 0x20 ADD PUSH0 KECCAK256 PUSH0 SWAP1 SLOAD SWAP1 PUSH2 0x100 EXP SWAP1 DIV PUSH1 0xFF AND DUP1 PUSH2 0x3C11 JUMPI POP PUSH1 0x1 PUSH0 SWAP1 SLOAD SWAP1 PUSH2 0x100 EXP SWAP1 DIV PUSH20 0xFFFFFFFFFFFFFFFFFFFFFFFFFFFFFFFFFFFFFFFF AND PUSH20 0xFFFFFFFFFFFFFFFFFFFFFFFFFFFFFFFFFFFFFFFF AND CALLER PUSH20 0xFFFFFFFFFFFFFFFFFFFFFFFFFFFFFFFFFFFFFFFF AND EQ JUMPDEST PUSH2 0x3C50 JUMPI PUSH1 0x40 MLOAD PUSH32 0x8C379A000000000000000000000000000000000000000000000000000000000 DUP2 MSTORE PUSH1 0x4 ADD PUSH2 0x3C47 SWAP1 PUSH2 0x65A1 JUMP JUMPDEST PUSH1 0x40 MLOAD DUP1 SWAP2 SUB SWAP1 REVERT JUMPDEST DUP1 PUSH0 DUP2 GT DUP1 ISZERO PUSH2 0x3C62 JUMPI POP PUSH1 0xB SLOAD DUP2 GT ISZERO JUMPDEST PUSH2 0x3CA1 JUMPI PUSH1 0x40 MLOAD PUSH32 0x8C379A000000000000000000000000000000000000000000000000000000000 DUP2 MSTORE PUSH1 0x4 ADD PUSH2 0x3C98 SWAP1 PUSH2 0x6926 JUMP JUMPDEST PUSH1 0x40 MLOAD DUP1 SWAP2 SUB SWAP1 REVERT JUMPDEST PUSH1 0x8 PUSH0 DUP4 DUP2 MSTORE PUSH1 0x20 ADD SWAP1 DUP2 MSTORE PUSH1 0x20 ADD PUSH0 KECCAK256 PUSH1 0x4 ADD PUSH1 0x14 SWAP1 SLOAD SWAP1 PUSH2 0x100 EXP SWAP1 DIV PUSH1 0xFF AND ISZERO PUSH2 0x3D03 JUMPI PUSH1 0x40 MLOAD PUSH32 0x8C379A000000000000000000000000000000000000000000000000000000000 DUP2 MSTORE PUSH1 0x4 ADD PUSH2 0x3CFA SWAP1 PUSH2 0x698E JUMP JUMPDEST PUSH1 0x40 MLOAD DUP1 SWAP2 SUB SWAP1 REVERT JUMPDEST PUSH1 0x1 PUSH1 0x8 PUSH0 DUP5 DUP2 MSTORE PUSH1 0x20 ADD SWAP1 DUP2 MSTORE PUSH1 0x20 ADD PUSH0 KECCAK256 PUSH1 0x4 ADD PUSH1 0x14 PUSH2 0x100 EXP DUP2 SLOAD DUP2 PUSH1 0xFF MUL NOT AND SWAP1 DUP4 ISZERO ISZERO MUL OR SWAP1 SSTORE POP DUP2 PUSH32 0x77E0F3C307D22573326B9FE794048CA2137A56DE0195CF3DB5606ADB8A6586B9 CALLER TIMESTAMP PUSH1 0x40 MLOAD PUSH2 0x3D62 SWAP3 SWAP2 SWAP1 PUSH2 0x6627 JUMP JUMPDEST PUSH1 0x40 MLOAD DUP1 SWAP2 SUB SWAP1 LOG2 POP POP JUMP JUMPDEST PUSH1 0xA SLOAD DUP2 JUMP JUMPDEST PUSH1 0x2 PUSH1 0x20 MSTORE DUP1 PUSH0 MSTORE PUSH1 0x40 PUSH0 KECCAK256 PUSH0 SWAP2 POP SLOAD SWAP1 PUSH2 0x100 EXP SWAP1 DIV PUSH1 0xFF AND DUP2 JUMP JUMPDEST PUSH1 0x3 DUP1 PUSH1 0x6 DUP2 GT ISZERO PUSH2 0x3DA6 JUMPI PUSH2 0x3DA5 PUSH2 0x4A9B JUMP JUMPDEST JUMPDEST PUSH1 0x3 PUSH0 SWAP1 SLOAD SWAP1 PUSH2 0x100 EXP SWAP1 DIV PUSH1 0xFF AND PUSH1 0x6 DUP2 GT ISZERO PUSH2 0x3DC7 JUMPI PUSH2 0x3DC6 PUSH2 0x4A9B JUMP JUMPDEST JUMPDEST EQ PUSH2 0x3E07 JUMPI PUSH1 0x40 MLOAD PUSH32 0x8C379A000000000000000000000000000000000000000000000000000000000 DUP2 MSTORE PUSH1 0x4 ADD PUSH2 0x3DFE SWAP1 PUSH2 0x5BAC JUMP JUMPDEST PUSH1 0x40 MLOAD DUP1 SWAP2 SUB SWAP1 REVERT JUMPDEST PUSH0 PUSH1 0x7 PUSH0 CALLER PUSH20 0xFFFFFFFFFFFFFFFFFFFFFFFFFFFFFFFFFFFFFFFF AND PUSH20 0xFFFFFFFFFFFFFFFFFFFFFFFFFFFFFFFFFFFFFFFF AND DUP2 MSTORE PUSH1 0x20 ADD SWAP1 DUP2 MSTORE PUSH1 0x20 ADD PUSH0 KECCAK256 SLOAD SWAP1 POP PUSH0 DUP2 GT PUSH2 0x3E8A JUMPI PUSH1 0x40 MLOAD PUSH32 0x8C379A000000000000000000000000000000000000000000000000000000000 DUP2 MSTORE PUSH1 0x4 ADD PUSH2 0x3E81 SWAP1 PUSH2 0x69F6 JUMP JUMPDEST PUSH1 0x40 MLOAD DUP1 SWAP2 SUB SWAP1 REVERT JUMPDEST PUSH1 0x6 PUSH0 DUP3 DUP2 MSTORE PUSH1 0x20 ADD SWAP1 DUP2 MSTORE PUSH1 0x20 ADD PUSH0 KECCAK256 PUSH1 0x7 ADD PUSH0 SWAP1 SLOAD SWAP1 PUSH2 0x100 EXP SWAP1 DIV PUSH1 0xFF AND PUSH2 0x3EEA JUMPI PUSH1 0x40 MLOAD PUSH32 0x8C379A000000000000000000000000000000000000000000000000000000000 DUP2 MSTORE PUSH1 0x4 ADD PUSH2 0x3EE1 SWAP1 PUSH2 0x5D4C JUMP JUMPDEST PUSH1 0x40 MLOAD DUP1 SWAP2 SUB SWAP1 REVERT JUMPDEST DUP3 PUSH1 0x6 PUSH0 DUP4 DUP2 MSTORE PUSH1 0x20 ADD SWAP1 DUP2 MSTORE PUSH1 0x20 ADD PUSH0 KECCAK256 PUSH1 0x4 ADD SWAP1 DUP2 PUSH2 0x3F0B SWAP2 SWAP1 PUSH2 0x637C JUMP JUMPDEST POP DUP1 PUSH32 0xF9222FF17404785BE01982106FE54CC7E96C57AD01AB55FD63EED959BBC7DB1D TIMESTAMP PUSH1 0x40 MLOAD PUSH2 0x3F3C SWAP2 SWAP1 PUSH2 0x4B3F JUMP JUMPDEST PUSH1 0x40 MLOAD DUP1 SWAP2 SUB SWAP1 LOG2 POP POP POP JUMP JUMPDEST PUSH1 0x12 DUP2 JUMP JUMPDEST PUSH1 0x1 PUSH0 SWAP1 SLOAD SWAP1 PUSH2 0x100 EXP SWAP1 DIV PUSH20 0xFFFFFFFFFFFFFFFFFFFFFFFFFFFFFFFFFFFFFFFF AND DUP2 JUMP JUMPDEST PUSH2 0x3F7B PUSH2 0x495C JUMP JUMPDEST DUP2 PUSH0 DUP2 GT DUP1 ISZERO PUSH2 0x3F8D JUMPI POP PUSH1 0xB SLOAD DUP2 GT ISZERO JUMPDEST PUSH2 0x3FCC JUMPI PUSH1 0x40 MLOAD PUSH32 0x8C379A000000000000000000000000000000000000000000000000000000000 DUP2 MSTORE PUSH1 0x4 ADD PUSH2 0x3FC3 SWAP1 PUSH2 0x6926 JUMP JUMPDEST PUSH1 0x40 MLOAD DUP1 SWAP2 SUB SWAP1 REVERT JUMPDEST PUSH1 0x8 PUSH0 DUP5 DUP2 MSTORE PUSH1 0x20 ADD SWAP1 DUP2 MSTORE PUSH1 0x20 ADD PUSH0 KECCAK256 PUSH1 0x40 MLOAD DUP1 PUSH2 0x120 ADD PUSH1 0x40 MSTORE SWAP1 DUP2 PUSH0 DUP3 ADD SLOAD DUP2 MSTORE PUSH1 0x20 ADD PUSH1 0x1 DUP3 ADD DUP1 SLOAD PUSH2 0x4002 SWAP1 PUSH2 0x5958 JUMP JUMPDEST DUP1 PUSH1 0x1F ADD PUSH1 0x20 DUP1 SWAP2 DIV MUL PUSH1 0x20 ADD PUSH1 0x40 MLOAD SWAP1 DUP2 ADD PUSH1 0x40 MSTORE DUP1 SWAP3 SWAP2 SWAP1 DUP2 DUP2 MSTORE PUSH1 0x20 ADD DUP3 DUP1 SLOAD PUSH2 0x402E SWAP1 PUSH2 0x5958 JUMP JUMPDEST DUP1 ISZERO PUSH2 0x4079 JUMPI DUP1 PUSH1 0x1F LT PUSH2 0x4050 JUMPI PUSH2 0x100 DUP1 DUP4 SLOAD DIV MUL DUP4 MSTORE SWAP2 PUSH1 0x20 ADD SWAP2 PUSH2 0x4079 JUMP JUMPDEST DUP3 ADD SWAP2 SWAP1 PUSH0 MSTORE PUSH1 0x20 PUSH0 KECCAK256 SWAP1 JUMPDEST DUP2 SLOAD DUP2 MSTORE SWAP1 PUSH1 0x1 ADD SWAP1 PUSH1 0x20 ADD DUP1 DUP4 GT PUSH2 0x405C JUMPI DUP3 SWAP1 SUB PUSH1 0x1F AND DUP3 ADD SWAP2 JUMPDEST POP POP POP POP POP DUP2 MSTORE PUSH1 0x20 ADD PUSH1 0x2 DUP3 ADD SLOAD DUP2 MSTORE PUSH1 0x20 ADD PUSH1 0x3 DUP3 ADD DUP1 SLOAD PUSH2 0x409C SWAP1 PUSH2 0x5958 JUMP JUMPDEST DUP1 PUSH1 0x1F ADD PUSH1 0x20 DUP1 SWAP2 DIV MUL PUSH1 0x20 ADD PUSH1 0x40 MLOAD SWAP1 DUP2 ADD PUSH1 0x40 MSTORE DUP1 SWAP3 SWAP2 SWAP1 DUP2 DUP2 MSTORE PUSH1 0x20 ADD DUP3 DUP1 SLOAD PUSH2 0x40C8 SWAP1 PUSH2 0x5958 JUMP JUMPDEST DUP1 ISZERO PUSH2 0x4113 JUMPI DUP1 PUSH1 0x1F LT PUSH2 0x40EA JUMPI PUSH2 0x100 DUP1 DUP4 SLOAD DIV MUL DUP4 MSTORE SWAP2 PUSH1 0x20 ADD SWAP2 PUSH2 0x4113 JUMP JUMPDEST DUP3 ADD SWAP2 SWAP1 PUSH0 MSTORE PUSH1 0x20 PUSH0 KECCAK256 SWAP1 JUMPDEST DUP2 SLOAD DUP2 MSTORE SWAP1 PUSH1 0x1 ADD SWAP1 PUSH1 0x20 ADD DUP1 DUP4 GT PUSH2 0x40F6 JUMPI DUP3 SWAP1 SUB PUSH1 0x1F AND DUP3 ADD SWAP2 JUMPDEST POP POP POP POP POP DUP2 MSTORE PUSH1 0x20 ADD PUSH1 0x4 DUP3 ADD PUSH0 SWAP1 SLOAD SWAP1 PUSH2 0x100 EXP SWAP1 DIV PUSH20 0xFFFFFFFFFFFFFFFFFFFFFFFFFFFFFFFFFFFFFFFF AND PUSH20 0xFFFFFFFFFFFFFFFFFFFFFFFFFFFFFFFFFFFFFFFF AND PUSH20 0xFFFFFFFFFFFFFFFFFFFFFFFFFFFFFFFFFFFFFFFF AND DUP2 MSTORE PUSH1 0x20 ADD PUSH1 0x4 DUP3 ADD PUSH1 0x14 SWAP1 SLOAD SWAP1 PUSH2 0x100 EXP SWAP1 DIV PUSH1 0xFF AND ISZERO ISZERO ISZERO ISZERO DUP2 MSTORE PUSH1 0x20 ADD PUSH1 0x4 DUP3 ADD PUSH1 0x15 SWAP1 SLOAD SWAP1 PUSH2 0x100 EXP SWAP1 DIV PUSH1 0xFF AND ISZERO ISZERO ISZERO ISZERO DUP2 MSTORE PUSH1 0x20 ADD PUSH1 0x5 DUP3 ADD SLOAD DUP2 MSTORE PUSH1 0x20 ADD PUSH1 0x6 DUP3 ADD SLOAD DUP2 MSTORE POP POP SWAP2 POP POP SWAP2 SWAP1 POP JUMP JUMPDEST PUSH1 0x8 PUSH1 0x20 MSTORE DUP1 PUSH0 MSTORE PUSH1 0x40 PUSH0 KECCAK256 PUSH0 SWAP2 POP SWAP1 POP DUP1 PUSH0 ADD SLOAD SWAP1 DUP1 PUSH1 0x1 ADD DUP1 SLOAD PUSH2 0x41E8 SWAP1 PUSH2 0x5958 JUMP JUMPDEST DUP1 PUSH1 0x1F ADD PUSH1 0x20 DUP1 SWAP2 DIV MUL PUSH1 0x20 ADD PUSH1 0x40 MLOAD SWAP1 DUP2 ADD PUSH1 0x40 MSTORE DUP1 SWAP3 SWAP2 SWAP1 DUP2 DUP2 MSTORE PUSH1 0x20 ADD DUP3 DUP1 SLOAD PUSH2 0x4214 SWAP1 PUSH2 0x5958 JUMP JUMPDEST DUP1 ISZERO PUSH2 0x425F JUMPI DUP1 PUSH1 0x1F LT PUSH2 0x4236 JUMPI PUSH2 0x100 DUP1 DUP4 SLOAD DIV MUL DUP4 MSTORE SWAP2 PUSH1 0x20 ADD SWAP2 PUSH2 0x425F JUMP JUMPDEST DUP3 ADD SWAP2 SWAP1 PUSH0 MSTORE PUSH1 0x20 PUSH0 KECCAK256 SWAP1 JUMPDEST DUP2 SLOAD DUP2 MSTORE SWAP1 PUSH1 0x1 ADD SWAP1 PUSH1 0x20 ADD DUP1 DUP4 GT PUSH2 0x4242 JUMPI DUP3 SWAP1 SUB PUSH1 0x1F AND DUP3 ADD SWAP2 JUMPDEST POP POP POP POP POP SWAP1 DUP1 PUSH1 0x2 ADD SLOAD SWAP1 DUP1 PUSH1 0x3 ADD DUP1 SLOAD PUSH2 0x427A SWAP1 PUSH2 0x5958 JUMP JUMPDEST DUP1 PUSH1 0x1F ADD PUSH1 0x20 DUP1 SWAP2 DIV MUL PUSH1 0x20 ADD PUSH1 0x40 MLOAD SWAP1 DUP2 ADD PUSH1 0x40 MSTORE DUP1 SWAP3 SWAP2 SWAP1 DUP2 DUP2 MSTORE PUSH1 0x20 ADD DUP3 DUP1 SLOAD PUSH2 0x42A6 SWAP1 PUSH2 0x5958 JUMP JUMPDEST DUP1 ISZERO PUSH2 0x42F1 JUMPI DUP1 PUSH1 0x1F LT PUSH2 0x42C8 JUMPI PUSH2 0x100 DUP1 DUP4 SLOAD DIV MUL DUP4 MSTORE SWAP2 PUSH1 0x20 ADD SWAP2 PUSH2 0x42F1 JUMP JUMPDEST DUP3 ADD SWAP2 SWAP1 PUSH0 MSTORE PUSH1 0x20 PUSH0 KECCAK256 SWAP1 JUMPDEST DUP2 SLOAD DUP2 MSTORE SWAP1 PUSH1 0x1 ADD SWAP1 PUSH1 0x20 ADD DUP1 DUP4 GT PUSH2 0x42D4 JUMPI DUP3 SWAP1 SUB PUSH1 0x1F AND DUP3 ADD SWAP2 JUMPDEST POP POP POP POP POP SWAP1 DUP1 PUSH1 0x4 ADD PUSH0 SWAP1 SLOAD SWAP1 PUSH2 0x100 EXP SWAP1 DIV PUSH20 0xFFFFFFFFFFFFFFFFFFFFFFFFFFFFFFFFFFFFFFFF AND SWAP1 DUP1 PUSH1 0x4 ADD PUSH1 0x14 SWAP1 SLOAD SWAP1 PUSH2 0x100 EXP SWAP1 DIV PUSH1 0xFF AND SWAP1 DUP1 PUSH1 0x4 ADD PUSH1 0x15 SWAP1 SLOAD SWAP1 PUSH2 0x100 EXP SWAP1 DIV PUSH1 0xFF AND SWAP1 DUP1 PUSH1 0x5 ADD SLOAD SWAP1 DUP1 PUSH1 0x6 ADD SLOAD SWAP1 POP DUP10 JUMP JUMPDEST PUSH1 0x2 PUSH0 CALLER PUSH20 0xFFFFFFFFFFFFFFFFFFFFFFFFFFFFFFFFFFFFFFFF AND PUSH20 0xFFFFFFFFFFFFFFFFFFFFFFFFFFFFFFFFFFFFFFFF AND DUP2 MSTORE PUSH1 0x20 ADD SWAP1 DUP2 MSTORE PUSH1 0x20 ADD PUSH0 KECCAK256 PUSH0 SWAP1 SLOAD SWAP1 PUSH2 0x100 EXP SWAP1 DIV PUSH1 0xFF AND DUP1 PUSH2 0x43F3 JUMPI POP PUSH1 0x1 PUSH0 SWAP1 SLOAD SWAP1 PUSH2 0x100 EXP SWAP1 DIV PUSH20 0xFFFFFFFFFFFFFFFFFFFFFFFFFFFFFFFFFFFFFFFF AND PUSH20 0xFFFFFFFFFFFFFFFFFFFFFFFFFFFFFFFFFFFFFFFF AND CALLER PUSH20 0xFFFFFFFFFFFFFFFFFFFFFFFFFFFFFFFFFFFFFFFF AND EQ JUMPDEST PUSH2 0x4432 JUMPI PUSH1 0x40 MLOAD PUSH32 0x8C379A000000000000000000000000000000000000000000000000000000000 DUP2 MSTORE PUSH1 0x4 ADD PUSH2 0x4429 SWAP1 PUSH2 0x65A1 JUMP JUMPDEST PUSH1 0x40 MLOAD DUP1 SWAP2 SUB SWAP1 REVERT JUMPDEST DUP1 PUSH0 DUP2 GT DUP1 ISZERO PUSH2 0x4444 JUMPI POP PUSH1 0xB SLOAD DUP2 GT ISZERO JUMPDEST PUSH2 0x4483 JUMPI PUSH1 0x40 MLOAD PUSH32 0x8C379A000000000000000000000000000000000000000000000000000000000 DUP2 MSTORE PUSH1 0x4 ADD PUSH2 0x447A SWAP1 PUSH2 0x6926 JUMP JUMPDEST PUSH1 0x40 MLOAD DUP1 SWAP2 SUB SWAP1 REVERT JUMPDEST PUSH1 0x8 PUSH0 DUP4 DUP2 MSTORE PUSH1 0x20 ADD SWAP1 DUP2 MSTORE PUSH1 0x20 ADD PUSH0 KECCAK256 PUSH1 0x4 ADD PUSH1 0x14 SWAP1 SLOAD SWAP1 PUSH2 0x100 EXP SWAP1 DIV PUSH1 0xFF AND ISZERO PUSH2 0x44E5 JUMPI PUSH1 0x40 MLOAD PUSH32 0x8C379A000000000000000000000000000000000000000000000000000000000 DUP2 MSTORE PUSH1 0x4 ADD PUSH2 0x44DC SWAP1 PUSH2 0x698E JUMP JUMPDEST PUSH1 0x40 MLOAD DUP1 SWAP2 SUB SWAP1 REVERT JUMPDEST DUP2 PUSH32 0x29D4DA9625AEC53F70E486F3CD1A047FE2D2205CB13D390F604C0346A83FD607 CALLER TIMESTAMP PUSH1 0x40 MLOAD PUSH2 0x4517 SWAP3 SWAP2 SWAP1 PUSH2 0x6627 JUMP JUMPDEST PUSH1 0x40 MLOAD DUP1 SWAP2 SUB SWAP1 LOG2 POP POP JUMP JUMPDEST PUSH7 0x2386F26FC10000 DUP2 JUMP JUMPDEST PUSH1 0x1 PUSH0 SWAP1 SLOAD SWAP1 PUSH2 0x100 EXP SWAP1 DIV PUSH20 0xFFFFFFFFFFFFFFFFFFFFFFFFFFFFFFFFFFFFFFFF AND PUSH20 0xFFFFFFFFFFFFFFFFFFFFFFFFFFFFFFFFFFFFFFFF AND CALLER PUSH20 0xFFFFFFFFFFFFFFFFFFFFFFFFFFFFFFFFFFFFFFFF AND EQ PUSH2 0x45BD JUMPI PUSH1 0x40 MLOAD PUSH32 0x8C379A000000000000000000000000000000000000000000000000000000000 DUP2 MSTORE PUSH1 0x4 ADD PUSH2 0x45B4 SWAP1 PUSH2 0x576D JUMP JUMPDEST PUSH1 0x40 MLOAD DUP1 SWAP2 SUB SWAP1 REVERT JUMPDEST PUSH1 0x6 DUP1 PUSH1 0x6 DUP2 GT ISZERO PUSH2 0x45D2 JUMPI PUSH2 0x45D1 PUSH2 0x4A9B JUMP JUMPDEST JUMPDEST PUSH1 0x3 PUSH0 SWAP1 SLOAD SWAP1 PUSH2 0x100 EXP SWAP1 DIV PUSH1 0xFF AND PUSH1 0x6 DUP2 GT ISZERO PUSH2 0x45F3 JUMPI PUSH2 0x45F2 PUSH2 0x4A9B JUMP JUMPDEST JUMPDEST EQ PUSH2 0x4633 JUMPI PUSH1 0x40 MLOAD PUSH32 0x8C379A000000000000000000000000000000000000000000000000000000000 DUP2 MSTORE PUSH1 0x4 ADD PUSH2 0x462A SWAP1 PUSH2 0x5BAC JUMP JUMPDEST PUSH1 0x40 MLOAD DUP1 SWAP2 SUB SWAP1 REVERT JUMPDEST PUSH0 PUSH1 0x1 SWAP1 POP JUMPDEST PUSH1 0xA SLOAD DUP2 GT PUSH2 0x4749 JUMPI PUSH1 0x6 PUSH0 DUP3 DUP2 MSTORE PUSH1 0x20 ADD SWAP1 DUP2 MSTORE PUSH1 0x20 ADD PUSH0 KECCAK256 PUSH1 0x7 ADD PUSH0 SWAP1 SLOAD SWAP1 PUSH2 0x100 EXP SWAP1 DIV PUSH1 0xFF AND DUP1 ISZERO PUSH2 0x4682 JUMPI POP PUSH0 PUSH1 0x6 PUSH0 DUP4 DUP2 MSTORE PUSH1 0x20 ADD SWAP1 DUP2 MSTORE PUSH1 0x20 ADD PUSH0 KECCAK256 PUSH1 0x6 ADD SLOAD GT JUMPDEST ISZERO PUSH2 0x4736 JUMPI PUSH0 PUSH1 0x6 PUSH0 DUP4 DUP2 MSTORE PUSH1 0x20 ADD SWAP1 DUP2 MSTORE PUSH1 0x20 ADD PUSH0 KECCAK256 PUSH1 0x6 ADD SLOAD SWAP1 POP PUSH0 PUSH1 0x6 PUSH0 DUP5 DUP2 MSTORE PUSH1 0x20 ADD SWAP1 DUP2 MSTORE PUSH1 0x20 ADD PUSH0 KECCAK256 PUSH1 0x5 ADD PUSH0 SWAP1 SLOAD SWAP1 PUSH2 0x100 EXP SWAP1 DIV PUSH20 0xFFFFFFFFFFFFFFFFFFFFFFFFFFFFFFFFFFFFFFFF AND SWAP1 POP PUSH0 PUSH1 0x6 PUSH0 DUP6 DUP2 MSTORE PUSH1 0x20 ADD SWAP1 DUP2 MSTORE PUSH1 0x20 ADD PUSH0 KECCAK256 PUSH1 0x6 ADD DUP2 SWAP1 SSTORE POP DUP1 PUSH20 0xFFFFFFFFFFFFFFFFFFFFFFFFFFFFFFFFFFFFFFFF AND PUSH2 0x8FC DUP4 SWAP1 DUP2 ISZERO MUL SWAP1 PUSH1 0x40 MLOAD PUSH0 PUSH1 0x40 MLOAD DUP1 DUP4 SUB DUP2 DUP6 DUP9 DUP9 CALL SWAP4 POP POP POP POP ISZERO DUP1 ISZERO PUSH2 0x4732 JUMPI RETURNDATASIZE PUSH0 PUSH0 RETURNDATACOPY RETURNDATASIZE PUSH0 REVERT JUMPDEST POP POP POP JUMPDEST DUP1 DUP1 PUSH2 0x4741 SWAP1 PUSH2 0x5A15 JUMP JUMPDEST SWAP2 POP POP PUSH2 0x4639 JUMP JUMPDEST POP POP JUMP JUMPDEST PUSH1 0xD SLOAD DUP2 JUMP JUMPDEST PUSH0 PUSH0 PUSH1 0x9 PUSH0 DUP5 PUSH20 0xFFFFFFFFFFFFFFFFFFFFFFFFFFFFFFFFFFFFFFFF AND PUSH20 0xFFFFFFFFFFFFFFFFFFFFFFFFFFFFFFFFFFFFFFFF AND DUP2 MSTORE PUSH1 0x20 ADD SWAP1 DUP2 MSTORE PUSH1 0x20 ADD PUSH0 KECCAK256 SLOAD SWAP1 POP PUSH0 DUP2 SUB PUSH2 0x47A5 JUMPI PUSH0 SWAP2 POP POP PUSH2 0x47CB JUMP JUMPDEST PUSH1 0x8 PUSH0 DUP3 DUP2 MSTORE PUSH1 0x20 ADD SWAP1 DUP2 MSTORE PUSH1 0x20 ADD PUSH0 KECCAK256 PUSH1 0x4 ADD PUSH1 0x15 SWAP1 SLOAD SWAP1 PUSH2 0x100 EXP SWAP1 DIV PUSH1 0xFF AND SWAP2 POP POP JUMPDEST SWAP2 SWAP1 POP JUMP JUMPDEST PUSH1 0x1 PUSH0 SWAP1 SLOAD SWAP1 PUSH2 0x100 EXP SWAP1 DIV PUSH20 0xFFFFFFFFFFFFFFFFFFFFFFFFFFFFFFFFFFFFFFFF AND PUSH20 0xFFFFFFFFFFFFFFFFFFFFFFFFFFFFFFFFFFFFFFFF AND CALLER PUSH20 0xFFFFFFFFFFFFFFFFFFFFFFFFFFFFFFFFFFFFFFFF AND EQ PUSH2 0x485F JUMPI PUSH1 0x40 MLOAD PUSH32 0x8C379A000000000000000000000000000000000000000000000000000000000 DUP2 MSTORE PUSH1 0x4 ADD PUSH2 0x4856 SWAP1 PUSH2 0x576D JUMP JUMPDEST PUSH1 0x40 MLOAD DUP1 SWAP2 SUB SWAP1 REVERT JUMPDEST DUP8 PUSH1 0xE DUP2 SWAP1 SSTORE POP DUP7 PUSH1 0xF DUP2 SWAP1 SSTORE POP DUP6 PUSH1 0x10 DUP2 SWAP1 SSTORE POP DUP5 PUSH1 0x11 DUP2 SWAP1 SSTORE POP DUP4 PUSH1 0x12 DUP2 SWAP1 SSTORE POP DUP3 PUSH1 0x13 DUP2 SWAP1 SSTORE POP DUP2 PUSH1 0x14 DUP2 SWAP1 SSTORE POP DUP1 PUSH1 0x15 DUP2 SWAP1 SSTORE POP POP POP POP POP POP POP POP POP JUMP JUMPDEST PUSH1 0x2 PUSH0 SLOAD SUB PUSH2 0x48E5 JUMPI PUSH1 0x40 MLOAD PUSH32 0x8C379A000000000000000000000000000000000000000000000000000000000 DUP2 MSTORE PUSH1 0x4 ADD PUSH2 0x48DC SWAP1 PUSH2 0x6A5E JUMP JUMPDEST PUSH1 0x40 MLOAD DUP1 SWAP2 SUB SWAP1 REVERT JUMPDEST PUSH1 0x2 PUSH0 DUP2 SWAP1 SSTORE POP JUMP JUMPDEST PUSH1 0x1 PUSH0 DUP2 SWAP1 SSTORE POP JUMP JUMPDEST PUSH1 0x40 MLOAD DUP1 PUSH2 0x140 ADD PUSH1 0x40 MSTORE DUP1 PUSH0 DUP2 MSTORE PUSH1 0x20 ADD PUSH1 0x60 DUP2 MSTORE PUSH1 0x20 ADD PUSH1 0x60 DUP2 MSTORE PUSH1 0x20 ADD PUSH1 0x60 DUP2 MSTORE PUSH1 0x20 ADD PUSH1 0x60 DUP2 MSTORE PUSH1 0x20 ADD PUSH0 PUSH20 0xFFFFFFFFFFFFFFFFFFFFFFFFFFFFFFFFFFFFFFFF AND DUP2 MSTORE PUSH1 0x20 ADD PUSH0 DUP2 MSTORE PUSH1 0x20 ADD PUSH0 ISZERO ISZERO DUP2 MSTORE PUSH1 0x20 ADD PUSH0 DUP2 MSTORE PUSH1 0x20 ADD PUSH0 DUP2 MSTORE POP SWAP1 JUMP JUMPDEST PUSH1 0x40 MLOAD DUP1 PUSH2 0x120 ADD PUSH1 0x40 MSTORE DUP1 PUSH0 DUP2 MSTORE PUSH1 0x20 ADD PUSH1 0x60 DUP2 MSTORE PUSH1 0x20 ADD PUSH0 DUP2 MSTORE PUSH1 0x20 ADD PUSH1 0x60 DUP2 MSTORE PUSH1 0x20 ADD PUSH0 PUSH20 0xFFFFFFFFFFFFFFFFFFFFFFFFFFFFFFFFFFFFFFFF AND DUP2 MSTORE PUSH1 0x20 ADD PUSH0 ISZERO ISZERO DUP2 MSTORE PUSH1 0x20 ADD PUSH0 ISZERO ISZERO DUP2 MSTORE PUSH1 0x20 ADD PUSH0 DUP2 MSTORE PUSH1 0x20 ADD PUSH0 DUP2 MSTORE POP SWAP1 JUMP JUMPDEST PUSH0 DUP3 DUP3 MSTORE PUSH1 0x20 DUP3 ADD SWAP1 POP SWAP3 SWAP2 POP POP JUMP JUMPDEST PUSH32 0x446972656374207061796D656E7473206E6F7420616363657074656400000000 PUSH0 DUP3 ADD MSTORE POP JUMP JUMPDEST PUSH0 PUSH2 0x49FF PUSH1 0x1C DUP4 PUSH2 0x49BB JUMP JUMPDEST SWAP2 POP PUSH2 0x4A0A DUP3 PUSH2 0x49CB JUMP JUMPDEST PUSH1 0x20 DUP3 ADD SWAP1 POP SWAP2 SWAP1 POP JUMP JUMPDEST PUSH0 PUSH1 0x20 DUP3 ADD SWAP1 POP DUP2 DUP2 SUB PUSH0 DUP4 ADD MSTORE PUSH2 0x4A2C DUP2 PUSH2 0x49F3 JUMP JUMPDEST SWAP1 POP SWAP2 SWAP1 POP JUMP JUMPDEST PUSH32 0x496E76616C69642066756E6374696F6E2063616C6C0000000000000000000000 PUSH0 DUP3 ADD MSTORE POP JUMP JUMPDEST PUSH0 PUSH2 0x4A67 PUSH1 0x15 DUP4 PUSH2 0x49BB JUMP JUMPDEST SWAP2 POP PUSH2 0x4A72 DUP3 PUSH2 0x4A33 JUMP JUMPDEST PUSH1 0x20 DUP3 ADD SWAP1 POP SWAP2 SWAP1 POP JUMP JUMPDEST PUSH0 PUSH1 0x20 DUP3 ADD SWAP1 POP DUP2 DUP2 SUB PUSH0 DUP4 ADD MSTORE PUSH2 0x4A94 DUP2 PUSH2 0x4A5B JUMP JUMPDEST SWAP1 POP SWAP2 SWAP1 POP JUMP JUMPDEST PUSH32 0x4E487B7100000000000000000000000000000000000000000000000000000000 PUSH0 MSTORE PUSH1 0x21 PUSH1 0x4 MSTORE PUSH1 0x24 PUSH0 REVERT JUMPDEST PUSH1 0x7 DUP2 LT PUSH2 0x4AD9 JUMPI PUSH2 0x4AD8 PUSH2 0x4A9B JUMP JUMPDEST JUMPDEST POP JUMP JUMPDEST PUSH0 DUP2 SWAP1 POP PUSH2 0x4AE9 DUP3 PUSH2 0x4AC8 JUMP JUMPDEST SWAP2 SWAP1 POP JUMP JUMPDEST PUSH0 PUSH2 0x4AF8 DUP3 PUSH2 0x4ADC JUMP JUMPDEST SWAP1 POP SWAP2 SWAP1 POP JUMP JUMPDEST PUSH2 0x4B08 DUP2 PUSH2 0x4AEE JUMP JUMPDEST DUP3 MSTORE POP POP JUMP JUMPDEST PUSH0 PUSH1 0x20 DUP3 ADD SWAP1 POP PUSH2 0x4B21 PUSH0 DUP4 ADD DUP5 PUSH2 0x4AFF JUMP JUMPDEST SWAP3 SWAP2 POP POP JUMP JUMPDEST PUSH0 DUP2 SWAP1 POP SWAP2 SWAP1 POP JUMP JUMPDEST PUSH2 0x4B39 DUP2 PUSH2 0x4B27 JUMP JUMPDEST DUP3 MSTORE POP POP JUMP JUMPDEST PUSH0 PUSH1 0x20 DUP3 ADD SWAP1 POP PUSH2 0x4B52 PUSH0 DUP4 ADD DUP5 PUSH2 0x4B30 JUMP JUMPDEST SWAP3 SWAP2 POP POP JUMP JUMPDEST PUSH0 DUP2 MLOAD SWAP1 POP SWAP2 SWAP1 POP JUMP JUMPDEST DUP3 DUP2 DUP4 MCOPY PUSH0 DUP4 DUP4 ADD MSTORE POP POP POP JUMP JUMPDEST PUSH0 PUSH1 0x1F NOT PUSH1 0x1F DUP4 ADD AND SWAP1 POP SWAP2 SWAP1 POP JUMP JUMPDEST PUSH0 PUSH2 0x4B8A DUP3 PUSH2 0x4B58 JUMP JUMPDEST PUSH2 0x4B94 DUP2 DUP6 PUSH2 0x49BB JUMP JUMPDEST SWAP4 POP PUSH2 0x4BA4 DUP2 DUP6 PUSH1 0x20 DUP7 ADD PUSH2 0x4B62 JUMP JUMPDEST PUSH2 0x4BAD DUP2 PUSH2 0x4B70 JUMP JUMPDEST DUP5 ADD SWAP2 POP POP SWAP3 SWAP2 POP POP JUMP JUMPDEST PUSH0 PUSH1 0x20 DUP3 ADD SWAP1 POP DUP2 DUP2 SUB PUSH0 DUP4 ADD MSTORE PUSH2 0x4BD0 DUP2 DUP5 PUSH2 0x4B80 JUMP JUMPDEST SWAP1 POP SWAP3 SWAP2 POP POP JUMP JUMPDEST PUSH0 PUSH1 0x40 MLOAD SWAP1 POP SWAP1 JUMP JUMPDEST PUSH0 PUSH0 REVERT JUMPDEST PUSH0 PUSH0 REVERT JUMPDEST PUSH0 PUSH20 0xFFFFFFFFFFFFFFFFFFFFFFFFFFFFFFFFFFFFFFFF DUP3 AND SWAP1 POP SWAP2 SWAP1 POP JUMP JUMPDEST PUSH0 PUSH2 0x4C12 DUP3 PUSH2 0x4BE9 JUMP JUMPDEST SWAP1 POP SWAP2 SWAP1 POP JUMP JUMPDEST PUSH2 0x4C22 DUP2 PUSH2 0x4C08 JUMP JUMPDEST DUP2 EQ PUSH2 0x4C2C JUMPI PUSH0 PUSH0 REVERT JUMPDEST POP JUMP JUMPDEST PUSH0 DUP2 CALLDATALOAD SWAP1 POP PUSH2 0x4C3D DUP2 PUSH2 0x4C19 JUMP JUMPDEST SWAP3 SWAP2 POP POP JUMP JUMPDEST PUSH0 PUSH1 0x20 DUP3 DUP5 SUB SLT ISZERO PUSH2 0x4C58 JUMPI PUSH2 0x4C57 PUSH2 0x4BE1 JUMP JUMPDEST JUMPDEST PUSH0 PUSH2 0x4C65 DUP5 DUP3 DUP6 ADD PUSH2 0x4C2F JUMP JUMPDEST SWAP2 POP POP SWAP3 SWAP2 POP POP JUMP JUMPDEST PUSH0 DUP2 MLOAD SWAP1 POP SWAP2 SWAP1 POP JUMP JUMPDEST PUSH0 DUP3 DUP3 MSTORE PUSH1 0x20 DUP3 ADD SWAP1 POP SWAP3 SWAP2 POP POP JUMP JUMPDEST PUSH0 DUP2 SWAP1 POP PUSH1 0x20 DUP3 ADD SWAP1 POP SWAP2 SWAP1 POP JUMP JUMPDEST PUSH2 0x4CA0 DUP2 PUSH2 0x4B27 JUMP JUMPDEST DUP3 MSTORE POP POP JUMP JUMPDEST PUSH0 DUP3 DUP3 MSTORE PUSH1 0x20 DUP3 ADD SWAP1 POP SWAP3 SWAP2 POP POP JUMP JUMPDEST PUSH0 PUSH2 0x4CC0 DUP3 PUSH2 0x4B58 JUMP JUMPDEST PUSH2 0x4CCA DUP2 DUP6 PUSH2 0x4CA6 JUMP JUMPDEST SWAP4 POP PUSH2 0x4CDA DUP2 DUP6 PUSH1 0x20 DUP7 ADD PUSH2 0x4B62 JUMP JUMPDEST PUSH2 0x4CE3 DUP2 PUSH2 0x4B70 JUMP JUMPDEST DUP5 ADD SWAP2 POP POP SWAP3 SWAP2 POP POP JUMP JUMPDEST PUSH2 0x4CF7 DUP2 PUSH2 0x4C08 JUMP JUMPDEST DUP3 MSTORE POP POP JUMP JUMPDEST PUSH0 DUP2 ISZERO ISZERO SWAP1 POP SWAP2 SWAP1 POP JUMP JUMPDEST PUSH2 0x4D11 DUP2 PUSH2 0x4CFD JUMP JUMPDEST DUP3 MSTORE POP POP JUMP JUMPDEST PUSH0 PUSH2 0x140 DUP4 ADD PUSH0 DUP4 ADD MLOAD PUSH2 0x4D2D PUSH0 DUP7 ADD DUP3 PUSH2 0x4C97 JUMP JUMPDEST POP PUSH1 0x20 DUP4 ADD MLOAD DUP5 DUP3 SUB PUSH1 0x20 DUP7 ADD MSTORE PUSH2 0x4D45 DUP3 DUP3 PUSH2 0x4CB6 JUMP JUMPDEST SWAP2 POP POP PUSH1 0x40 DUP4 ADD MLOAD DUP5 DUP3 SUB PUSH1 0x40 DUP7 ADD MSTORE PUSH2 0x4D5F DUP3 DUP3 PUSH2 0x4CB6 JUMP JUMPDEST SWAP2 POP POP PUSH1 0x60 DUP4 ADD MLOAD DUP5 DUP3 SUB PUSH1 0x60 DUP7 ADD MSTORE PUSH2 0x4D79 DUP3 DUP3 PUSH2 0x4CB6 JUMP JUMPDEST SWAP2 POP POP PUSH1 0x80 DUP4 ADD MLOAD DUP5 DUP3 SUB PUSH1 0x80 DUP7 ADD MSTORE PUSH2 0x4D93 DUP3 DUP3 PUSH2 0x4CB6 JUMP JUMPDEST SWAP2 POP POP PUSH1 0xA0 DUP4 ADD MLOAD PUSH2 0x4DA8 PUSH1 0xA0 DUP7 ADD DUP3 PUSH2 0x4CEE JUMP JUMPDEST POP PUSH1 0xC0 DUP4 ADD MLOAD PUSH2 0x4DBB PUSH1 0xC0 DUP7 ADD DUP3 PUSH2 0x4C97 JUMP JUMPDEST POP PUSH1 0xE0 DUP4 ADD MLOAD PUSH2 0x4DCE PUSH1 0xE0 DUP7 ADD DUP3 PUSH2 0x4D08 JUMP JUMPDEST POP PUSH2 0x100 DUP4 ADD MLOAD PUSH2 0x4DE3 PUSH2 0x100 DUP7 ADD DUP3 PUSH2 0x4C97 JUMP JUMPDEST POP PUSH2 0x120 DUP4 ADD MLOAD PUSH2 0x4DF8 PUSH2 0x120 DUP7 ADD DUP3 PUSH2 0x4C97 JUMP JUMPDEST POP DUP1 SWAP2 POP POP SWAP3 SWAP2 POP POP JUMP JUMPDEST PUSH0 PUSH2 0x4E0E DUP4 DUP4 PUSH2 0x4D17 JUMP JUMPDEST SWAP1 POP SWAP3 SWAP2 POP POP JUMP JUMPDEST PUSH0 PUSH1 0x20 DUP3 ADD SWAP1 POP SWAP2 SWAP1 POP JUMP JUMPDEST PUSH0 PUSH2 0x4E2C DUP3 PUSH2 0x4C6E JUMP JUMPDEST PUSH2 0x4E36 DUP2 DUP6 PUSH2 0x4C78 JUMP JUMPDEST SWAP4 POP DUP4 PUSH1 0x20 DUP3 MUL DUP6 ADD PUSH2 0x4E48 DUP6 PUSH2 0x4C88 JUMP JUMPDEST DUP1 PUSH0 JUMPDEST DUP6 DUP2 LT ISZERO PUSH2 0x4E83 JUMPI DUP5 DUP5 SUB DUP10 MSTORE DUP2 MLOAD PUSH2 0x4E64 DUP6 DUP3 PUSH2 0x4E03 JUMP JUMPDEST SWAP5 POP PUSH2 0x4E6F DUP4 PUSH2 0x4E16 JUMP JUMPDEST SWAP3 POP PUSH1 0x20 DUP11 ADD SWAP10 POP POP PUSH1 0x1 DUP2 ADD SWAP1 POP PUSH2 0x4E4B JUMP JUMPDEST POP DUP3 SWAP8 POP DUP8 SWAP6 POP POP POP POP POP POP SWAP3 SWAP2 POP POP JUMP JUMPDEST PUSH0 PUSH1 0x20 DUP3 ADD SWAP1 POP DUP2 DUP2 SUB PUSH0 DUP4 ADD MSTORE PUSH2 0x4EAD DUP2 DUP5 PUSH2 0x4E22 JUMP JUMPDEST SWAP1 POP SWAP3 SWAP2 POP POP JUMP JUMPDEST PUSH2 0x4EBE DUP2 PUSH2 0x4B27 JUMP JUMPDEST DUP2 EQ PUSH2 0x4EC8 JUMPI PUSH0 PUSH0 REVERT JUMPDEST POP JUMP JUMPDEST PUSH0 DUP2 CALLDATALOAD SWAP1 POP PUSH2 0x4ED9 DUP2 PUSH2 0x4EB5 JUMP JUMPDEST SWAP3 SWAP2 POP POP JUMP JUMPDEST PUSH0 PUSH1 0x20 DUP3 DUP5 SUB SLT ISZERO PUSH2 0x4EF4 JUMPI PUSH2 0x4EF3 PUSH2 0x4BE1 JUMP JUMPDEST JUMPDEST PUSH0 PUSH2 0x4F01 DUP5 DUP3 DUP6 ADD PUSH2 0x4ECB JUMP JUMPDEST SWAP2 POP POP SWAP3 SWAP2 POP POP JUMP JUMPDEST PUSH2 0x4F13 DUP2 PUSH2 0x4C08 JUMP JUMPDEST DUP3 MSTORE POP POP JUMP JUMPDEST PUSH2 0x4F22 DUP2 PUSH2 0x4CFD JUMP JUMPDEST DUP3 MSTORE POP POP JUMP JUMPDEST PUSH0 PUSH2 0x140 DUP3 ADD SWAP1 POP PUSH2 0x4F3C PUSH0 DUP4 ADD DUP14 PUSH2 0x4B30 JUMP JUMPDEST DUP2 DUP2 SUB PUSH1 0x20 DUP4 ADD MSTORE PUSH2 0x4F4E DUP2 DUP13 PUSH2 0x4B80 JUMP JUMPDEST SWAP1 POP DUP2 DUP2 SUB PUSH1 0x40 DUP4 ADD MSTORE PUSH2 0x4F62 DUP2 DUP12 PUSH2 0x4B80 JUMP JUMPDEST SWAP1 POP DUP2 DUP2 SUB PUSH1 0x60 DUP4 ADD MSTORE PUSH2 0x4F76 DUP2 DUP11 PUSH2 0x4B80 JUMP JUMPDEST SWAP1 POP DUP2 DUP2 SUB PUSH1 0x80 DUP4 ADD MSTORE PUSH2 0x4F8A DUP2 DUP10 PUSH2 0x4B80 JUMP JUMPDEST SWAP1 POP PUSH2 0x4F99 PUSH1 0xA0 DUP4 ADD DUP9 PUSH2 0x4F0A JUMP JUMPDEST PUSH2 0x4FA6 PUSH1 0xC0 DUP4 ADD DUP8 PUSH2 0x4B30 JUMP JUMPDEST PUSH2 0x4FB3 PUSH1 0xE0 DUP4 ADD DUP7 PUSH2 0x4F19 JUMP JUMPDEST PUSH2 0x4FC1 PUSH2 0x100 DUP4 ADD DUP6 PUSH2 0x4B30 JUMP JUMPDEST PUSH2 0x4FCF PUSH2 0x120 DUP4 ADD DUP5 PUSH2 0x4B30 JUMP JUMPDEST SWAP12 SWAP11 POP POP POP POP POP POP POP POP POP POP POP JUMP JUMPDEST PUSH0 PUSH2 0x140 DUP4 ADD PUSH0 DUP4 ADD MLOAD PUSH2 0x4FF4 PUSH0 DUP7 ADD DUP3 PUSH2 0x4C97 JUMP JUMPDEST POP PUSH1 0x20 DUP4 ADD MLOAD DUP5 DUP3 SUB PUSH1 0x20 DUP7 ADD MSTORE PUSH2 0x500C DUP3 DUP3 PUSH2 0x4CB6 JUMP JUMPDEST SWAP2 POP POP PUSH1 0x40 DUP4 ADD MLOAD DUP5 DUP3 SUB PUSH1 0x40 DUP7 ADD MSTORE PUSH2 0x5026 DUP3 DUP3 PUSH2 0x4CB6 JUMP JUMPDEST SWAP2 POP POP PUSH1 0x60 DUP4 ADD MLOAD DUP5 DUP3 SUB PUSH1 0x60 DUP7 ADD MSTORE PUSH2 0x5040 DUP3 DUP3 PUSH2 0x4CB6 JUMP JUMPDEST SWAP2 POP POP PUSH1 0x80 DUP4 ADD MLOAD DUP5 DUP3 SUB PUSH1 0x80 DUP7 ADD MSTORE PUSH2 0x505A DUP3 DUP3 PUSH2 0x4CB6 JUMP JUMPDEST SWAP2 POP POP PUSH1 0xA0 DUP4 ADD MLOAD PUSH2 0x506F PUSH1 0xA0 DUP7 ADD DUP3 PUSH2 0x4CEE JUMP JUMPDEST POP PUSH1 0xC0 DUP4 ADD MLOAD PUSH2 0x5082 PUSH1 0xC0 DUP7 ADD DUP3 PUSH2 0x4C97 JUMP JUMPDEST POP PUSH1 0xE0 DUP4 ADD MLOAD PUSH2 0x5095 PUSH1 0xE0 DUP7 ADD DUP3 PUSH2 0x4D08 JUMP JUMPDEST POP PUSH2 0x100 DUP4 ADD MLOAD PUSH2 0x50AA PUSH2 0x100 DUP7 ADD DUP3 PUSH2 0x4C97 JUMP JUMPDEST POP PUSH2 0x120 DUP4 ADD MLOAD PUSH2 0x50BF PUSH2 0x120 DUP7 ADD DUP3 PUSH2 0x4C97 JUMP JUMPDEST POP DUP1 SWAP2 POP POP SWAP3 SWAP2 POP POP JUMP JUMPDEST PUSH0 PUSH1 0x20 DUP3 ADD SWAP1 POP DUP2 DUP2 SUB PUSH0 DUP4 ADD MSTORE PUSH2 0x50E2 DUP2 DUP5 PUSH2 0x4FDE JUMP JUMPDEST SWAP1 POP SWAP3 SWAP2 POP POP JUMP JUMPDEST PUSH0 PUSH1 0x20 DUP3 ADD SWAP1 POP PUSH2 0x50FD PUSH0 DUP4 ADD DUP5 PUSH2 0x4F19 JUMP JUMPDEST SWAP3 SWAP2 POP POP JUMP JUMPDEST PUSH0 PUSH0 REVERT JUMPDEST PUSH0 PUSH0 REVERT JUMPDEST PUSH32 0x4E487B7100000000000000000000000000000000000000000000000000000000 PUSH0 MSTORE PUSH1 0x41 PUSH1 0x4 MSTORE PUSH1 0x24 PUSH0 REVERT JUMPDEST PUSH2 0x5141 DUP3 PUSH2 0x4B70 JUMP JUMPDEST DUP2 ADD DUP2 DUP2 LT PUSH8 0xFFFFFFFFFFFFFFFF DUP3 GT OR ISZERO PUSH2 0x5160 JUMPI PUSH2 0x515F PUSH2 0x510B JUMP JUMPDEST JUMPDEST DUP1 PUSH1 0x40 MSTORE POP POP POP JUMP JUMPDEST PUSH0 PUSH2 0x5172 PUSH2 0x4BD8 JUMP JUMPDEST SWAP1 POP PUSH2 0x517E DUP3 DUP3 PUSH2 0x5138 JUMP JUMPDEST SWAP2 SWAP1 POP JUMP JUMPDEST PUSH0 PUSH8 0xFFFFFFFFFFFFFFFF DUP3 GT ISZERO PUSH2 0x519D JUMPI PUSH2 0x519C PUSH2 0x510B JUMP JUMPDEST JUMPDEST PUSH2 0x51A6 DUP3 PUSH2 0x4B70 JUMP JUMPDEST SWAP1 POP PUSH1 0x20 DUP2 ADD SWAP1 POP SWAP2 SWAP1 POP JUMP JUMPDEST DUP3 DUP2 DUP4 CALLDATACOPY PUSH0 DUP4 DUP4 ADD MSTORE POP POP POP JUMP JUMPDEST PUSH0 PUSH2 0x51D3 PUSH2 0x51CE DUP5 PUSH2 0x5183 JUMP JUMPDEST PUSH2 0x5169 JUMP JUMPDEST SWAP1 POP DUP3 DUP2 MSTORE PUSH1 0x20 DUP2 ADD DUP5 DUP5 DUP5 ADD GT ISZERO PUSH2 0x51EF JUMPI PUSH2 0x51EE PUSH2 0x5107 JUMP JUMPDEST JUMPDEST PUSH2 0x51FA DUP5 DUP3 DUP6 PUSH2 0x51B3 JUMP JUMPDEST POP SWAP4 SWAP3 POP POP POP JUMP JUMPDEST PUSH0 DUP3 PUSH1 0x1F DUP4 ADD SLT PUSH2 0x5216 JUMPI PUSH2 0x5215 PUSH2 0x5103 JUMP JUMPDEST JUMPDEST DUP2 CALLDATALOAD PUSH2 0x5226 DUP5 DUP3 PUSH1 0x20 DUP7 ADD PUSH2 0x51C1 JUMP JUMPDEST SWAP2 POP POP SWAP3 SWAP2 POP POP JUMP JUMPDEST PUSH0 PUSH0 PUSH0 PUSH1 0x60 DUP5 DUP7 SUB SLT ISZERO PUSH2 0x5246 JUMPI PUSH2 0x5245 PUSH2 0x4BE1 JUMP JUMPDEST JUMPDEST PUSH0 DUP5 ADD CALLDATALOAD PUSH8 0xFFFFFFFFFFFFFFFF DUP2 GT ISZERO PUSH2 0x5263 JUMPI PUSH2 0x5262 PUSH2 0x4BE5 JUMP JUMPDEST JUMPDEST PUSH2 0x526F DUP7 DUP3 DUP8 ADD PUSH2 0x5202 JUMP JUMPDEST SWAP4 POP POP PUSH1 0x20 PUSH2 0x5280 DUP7 DUP3 DUP8 ADD PUSH2 0x4ECB JUMP JUMPDEST SWAP3 POP POP PUSH1 0x40 DUP5 ADD CALLDATALOAD PUSH8 0xFFFFFFFFFFFFFFFF DUP2 GT ISZERO PUSH2 0x52A1 JUMPI PUSH2 0x52A0 PUSH2 0x4BE5 JUMP JUMPDEST JUMPDEST PUSH2 0x52AD DUP7 DUP3 DUP8 ADD PUSH2 0x5202 JUMP JUMPDEST SWAP2 POP POP SWAP3 POP SWAP3 POP SWAP3 JUMP JUMPDEST PUSH0 PUSH0 PUSH0 PUSH0 PUSH1 0x80 DUP6 DUP8 SUB SLT ISZERO PUSH2 0x52CF JUMPI PUSH2 0x52CE PUSH2 0x4BE1 JUMP JUMPDEST JUMPDEST PUSH0 DUP6 ADD CALLDATALOAD PUSH8 0xFFFFFFFFFFFFFFFF DUP2 GT ISZERO PUSH2 0x52EC JUMPI PUSH2 0x52EB PUSH2 0x4BE5 JUMP JUMPDEST JUMPDEST PUSH2 0x52F8 DUP8 DUP3 DUP9 ADD PUSH2 0x5202 JUMP JUMPDEST SWAP5 POP POP PUSH1 0x20 DUP6 ADD CALLDATALOAD PUSH8 0xFFFFFFFFFFFFFFFF DUP2 GT ISZERO PUSH2 0x5319 JUMPI PUSH2 0x5318 PUSH2 0x4BE5 JUMP JUMPDEST JUMPDEST PUSH2 0x5325 DUP8 DUP3 DUP9 ADD PUSH2 0x5202 JUMP JUMPDEST SWAP4 POP POP PUSH1 0x40 DUP6 ADD CALLDATALOAD PUSH8 0xFFFFFFFFFFFFFFFF DUP2 GT ISZERO PUSH2 0x5346 JUMPI PUSH2 0x5345 PUSH2 0x4BE5 JUMP JUMPDEST JUMPDEST PUSH2 0x5352 DUP8 DUP3 DUP9 ADD PUSH2 0x5202 JUMP JUMPDEST SWAP3 POP POP PUSH1 0x60 DUP6 ADD CALLDATALOAD PUSH8 0xFFFFFFFFFFFFFFFF DUP2 GT ISZERO PUSH2 0x5373 JUMPI PUSH2 0x5372 PUSH2 0x4BE5 JUMP JUMPDEST JUMPDEST PUSH2 0x537F DUP8 DUP3 DUP9 ADD PUSH2 0x5202 JUMP JUMPDEST SWAP2 POP POP SWAP3 SWAP6 SWAP2 SWAP5 POP SWAP3 POP JUMP JUMPDEST PUSH0 PUSH1 0xE0 DUP3 ADD SWAP1 POP DUP2 DUP2 SUB PUSH0 DUP4 ADD MSTORE PUSH2 0x53A3 DUP2 DUP11 PUSH2 0x4B80 JUMP JUMPDEST SWAP1 POP DUP2 DUP2 SUB PUSH1 0x20 DUP4 ADD MSTORE PUSH2 0x53B7 DUP2 DUP10 PUSH2 0x4B80 JUMP JUMPDEST SWAP1 POP PUSH2 0x53C6 PUSH1 0x40 DUP4 ADD DUP9 PUSH2 0x4AFF JUMP JUMPDEST PUSH2 0x53D3 PUSH1 0x60 DUP4 ADD DUP8 PUSH2 0x4B30 JUMP JUMPDEST PUSH2 0x53E0 PUSH1 0x80 DUP4 ADD DUP7 PUSH2 0x4B30 JUMP JUMPDEST PUSH2 0x53ED PUSH1 0xA0 DUP4 ADD DUP6 PUSH2 0x4B30 JUMP JUMPDEST PUSH2 0x53FA PUSH1 0xC0 DUP4 ADD DUP5 PUSH2 0x4B30 JUMP JUMPDEST SWAP9 SWAP8 POP POP POP POP POP POP POP POP JUMP JUMPDEST PUSH1 0x7 DUP2 LT PUSH2 0x5412 JUMPI PUSH0 PUSH0 REVERT JUMPDEST POP JUMP JUMPDEST PUSH0 DUP2 CALLDATALOAD SWAP1 POP PUSH2 0x5423 DUP2 PUSH2 0x5406 JUMP JUMPDEST SWAP3 SWAP2 POP POP JUMP JUMPDEST PUSH0 PUSH1 0x20 DUP3 DUP5 SUB SLT ISZERO PUSH2 0x543E JUMPI PUSH2 0x543D PUSH2 0x4BE1 JUMP JUMPDEST JUMPDEST PUSH0 PUSH2 0x544B DUP5 DUP3 DUP6 ADD PUSH2 0x5415 JUMP JUMPDEST SWAP2 POP POP SWAP3 SWAP2 POP POP JUMP JUMPDEST PUSH0 PUSH1 0x60 DUP3 ADD SWAP1 POP PUSH2 0x5467 PUSH0 DUP4 ADD DUP7 PUSH2 0x4B30 JUMP JUMPDEST DUP2 DUP2 SUB PUSH1 0x20 DUP4 ADD MSTORE PUSH2 0x5479 DUP2 DUP6 PUSH2 0x4B80 JUMP JUMPDEST SWAP1 POP PUSH2 0x5488 PUSH1 0x40 DUP4 ADD DUP5 PUSH2 0x4B30 JUMP JUMPDEST SWAP5 SWAP4 POP POP POP POP JUMP JUMPDEST PUSH0 PUSH1 0x20 DUP3 DUP5 SUB SLT ISZERO PUSH2 0x54A5 JUMPI PUSH2 0x54A4 PUSH2 0x4BE1 JUMP JUMPDEST JUMPDEST PUSH0 DUP3 ADD CALLDATALOAD PUSH8 0xFFFFFFFFFFFFFFFF DUP2 GT ISZERO PUSH2 0x54C2 JUMPI PUSH2 0x54C1 PUSH2 0x4BE5 JUMP JUMPDEST JUMPDEST PUSH2 0x54CE DUP5 DUP3 DUP6 ADD PUSH2 0x5202 JUMP JUMPDEST SWAP2 POP POP SWAP3 SWAP2 POP POP JUMP JUMPDEST PUSH0 PUSH1 0x20 DUP3 ADD SWAP1 POP PUSH2 0x54EA PUSH0 DUP4 ADD DUP5 PUSH2 0x4F0A JUMP JUMPDEST SWAP3 SWAP2 POP POP JUMP JUMPDEST PUSH0 PUSH2 0x120 DUP4 ADD PUSH0 DUP4 ADD MLOAD PUSH2 0x5506 PUSH0 DUP7 ADD DUP3 PUSH2 0x4C97 JUMP JUMPDEST POP PUSH1 0x20 DUP4 ADD MLOAD DUP5 DUP3 SUB PUSH1 0x20 DUP7 ADD MSTORE PUSH2 0x551E DUP3 DUP3 PUSH2 0x4CB6 JUMP JUMPDEST SWAP2 POP POP PUSH1 0x40 DUP4 ADD MLOAD PUSH2 0x5533 PUSH1 0x40 DUP7 ADD DUP3 PUSH2 0x4C97 JUMP JUMPDEST POP PUSH1 0x60 DUP4 ADD MLOAD DUP5 DUP3 SUB PUSH1 0x60 DUP7 ADD MSTORE PUSH2 0x554B DUP3 DUP3 PUSH2 0x4CB6 JUMP JUMPDEST SWAP2 POP POP PUSH1 0x80 DUP4 ADD MLOAD PUSH2 0x5560 PUSH1 0x80 DUP7 ADD DUP3 PUSH2 0x4CEE JUMP JUMPDEST POP PUSH1 0xA0 DUP4 ADD MLOAD PUSH2 0x5573 PUSH1 0xA0 DUP7 ADD DUP3 PUSH2 0x4D08 JUMP JUMPDEST POP PUSH1 0xC0 DUP4 ADD MLOAD PUSH2 0x5586 PUSH1 0xC0 DUP7 ADD DUP3 PUSH2 0x4D08 JUMP JUMPDEST POP PUSH1 0xE0 DUP4 ADD MLOAD PUSH2 0x5599 PUSH1 0xE0 DUP7 ADD DUP3 PUSH2 0x4C97 JUMP JUMPDEST POP PUSH2 0x100 DUP4 ADD MLOAD PUSH2 0x55AE PUSH2 0x100 DUP7 ADD DUP3 PUSH2 0x4C97 JUMP JUMPDEST POP DUP1 SWAP2 POP POP SWAP3 SWAP2 POP POP JUMP JUMPDEST PUSH0 PUSH1 0x20 DUP3 ADD SWAP1 POP DUP2 DUP2 SUB PUSH0 DUP4 ADD MSTORE PUSH2 0x55D1 DUP2 DUP5 PUSH2 0x54F0 JUMP JUMPDEST SWAP1 POP SWAP3 SWAP2 POP POP JUMP JUMPDEST PUSH0 PUSH2 0x120 DUP3 ADD SWAP1 POP PUSH2 0x55ED PUSH0 DUP4 ADD DUP13 PUSH2 0x4B30 JUMP JUMPDEST DUP2 DUP2 SUB PUSH1 0x20 DUP4 ADD MSTORE PUSH2 0x55FF DUP2 DUP12 PUSH2 0x4B80 JUMP JUMPDEST SWAP1 POP PUSH2 0x560E PUSH1 0x40 DUP4 ADD DUP11 PUSH2 0x4B30 JUMP JUMPDEST DUP2 DUP2 SUB PUSH1 0x60 DUP4 ADD MSTORE PUSH2 0x5620 DUP2 DUP10 PUSH2 0x4B80 JUMP JUMPDEST SWAP1 POP PUSH2 0x562F PUSH1 0x80 DUP4 ADD DUP9 PUSH2 0x4F0A JUMP JUMPDEST PUSH2 0x563C PUSH1 0xA0 DUP4 ADD DUP8 PUSH2 0x4F19 JUMP JUMPDEST PUSH2 0x5649 PUSH1 0xC0 DUP4 ADD DUP7 PUSH2 0x4F19 JUMP JUMPDEST PUSH2 0x5656 PUSH1 0xE0 DUP4 ADD DUP6 PUSH2 0x4B30 JUMP JUMPDEST PUSH2 0x5664 PUSH2 0x100 DUP4 ADD DUP5 PUSH2 0x4B30 JUMP JUMPDEST SWAP11 SWAP10 POP POP POP POP POP POP POP POP POP POP JUMP JUMPDEST PUSH0 PUSH0 PUSH0 PUSH0 PUSH0 PUSH0 PUSH0 PUSH0 PUSH2 0x100 DUP10 DUP12 SUB SLT ISZERO PUSH2 0x568F JUMPI PUSH2 0x568E PUSH2 0x4BE1 JUMP JUMPDEST JUMPDEST PUSH0 PUSH2 0x569C DUP12 DUP3 DUP13 ADD PUSH2 0x4ECB JUMP JUMPDEST SWAP9 POP POP PUSH1 0x20 PUSH2 0x56AD DUP12 DUP3 DUP13 ADD PUSH2 0x4ECB JUMP JUMPDEST SWAP8 POP POP PUSH1 0x40 PUSH2 0x56BE DUP12 DUP3 DUP13 ADD PUSH2 0x4ECB JUMP JUMPDEST SWAP7 POP POP PUSH1 0x60 PUSH2 0x56CF DUP12 DUP3 DUP13 ADD PUSH2 0x4ECB JUMP JUMPDEST SWAP6 POP POP PUSH1 0x80 PUSH2 0x56E0 DUP12 DUP3 DUP13 ADD PUSH2 0x4ECB JUMP JUMPDEST SWAP5 POP POP PUSH1 0xA0 PUSH2 0x56F1 DUP12 DUP3 DUP13 ADD PUSH2 0x4ECB JUMP JUMPDEST SWAP4 POP POP PUSH1 0xC0 PUSH2 0x5702 DUP12 DUP3 DUP13 ADD PUSH2 0x4ECB JUMP JUMPDEST SWAP3 POP POP PUSH1 0xE0 PUSH2 0x5713 DUP12 DUP3 DUP13 ADD PUSH2 0x4ECB JUMP JUMPDEST SWAP2 POP POP SWAP3 SWAP6 SWAP9 POP SWAP3 SWAP6 SWAP9 SWAP1 SWAP4 SWAP7 POP JUMP JUMPDEST PUSH32 0x4F6E6C7920436869656620456C656374696F6E20436F6D6D697373696F6E6572 PUSH0 DUP3 ADD MSTORE POP JUMP JUMPDEST PUSH0 PUSH2 0x5757 PUSH1 0x20 DUP4 PUSH2 0x49BB JUMP JUMPDEST SWAP2 POP PUSH2 0x5762 DUP3 PUSH2 0x5723 JUMP JUMPDEST PUSH1 0x20 DUP3 ADD SWAP1 POP SWAP2 SWAP1 POP JUMP JUMPDEST PUSH0 PUSH1 0x20 DUP3 ADD SWAP1 POP DUP2 DUP2 SUB PUSH0 DUP4 ADD MSTORE PUSH2 0x5784 DUP2 PUSH2 0x574B JUMP JUMPDEST SWAP1 POP SWAP2 SWAP1 POP JUMP JUMPDEST PUSH32 0x43616E6E6F74206465636C61726520726573756C747320796574000000000000 PUSH0 DUP3 ADD MSTORE POP JUMP JUMPDEST PUSH0 PUSH2 0x57BF PUSH1 0x1A DUP4 PUSH2 0x49BB JUMP JUMPDEST SWAP2 POP PUSH2 0x57CA DUP3 PUSH2 0x578B JUMP JUMPDEST PUSH1 0x20 DUP3 ADD SWAP1 POP SWAP2 SWAP1 POP JUMP JUMPDEST PUSH0 PUSH1 0x20 DUP3 ADD SWAP1 POP DUP2 DUP2 SUB PUSH0 DUP4 ADD MSTORE PUSH2 0x57EC DUP2 PUSH2 0x57B3 JUMP JUMPDEST SWAP1 POP SWAP2 SWAP1 POP JUMP JUMPDEST PUSH0 DUP2 MLOAD SWAP1 POP PUSH2 0x5801 DUP2 PUSH2 0x4EB5 JUMP JUMPDEST SWAP3 SWAP2 POP POP JUMP JUMPDEST PUSH0 PUSH2 0x5819 PUSH2 0x5814 DUP5 PUSH2 0x5183 JUMP JUMPDEST PUSH2 0x5169 JUMP JUMPDEST SWAP1 POP DUP3 DUP2 MSTORE PUSH1 0x20 DUP2 ADD DUP5 DUP5 DUP5 ADD GT ISZERO PUSH2 0x5835 JUMPI PUSH2 0x5834 PUSH2 0x5107 JUMP JUMPDEST JUMPDEST PUSH2 0x5840 DUP5 DUP3 DUP6 PUSH2 0x4B62 JUMP JUMPDEST POP SWAP4 SWAP3 POP POP POP JUMP JUMPDEST PUSH0 DUP3 PUSH1 0x1F DUP4 ADD SLT PUSH2 0x585C JUMPI PUSH2 0x585B PUSH2 0x5103 JUMP JUMPDEST JUMPDEST DUP2 MLOAD PUSH2 0x586C DUP5 DUP3 PUSH1 0x20 DUP7 ADD PUSH2 0x5807 JUMP JUMPDEST SWAP2 POP POP SWAP3 SWAP2 POP POP JUMP JUMPDEST PUSH0 PUSH0 PUSH0 PUSH1 0x60 DUP5 DUP7 SUB SLT ISZERO PUSH2 0x588C JUMPI PUSH2 0x588B PUSH2 0x4BE1 JUMP JUMPDEST JUMPDEST PUSH0 PUSH2 0x5899 DUP7 DUP3 DUP8 ADD PUSH2 0x57F3 JUMP JUMPDEST SWAP4 POP POP PUSH1 0x20 DUP5 ADD MLOAD PUSH8 0xFFFFFFFFFFFFFFFF DUP2 GT ISZERO PUSH2 0x58BA JUMPI PUSH2 0x58B9 PUSH2 0x4BE5 JUMP JUMPDEST JUMPDEST PUSH2 0x58C6 DUP7 DUP3 DUP8 ADD PUSH2 0x5848 JUMP JUMPDEST SWAP3 POP POP PUSH1 0x40 PUSH2 0x58D7 DUP7 DUP3 DUP8 ADD PUSH2 0x57F3 JUMP JUMPDEST SWAP2 POP POP SWAP3 POP SWAP3 POP SWAP3 JUMP JUMPDEST PUSH0 PUSH1 0x80 DUP3 ADD SWAP1 POP PUSH2 0x58F4 PUSH0 DUP4 ADD DUP8 PUSH2 0x4B30 JUMP JUMPDEST DUP2 DUP2 SUB PUSH1 0x20 DUP4 ADD MSTORE PUSH2 0x5906 DUP2 DUP7 PUSH2 0x4B80 JUMP JUMPDEST SWAP1 POP PUSH2 0x5915 PUSH1 0x40 DUP4 ADD DUP6 PUSH2 0x4B30 JUMP JUMPDEST PUSH2 0x5922 PUSH1 0x60 DUP4 ADD DUP5 PUSH2 0x4B30 JUMP JUMPDEST SWAP6 SWAP5 POP POP POP POP POP JUMP JUMPDEST PUSH32 0x4E487B7100000000000000000000000000000000000000000000000000000000 PUSH0 MSTORE PUSH1 0x22 PUSH1 0x4 MSTORE PUSH1 0x24 PUSH0 REVERT JUMPDEST PUSH0 PUSH1 0x2 DUP3 DIV SWAP1 POP PUSH1 0x1 DUP3 AND DUP1 PUSH2 0x596F JUMPI PUSH1 0x7F DUP3 AND SWAP2 POP JUMPDEST PUSH1 0x20 DUP3 LT DUP2 SUB PUSH2 0x5982 JUMPI PUSH2 0x5981 PUSH2 0x592B JUMP JUMPDEST JUMPDEST POP SWAP2 SWAP1 POP JUMP JUMPDEST PUSH32 0x4E487B7100000000000000000000000000000000000000000000000000000000 PUSH0 MSTORE PUSH1 0x11 PUSH1 0x4 MSTORE PUSH1 0x24 PUSH0 REVERT JUMPDEST PUSH0 PUSH2 0x59BF DUP3 PUSH2 0x4B27 JUMP JUMPDEST SWAP2 POP PUSH2 0x59CA DUP4 PUSH2 0x4B27 JUMP JUMPDEST SWAP3 POP DUP3 DUP3 SUB SWAP1 POP DUP2 DUP2 GT ISZERO PUSH2 0x59E2 JUMPI PUSH2 0x59E1 PUSH2 0x5988 JUMP JUMPDEST JUMPDEST SWAP3 SWAP2 POP POP JUMP JUMPDEST PUSH32 0x4E487B7100000000000000000000000000000000000000000000000000000000 PUSH0 MSTORE PUSH1 0x32 PUSH1 0x4 MSTORE PUSH1 0x24 PUSH0 REVERT JUMPDEST PUSH0 PUSH2 0x5A1F DUP3 PUSH2 0x4B27 JUMP JUMPDEST SWAP2 POP PUSH32 0xFFFFFFFFFFFFFFFFFFFFFFFFFFFFFFFFFFFFFFFFFFFFFFFFFFFFFFFFFFFFFFFF DUP3 SUB PUSH2 0x5A51 JUMPI PUSH2 0x5A50 PUSH2 0x5988 JUMP JUMPDEST JUMPDEST PUSH1 0x1 DUP3 ADD SWAP1 POP SWAP2 SWAP1 POP JUMP JUMPDEST PUSH0 PUSH2 0x5A66 DUP3 PUSH2 0x4B27 JUMP JUMPDEST SWAP2 POP PUSH2 0x5A71 DUP4 PUSH2 0x4B27 JUMP JUMPDEST SWAP3 POP DUP3 DUP3 MUL PUSH2 0x5A7F DUP2 PUSH2 0x4B27 JUMP JUMPDEST SWAP2 POP DUP3 DUP3 DIV DUP5 EQ DUP4 ISZERO OR PUSH2 0x5A96 JUMPI PUSH2 0x5A95 PUSH2 0x5988 JUMP JUMPDEST JUMPDEST POP SWAP3 SWAP2 POP POP JUMP JUMPDEST PUSH32 0x4E487B7100000000000000000000000000000000000000000000000000000000 PUSH0 MSTORE PUSH1 0x12 PUSH1 0x4 MSTORE PUSH1 0x24 PUSH0 REVERT JUMPDEST PUSH0 PUSH2 0x5AD4 DUP3 PUSH2 0x4B27 JUMP JUMPDEST SWAP2 POP PUSH2 0x5ADF DUP4 PUSH2 0x4B27 JUMP JUMPDEST SWAP3 POP DUP3 PUSH2 0x5AEF JUMPI PUSH2 0x5AEE PUSH2 0x5A9D JUMP JUMPDEST JUMPDEST DUP3 DUP3 DIV SWAP1 POP SWAP3 SWAP2 POP POP JUMP JUMPDEST PUSH32 0x496E76616C69642063616E646964617465204944000000000000000000000000 PUSH0 DUP3 ADD MSTORE POP JUMP JUMPDEST PUSH0 PUSH2 0x5B2E PUSH1 0x14 DUP4 PUSH2 0x49BB JUMP JUMPDEST SWAP2 POP PUSH2 0x5B39 DUP3 PUSH2 0x5AFA JUMP JUMPDEST PUSH1 0x20 DUP3 ADD SWAP1 POP SWAP2 SWAP1 POP JUMP JUMPDEST PUSH0 PUSH1 0x20 DUP3 ADD SWAP1 POP DUP2 DUP2 SUB PUSH0 DUP4 ADD MSTORE PUSH2 0x5B5B DUP2 PUSH2 0x5B22 JUMP JUMPDEST SWAP1 POP SWAP2 SWAP1 POP JUMP JUMPDEST PUSH32 0x4E6F7420696E20636F727265637420656C656374696F6E207068617365000000 PUSH0 DUP3 ADD MSTORE POP JUMP JUMPDEST PUSH0 PUSH2 0x5B96 PUSH1 0x1D DUP4 PUSH2 0x49BB JUMP JUMPDEST SWAP2 POP PUSH2 0x5BA1 DUP3 PUSH2 0x5B62 JUMP JUMPDEST PUSH1 0x20 DUP3 ADD SWAP1 POP SWAP2 SWAP1 POP JUMP JUMPDEST PUSH0 PUSH1 0x20 DUP3 ADD SWAP1 POP DUP2 DUP2 SUB PUSH0 DUP4 ADD MSTORE PUSH2 0x5BC3 DUP2 PUSH2 0x5B8A JUMP JUMPDEST SWAP1 POP SWAP2 SWAP1 POP JUMP JUMPDEST PUSH32 0x4E6F742061207265676973746572656420766F74657200000000000000000000 PUSH0 DUP3 ADD MSTORE POP JUMP JUMPDEST PUSH0 PUSH2 0x5BFE PUSH1 0x16 DUP4 PUSH2 0x49BB JUMP JUMPDEST SWAP2 POP PUSH2 0x5C09 DUP3 PUSH2 0x5BCA JUMP JUMPDEST PUSH1 0x20 DUP3 ADD SWAP1 POP SWAP2 SWAP1 POP JUMP JUMPDEST PUSH0 PUSH1 0x20 DUP3 ADD SWAP1 POP DUP2 DUP2 SUB PUSH0 DUP4 ADD MSTORE PUSH2 0x5C2B DUP2 PUSH2 0x5BF2 JUMP JUMPDEST SWAP1 POP SWAP2 SWAP1 POP JUMP JUMPDEST PUSH32 0x566F746572206E6F742076657269666965640000000000000000000000000000 PUSH0 DUP3 ADD MSTORE POP JUMP JUMPDEST PUSH0 PUSH2 0x5C66 PUSH1 0x12 DUP4 PUSH2 0x49BB JUMP JUMPDEST SWAP2 POP PUSH2 0x5C71 DUP3 PUSH2 0x5C32 JUMP JUMPDEST PUSH1 0x20 DUP3 ADD SWAP1 POP SWAP2 SWAP1 POP JUMP JUMPDEST PUSH0 PUSH1 0x20 DUP3 ADD SWAP1 POP DUP2 DUP2 SUB PUSH0 DUP4 ADD MSTORE PUSH2 0x5C93 DUP2 PUSH2 0x5C5A JUMP JUMPDEST SWAP1 POP SWAP2 SWAP1 POP JUMP JUMPDEST PUSH32 0x416C726561647920766F74656400000000000000000000000000000000000000 PUSH0 DUP3 ADD MSTORE POP JUMP JUMPDEST PUSH0 PUSH2 0x5CCE PUSH1 0xD DUP4 PUSH2 0x49BB JUMP JUMPDEST SWAP2 POP PUSH2 0x5CD9 DUP3 PUSH2 0x5C9A JUMP JUMPDEST PUSH1 0x20 DUP3 ADD SWAP1 POP SWAP2 SWAP1 POP JUMP JUMPDEST PUSH0 PUSH1 0x20 DUP3 ADD SWAP1 POP DUP2 DUP2 SUB PUSH0 DUP4 ADD MSTORE PUSH2 0x5CFB DUP2 PUSH2 0x5CC2 JUMP JUMPDEST SWAP1 POP SWAP2 SWAP1 POP JUMP JUMPDEST PUSH32 0x43616E646964617465206E6F7420617070726F76656400000000000000000000 PUSH0 DUP3 ADD MSTORE POP JUMP JUMPDEST PUSH0 PUSH2 0x5D36 PUSH1 0x16 DUP4 PUSH2 0x49BB JUMP JUMPDEST SWAP2 POP PUSH2 0x5D41 DUP3 PUSH2 0x5D02 JUMP JUMPDEST PUSH1 0x20 DUP3 ADD SWAP1 POP SWAP2 SWAP1 POP JUMP JUMPDEST PUSH0 PUSH1 0x20 DUP3 ADD SWAP1 POP DUP2 DUP2 SUB PUSH0 DUP4 ADD MSTORE PUSH2 0x5D63 DUP2 PUSH2 0x5D2A JUMP JUMPDEST SWAP1 POP SWAP2 SWAP1 POP JUMP JUMPDEST PUSH0 PUSH8 0xFFFFFFFFFFFFFFFF DUP3 GT ISZERO PUSH2 0x5D84 JUMPI PUSH2 0x5D83 PUSH2 0x510B JUMP JUMPDEST JUMPDEST PUSH1 0x20 DUP3 MUL SWAP1 POP PUSH1 0x20 DUP2 ADD SWAP1 POP SWAP2 SWAP1 POP JUMP JUMPDEST PUSH0 PUSH0 REVERT JUMPDEST PUSH0 PUSH0 REVERT JUMPDEST PUSH0 PUSH0 REVERT JUMPDEST PUSH0 DUP2 MLOAD SWAP1 POP PUSH2 0x5DAF DUP2 PUSH2 0x4C19 JUMP JUMPDEST SWAP3 SWAP2 POP POP JUMP JUMPDEST PUSH2 0x5DBE DUP2 PUSH2 0x4CFD JUMP JUMPDEST DUP2 EQ PUSH2 0x5DC8 JUMPI PUSH0 PUSH0 REVERT JUMPDEST POP JUMP JUMPDEST PUSH0 DUP2 MLOAD SWAP1 POP PUSH2 0x5DD9 DUP2 PUSH2 0x5DB5 JUMP JUMPDEST SWAP3 SWAP2 POP POP JUMP JUMPDEST PUSH0 PUSH2 0x140 DUP3 DUP5 SUB SLT ISZERO PUSH2 0x5DF5 JUMPI PUSH2 0x5DF4 PUSH2 0x5D99 JUMP JUMPDEST JUMPDEST PUSH2 0x5E00 PUSH2 0x140 PUSH2 0x5169 JUMP JUMPDEST SWAP1 POP PUSH0 PUSH2 0x5E0F DUP5 DUP3 DUP6 ADD PUSH2 0x57F3 JUMP JUMPDEST PUSH0 DUP4 ADD MSTORE POP PUSH1 0x20 DUP3 ADD MLOAD PUSH8 0xFFFFFFFFFFFFFFFF DUP2 GT ISZERO PUSH2 0x5E32 JUMPI PUSH2 0x5E31 PUSH2 0x5D9D JUMP JUMPDEST JUMPDEST PUSH2 0x5E3E DUP5 DUP3 DUP6 ADD PUSH2 0x5848 JUMP JUMPDEST PUSH1 0x20 DUP4 ADD MSTORE POP PUSH1 0x40 DUP3 ADD MLOAD PUSH8 0xFFFFFFFFFFFFFFFF DUP2 GT ISZERO PUSH2 0x5E62 JUMPI PUSH2 0x5E61 PUSH2 0x5D9D JUMP JUMPDEST JUMPDEST PUSH2 0x5E6E DUP5 DUP3 DUP6 ADD PUSH2 0x5848 JUMP JUMPDEST PUSH1 0x40 DUP4 ADD MSTORE POP PUSH1 0x60 DUP3 ADD MLOAD PUSH8 0xFFFFFFFFFFFFFFFF DUP2 GT ISZERO PUSH2 0x5E92 JUMPI PUSH2 0x5E91 PUSH2 0x5D9D JUMP JUMPDEST JUMPDEST PUSH2 0x5E9E DUP5 DUP3 DUP6 ADD PUSH2 0x5848 JUMP JUMPDEST PUSH1 0x60 DUP4 ADD MSTORE POP PUSH1 0x80 DUP3 ADD MLOAD PUSH8 0xFFFFFFFFFFFFFFFF DUP2 GT ISZERO PUSH2 0x5EC2 JUMPI PUSH2 0x5EC1 PUSH2 0x5D9D JUMP JUMPDEST JUMPDEST PUSH2 0x5ECE DUP5 DUP3 DUP6 ADD PUSH2 0x5848 JUMP JUMPDEST PUSH1 0x80 DUP4 ADD MSTORE POP PUSH1 0xA0 PUSH2 0x5EE2 DUP5 DUP3 DUP6 ADD PUSH2 0x5DA1 JUMP JUMPDEST PUSH1 0xA0 DUP4 ADD MSTORE POP PUSH1 0xC0 PUSH2 0x5EF6 DUP5 DUP3 DUP6 ADD PUSH2 0x57F3 JUMP JUMPDEST PUSH1 0xC0 DUP4 ADD MSTORE POP PUSH1 0xE0 PUSH2 0x5F0A DUP5 DUP3 DUP6 ADD PUSH2 0x5DCB JUMP JUMPDEST PUSH1 0xE0 DUP4 ADD MSTORE POP PUSH2 0x100 PUSH2 0x5F1F DUP5 DUP3 DUP6 ADD PUSH2 0x57F3 JUMP JUMPDEST PUSH2 0x100 DUP4 ADD MSTORE POP PUSH2 0x120 PUSH2 0x5F35 DUP5 DUP3 DUP6 ADD PUSH2 0x57F3 JUMP JUMPDEST PUSH2 0x120 DUP4 ADD MSTORE POP SWAP3 SWAP2 POP POP JUMP JUMPDEST PUSH0 PUSH2 0x5F54 PUSH2 0x5F4F DUP5 PUSH2 0x5D6A JUMP JUMPDEST PUSH2 0x5169 JUMP JUMPDEST SWAP1 POP DUP1 DUP4 DUP3 MSTORE PUSH1 0x20 DUP3 ADD SWAP1 POP PUSH1 0x20 DUP5 MUL DUP4 ADD DUP6 DUP2 GT ISZERO PUSH2 0x5F77 JUMPI PUSH2 0x5F76 PUSH2 0x5D95 JUMP JUMPDEST JUMPDEST DUP4 JUMPDEST DUP2 DUP2 LT ISZERO PUSH2 0x5FBE JUMPI DUP1 MLOAD PUSH8 0xFFFFFFFFFFFFFFFF DUP2 GT ISZERO PUSH2 0x5F9C JUMPI PUSH2 0x5F9B PUSH2 0x5103 JUMP JUMPDEST JUMPDEST DUP1 DUP7 ADD PUSH2 0x5FA9 DUP10 DUP3 PUSH2 0x5DDF JUMP JUMPDEST DUP6 MSTORE PUSH1 0x20 DUP6 ADD SWAP5 POP POP POP PUSH1 0x20 DUP2 ADD SWAP1 POP PUSH2 0x5F79 JUMP JUMPDEST POP POP POP SWAP4 SWAP3 POP POP POP JUMP JUMPDEST PUSH0 DUP3 PUSH1 0x1F DUP4 ADD SLT PUSH2 0x5FDC JUMPI PUSH2 0x5FDB PUSH2 0x5103 JUMP JUMPDEST JUMPDEST DUP2 MLOAD PUSH2 0x5FEC DUP5 DUP3 PUSH1 0x20 DUP7 ADD PUSH2 0x5F42 JUMP JUMPDEST SWAP2 POP POP SWAP3 SWAP2 POP POP JUMP JUMPDEST PUSH0 PUSH1 0x20 DUP3 DUP5 SUB SLT ISZERO PUSH2 0x600A JUMPI PUSH2 0x6009 PUSH2 0x4BE1 JUMP JUMPDEST JUMPDEST PUSH0 DUP3 ADD MLOAD PUSH8 0xFFFFFFFFFFFFFFFF DUP2 GT ISZERO PUSH2 0x6027 JUMPI PUSH2 0x6026 PUSH2 0x4BE5 JUMP JUMPDEST JUMPDEST PUSH2 0x6033 DUP5 DUP3 DUP6 ADD PUSH2 0x5FC8 JUMP JUMPDEST SWAP2 POP POP SWAP3 SWAP2 POP POP JUMP JUMPDEST PUSH32 0x4E6F7420616E206F666669636572000000000000000000000000000000000000 PUSH0 DUP3 ADD MSTORE POP JUMP JUMPDEST PUSH0 PUSH2 0x6070 PUSH1 0xE DUP4 PUSH2 0x49BB JUMP JUMPDEST SWAP2 POP PUSH2 0x607B DUP3 PUSH2 0x603C JUMP JUMPDEST PUSH1 0x20 DUP3 ADD SWAP1 POP SWAP2 SWAP1 POP JUMP JUMPDEST PUSH0 PUSH1 0x20 DUP3 ADD SWAP1 POP DUP2 DUP2 SUB PUSH0 DUP4 ADD MSTORE PUSH2 0x609D DUP2 PUSH2 0x6064 JUMP JUMPDEST SWAP1 POP SWAP2 SWAP1 POP JUMP JUMPDEST PUSH32 0x42656C6F77206D696E696D756D20766F74696E67206167650000000000000000 PUSH0 DUP3 ADD MSTORE POP JUMP JUMPDEST PUSH0 PUSH2 0x60D8 PUSH1 0x18 DUP4 PUSH2 0x49BB JUMP JUMPDEST SWAP2 POP PUSH2 0x60E3 DUP3 PUSH2 0x60A4 JUMP JUMPDEST PUSH1 0x20 DUP3 ADD SWAP1 POP SWAP2 SWAP1 POP JUMP JUMPDEST PUSH0 PUSH1 0x20 DUP3 ADD SWAP1 POP DUP2 DUP2 SUB PUSH0 DUP4 ADD MSTORE PUSH2 0x6105 DUP2 PUSH2 0x60CC JUMP JUMPDEST SWAP1 POP SWAP2 SWAP1 POP JUMP JUMPDEST PUSH32 0x416C7265616479207265676973746572656420617320766F7465720000000000 PUSH0 DUP3 ADD MSTORE POP JUMP JUMPDEST PUSH0 PUSH2 0x6140 PUSH1 0x1B DUP4 PUSH2 0x49BB JUMP JUMPDEST SWAP2 POP PUSH2 0x614B DUP3 PUSH2 0x610C JUMP JUMPDEST PUSH1 0x20 DUP3 ADD SWAP1 POP SWAP2 SWAP1 POP JUMP JUMPDEST PUSH0 PUSH1 0x20 DUP3 ADD SWAP1 POP DUP2 DUP2 SUB PUSH0 DUP4 ADD MSTORE PUSH2 0x616D DUP2 PUSH2 0x6134 JUMP JUMPDEST SWAP1 POP SWAP2 SWAP1 POP JUMP JUMPDEST PUSH32 0x4E616D6520726571756972656400000000000000000000000000000000000000 PUSH0 DUP3 ADD MSTORE POP JUMP JUMPDEST PUSH0 PUSH2 0x61A8 PUSH1 0xD DUP4 PUSH2 0x49BB JUMP JUMPDEST SWAP2 POP PUSH2 0x61B3 DUP3 PUSH2 0x6174 JUMP JUMPDEST PUSH1 0x20 DUP3 ADD SWAP1 POP SWAP2 SWAP1 POP JUMP JUMPDEST PUSH0 PUSH1 0x20 DUP3 ADD SWAP1 POP DUP2 DUP2 SUB PUSH0 DUP4 ADD MSTORE PUSH2 0x61D5 DUP2 PUSH2 0x619C JUMP JUMPDEST SWAP1 POP SWAP2 SWAP1 POP JUMP JUMPDEST PUSH0 DUP2 SWAP1 POP DUP2 PUSH0 MSTORE PUSH1 0x20 PUSH0 KECCAK256 SWAP1 POP SWAP2 SWAP1 POP JUMP JUMPDEST PUSH0 PUSH1 0x20 PUSH1 0x1F DUP4 ADD DIV SWAP1 POP SWAP2 SWAP1 POP JUMP JUMPDEST PUSH0 DUP3 DUP3 SHL SWAP1 POP SWAP3 SWAP2 POP POP JUMP JUMPDEST PUSH0 PUSH1 0x8 DUP4 MUL PUSH2 0x6238 PUSH32 0xFFFFFFFFFFFFFFFFFFFFFFFFFFFFFFFFFFFFFFFFFFFFFFFFFFFFFFFFFFFFFFFF DUP3 PUSH2 0x61FD JUMP JUMPDEST PUSH2 0x6242 DUP7 DUP4 PUSH2 0x61FD JUMP JUMPDEST SWAP6 POP DUP1 NOT DUP5 AND SWAP4 POP DUP1 DUP7 AND DUP5 OR SWAP3 POP POP POP SWAP4 SWAP3 POP POP POP JUMP JUMPDEST PUSH0 DUP2 SWAP1 POP SWAP2 SWAP1 POP JUMP JUMPDEST PUSH0 PUSH2 0x627D PUSH2 0x6278 PUSH2 0x6273 DUP5 PUSH2 0x4B27 JUMP JUMPDEST PUSH2 0x625A JUMP JUMPDEST PUSH2 0x4B27 JUMP JUMPDEST SWAP1 POP SWAP2 SWAP1 POP JUMP JUMPDEST PUSH0 DUP2 SWAP1 POP SWAP2 SWAP1 POP JUMP JUMPDEST PUSH2 0x6296 DUP4 PUSH2 0x6263 JUMP JUMPDEST PUSH2 0x62AA PUSH2 0x62A2 DUP3 PUSH2 0x6284 JUMP JUMPDEST DUP5 DUP5 SLOAD PUSH2 0x6209 JUMP JUMPDEST DUP3 SSTORE POP POP POP POP JUMP JUMPDEST PUSH0 PUSH0 SWAP1 POP SWAP1 JUMP JUMPDEST PUSH2 0x62C1 PUSH2 0x62B2 JUMP JUMPDEST PUSH2 0x62CC DUP2 DUP5 DUP5 PUSH2 0x628D JUMP JUMPDEST POP POP POP JUMP JUMPDEST JUMPDEST DUP2 DUP2 LT ISZERO PUSH2 0x62EF JUMPI PUSH2 0x62E4 PUSH0 DUP3 PUSH2 0x62B9 JUMP JUMPDEST PUSH1 0x1 DUP2 ADD SWAP1 POP PUSH2 0x62D2 JUMP JUMPDEST POP POP JUMP JUMPDEST PUSH1 0x1F DUP3 GT ISZERO PUSH2 0x6334 JUMPI PUSH2 0x6305 DUP2 PUSH2 0x61DC JUMP JUMPDEST PUSH2 0x630E DUP5 PUSH2 0x61EE JUMP JUMPDEST DUP2 ADD PUSH1 0x20 DUP6 LT ISZERO PUSH2 0x631D JUMPI DUP2 SWAP1 POP JUMPDEST PUSH2 0x6331 PUSH2 0x6329 DUP6 PUSH2 0x61EE JUMP JUMPDEST DUP4 ADD DUP3 PUSH2 0x62D1 JUMP JUMPDEST POP POP JUMPDEST POP POP POP JUMP JUMPDEST PUSH0 DUP3 DUP3 SHR SWAP1 POP SWAP3 SWAP2 POP POP JUMP JUMPDEST PUSH0 PUSH2 0x6354 PUSH0 NOT DUP5 PUSH1 0x8 MUL PUSH2 0x6339 JUMP JUMPDEST NOT DUP1 DUP4 AND SWAP2 POP POP SWAP3 SWAP2 POP POP JUMP JUMPDEST PUSH0 PUSH2 0x636C DUP4 DUP4 PUSH2 0x6345 JUMP JUMPDEST SWAP2 POP DUP3 PUSH1 0x2 MUL DUP3 OR SWAP1 POP SWAP3 SWAP2 POP POP JUMP JUMPDEST PUSH2 0x6385 DUP3 PUSH2 0x4B58 JUMP JUMPDEST PUSH8 0xFFFFFFFFFFFFFFFF DUP2 GT ISZERO PUSH2 0x639E JUMPI PUSH2 0x639D PUSH2 0x510B JUMP JUMPDEST JUMPDEST PUSH2 0x63A8 DUP3 SLOAD PUSH2 0x5958 JUMP JUMPDEST PUSH2 0x63B3 DUP3 DUP3 DUP6 PUSH2 0x62F3 JUMP JUMPDEST PUSH0 PUSH1 0x20 SWAP1 POP PUSH1 0x1F DUP4 GT PUSH1 0x1 DUP2 EQ PUSH2 0x63E4 JUMPI PUSH0 DUP5 ISZERO PUSH2 0x63D2 JUMPI DUP3 DUP8 ADD MLOAD SWAP1 POP JUMPDEST PUSH2 0x63DC DUP6 DUP3 PUSH2 0x6361 JUMP JUMPDEST DUP7 SSTORE POP PUSH2 0x6443 JUMP JUMPDEST PUSH1 0x1F NOT DUP5 AND PUSH2 0x63F2 DUP7 PUSH2 0x61DC JUMP JUMPDEST PUSH0 JUMPDEST DUP3 DUP2 LT ISZERO PUSH2 0x6419 JUMPI DUP5 DUP10 ADD MLOAD DUP3 SSTORE PUSH1 0x1 DUP3 ADD SWAP2 POP PUSH1 0x20 DUP6 ADD SWAP5 POP PUSH1 0x20 DUP2 ADD SWAP1 POP PUSH2 0x63F4 JUMP JUMPDEST DUP7 DUP4 LT ISZERO PUSH2 0x6436 JUMPI DUP5 DUP10 ADD MLOAD PUSH2 0x6432 PUSH1 0x1F DUP10 AND DUP3 PUSH2 0x6345 JUMP JUMPDEST DUP4 SSTORE POP JUMPDEST PUSH1 0x1 PUSH1 0x2 DUP9 MUL ADD DUP9 SSTORE POP POP POP JUMPDEST POP POP POP POP POP POP JUMP JUMPDEST PUSH0 PUSH1 0x60 DUP3 ADD SWAP1 POP DUP2 DUP2 SUB PUSH0 DUP4 ADD MSTORE PUSH2 0x6463 DUP2 DUP7 PUSH2 0x4B80 JUMP JUMPDEST SWAP1 POP PUSH2 0x6472 PUSH1 0x20 DUP4 ADD DUP6 PUSH2 0x4F0A JUMP JUMPDEST PUSH2 0x647F PUSH1 0x40 DUP4 ADD DUP5 PUSH2 0x4B30 JUMP JUMPDEST SWAP5 SWAP4 POP POP POP POP JUMP JUMPDEST PUSH32 0x496E76616C696420616464726573730000000000000000000000000000000000 PUSH0 DUP3 ADD MSTORE POP JUMP JUMPDEST PUSH0 PUSH2 0x64BB PUSH1 0xF DUP4 PUSH2 0x49BB JUMP JUMPDEST SWAP2 POP PUSH2 0x64C6 DUP3 PUSH2 0x6487 JUMP JUMPDEST PUSH1 0x20 DUP3 ADD SWAP1 POP SWAP2 SWAP1 POP JUMP JUMPDEST PUSH0 PUSH1 0x20 DUP3 ADD SWAP1 POP DUP2 DUP2 SUB PUSH0 DUP4 ADD MSTORE PUSH2 0x64E8 DUP2 PUSH2 0x64AF JUMP JUMPDEST SWAP1 POP SWAP2 SWAP1 POP JUMP JUMPDEST PUSH32 0x416C726561647920616E206F6666696365720000000000000000000000000000 PUSH0 DUP3 ADD MSTORE POP JUMP JUMPDEST PUSH0 PUSH2 0x6523 PUSH1 0x12 DUP4 PUSH2 0x49BB JUMP JUMPDEST SWAP2 POP PUSH2 0x652E DUP3 PUSH2 0x64EF JUMP JUMPDEST PUSH1 0x20 DUP3 ADD SWAP1 POP SWAP2 SWAP1 POP JUMP JUMPDEST PUSH0 PUSH1 0x20 DUP3 ADD SWAP1 POP DUP2 DUP2 SUB PUSH0 DUP4 ADD MSTORE PUSH2 0x6550 DUP2 PUSH2 0x6517 JUMP JUMPDEST SWAP1 POP SWAP2 SWAP1 POP JUMP JUMPDEST PUSH32 0x4F6E6C7920456C656374696F6E204F6666696365727300000000000000000000 PUSH0 DUP3 ADD MSTORE POP JUMP JUMPDEST PUSH0 PUSH2 0x658B PUSH1 0x16 DUP4 PUSH2 0x49BB JUMP JUMPDEST SWAP2 POP PUSH2 0x6596 DUP3 PUSH2 0x6557 JUMP JUMPDEST PUSH1 0x20 DUP3 ADD SWAP1 POP SWAP2 SWAP1 POP JUMP JUMPDEST PUSH0 PUSH1 0x20 DUP3 ADD SWAP1 POP DUP2 DUP2 SUB PUSH0 DUP4 ADD MSTORE PUSH2 0x65B8 DUP2 PUSH2 0x657F JUMP JUMPDEST SWAP1 POP SWAP2 SWAP1 POP JUMP JUMPDEST PUSH32 0x416C726561647920617070726F76656400000000000000000000000000000000 PUSH0 DUP3 ADD MSTORE POP JUMP JUMPDEST PUSH0 PUSH2 0x65F3 PUSH1 0x10 DUP4 PUSH2 0x49BB JUMP JUMPDEST SWAP2 POP PUSH2 0x65FE DUP3 PUSH2 0x65BF JUMP JUMPDEST PUSH1 0x20 DUP3 ADD SWAP1 POP SWAP2 SWAP1 POP JUMP JUMPDEST PUSH0 PUSH1 0x20 DUP3 ADD SWAP1 POP DUP2 DUP2 SUB PUSH0 DUP4 ADD MSTORE PUSH2 0x6620 DUP2 PUSH2 0x65E7 JUMP JUMPDEST SWAP1 POP SWAP2 SWAP1 POP JUMP JUMPDEST PUSH0 PUSH1 0x40 DUP3 ADD SWAP1 POP PUSH2 0x663A PUSH0 DUP4 ADD DUP6 PUSH2 0x4F0A JUMP JUMPDEST PUSH2 0x6647 PUSH1 0x20 DUP4 ADD DUP5 PUSH2 0x4B30 JUMP JUMPDEST SWAP4 SWAP3 POP POP POP JUMP JUMPDEST PUSH32 0x496E73756666696369656E74207365637572697479206465706F736974000000 PUSH0 DUP3 ADD MSTORE POP JUMP JUMPDEST PUSH0 PUSH2 0x6682 PUSH1 0x1D DUP4 PUSH2 0x49BB JUMP JUMPDEST SWAP2 POP PUSH2 0x668D DUP3 PUSH2 0x664E JUMP JUMPDEST PUSH1 0x20 DUP3 ADD SWAP1 POP SWAP2 SWAP1 POP JUMP JUMPDEST PUSH0 PUSH1 0x20 DUP3 ADD SWAP1 POP DUP2 DUP2 SUB PUSH0 DUP4 ADD MSTORE PUSH2 0x66AF DUP2 PUSH2 0x6676 JUMP JUMPDEST SWAP1 POP SWAP2 SWAP1 POP JUMP JUMPDEST PUSH32 0x416C726561647920726567697374657265642061732063616E64696461746500 PUSH0 DUP3 ADD MSTORE POP JUMP JUMPDEST PUSH0 PUSH2 0x66EA PUSH1 0x1F DUP4 PUSH2 0x49BB JUMP JUMPDEST SWAP2 POP PUSH2 0x66F5 DUP3 PUSH2 0x66B6 JUMP JUMPDEST PUSH1 0x20 DUP3 ADD SWAP1 POP SWAP2 SWAP1 POP JUMP JUMPDEST PUSH0 PUSH1 0x20 DUP3 ADD SWAP1 POP DUP2 DUP2 SUB PUSH0 DUP4 ADD MSTORE PUSH2 0x6717 DUP2 PUSH2 0x66DE JUMP JUMPDEST SWAP1 POP SWAP2 SWAP1 POP JUMP JUMPDEST PUSH32 0x5061727479207265717569726564000000000000000000000000000000000000 PUSH0 DUP3 ADD MSTORE POP JUMP JUMPDEST PUSH0 PUSH2 0x6752 PUSH1 0xE DUP4 PUSH2 0x49BB JUMP JUMPDEST SWAP2 POP PUSH2 0x675D DUP3 PUSH2 0x671E JUMP JUMPDEST PUSH1 0x20 DUP3 ADD SWAP1 POP SWAP2 SWAP1 POP JUMP JUMPDEST PUSH0 PUSH1 0x20 DUP3 ADD SWAP1 POP DUP2 DUP2 SUB PUSH0 DUP4 ADD MSTORE PUSH2 0x677F DUP2 PUSH2 0x6746 JUMP JUMPDEST SWAP1 POP SWAP2 SWAP1 POP JUMP JUMPDEST PUSH0 PUSH1 0x80 DUP3 ADD SWAP1 POP DUP2 DUP2 SUB PUSH0 DUP4 ADD MSTORE PUSH2 0x679E DUP2 DUP8 PUSH2 0x4B80 JUMP JUMPDEST SWAP1 POP DUP2 DUP2 SUB PUSH1 0x20 DUP4 ADD MSTORE PUSH2 0x67B2 DUP2 DUP7 PUSH2 0x4B80 JUMP JUMPDEST SWAP1 POP PUSH2 0x67C1 PUSH1 0x40 DUP4 ADD DUP6 PUSH2 0x4F0A JUMP JUMPDEST PUSH2 0x67CE PUSH1 0x60 DUP4 ADD DUP5 PUSH2 0x4B30 JUMP JUMPDEST SWAP6 SWAP5 POP POP POP POP POP JUMP JUMPDEST PUSH0 PUSH1 0x60 DUP3 ADD SWAP1 POP PUSH2 0x67EA PUSH0 DUP4 ADD DUP7 PUSH2 0x4AFF JUMP JUMPDEST PUSH2 0x67F7 PUSH1 0x20 DUP4 ADD DUP6 PUSH2 0x4AFF JUMP JUMPDEST PUSH2 0x6804 PUSH1 0x40 DUP4 ADD DUP5 PUSH2 0x4B30 JUMP JUMPDEST SWAP5 SWAP4 POP POP POP POP JUMP JUMPDEST PUSH32 0x4E6F20766F746573206361737420796574000000000000000000000000000000 PUSH0 DUP3 ADD MSTORE POP JUMP JUMPDEST PUSH0 PUSH2 0x6840 PUSH1 0x11 DUP4 PUSH2 0x49BB JUMP JUMPDEST SWAP2 POP PUSH2 0x684B DUP3 PUSH2 0x680C JUMP JUMPDEST PUSH1 0x20 DUP3 ADD SWAP1 POP SWAP2 SWAP1 POP JUMP JUMPDEST PUSH0 PUSH1 0x20 DUP3 ADD SWAP1 POP DUP2 DUP2 SUB PUSH0 DUP4 ADD MSTORE PUSH2 0x686D DUP2 PUSH2 0x6834 JUMP JUMPDEST SWAP1 POP SWAP2 SWAP1 POP JUMP JUMPDEST PUSH32 0x4E6F2077696E6E65722079657400000000000000000000000000000000000000 PUSH0 DUP3 ADD MSTORE POP JUMP JUMPDEST PUSH0 PUSH2 0x68A8 PUSH1 0xD DUP4 PUSH2 0x49BB JUMP JUMPDEST SWAP2 POP PUSH2 0x68B3 DUP3 PUSH2 0x6874 JUMP JUMPDEST PUSH1 0x20 DUP3 ADD SWAP1 POP SWAP2 SWAP1 POP JUMP JUMPDEST PUSH0 PUSH1 0x20 DUP3 ADD SWAP1 POP DUP2 DUP2 SUB PUSH0 DUP4 ADD MSTORE PUSH2 0x68D5 DUP2 PUSH2 0x689C JUMP JUMPDEST SWAP1 POP SWAP2 SWAP1 POP JUMP JUMPDEST PUSH32 0x496E76616C696420766F74657220494400000000000000000000000000000000 PUSH0 DUP3 ADD MSTORE POP JUMP JUMPDEST PUSH0 PUSH2 0x6910 PUSH1 0x10 DUP4 PUSH2 0x49BB JUMP JUMPDEST SWAP2 POP PUSH2 0x691B DUP3 PUSH2 0x68DC JUMP JUMPDEST PUSH1 0x20 DUP3 ADD SWAP1 POP SWAP2 SWAP1 POP JUMP JUMPDEST PUSH0 PUSH1 0x20 DUP3 ADD SWAP1 POP DUP2 DUP2 SUB PUSH0 DUP4 ADD MSTORE PUSH2 0x693D DUP2 PUSH2 0x6904 JUMP JUMPDEST SWAP1 POP SWAP2 SWAP1 POP JUMP JUMPDEST PUSH32 0x416C726561647920766572696669656400000000000000000000000000000000 PUSH0 DUP3 ADD MSTORE POP JUMP JUMPDEST PUSH0 PUSH2 0x6978 PUSH1 0x10 DUP4 PUSH2 0x49BB JUMP JUMPDEST SWAP2 POP PUSH2 0x6983 DUP3 PUSH2 0x6944 JUMP JUMPDEST PUSH1 0x20 DUP3 ADD SWAP1 POP SWAP2 SWAP1 POP JUMP JUMPDEST PUSH0 PUSH1 0x20 DUP3 ADD SWAP1 POP DUP2 DUP2 SUB PUSH0 DUP4 ADD MSTORE PUSH2 0x69A5 DUP2 PUSH2 0x696C JUMP JUMPDEST SWAP1 POP SWAP2 SWAP1 POP JUMP JUMPDEST PUSH32 0x4E6F74206120726567697374657265642063616E646964617465000000000000 PUSH0 DUP3 ADD MSTORE POP JUMP JUMPDEST PUSH0 PUSH2 0x69E0 PUSH1 0x1A DUP4 PUSH2 0x49BB JUMP JUMPDEST SWAP2 POP PUSH2 0x69EB DUP3 PUSH2 0x69AC JUMP JUMPDEST PUSH1 0x20 DUP3 ADD SWAP1 POP SWAP2 SWAP1 POP JUMP JUMPDEST PUSH0 PUSH1 0x20 DUP3 ADD SWAP1 POP DUP2 DUP2 SUB PUSH0 DUP4 ADD MSTORE PUSH2 0x6A0D DUP2 PUSH2 0x69D4 JUMP JUMPDEST SWAP1 POP SWAP2 SWAP1 POP JUMP JUMPDEST PUSH32 0x5265656E7472616E637947756172643A207265656E7472616E742063616C6C00 PUSH0 DUP3 ADD MSTORE POP JUMP JUMPDEST PUSH0 PUSH2 0x6A48 PUSH1 0x1F DUP4 PUSH2 0x49BB JUMP JUMPDEST SWAP2 POP PUSH2 0x6A53 DUP3 PUSH2 0x6A14 JUMP JUMPDEST PUSH1 0x20 DUP3 ADD SWAP1 POP SWAP2 SWAP1 POP JUMP JUMPDEST PUSH0 PUSH1 0x20 DUP3 ADD SWAP1 POP DUP2 DUP2 SUB PUSH0 DUP4 ADD MSTORE PUSH2 0x6A75 DUP2 PUSH2 0x6A3C JUMP JUMPDEST SWAP1 POP SWAP2 SWAP1 POP JUMP INVALID LOG2 PUSH5 0x6970667358 0x22 SLT KECCAK256 ADD TIMESTAMP 0xC 0x4C 0xAC PUSH17 0xE239206D74E03F09369F8821F8F4C33BEF PUSH2 0x64F4 0x22 PUSH13 0x819A90364736F6C634300081E STOP CALLER "
		},
		"gasEstimates": {
			"creation": {
				"codeDepositCost": "5462800",
				"executionCost": "infinite",
				"totalCost": "infinite"
			},
			"external": {
				"": "557",
				"MIN_VOTING_AGE()": "436",
				"SECURITY_DEPOSIT()": "436",
				"addElectionOfficer(address)": "30953",
				"approveCandidate(uint256)": "infinite",
				"campaignEndTime()": "2560",
				"campaignStartTime()": "2582",
				"candidateAddressToId(address)": "2847",
				"candidateCount()": "2470",
				"candidateRegEndTime()": "2515",
				"candidateRegStartTime()": "2471",
				"candidates(uint256)": "infinite",
				"castNotaVote()": "infinite",
				"castVote(uint256)": "infinite",
				"chiefElectionCommissioner()": "2641",
				"constituency()": "infinite",
				"currentPhase()": "2623",
				"declareResults()": "infinite",
				"electionName()": "infinite",
				"electionOfficers(address)": "2900",
				"getAllCandidates()": "infinite",
				"getApprovedCandidates()": "infinite",
				"getCandidate(uint256)": "infinite",
				"getElectionInfo()": "infinite",
				"getElectionStatus()": "infinite",
				"getResults()": "infinite",
				"getVoter(uint256)": "infinite",
				"getVoterTurnout()": "infinite",
				"getWinner()": "infinite",
				"hasVoterVoted(address)": "5248",
				"isCandidateApproved(address)": "5243",
				"isVoterVerified(address)": "5228",
				"notaVotes()": "2513",
				"registerCandidate(string,string,string,string)": "infinite",
				"registerVoter(string,uint256,string)": "infinite",
				"rejectCandidate(uint256)": "infinite",
				"rejectVoter(uint256)": "infinite",
				"removeElectionOfficer(address)": "30849",
				"setElectionPhase(uint8)": "infinite",
				"setPhaseTimestamps(uint256,uint256,uint256,uint256,uint256,uint256,uint256,uint256)": "infinite",
				"totalVotes()": "2516",
				"updateManifesto(string)": "infinite",
				"verifyVoter(uint256)": "infinite",
				"voterAddressToId(address)": "2892",
				"voterCount()": "2559",
				"voterRegEndTime()": "2514",
				"voterRegStartTime()": "2558",
				"voters(uint256)": "infinite",
				"votingEndTime()": "2493",
				"votingStartTime()": "2537",
				"withdrawSecurityDeposits()": "infinite"
			}
		},
		"methodIdentifiers": {
			"MIN_VOTING_AGE()": "c3b0a88b",
			"SECURITY_DEPOSIT()": "f6948559",
			"addElectionOfficer(address)": "6733765b",
			"approveCandidate(uint256)": "69956046",
			"campaignEndTime()": "12498a70",
			"campaignStartTime()": "13e7b33e",
			"candidateAddressToId(address)": "8a2e368b",
			"candidateCount()": "a9a981a3",
			"candidateRegEndTime()": "4e3ad145",
			"candidateRegStartTime()": "156e9033",
			"candidates(uint256)": "3477ee2e",
			"castNotaVote()": "6e40d4ba",
			"castVote(uint256)": "3eb76b9c",
			"chiefElectionCommissioner()": "ca298f62",
			"constituency()": "55f776c0",
			"currentPhase()": "055ad42e",
			"declareResults()": "0248a341",
			"electionName()": "85e8e7a7",
			"electionOfficers(address)": "ae7cb26f",
			"getAllCandidates()": "2e6997fe",
			"getApprovedCandidates()": "8ad22706",
			"getCandidate(uint256)": "35b8e820",
			"getElectionInfo()": "86852dca",
			"getElectionStatus()": "122902a6",
			"getResults()": "4717f97c",
			"getVoter(uint256)": "d07bff0c",
			"getVoterTurnout()": "2fd0d870",
			"getWinner()": "8e7ea5b2",
			"hasVoterVoted(address)": "fd11f97a",
			"isCandidateApproved(address)": "43012c69",
			"isVoterVerified(address)": "3ce3b25d",
			"notaVotes()": "fced5fa4",
			"registerCandidate(string,string,string,string)": "7aff6f91",
			"registerVoter(string,uint256,string)": "6636b91e",
			"rejectCandidate(uint256)": "797a882a",
			"rejectVoter(uint256)": "f169b308",
			"removeElectionOfficer(address)": "5d0e91c5",
			"setElectionPhase(uint8)": "8c421fbc",
			"setPhaseTimestamps(uint256,uint256,uint256,uint256,uint256,uint256,uint256,uint256)": "fdba31cc",
			"totalVotes()": "0d15fd77",
			"updateManifesto(string)": "bdb01a38",
			"verifyVoter(uint256)": "a0bd43e5",
			"voterAddressToId(address)": "1eac8de0",
			"voterCount()": "42169e48",
			"voterRegEndTime()": "660cdec8",
			"voterRegStartTime()": "990edc3d",
			"voters(uint256)": "da58c7d9",
			"votingEndTime()": "1ea736e0",
			"votingStartTime()": "2019a608",
			"withdrawSecurityDeposits()": "fb45f128"
		}
	},
	"abi": [
		{
			"inputs": [
				{
					"internalType": "string",
					"name": "_electionName",
					"type": "string"
				},
				{
					"internalType": "string",
					"name": "_constituency",
					"type": "string"
				}
			],
			"stateMutability": "nonpayable",
			"type": "constructor"
		},
		{
			"anonymous": false,
			"inputs": [
				{
					"indexed": true,
					"internalType": "uint256",
					"name": "candidateId",
					"type": "uint256"
				},
				{
					"indexed": false,
					"internalType": "address",
					"name": "approvedBy",
					"type": "address"
				},
				{
					"indexed": false,
					"internalType": "uint256",
					"name": "timestamp",
					"type": "uint256"
				}
			],
			"name": "CandidateApproved",
			"type": "event"
		},
		{
			"anonymous": false,
			"inputs": [
				{
					"indexed": true,
					"internalType": "uint256",
					"name": "candidateId",
					"type": "uint256"
				},
				{
					"indexed": false,
					"internalType": "string",
					"name": "name",
					"type": "string"
				},
				{
					"indexed": false,
					"internalType": "string",
					"name": "party",
					"type": "string"
				},
				{
					"indexed": false,
					"internalType": "address",
					"name": "candidateAddress",
					"type": "address"
				},
				{
					"indexed": false,
					"internalType": "uint256",
					"name": "timestamp",
					"type": "uint256"
				}
			],
			"name": "CandidateRegistered",
			"type": "event"
		},
		{
			"anonymous": false,
			"inputs": [
				{
					"indexed": true,
					"internalType": "uint256",
					"name": "candidateId",
					"type": "uint256"
				},
				{
					"indexed": false,
					"internalType": "address",
					"name": "rejectedBy",
					"type": "address"
				},
				{
					"indexed": false,
					"internalType": "uint256",
					"name": "timestamp",
					"type": "uint256"
				}
			],
			"name": "CandidateRejected",
			"type": "event"
		},
		{
			"anonymous": false,
			"inputs": [
				{
					"indexed": false,
					"internalType": "string",
					"name": "electionName",
					"type": "string"
				},
				{
					"indexed": false,
					"internalType": "string",
					"name": "constituency",
					"type": "string"
				},
				{
					"indexed": false,
					"internalType": "uint256",
					"name": "timestamp",
					"type": "uint256"
				}
			],
			"name": "ElectionCreated",
			"type": "event"
		},
		{
			"anonymous": false,
			"inputs": [
				{
					"indexed": true,
					"internalType": "address",
					"name": "officer",
					"type": "address"
				},
				{
					"indexed": false,
					"internalType": "uint256",
					"name": "timestamp",
					"type": "uint256"
				}
			],
			"name": "ElectionOfficerAdded",
			"type": "event"
		},
		{
			"anonymous": false,
			"inputs": [
				{
					"indexed": true,
					"internalType": "address",
					"name": "officer",
					"type": "address"
				},
				{
					"indexed": false,
					"internalType": "uint256",
					"name": "timestamp",
					"type": "uint256"
				}
			],
			"name": "ElectionOfficerRemoved",
			"type": "event"
		},
		{
			"anonymous": false,
			"inputs": [
				{
					"indexed": true,
					"internalType": "uint256",
					"name": "candidateId",
					"type": "uint256"
				},
				{
					"indexed": false,
					"internalType": "uint256",
					"name": "timestamp",
					"type": "uint256"
				}
			],
			"name": "ManifestoUpdated",
			"type": "event"
		},
		{
			"anonymous": false,
			"inputs": [
				{
					"indexed": true,
					"internalType": "uint256",
					"name": "voterId",
					"type": "uint256"
				},
				{
					"indexed": false,
					"internalType": "uint256",
					"name": "timestamp",
					"type": "uint256"
				}
			],
			"name": "NotaVoteCast",
			"type": "event"
		},
		{
			"anonymous": false,
			"inputs": [
				{
					"indexed": false,
					"internalType": "enum ElectionCommission.ElectionPhase",
					"name": "oldPhase",
					"type": "uint8"
				},
				{
					"indexed": false,
					"internalType": "enum ElectionCommission.ElectionPhase",
					"name": "newPhase",
					"type": "uint8"
				},
				{
					"indexed": false,
					"internalType": "uint256",
					"name": "timestamp",
					"type": "uint256"
				}
			],
			"name": "PhaseChanged",
			"type": "event"
		},
		{
			"anonymous": false,
			"inputs": [
				{
					"indexed": false,
					"internalType": "uint256",
					"name": "winnerId",
					"type": "uint256"
				},
				{
					"indexed": false,
					"internalType": "string",
					"name": "winnerName",
					"type": "string"
				},
				{
					"indexed": false,
					"internalType": "uint256",
					"name": "voteCount",
					"type": "uint256"
				},
				{
					"indexed": false,
					"internalType": "uint256",
					"name": "timestamp",
					"type": "uint256"
				}
			],
			"name": "ResultsDeclared",
			"type": "event"
		},
		{
			"anonymous": false,
			"inputs": [
				{
					"indexed": true,
					"internalType": "uint256",
					"name": "voterId",
					"type": "uint256"
				},
				{
					"indexed": true,
					"internalType": "uint256",
					"name": "candidateId",
					"type": "uint256"
				},
				{
					"indexed": false,
					"internalType": "uint256",
					"name": "timestamp",
					"type": "uint256"
				}
			],
			"name": "VoteCast",
			"type": "event"
		},
		{
			"anonymous": false,
			"inputs": [
				{
					"indexed": true,
					"internalType": "uint256",
					"name": "voterId",
					"type": "uint256"
				},
				{
					"indexed": false,
					"internalType": "string",
					"name": "name",
					"type": "string"
				},
				{
					"indexed": false,
					"internalType": "address",
					"name": "voterAddress",
					"type": "address"
				},
				{
					"indexed": false,
					"internalType": "uint256",
					"name": "timestamp",
					"type": "uint256"
				}
			],
			"name": "VoterRegistered",
			"type": "event"
		},
		{
			"anonymous": false,
			"inputs": [
				{
					"indexed": true,
					"internalType": "uint256",
					"name": "voterId",
					"type": "uint256"
				},
				{
					"indexed": false,
					"internalType": "address",
					"name": "rejectedBy",
					"type": "address"
				},
				{
					"indexed": false,
					"internalType": "uint256",
					"name": "timestamp",
					"type": "uint256"
				}
			],
			"name": "VoterRejected",
			"type": "event"
		},
		{
			"anonymous": false,
			"inputs": [
				{
					"indexed": true,
					"internalType": "uint256",
					"name": "voterId",
					"type": "uint256"
				},
				{
					"indexed": false,
					"internalType": "address",
					"name": "verifiedBy",
					"type": "address"
				},
				{
					"indexed": false,
					"internalType": "uint256",
					"name": "timestamp",
					"type": "uint256"
				}
			],
			"name": "VoterVerified",
			"type": "event"
		},
		{
			"stateMutability": "payable",
			"type": "fallback"
		},
		{
			"inputs": [],
			"name": "MIN_VOTING_AGE",
			"outputs": [
				{
					"internalType": "uint256",
					"name": "",
					"type": "uint256"
				}
			],
			"stateMutability": "view",
			"type": "function"
		},
		{
			"inputs": [],
			"name": "SECURITY_DEPOSIT",
			"outputs": [
				{
					"internalType": "uint256",
					"name": "",
					"type": "uint256"
				}
			],
			"stateMutability": "view",
			"type": "function"
		},
		{
			"inputs": [
				{
					"internalType": "address",
					"name": "_officer",
					"type": "address"
				}
			],
			"name": "addElectionOfficer",
			"outputs": [],
			"stateMutability": "nonpayable",
			"type": "function"
		},
		{
			"inputs": [
				{
					"internalType": "uint256",
					"name": "_candidateId",
					"type": "uint256"
				}
			],
			"name": "approveCandidate",
			"outputs": [],
			"stateMutability": "nonpayable",
			"type": "function"
		},
		{
			"inputs": [],
			"name": "campaignEndTime",
			"outputs": [
				{
					"internalType": "uint256",
					"name": "",
					"type": "uint256"
				}
			],
			"stateMutability": "view",
			"type": "function"
		},
		{
			"inputs": [],
			"name": "campaignStartTime",
			"outputs": [
				{
					"internalType": "uint256",
					"name": "",
					"type": "uint256"
				}
			],
			"stateMutability": "view",
			"type": "function"
		},
		{
			"inputs": [
				{
					"internalType": "address",
					"name": "",
					"type": "address"
				}
			],
			"name": "candidateAddressToId",
			"outputs": [
				{
					"internalType": "uint256",
					"name": "",
					"type": "uint256"
				}
			],
			"stateMutability": "view",
			"type": "function"
		},
		{
			"inputs": [],
			"name": "candidateCount",
			"outputs": [
				{
					"internalType": "uint256",
					"name": "",
					"type": "uint256"
				}
			],
			"stateMutability": "view",
			"type": "function"
		},
		{
			"inputs": [],
			"name": "candidateRegEndTime",
			"outputs": [
				{
					"internalType": "uint256",
					"name": "",
					"type": "uint256"
				}
			],
			"stateMutability": "view",
			"type": "function"
		},
		{
			"inputs": [],
			"name": "candidateRegStartTime",
			"outputs": [
				{
					"internalType": "uint256",
					"name": "",
					"type": "uint256"
				}
			],
			"stateMutability": "view",
			"type": "function"
		},
		{
			"inputs": [
				{
					"internalType": "uint256",
					"name": "",
					"type": "uint256"
				}
			],
			"name": "candidates",
			"outputs": [
				{
					"internalType": "uint256",
					"name": "id",
					"type": "uint256"
				},
				{
					"internalType": "string",
					"name": "name",
					"type": "string"
				},
				{
					"internalType": "string",
					"name": "party",
					"type": "string"
				},
				{
					"internalType": "string",
					"name": "symbol",
					"type": "string"
				},
				{
					"internalType": "string",
					"name": "manifesto",
					"type": "string"
				},
				{
					"internalType": "address",
					"name": "candidateAddress",
					"type": "address"
				},
				{
					"internalType": "uint256",
					"name": "securityDeposit",
					"type": "uint256"
				},
				{
					"internalType": "bool",
					"name": "approved",
					"type": "bool"
				},
				{
					"internalType": "uint256",
					"name": "voteCount",
					"type": "uint256"
				},
				{
					"internalType": "uint256",
					"name": "registrationTime",
					"type": "uint256"
				}
			],
			"stateMutability": "view",
			"type": "function"
		},
		{
			"inputs": [],
			"name": "castNotaVote",
			"outputs": [],
			"stateMutability": "nonpayable",
			"type": "function"
		},
		{
			"inputs": [
				{
					"internalType": "uint256",
					"name": "_candidateId",
					"type": "uint256"
				}
			],
			"name": "castVote",
			"outputs": [],
			"stateMutability": "nonpayable",
			"type": "function"
		},
		{
			"inputs": [],
			"name": "chiefElectionCommissioner",
			"outputs": [
				{
					"internalType": "address",
					"name": "",
					"type": "address"
				}
			],
			"stateMutability": "view",
			"type": "function"
		},
		{
			"inputs": [],
			"name": "constituency",
			"outputs": [
				{
					"internalType": "string",
					"name": "",
					"type": "string"
				}
			],
			"stateMutability": "view",
			"type": "function"
		},
		{
			"inputs": [],
			"name": "currentPhase",
			"outputs": [
				{
					"internalType": "enum ElectionCommission.ElectionPhase",
					"name": "",
					"type": "uint8"
				}
			],
			"stateMutability": "view",
			"type": "function"
		},
		{
			"inputs": [],
			"name": "declareResults",
			"outputs": [],
			"stateMutability": "nonpayable",
			"type": "function"
		},
		{
			"inputs": [],
			"name": "electionName",
			"outputs": [
				{
					"internalType": "string",
					"name": "",
					"type": "string"
				}
			],
			"stateMutability": "view",
			"type": "function"
		},
		{
			"inputs": [
				{
					"internalType": "address",
					"name": "",
					"type": "address"
				}
			],
			"name": "electionOfficers",
			"outputs": [
				{
					"internalType": "bool",
					"name": "",
					"type": "bool"
				}
			],
			"stateMutability": "view",
			"type": "function"
		},
		{
			"inputs": [],
			"name": "getAllCandidates",
			"outputs": [
				{
					"components": [
						{
							"internalType": "uint256",
							"name": "id",
							"type": "uint256"
						},
						{
							"internalType": "string",
							"name": "name",
							"type": "string"
						},
						{
							"internalType": "string",
							"name": "party",
							"type": "string"
						},
						{
							"internalType": "string",
							"name": "symbol",
							"type": "string"
						},
						{
							"internalType": "string",
							"name": "manifesto",
							"type": "string"
						},
						{
							"internalType": "address",
							"name": "candidateAddress",
							"type": "address"
						},
						{
							"internalType": "uint256",
							"name": "securityDeposit",
							"type": "uint256"
						},
						{
							"internalType": "bool",
							"name": "approved",
							"type": "bool"
						},
						{
							"internalType": "uint256",
							"name": "voteCount",
							"type": "uint256"
						},
						{
							"internalType": "uint256",
							"name": "registrationTime",
							"type": "uint256"
						}
					],
					"internalType": "struct ElectionCommission.Candidate[]",
					"name": "",
					"type": "tuple[]"
				}
			],
			"stateMutability": "view",
			"type": "function"
		},
		{
			"inputs": [],
			"name": "getApprovedCandidates",
			"outputs": [
				{
					"components": [
						{
							"internalType": "uint256",
							"name": "id",
							"type": "uint256"
						},
						{
							"internalType": "string",
							"name": "name",
							"type": "string"
						},
						{
							"internalType": "string",
							"name": "party",
							"type": "string"
						},
						{
							"internalType": "string",
							"name": "symbol",
							"type": "string"
						},
						{
							"internalType": "string",
							"name": "manifesto",
							"type": "string"
						},
						{
							"internalType": "address",
							"name": "candidateAddress",
							"type": "address"
						},
						{
							"internalType": "uint256",
							"name": "securityDeposit",
							"type": "uint256"
						},
						{
							"internalType": "bool",
							"name": "approved",
							"type": "bool"
						},
						{
							"internalType": "uint256",
							"name": "voteCount",
							"type": "uint256"
						},
						{
							"internalType": "uint256",
							"name": "registrationTime",
							"type": "uint256"
						}
					],
					"internalType": "struct ElectionCommission.Candidate[]",
					"name": "",
					"type": "tuple[]"
				}
			],
			"stateMutability": "view",
			"type": "function"
		},
		{
			"inputs": [
				{
					"internalType": "uint256",
					"name": "_candidateId",
					"type": "uint256"
				}
			],
			"name": "getCandidate",
			"outputs": [
				{
					"components": [
						{
							"internalType": "uint256",
							"name": "id",
							"type": "uint256"
						},
						{
							"internalType": "string",
							"name": "name",
							"type": "string"
						},
						{
							"internalType": "string",
							"name": "party",
							"type": "string"
						},
						{
							"internalType": "string",
							"name": "symbol",
							"type": "string"
						},
						{
							"internalType": "string",
							"name": "manifesto",
							"type": "string"
						},
						{
							"internalType": "address",
							"name": "candidateAddress",
							"type": "address"
						},
						{
							"internalType": "uint256",
							"name": "securityDeposit",
							"type": "uint256"
						},
						{
							"internalType": "bool",
							"name": "approved",
							"type": "bool"
						},
						{
							"internalType": "uint256",
							"name": "voteCount",
							"type": "uint256"
						},
						{
							"internalType": "uint256",
							"name": "registrationTime",
							"type": "uint256"
						}
					],
					"internalType": "struct ElectionCommission.Candidate",
					"name": "",
					"type": "tuple"
				}
			],
			"stateMutability": "view",
			"type": "function"
		},
		{
			"inputs": [],
			"name": "getElectionInfo",
			"outputs": [
				{
					"internalType": "string",
					"name": "_electionName",
					"type": "string"
				},
				{
					"internalType": "string",
					"name": "_constituency",
					"type": "string"
				},
				{
					"internalType": "enum ElectionCommission.ElectionPhase",
					"name": "_phase",
					"type": "uint8"
				},
				{
					"internalType": "uint256",
					"name": "_candidateCount",
					"type": "uint256"
				},
				{
					"internalType": "uint256",
					"name": "_voterCount",
					"type": "uint256"
				},
				{
					"internalType": "uint256",
					"name": "_totalVotes",
					"type": "uint256"
				},
				{
					"internalType": "uint256",
					"name": "_notaVotes",
					"type": "uint256"
				}
			],
			"stateMutability": "view",
			"type": "function"
		},
		{
			"inputs": [],
			"name": "getElectionStatus",
			"outputs": [
				{
					"internalType": "string",
					"name": "",
					"type": "string"
				}
			],
			"stateMutability": "view",
			"type": "function"
		},
		{
			"inputs": [],
			"name": "getResults",
			"outputs": [
				{
					"components": [
						{
							"internalType": "uint256",
							"name": "id",
							"type": "uint256"
						},
						{
							"internalType": "string",
							"name": "name",
							"type": "string"
						},
						{
							"internalType": "string",
							"name": "party",
							"type": "string"
						},
						{
							"internalType": "string",
							"name": "symbol",
							"type": "string"
						},
						{
							"internalType": "string",
							"name": "manifesto",
							"type": "string"
						},
						{
							"internalType": "address",
							"name": "candidateAddress",
							"type": "address"
						},
						{
							"internalType": "uint256",
							"name": "securityDeposit",
							"type": "uint256"
						},
						{
							"internalType": "bool",
							"name": "approved",
							"type": "bool"
						},
						{
							"internalType": "uint256",
							"name": "voteCount",
							"type": "uint256"
						},
						{
							"internalType": "uint256",
							"name": "registrationTime",
							"type": "uint256"
						}
					],
					"internalType": "struct ElectionCommission.Candidate[]",
					"name": "",
					"type": "tuple[]"
				}
			],
			"stateMutability": "view",
			"type": "function"
		},
		{
			"inputs": [
				{
					"internalType": "uint256",
					"name": "_voterId",
					"type": "uint256"
				}
			],
			"name": "getVoter",
			"outputs": [
				{
					"components": [
						{
							"internalType": "uint256",
							"name": "voterId",
							"type": "uint256"
						},
						{
							"internalType": "string",
							"name": "name",
							"type": "string"
						},
						{
							"internalType": "uint256",
							"name": "age",
							"type": "uint256"
						},
						{
							"internalType": "string",
							"name": "constituency",
							"type": "string"
						},
						{
							"internalType": "address",
							"name": "voterAddress",
							"type": "address"
						},
						{
							"internalType": "bool",
							"name": "verified",
							"type": "bool"
						},
						{
							"internalType": "bool",
							"name": "hasVoted",
							"type": "bool"
						},
						{
							"internalType": "uint256",
							"name": "votedFor",
							"type": "uint256"
						},
						{
							"internalType": "uint256",
							"name": "registrationTime",
							"type": "uint256"
						}
					],
					"internalType": "struct ElectionCommission.Voter",
					"name": "",
					"type": "tuple"
				}
			],
			"stateMutability": "view",
			"type": "function"
		},
		{
			"inputs": [],
			"name": "getVoterTurnout",
			"outputs": [
				{
					"internalType": "uint256",
					"name": "percentage",
					"type": "uint256"
				}
			],
			"stateMutability": "view",
			"type": "function"
		},
		{
			"inputs": [],
			"name": "getWinner",
			"outputs": [
				{
					"internalType": "uint256",
					"name": "winnerId",
					"type": "uint256"
				},
				{
					"internalType": "string",
					"name": "winnerName",
					"type": "string"
				},
				{
					"internalType": "uint256",
					"name": "winnerVoteCount",
					"type": "uint256"
				}
			],
			"stateMutability": "view",
			"type": "function"
		},
		{
			"inputs": [
				{
					"internalType": "address",
					"name": "_voterAddress",
					"type": "address"
				}
			],
			"name": "hasVoterVoted",
			"outputs": [
				{
					"internalType": "bool",
					"name": "",
					"type": "bool"
				}
			],
			"stateMutability": "view",
			"type": "function"
		},
		{
			"inputs": [
				{
					"internalType": "address",
					"name": "_candidateAddress",
					"type": "address"
				}
			],
			"name": "isCandidateApproved",
			"outputs": [
				{
					"internalType": "bool",
					"name": "",
					"type": "bool"
				}
			],
			"stateMutability": "view",
			"type": "function"
		},
		{
			"inputs": [
				{
					"internalType": "address",
					"name": "_voterAddress",
					"type": "address"
				}
			],
			"name": "isVoterVerified",
			"outputs": [
				{
					"internalType": "bool",
					"name": "",
					"type": "bool"
				}
			],
			"stateMutability": "view",
			"type": "function"
		},
		{
			"inputs": [],
			"name": "notaVotes",
			"outputs": [
				{
					"internalType": "uint256",
					"name": "",
					"type": "uint256"
				}
			],
			"stateMutability": "view",
			"type": "function"
		},
		{
			"inputs": [
				{
					"internalType": "string",
					"name": "_name",
					"type": "string"
				},
				{
					"internalType": "string",
					"name": "_party",
					"type": "string"
				},
				{
					"internalType": "string",
					"name": "_symbol",
					"type": "string"
				},
				{
					"internalType": "string",
					"name": "_manifesto",
					"type": "string"
				}
			],
			"name": "registerCandidate",
			"outputs": [],
			"stateMutability": "payable",
			"type": "function"
		},
		{
			"inputs": [
				{
					"internalType": "string",
					"name": "_name",
					"type": "string"
				},
				{
					"internalType": "uint256",
					"name": "_age",
					"type": "uint256"
				},
				{
					"internalType": "string",
					"name": "_constituency",
					"type": "string"
				}
			],
			"name": "registerVoter",
			"outputs": [],
			"stateMutability": "nonpayable",
			"type": "function"
		},
		{
			"inputs": [
				{
					"internalType": "uint256",
					"name": "_candidateId",
					"type": "uint256"
				}
			],
			"name": "rejectCandidate",
			"outputs": [],
			"stateMutability": "nonpayable",
			"type": "function"
		},
		{
			"inputs": [
				{
					"internalType": "uint256",
					"name": "_voterId",
					"type": "uint256"
				}
			],
			"name": "rejectVoter",
			"outputs": [],
			"stateMutability": "nonpayable",
			"type": "function"
		},
		{
			"inputs": [
				{
					"internalType": "address",
					"name": "_officer",
					"type": "address"
				}
			],
			"name": "removeElectionOfficer",
			"outputs": [],
			"stateMutability": "nonpayable",
			"type": "function"
		},
		{
			"inputs": [
				{
					"internalType": "enum ElectionCommission.ElectionPhase",
					"name": "_phase",
					"type": "uint8"
				}
			],
			"name": "setElectionPhase",
			"outputs": [],
			"stateMutability": "nonpayable",
			"type": "function"
		},
		{
			"inputs": [
				{
					"internalType": "uint256",
					"name": "_candidateRegStart",
					"type": "uint256"
				},
				{
					"internalType": "uint256",
					"name": "_candidateRegEnd",
					"type": "uint256"
				},
				{
					"internalType": "uint256",
					"name": "_voterRegStart",
					"type": "uint256"
				},
				{
					"internalType": "uint256",
					"name": "_voterRegEnd",
					"type": "uint256"
				},
				{
					"internalType": "uint256",
					"name": "_campaignStart",
					"type": "uint256"
				},
				{
					"internalType": "uint256",
					"name": "_campaignEnd",
					"type": "uint256"
				},
				{
					"internalType": "uint256",
					"name": "_votingStart",
					"type": "uint256"
				},
				{
					"internalType": "uint256",
					"name": "_votingEnd",
					"type": "uint256"
				}
			],
			"name": "setPhaseTimestamps",
			"outputs": [],
			"stateMutability": "nonpayable",
			"type": "function"
		},
		{
			"inputs": [],
			"name": "totalVotes",
			"outputs": [
				{
					"internalType": "uint256",
					"name": "",
					"type": "uint256"
				}
			],
			"stateMutability": "view",
			"type": "function"
		},
		{
			"inputs": [
				{
					"internalType": "string",
					"name": "_newManifesto",
					"type": "string"
				}
			],
			"name": "updateManifesto",
			"outputs": [],
			"stateMutability": "nonpayable",
			"type": "function"
		},
		{
			"inputs": [
				{
					"internalType": "uint256",
					"name": "_voterId",
					"type": "uint256"
				}
			],
			"name": "verifyVoter",
			"outputs": [],
			"stateMutability": "nonpayable",
			"type": "function"
		},
		{
			"inputs": [
				{
					"internalType": "address",
					"name": "",
					"type": "address"
				}
			],
			"name": "voterAddressToId",
			"outputs": [
				{
					"internalType": "uint256",
					"name": "",
					"type": "uint256"
				}
			],
			"stateMutability": "view",
			"type": "function"
		},
		{
			"inputs": [],
			"name": "voterCount",
			"outputs": [
				{
					"internalType": "uint256",
					"name": "",
					"type": "uint256"
				}
			],
			"stateMutability": "view",
			"type": "function"
		},
		{
			"inputs": [],
			"name": "voterRegEndTime",
			"outputs": [
				{
					"internalType": "uint256",
					"name": "",
					"type": "uint256"
				}
			],
			"stateMutability": "view",
			"type": "function"
		},
		{
			"inputs": [],
			"name": "voterRegStartTime",
			"outputs": [
				{
					"internalType": "uint256",
					"name": "",
					"type": "uint256"
				}
			],
			"stateMutability": "view",
			"type": "function"
		},
		{
			"inputs": [
				{
					"internalType": "uint256",
					"name": "",
					"type": "uint256"
				}
			],
			"name": "voters",
			"outputs": [
				{
					"internalType": "uint256",
					"name": "voterId",
					"type": "uint256"
				},
				{
					"internalType": "string",
					"name": "name",
					"type": "string"
				},
				{
					"internalType": "uint256",
					"name": "age",
					"type": "uint256"
				},
				{
					"internalType": "string",
					"name": "constituency",
					"type": "string"
				},
				{
					"internalType": "address",
					"name": "voterAddress",
					"type": "address"
				},
				{
					"internalType": "bool",
					"name": "verified",
					"type": "bool"
				},
				{
					"internalType": "bool",
					"name": "hasVoted",
					"type": "bool"
				},
				{
					"internalType": "uint256",
					"name": "votedFor",
					"type": "uint256"
				},
				{
					"internalType": "uint256",
					"name": "registrationTime",
					"type": "uint256"
				}
			],
			"stateMutability": "view",
			"type": "function"
		},
		{
			"inputs": [],
			"name": "votingEndTime",
			"outputs": [
				{
					"internalType": "uint256",
					"name": "",
					"type": "uint256"
				}
			],
			"stateMutability": "view",
			"type": "function"
		},
		{
			"inputs": [],
			"name": "votingStartTime",
			"outputs": [
				{
					"internalType": "uint256",
					"name": "",
					"type": "uint256"
				}
			],
			"stateMutability": "view",
			"type": "function"
		},
		{
			"inputs": [],
			"name": "withdrawSecurityDeposits",
			"outputs": [],
			"stateMutability": "nonpayable",
			"type": "function"
		},
		{
			"stateMutability": "payable",
			"type": "receive"
		}
	]
}