{
	"data": {
		"bytecode": {
			"linkReferences": {},
			"object": "6080604052348015600e575f5ffd5b506103988061001c5f395ff3fe608060405234801561000f575f5ffd5b5060043610610029575f3560e01c8063427034941461002d575b5f5ffd5b61004760048036038101906100429190610195565b61005d565b6040516100549190610230565b60405180910390f35b6060600182116100a4576040518060400160405280601381526020017f4e756d626572206973206e6f74207072696d65000000000000000000000000008152509050610159565b5f600290505b8281826100b7919061027d565b1161011f575f81846100c991906102eb565b0361010c576040518060400160405280601381526020017f4e756d626572206973206e6f74207072696d6500000000000000000000000000815250915050610159565b80806101179061031b565b9150506100aa565b506040518060400160405280600f81526020017f4e756d626572206973207072696d65000000000000000000000000000000000081525090505b919050565b5f5ffd5b5f819050919050565b61017481610162565b811461017e575f5ffd5b50565b5f8135905061018f8161016b565b92915050565b5f602082840312156101aa576101a961015e565b5b5f6101b784828501610181565b91505092915050565b5f81519050919050565b5f82825260208201905092915050565b8281835e5f83830152505050565b5f601f19601f8301169050919050565b5f610202826101c0565b61020c81856101ca565b935061021c8185602086016101da565b610225816101e8565b840191505092915050565b5f6020820190508181035f83015261024881846101f8565b905092915050565b7f4e487b71000000000000000000000000000000000000000000000000000000005f52601160045260245ffd5b5f61028782610162565b915061029283610162565b92508282026102a081610162565b915082820484148315176102b7576102b6610250565b5b5092915050565b7f4e487b71000000000000000000000000000000000000000000000000000000005f52601260045260245ffd5b5f6102f582610162565b915061030083610162565b9250826103105761030f6102be565b5b828206905092915050565b5f61032582610162565b91507fffffffffffffffffffffffffffffffffffffffffffffffffffffffffffffffff820361035757610356610250565b5b60018201905091905056fea26469706673582212201810d79de664c8ddb4d84e74502aba9df7ac5765b7e94039c98315be9f5a352564736f6c634300081e0033",
			"opcodes": "PUSH1 0x80 PUSH1 0x40 MSTORE CALLVALUE DUP1 ISZERO PUSH1 0xE JUMPI PUSH0 PUSH0 REVERT JUMPDEST POP PUSH2 0x398 DUP1 PUSH2 0x1C PUSH0 CODECOPY PUSH0 RETURN INVALID PUSH1 0x80 PUSH1 0x40 MSTORE CALLVALUE DUP1 ISZERO PUSH2 0xF JUMPI PUSH0 PUSH0 REVERT JUMPDEST POP PUSH1 0x4 CALLDATASIZE LT PUSH2 0x29 JUMPI PUSH0 CALLDATALOAD PUSH1 0xE0 SHR DUP1 PUSH4 0x42703494 EQ PUSH2 0x2D JUMPI JUMPDEST PUSH0 PUSH0 REVERT JUMPDEST PUSH2 0x47 PUSH1 0x4 DUP1 CALLDATASIZE SUB DUP2 ADD SWAP1 PUSH2 0x42 SWAP2 SWAP1 PUSH2 0x195 JUMP JUMPDEST PUSH2 0x5D JUMP JUMPDEST PUSH1 0x40 MLOAD PUSH2 0x54 SWAP2 SWAP1 PUSH2 0x230 JUMP JUMPDEST PUSH1 0x40 MLOAD DUP1 SWAP2 SUB SWAP1 RETURN JUMPDEST PUSH1 0x60 PUSH1 0x1 DUP3 GT PUSH2 0xA4 JUMPI PUSH1 0x40 MLOAD DUP1 PUSH1 0x40 ADD PUSH1 0x40 MSTORE DUP1 PUSH1 0x13 DUP2 MSTORE PUSH1 0x20 ADD PUSH32 0x4E756D626572206973206E6F74207072696D6500000000000000000000000000 DUP2 MSTORE POP SWAP1 POP PUSH2 0x159 JUMP JUMPDEST PUSH0 PUSH1 0x2 SWAP1 POP JUMPDEST DUP3 DUP2 DUP3 PUSH2 0xB7 SWAP2 SWAP1 PUSH2 0x27D JUMP JUMPDEST GT PUSH2 0x11F JUMPI PUSH0 DUP2 DUP5 PUSH2 0xC9 SWAP2 SWAP1 PUSH2 0x2EB JUMP JUMPDEST SUB PUSH2 0x10C JUMPI PUSH1 0x40 MLOAD DUP1 PUSH1 0x40 ADD PUSH1 0x40 MSTORE DUP1 PUSH1 0x13 DUP2 MSTORE PUSH1 0x20 ADD PUSH32 0x4E756D626572206973206E6F74207072696D6500000000000000000000000000 DUP2 MSTORE POP SWAP2 POP POP PUSH2 0x159 JUMP JUMPDEST DUP1 DUP1 PUSH2 0x117 SWAP1 PUSH2 0x31B JUMP JUMPDEST SWAP2 POP POP PUSH2 0xAA JUMP JUMPDEST POP PUSH1 0x40 MLOAD DUP1 PUSH1 0x40 ADD PUSH1 0x40 MSTORE DUP1 PUSH1 0xF DUP2 MSTORE PUSH1 0x20 ADD PUSH32 0x4E756D626572206973207072696D650000000000000000000000000000000000 DUP2 MSTORE POP SWAP1 POP JUMPDEST SWAP2 SWAP1 POP JUMP JUMPDEST PUSH0 PUSH0 REVERT JUMPDEST PUSH0 DUP2 SWAP1 POP SWAP2 SWAP1 POP JUMP JUMPDEST PUSH2 0x174 DUP2 PUSH2 0x162 JUMP JUMPDEST DUP2 EQ PUSH2 0x17E JUMPI PUSH0 PUSH0 REVERT JUMPDEST POP JUMP JUMPDEST PUSH0 DUP2 CALLDATALOAD SWAP1 POP PUSH2 0x18F DUP2 PUSH2 0x16B JUMP JUMPDEST SWAP3 SWAP2 POP POP JUMP JUMPDEST PUSH0 PUSH1 0x20 DUP3 DUP5 SUB SLT ISZERO PUSH2 0x1AA JUMPI PUSH2 0x1A9 PUSH2 0x15E JUMP JUMPDEST JUMPDEST PUSH0 PUSH2 0x1B7 DUP5 DUP3 DUP6 ADD PUSH2 0x181 JUMP JUMPDEST SWAP2 POP POP SWAP3 SWAP2 POP POP JUMP JUMPDEST PUSH0 DUP2 MLOAD SWAP1 POP SWAP2 SWAP1 POP JUMP JUMPDEST PUSH0 DUP3 DUP3 MSTORE PUSH1 0x20 DUP3 ADD SWAP1 POP SWAP3 SWAP2 POP POP JUMP JUMPDEST DUP3 DUP2 DUP4 MCOPY PUSH0 DUP4 DUP4 ADD MSTORE POP POP POP JUMP JUMPDEST PUSH0 PUSH1 0x1F NOT PUSH1 0x1F DUP4 ADD AND SWAP1 POP SWAP2 SWAP1 POP JUMP JUMPDEST PUSH0 PUSH2 0x202 DUP3 PUSH2 0x1C0 JUMP JUMPDEST PUSH2 0x20C DUP2 DUP6 PUSH2 0x1CA JUMP JUMPDEST SWAP4 POP PUSH2 0x21C DUP2 DUP6 PUSH1 0x20 DUP7 ADD PUSH2 0x1DA JUMP JUMPDEST PUSH2 0x225 DUP2 PUSH2 0x1E8 JUMP JUMPDEST DUP5 ADD SWAP2 POP POP SWAP3 SWAP2 POP POP JUMP JUMPDEST PUSH0 PUSH1 0x20 DUP3 ADD SWAP1 POP DUP2 DUP2 SUB PUSH0 DUP4 ADD MSTORE PUSH2 0x248 DUP2 DUP5 PUSH2 0x1F8 JUMP JUMPDEST SWAP1 POP SWAP3 SWAP2 POP POP JUMP JUMPDEST PUSH32 0x4E487B7100000000000000000000000000000000000000000000000000000000 PUSH0 MSTORE PUSH1 0x11 PUSH1 0x4 MSTORE PUSH1 0x24 PUSH0 REVERT JUMPDEST PUSH0 PUSH2 0x287 DUP3 PUSH2 0x162 JUMP JUMPDEST SWAP2 POP PUSH2 0x292 DUP4 PUSH2 0x162 JUMP JUMPDEST SWAP3 POP DUP3 DUP3 MUL PUSH2 0x2A0 DUP2 PUSH2 0x162 JUMP JUMPDEST SWAP2 POP DUP3 DUP3 DIV DUP5 EQ DUP4 ISZERO OR PUSH2 0x2B7 JUMPI PUSH2 0x2B6 PUSH2 0x250 JUMP JUMPDEST JUMPDEST POP SWAP3 SWAP2 POP POP JUMP JUMPDEST PUSH32 0x4E487B7100000000000000000000000000000000000000000000000000000000 PUSH0 MSTORE PUSH1 0x12 PUSH1 0x4 MSTORE PUSH1 0x24 PUSH0 REVERT JUMPDEST PUSH0 PUSH2 0x2F5 DUP3 PUSH2 0x162 JUMP JUMPDEST SWAP2 POP PUSH2 0x300 DUP4 PUSH2 0x162 JUMP JUMPDEST SWAP3 POP DUP3 PUSH2 0x310 JUMPI PUSH2 0x30F PUSH2 0x2BE JUMP JUMPDEST JUMPDEST DUP3 DUP3 MOD SWAP1 POP SWAP3 SWAP2 POP POP JUMP JUMPDEST PUSH0 PUSH2 0x325 DUP3 PUSH2 0x162 JUMP JUMPDEST SWAP2 POP PUSH32 0xFFFFFFFFFFFFFFFFFFFFFFFFFFFFFFFFFFFFFFFFFFFFFFFFFFFFFFFFFFFFFFFF DUP3 SUB PUSH2 0x357 JUMPI PUSH2 0x356 PUSH2 0x250 JUMP JUMPDEST JUMPDEST PUSH1 0x1 DUP3 ADD SWAP1 POP SWAP2 SWAP1 POP JUMP INVALID LOG2 PUSH5 0x6970667358 0x22 SLT KECCAK256 XOR LT 0xD7 SWAP14 DUPN 0x64 0xC8 0xDD 0xB4 0xD8 0x4E PUSH21 0x502ABA9DF7AC5765B7E94039C98315BE9F5A352564 PUSH20 0x6F6C634300081E00330000000000000000000000 "
		},
		"gasEstimates": {
			"creation": {
				"codeDepositCost": "184000",
				"executionCost": "224",
				"totalCost": "184224"
			},
			"external": {
				"isPrime(uint256)": "infinite"
			}
		},
		"methodIdentifiers": {
			"isPrime(uint256)": "42703494"
		}
	},
	"abi": [
		{
			"inputs": [
				{
					"internalType": "uint256",
					"name": "number",
					"type": "uint256"
				}
			],
			"name": "isPrime",
			"outputs": [
				{
					"internalType": "string",
					"name": "",
					"type": "string"
				}
			],
			"stateMutability": "pure",
			"type": "function"
		}
	]
}